:020000040800F2
:10000000B00B0020A90100088F2800086526000811
:100010008D28000899070008F13000080000000052
:10002000000000000000000000000000072A000897
:10003000D307000800000000052A0008352A000840
:10004000C3010008C3010008C3010008C301000880
:10005000C3010008C3010008C3010008C301000870
:10006000C3010008C3010008C3010008C301000860
:10007000C3010008C3010008C30100089D07000870
:10008000C3010008C3010008C3010008C301000840
:10009000C3010008C3010008C3010008C301000830
:1000A000C3010008C3010008C3010008C301000820
:1000B000C3010008B52A000800000000C3010008C1
:1000C000C30100080000000000000000C301000898
:1000D00000000000E5300008C30100080000000037
:1000E000C3010008C3010008C301000800F002F8C2
:1000F00000F04AF80AA090E8000C82448344AAF178
:100100000107DA4501D100F03FF8AFF2090EBAE875
:100110000F0013F0010F18BFFB1A43F0010318473B
:10012000D8310000F83100000A4410F8014B14F0F7
:100130000F0508BF10F8015B240908BF10F8014B38
:100140006D1E05D010F8013B6D1E01F8013BF9D181
:10015000641E03D0641E01F8015BFBD19142E4D31D
:10016000704700000023002400250026103A28BF15
:1001700078C1FBD8520728BF30C148BF0B60704719
:100180001FB51FBD10B510BD00F0CFF81146FFF729
:10019000F7FF02F0BFFF00F0EDF803B4FFF7F2FF46
:1001A00003BC00F0F5F80000094880470948004703
:1001B000FEE7FEE7FEE7FEE7FEE7FEE7FEE7FEE717
:1001C000FEE7FEE704480549054A064B7047000074
:1001D000B12A0008ED000008B0050020B00B002097
:1001E000B0070020B0070020032A40F2308010F052
:1001F000030C00F0158011F8013BBCF1020F6244C2
:1002000098BF11F801CB00F8013B38BF11F8013B52
:10021000A2F1040298BF00F801CB38BF00F8013BFF
:1002200011F0030300F02580083AC0F0088051F86F
:10023000043B083A51F804CBA0E80810F5E7121D7A
:100240005CBF51F8043B40F8043BAFF30080D20799
:1002500024BF11F8013B11F801CB48BF11F8012B65
:1002600024BF00F8013B00F801CB48BF00F8012B88
:10027000704710B5203AC0F00B80B1E81850203A12
:10028000A0E81850B1E81850A0E81850BFF4F5AF36
:100290005FEA027C24BFB1E81850A0E8185044BFC0
:1002A00018C918C0BDE810405FEA827C24BF51F82D
:1002B000043B40F8043B08BF7047D20728BF31F821
:1002C000023B48BF11F8012B28BF20F8023B48BF72
:1002D00000F8012B70474FF0000200B5134694461A
:1002E0009646203922BFA0E80C50A0E80C50B1F18E
:1002F0002001BFF4F7AF090728BFA0E80C5048BFA2
:100300000CC05DF804EB890028BF40F8042B08BF3F
:10031000704748BF20F8022B11F0804F18BF00F83B
:10032000012B7047704770477047754600F02CF8F6
:10033000AE4605006946534620F00700854618B0D2
:1003400020B5FFF73FFFBDE820404FF000064FF01B
:1003500000074FF000084FF0000B21F00701AC46FA
:10036000ACE8C009ACE8C009ACE8C009ACE8C00919
:100370008D46704710B50446AFF300802046BDE8B7
:100380001040FFF70ABF0000004870474C050020EE
:1003900001491820ABBEFEE72600020070470000AE
:1003A00070B5044600688168C943C90717D18168E0
:1003B00021F00101816001F075F805460AE000BFF7
:1003C00001F070F8401B022804D920688068C043FF
:1003D000C00706D020688068C043C007F0D0002066
:1003E00070BDA06A40F01000A062E06A40F0010019
:1003F000E062012070BD0000F8B5002604460096BA
:1004000000688168C943C9072DD0816841F00101A6
:100410008160164816490068B0FBF1F000E0401E0C
:1004200000900028FBD101F03DF8054616E000BF22
:1004300001F038F8401B022810D920688068C043BA
:10044000C0070BD0A06A40F01000A062E06A40F044
:100450000100E06284F824600120F8BD2068806813
:10046000C043C007E4D10020F8BD000038010020DF
:1004700040420F00134808B5416821F4404141F45F
:10048000004141601048016841F400010160012011
:1004900000F00CFF0D4800F0B9FA6946112000F099
:1004A00057F89DF8001000290AD0002808D0084904
:1004B00040F6E44209885143B1FBF0F00549086079
:1004C00008BD00000010024008240140480400203C
:1004D000BAF7FF1F000000202DE9F84F00248146E5
:1004E0002546501E16468A4664F30705202804D385
:1004F000C9F80040C9F8044023E04FF0000847461F
:100500000AE06946504600F023F89DF800100029E3
:10051000EED07F1C8044FFB2B742F2D308EB560006
:10052000B0FBF6F0094980B260F31F440968484304
:1005300040F6FF71B0FBF1F0C9E90040012161F321
:100540000705C9F80850BDE8F88F0000000000203A
:10055000FEB50C004FF0000100910191029100D016
:1005600021700125CDE900050720029069460E485B
:1005700000F0B8FA08B10020FEBD0B4800F09CFC6A
:100580000A21094800F0FAFB0028074802D000F0D1
:10059000F3FCF0E700F024FB86B2034800F0ECFC2B
:1005A00004B125703046FEBD4804002008B1012288
:1005B00000E000221021014800F06FBF000C014054
:1005C00008B1012200E000222021014800F065BFAF
:1005D0000008014010B50120FFF7F2FF0020FFF7EF
:1005E000E5FFBDE8104000F06FB80000074A0128A1
:1005F00003D0022804D0002070474FF4007101E0BE
:100600004FF48061104600F043BF0000000C014031
:1006100070B5002938D0002A36D01D4B1C78002C2C
:1006200032D11C4CB4FBF2F47CB3B4F5803F01D35F
:100630004FF6FF745960002199600121197000B1D3
:100640000120FFF7B3FF144D601E80B22968C86215
:10065000E8602968C4F34F0088630121284601F04F
:1006600039FB29686FF0010008610020FFF7A8FF3F
:100670000A49202008600421284601F0C5FC0848EA
:10068000016841F00101016070BDFFE70124D1E77D
:10069000040000200048E80178040020140801400C
:1006A0000C04004010B50421054801F00DFD0120A7
:1006B000FFF786FF0348002101704160816010BD93
:1006C000780400200400002000224FF4005101486B
:1006D00000F0E3BE0010014070B5D0F8041100290D
:1006E0003ED0C96B00293BD009684968B0F8103189
:1006F0008AB2934201D3991A03E0B0F80C11891A17
:10070000194400292CDDB0F80C418C4200D221465E
:10071000E31AB0F80E4189B26343DC1703EBD454FB
:100720006FF308041B1B9BB215E000BFB0F800413B
:10073000B0F80251641CE4B2A54207D0D0F80851C9
:10074000B0F80061ED5C8555A0F80041B0F80E41AD
:100750002344C3F30803491E89B2E7D2A0F810214D
:1007600070BD000010B5094802F090FA4FF4007215
:100770000749084801F0E4FE0648C06B002804D091
:10078000006840680149A1F8100110BD1000002068
:100790003C010020C0040020FEE70000014800F0FA
:1007A00075BC00000805002030B590F840500124C9
:1007B000AC40C56B6C60046863604368102B0368D1
:1007C00003D099600068C26030BD9A600068C16063
:1007D00030BD704730B50024FF23213887B008288A
:1007E0000DD2DFE800F0041219314152847F4648EF
:1007F00001680906FCD544495020091D0860012202
:100800008DF80040694621205FE040A00322006887
:1008100000906946222058E0042A04D30A784878D8
:10082000498849BA22B18DF800300122694609E0B1
:100830000029F8D04FF4FA62FFF7EAFE8DF8044081
:10084000012201A9232040E00AB1087820B18DF8E7
:100850000430012201A905E0FFF724FF8DF80040D4
:1008600001226946242030E04AB10878FFF7BEFE35
:1008700000948DF8010002226946252025E024A07D
:100880000222006801A90190F7E70822002411461E
:100890006846FFF721FE0822092103A8FFF71CFE86
:1008A0009DF80800A8B19DF8140090B10120FFF751
:1008B0009DFE0220FFF79AFE5FF000008DF8180001
:1008C0008DF81940022206A9262002F09DF807B0F3
:1008D00030BD01242046FFF789FE0220FFF786FE87
:1008E000FF20EBE707B0BDE8304001F08BBEBFF35F
:1008F0004F8F08480168084A01F4E0611143016024
:10090000BFF34F8F00BFFDE700380140000100003A
:10091000FF0000000CED00E00400FA0572B6FEE7EF
:1009200070B50446A520049D20705B206070A17006
:10093000100AE0702271280A6071A57125B12A465B
:100940001946E01DFFF750FCED1DADB229462046CB
:1009500000F007F8010A61556119AD1C4870A8B292
:1009600070BD70B505464FF6FF7000224AF20104D3
:100970000EE0AB5C58400023C60702D084EA50006A
:1009800000E040085B1CDBB2082BF5D3521C92B28E
:100990008A42EED370BD2DE9F0471E46DDE9089886
:1009A00017460446092918D32078A52815D1607860
:1009B0005B2812D1B4F8050045BA05F1090081425F
:1009C0000BD1E81D81B22046FFF7CBFF014660192D
:1009D000B0F8070040BA814202D00020BDE8F0879D
:1009E0000FB1A07838701EB1B4F8030040BA30805F
:1009F000B9F1000003D02A46E11DFFF7F5FBB8F17D
:100A0000000F01D0A8F800500120E7E7F8B5002555
:100A10000446009590F8240001280BD0012084F8AA
:100A200024002046FFF7BCFC2046FFF7E5FC06004B
:100A300002D050E00220F8BDA06A20F4885040F0B7
:100A40000200A062022000F0CBFD25490968B1FB3D
:100A5000F0F0400000E0401E00900028FBD120682C
:100A6000816841F00801816000F01CFD074608E044
:100A700000F018FDC01B0A2803D920688068000711
:100A800015D4206880680007F2D42068816841F09E
:100A90000401816000F006FD074612E000F002FD4F
:100AA000C01B0A280DD920688068400709D5A06AB4
:100AB00020F0020040F01000A06284F824500120D1
:100AC000F8BD206880684007E8D4A06A20F00200E2
:100AD00040F00100A06284F824503046F8BD0000C8
:100AE00038010020F8B50024009490F82420254611
:100AF000012A12D0012280F824204A681F23072AE5
:100B00000DD20668776B521E02EB820293409F4320
:100B10000B6893401F43776319E00220F8BD066815
:100B20000D2A0AD2376BD21F02EB820293409F43F9
:100B30000B6893401F43376309E0F76A0D3A02EBF5
:100B4000820293409F430B6893401F43F7620A68F9
:100B5000072306680A2A0AD3F7680A3A02EB420218
:100B600093409F438B6893401F43F76008E03769C9
:100B700002EB420293409F438B6893401F433761CF
:100B80000A68102A01D0112A20D1124B02689A4219
:100B900017D193681B0219D4936843F40003936040
:100BA0000968102912D10C490C4A0968B1FBF2F10D
:100BB00001EB8101490000E0491E00910029FBD1B1
:100BC00004E0816A41F020018162012480F8245010
:100BD0002046F8BD002401403801002040420F00AB
:100BE0000068C06C704700002DE9F0414FF000072D
:100BF00004003D467ED0A06A002628B9E66284F84B
:100C00002460204600F07EF82046FFF7C9FBA16A69
:100C1000C90600D420B1A06A40F01000A06269E0CB
:100C2000A16A21F4885141F00201A1626268E16980
:100C3000237B0A4347EA43010A43A1684FF48077C4
:100C4000B94209D0012907D05FF0000194F814C01F
:100C5000BCF1010F02D00AE03946F7E7F3B1A36A0D
:100C600043F02003A362E36A43F00103E3622368D5
:100C7000D3F804C02CF4694C4CEA010CC3F804C04E
:100C800021688B68DFF870C003EA0C0313438B60A4
:100C9000A168B9420BD0012909D00CE0DFF85CC093
:100CA000A3690CEB43330B4343F40061DFE7218A74
:100CB0000D05A5F580152168CB6A23F470032B433D
:100CC000CB62216889680E4B1940914208D1E662D7
:100CD000A16A21F0020141F00101A162BDE8F081A9
:100CE000A06A20F0020040F01000A062E06A40F02C
:100CF0000100E0620120F1E7FDF7E1FF00E0FFFF06
:100D0000FE0E1FFF10B586B00021009101910291E7
:100D1000039100681549884225D11548816941F43D
:100D200000718161816901F400710491816941F070
:100D300004018161816901F004010491816941F03C
:100D4000080181618069032400F008000490009488
:100D500069460194074800F0BBFA009469460648CA
:100D6000019400F0B5FA06B010BD00000024014067
:100D70000010024000080140000C01402DE9F8433A
:100D800000270D460446009700F08CFB8046206843
:100D90008168C90508D5A06A40F02000A06284F8E7
:100DA00024700120BDE8F8834168C90503D4C06AF6
:100DB00010F4700F2AD0022000F012FC3B490968A1
:100DC000B1FBF0F62068036939490B424FEA610133
:100DD0004FEAA1121FD1C3684FEA611C13EA0C0F3E
:100DE00019D103690B4225D1C068104222D11420C9
:100DF00023E0681C0AD02DB100F054FBA0EB0800E2
:100E0000A84203D920680068800725D520680068BB
:100E10008007EED52DE003690B4202D1C168114273
:100E200006D0026923490A4206D1C068084203D1AC
:100E3000542002E0292000E0FC204643009816E000
:100E4000681C11D02DB100F02DFBA0EB0800A842CA
:100E50000AD90098B04207D2A06A40F00400A0620C
:100E600084F8247003209DE70098401C0090B04255
:100E7000E6D321686FF012000860A06A40F40070A9
:100E8000A06220688068C0F3424007280CD1207B14
:100E900050B9A06A20F48070A062A06AC00403D494
:100EA000A06A40F00100A06200207BE7380100202A
:100EB000244992244992240070B5044690F82400F5
:100EC00001280DD0012084F824002046FFF794FA71
:100ED00002004FF0000005D084F82400104670BDD9
:100EE000022070BDA16A40F20123994341F4807150
:100EF000A1621F4D23681F49AB4218D10E6816F43A
:100F0000702F14D0A66A46F48016A6620E68760585
:100F100005D5A66A26F4005646F48056A662A66A4F
:100F2000F6040AD5E66A26F00606E66206E0A66A38
:100F300026F48016A6625E68E9E7E06284F8240081
:100F40006FF00200186020688368C3F34243072BE8
:100F500005D1A84208D1096811F4702F04D0816826
:100F600041F480118160B9E7816841F4A001F9E79B
:100F7000002801400424014010B5044690F82400E4
:100F8000012807D0012084F824002046FFF708FA42
:100F900010B107E0022010BDA16A21F4885141F090
:100FA0000101A162002184F8241010BD10B590F851
:100FB00021100022022905D00421816380F820201D
:100FC000012010BD01680B6823F00E030B6001685F
:100FD0000B6823F001030B6090F84030C46B0121D3
:100FE00001FA03F3636080F8211080F82020104696
:100FF00010BD000010B590F821100024022903D084
:101000000421816301243DE001680A6822F00E0298
:101010000A6001680A6822F001020A601A4A01683F
:10102000914201D1012121E0174A1432914201D1AC
:1010300010211BE0144A2832914201D1891515E094
:10104000114A3C32914201D189140FE00E4A5032CC
:10105000914202D14FF4803108E00B4A6432914250
:1010600002D14FF4801101E04FF08071064A083A36
:101070005160012180F82110002180F82010416B7F
:1010800001B18847204610BD080002402DE9F05FFD
:10109000C16B0C6801680B68D0F840C0042202FAEA
:1010A0000CF2494DDFF824A1494E4A4FDFF828B130
:1010B000DFF828E122422CD05A072AD50A68920686
:1010C00003D40A6822F004020A600168A94201D12F
:1010D000042219E0514501D1402215E0B14202D16C
:1010E0004FF4806210E0B94202D14FF480420BE02D
:1010F000594502D14FF4802206E0714502D14FF4E8
:10110000800201E04FF080622F4908394A60C16ACD
:101110003BE04FF0020808FA0CF818EA040F4FF011
:1011200000094FF0010235D05FEA837832D50B68B1
:101130009B0605D40B6823F00A030B6080F821207E
:101140000168A94201D1022219E0514501D12022B2
:1011500015E0B14202D14FF4007210E0B94202D161
:101160004FF400520BE0594502D14FF4003206E033
:10117000714502D14FF4001201E04FF000721249A4
:1011800008394A6080F82090816A00291AD0BDE8A9
:10119000F05F0847082505FA0CF5254212D01B0719
:1011A00010D50B6823F00E030B6090F84010C36B52
:1011B00002FA01F15960826380F8212080F82090C2
:1011C000016BE2E7BDE8F09F080002401C0002400E
:1011D0003000024044000240580002406C000240CF
:1011E00030B528B308C8134914221944B1FBF2F1F1
:1011F0008900C16310498163022141771A6843F66F
:10120000F0718A43D0E900142143D0E902452C4310
:1012100021430469214344692143846921431143E3
:10122000196000214163012242770177084630BDF1
:10123000012030BDF8FFFDBF0000024070B504463C
:1012400090F82000002501280CD0012084F820000F
:1012500094F821600020012E06D084F82000022599
:10126000284670BD022070BD022684F82160A0636C
:101270002068066826F0010606602046FFF794FA0B
:10128000E06A00282068016802D041F00E0106E003
:1012900021F0040101602068016841F00A01016049
:1012A0002068016841F001010160D9E770B504468A
:1012B00000F0F8F80546601C02D0044800780444A9
:1012C00000F0F0F8401BA042FAD370BD2C010020C2
:1012D0002DE9F84FDFF89C910024A9F1040B234677
:1012E0000F2709F1040AABF1040EBBE00125A5406C
:1012F0002A40AA4276D1DFF880C14E68A6EB0C08DE
:1013000066452BD00DDC032E34D005DC36B3012E20
:1013100019D0022E2FD11BE0112E16D0122E2AD159
:1013200019E0B8F5881F19D006DCB8F5803F15D054
:10133000B8F5801F1FD111E0B8F5001F0ED0B8F529
:10134000041F18D10AE0CB6815E0CB681B1D12E022
:10135000CB6808330FE0CB680C330CE08B682BB103
:10136000012B4FF0080303D0456104E0042302E0A1
:10137000056100E00023FF2A01D8064601E000F1E4
:1013800004064FEA840501D9A5F12005D6F80080AE
:1013900007FA05FC28EA0C0803FA05F548EA0508EF
:1013A000C6F800804D68ED005BD5344DAE6946F05F
:1013B0000106AE61AD6924F0030605F00105009554
:1013C0002F4D06EB050CDCF80850A607360F07FA80
:1013D00006F825EA0805DFF8AC80404503D14FF058
:1013E000000810E03DE0DFF8A080404502D14FF05A
:1013F000010808E0DFF89480404502D14FF0020870
:1014000001E04FF0030808FA06F848EA0508CCF8AE
:1014100008804D68D9F80060ED024D4601D51643AD
:1014200000E096432E604D68DAF80060AD02554644
:1014300001D5164300E096432E604D68DBF800604E
:10144000AD035D4601D5164300E096432E604D681E
:10145000DEF80060ED03754601D5164300E09643C3
:101460002E60641C0A6832FA04F57FF43FAFBDE8D1
:10147000F88F000008040140000011100010024025
:101480000000014000080140000C01400010014034
:101490008068084000D0012070470AB101617047A0
:1014A0000904FBE701488068704700002C01002018
:1014B0000248816802781144816070472C01002045
:1014C000074810B5016841F010010160032000F0E9
:1014D00075F80F2000F006F800F024F8002010BD89
:1014E0000020024070B50D4D04464FF47A71287803
:1014F000B1FBF0F00A490968B1FBF0F000F0A4FB81
:1015000048B9102C07D200222146501E00F036F8B0
:1015100000206C6070BD012070BD00002C01002017
:10152000380100200C4808B5816941F00101816152
:10153000816901F001010091C16941F08051C161EF
:10154000C06900F0805000900448416821F0E061DB
:1015500041F00071416008BD0010024000000140F0
:10156000002809DB00F01F020121914040098000A2
:1015700000F1E020C0F8001170470000F0B40E4BFD
:101580001B680C46C3F30223C3F10705042D00D9E1
:101590000425191D072901D2002300E0DB1E0126C6
:1015A00006FA05F1491E214099409E40761E1640DC
:1015B0003143F0BC01F09DBD0CED00E0064900F0A8
:1015C000070208684FF6FF03184040EA0220034A6A
:1015D00010430860704700000CED00E00000FA05C1
:1015E00010B501460020234C012922D0022939D010
:1015F00010291DD161682268D20119D51E48C1F396
:101600008342C903805C0AD561681B4AC1F340412B
:10161000921E515C194AB2FBF1F1484301E01849AE
:1016200048436168490203D440000321B0FBF1F054
:1016300010BD226AC2F30121012903D1920701D50D
:10164000C80310BD022905D1626A920702D549F686
:10165000404010BD0329FCD121688903F9D54FF220
:10166000244010BD00F02AF96168C1F38131491CA2
:101670004900DBE700100240D032000800127A0077
:1016800000093D002DE9F84305460078354CC007B8
:1016900054D0E0690026C00008D4E06940F08050D2
:1016A000E061E069012600F0805000902E4801685A
:1016B000C90512D40168804641F480710160FFF7CA
:1016C000F1FE074605E000BFFFF7ECFEC01B6428F3
:1016D00023D8D8F80000C005F6D5206A10F4407071
:1016E00021D0A98801F4407181421CD0206A1F4991
:1016F000012220F440700A6000220A602062C007C4
:1017000011D0FFF7CFFE074641F2883808E000BF4E
:10171000FFF7C8FEC11B414502D90320BDE8F8838D
:10172000206A8007F4D5206A696820F44070084375
:1017300020621EB1E06920F08050E06128788007C7
:1017400005D56068A96820F44040084360602878A7
:10175000C00605D56068E96820F480000843606031
:101760000020DBE7001002400070004040044242CD
:101770002DE9F0470F46050061D0434E306800F078
:101780000700B84209D2306820F0070038433060C3
:10179000306800F00700B84251D128683B4C8107FF
:1017A00012D5400703D5606840F4E0606060287897
:1017B000000703D5606840F4605060606068A96805
:1017C00020F0F000084360602878C00728D06868DF
:1017D000012810D02168022810D0890700292EDAAC
:1017E000616821F0030101436160FFF75BFE804601
:1017F00041F288390DE021688903EFE78901EDE7BF
:10180000FFF750FEA0EB0801494502D90320BDE8CF
:10181000F0876068696800F00C00B0EB810FEFD1D1
:10182000306800F00700B8420BD9306820F007009C
:1018300038433060306800F00700B84201D0012022
:10184000E5E72878400705D56068E96820F4E0609E
:10185000084360602878000706D56068296920F48D
:10186000605040EAC100606000F038F86168084AE2
:10187000C1F30311515CC84006490860064800687E
:10188000FFF730FE0020C2E70020024000100240B7
:10189000E0320008380100203001002004480549EA
:1018A00000684968044AC1F30221515CC84070478E
:1018B0003801002000100240F032000804480549B9
:1018C00000684968044AC1F3C221515CC8407047AE
:1018D0003801002000100240F03200080E4A516822
:1018E0000E4801F00C03042B11D0082B0FD10C482B
:1018F000C1F38343C903C05C0AD55168084AC1F3E8
:101900004041921E515C054A5043B0FBF1F07047D4
:1019100004494843704700000010024000127A005A
:10192000BE32000800093D002DE9F84F040070D0D8
:101930002078C04DC00749D06868C0F381000128F5
:1019400007D06868C0F38100022809D16868C00325
:1019500006D52868800339D560680028E7D035E0CF
:101960006068B0F5803F0BD010B1B0F5A02F11D05A
:10197000286820F480302860286820F4802002E065
:10198000286840F480302860606890B1FFF78AFDD5
:1019900006460AE0286840F480202860F0E700BF8F
:1019A000FFF780FD801B642873D828688003F7D573
:1019B0000CE0FFF777FD064605E000BFFFF772FD7C
:1019C000801B6428F0D828688003F7D420789A4ECA
:1019D00080074FF001094FF0000839D5686810F012
:1019E0000C0F07D06868C0F38100022809D168682D
:1019F000C00306D42868800714D52069012808D1BF
:101A000010E02069B0B1C6F80090FFF74BFD074623
:101A100005E00AE1FFF746FDC01B0228C4D828688C
:101A20008007F7D52868616920F0F80040EAC10016
:101A300028600DE0C6F80080FFF734FD074604E09B
:101A4000FFF730FDC01B022823D828688007F7D491
:101A5000207800072CD57948A169D9B1C0F8009049
:101A6000FFF720FD074604E0FFF71CFDC01B02281E
:101A70000FD8686A8007F7D571484FF4FA510068AB
:101A8000B0FBF1F0009000BF0098411E0091FAD227
:101A90000EE080E0C0F80080FFF704FD074604E098
:101AA000FFF700FDC01B022875D8686A8007F7D4CD
:101AB0002078400760D5E8690027C00008D4E869AD
:101AC00040F08050E861E869012700F08050009004
:101AD0005C480168C90513D40168834641F48071EC
:101AE0000160FFF7DFFC824606E000BFFFF7DAFC8B
:101AF000A0EB0A0064284ED8DBF80000C005F5D53D
:101B0000E06801280AD008B1052813D0286A20F01F
:101B100001002862286A20F0040002E0286A40F0F0
:101B200001002862E06841F2883B98B1FFF7BAFCF7
:101B300082460BE0286A40F004002862EEE700BF0E
:101B4000FFF7B0FCA0EB0A0159455AD8286A800774
:101B5000F6D50CE0FFF7A6FC824605E0FFF7A2FCF5
:101B6000A0EB0A0159454CD8286A8007F6D41FB16A
:101B7000E86920F08050E861E06988B36968C1F3E2
:101B80008101022944D00228C6F8608004D0FFF702
:101B900089FC044638E034E0FFF784FC074604E0A3
:101BA000FFF780FCC01B02282BD828688001F7D4DF
:101BB000206AB0F5803F05D16868A16820F4003044
:101BC00008436860D4E908010843696821F4741186
:101BD00008436860C6F86090FFF764FC044606E0BE
:101BE00025E000BFFFF75EFC001B022809D828682B
:101BF0008001F7D51BE000BFFFF754FC001B022853
:101C000002D90320BDE8F88F28688001F4D40EE0E3
:101C10000128F7D06868226A00F48031914204D12B
:101C2000616A00F47010884201D00120EAE70020C8
:101C3000E8E70000001002400000424280044242F7
:101C4000380100200070004010B5401EB0F1807FC8
:101C500001D3012010BD4FF0E02460610F21601717
:101C600001F047FA0020A06107202061002010BD8C
:101C70007047704770B590F83C20012A23D00124AA
:101C800080F83C40022280F83D2003685A689D6835
:101C900022F070060A6832435A600C4B02689A427E
:101CA00005D0B2F1804F02D0094B9A4204D1496865
:101CB00025F080031943916080F83D40002180F8B1
:101CC0003C10084670BD022070BD0000002C014091
:101CD0000004004090F83C20012A0CD0012200F8BA
:101CE0003C2F0223437050F83C3C59614270002164
:101CF0000170084670470220704770472DE9F04197
:101D000004460068C66805694FF00007A90713D5A7
:101D1000B10711D5F91E0161012020772068806983
:101D20008007204602D0FFF7E8FF04E000F0B8F893
:101D3000204600F067F92777680716D5700714D595
:101D400021686FF004000861022020772068806914
:101D500010F4407F204602D0FFF7CFFF04E000F0F0
:101D60009FF8204600F04EF92777280715D5300751
:101D700013D521686FF008000861042020772068DF
:101D8000C0698007204602D0FFF7B7FF04E000F0EB
:101D900087F8204600F036F92777E80616D5F006D2
:101DA00014D521686FF010000861082020772068A2
:101DB000C06910F4407F204602D0FFF79EFF04E088
:101DC00000F06EF8204600F01DF92777E80708D0EC
:101DD000F00706D021686FF001000861204600F08E
:101DE000CBF9280608D5300606D521686FF08000AB
:101DF00008612046FFF73CFF680608D5700606D547
:101E000021686FF040000861204600F0D5F9A8066F
:101E10000AD5B00608D521686FF020000861204679
:101E2000BDE8F041FFF725BFBDE8F08100B585B002
:101E300000210091019102910391006814498842A8
:101E400023D11448816941F008018161816901F061
:101E500008010491816941F001018161806900F00C
:101E6000010004900C48416821F4406141F0E061B8
:101E700041F4006141602020009002200190032085
:101E8000039069460548FFF723FA05B000BD00003E
:101E9000000400400010024000000140000C01401E
:101EA000704770B5044690F83C0000260D460128A6
:101EB0000FD0012084F83C006AB1042A1DD0082A02
:101EC0002FD00C2A3FD00126002084F83C00304659
:101ED00070BD022070BD206800F036FE2068816968
:101EE00041F0080181612068816921F0040181616C
:101EF000206881692A69114311E0206800F04CFED6
:101F00002068816941F4006181612068816921F460
:101F100080618161206881692A6941EA02218161C9
:101F2000D2E7206800F064FE2068C16941F0080132
:101F3000C1612068C16921F00401C1612068C169E3
:101F40002A69114311E0206800F07EFE2068C16913
:101F500041F40061C1612068C16921F48061C161FF
:101F60002068C1692A6941EA0221C161ACE710B564
:101F7000040003D094F83D0010B107E0012010BD2B
:101F8000002084F83C00204600F01EF8022084F86F
:101F90003D00211D206800F093FD012084F84600DB
:101FA00084F83E0084F83F0084F8400084F8410043
:101FB00084F8420084F8430084F8440084F8450023
:101FC00084F83D00002010BD08B500680B49884228
:101FD00012D10B48C16941F00201C161C069002200
:101FE00000F00200009011461D20FFF7C7FABDE87F
:101FF00008401D20FFF7B4BA08BD000000040040EF
:10200000001002407047000030B50025044602224F
:1020100049B1042912D008293BD094F84100012885
:1020200042D0012030BD94F83E000128F9D184F857
:102030003E202068C26842F0020209E094F83F00A6
:102040000128EED184F83F202068C26842F00402E3
:10205000C2600122206800F069FD194920688842A9
:1020600003D1426C42F4004242642068884205D0A9
:10207000B0F1804F02D01349884204D1816801F049
:102080000701062903D0016841F0010101602846DB
:1020900030BD94F840000128C3D184F84020206866
:1020A000C26842F00802D3E784F841200C2901D02D
:1020B0000125ECE72068C26842F01002C8E7000082
:1020C000002C01400004004070B50D0004464FF0A4
:1020D000000607D0042D0AD0082D0DD00C2D10D0ED
:1020E00001263CE02068C16821F002010DE0206873
:1020F000C16821F0040108E02068C16821F00801EE
:1021000003E02068C16821F01001C1600022294667
:10211000206800F00BFD174B41F2111120688A1066
:10212000984209D1036A0B4206D1036A134203D1D4
:10213000436C23F4004343642068036A0B4206D1D6
:10214000016A114203D1016821F0010101600120FF
:102150003DB1042D08D0082D09D084F84100304647
:1021600070BD84F83E00FAE784F83F00F7E784F892
:102170004000F4E7002C014010B500680B4988428C
:1021800013D10B4C207800280FD0A068401CA06011
:10219000A0686168884208D304210648FFF794FFCD
:1021A0000120FEF70DFA0020207010BD0004004051
:1021B000040000207804002070477047704700003A
:1021C000F8B5016804460868CA684B6910F00F0F3B
:1021D0004FF0000559D003F0010602F49077374321
:1021E00065D0C10705D0D10503D5616C41F001016F
:1021F0006164410705D5D90703D0616C41F0020144
:102200006164810705D5D90703D0616C41F00401F1
:102210006164010707D502F02001314303D0616CEE
:1022200041F008016164616C00293AD0800604D550
:10223000900602D5204600F012FE20684069616CCD
:10224000C0F38010090700D460B3204600F0B2FD4F
:1022500020684069400621D52068143050E8001FEE
:1022600021F0400140E80012002AF5D1E06BA8B14E
:102270006D494163E06BFEF7BDFE002811D0E06BB5
:10228000416B01B0BDE8F040084783060FD59306C7
:102290000DD52046BDE8F84000F0E1BD2046FFF72F
:1022A0008DFFF8BD2046FFF789FF6564F8BD266BFA
:1022B0002023012E7CD1C6067AD5D60678D50868AB
:1022C0004868009048694FF00206400640D5E16B2F
:1022D000086840680004000CE8D0A28D8242E5D96D
:1022E000E085886920282DD020680C3050E8001F38
:1022F00021F4807140E80012002AF5D120681430E2
:1023000050E8001F21F0010140E80012002AF5D139
:102310002068143050E8001F21F0400140E800120E
:10232000002AF5D184F84230256320680C3050E84B
:10233000001F21F0100140E80012002AF5D1E06BE7
:10234000FEF734FE6663A08DE18D401A81B22AE06B
:10235000A08DE18D401A81B2E08D0028A6D0002921
:10236000A4D022680C3252E8000F20F4907042E8AA
:102370000007002FF5D12068143050E8002F22F01C
:10238000010240E80027002FF5D184F84230256390
:1023900020680C3050E8002F22F0100240E80023A3
:1023A000002BF5D166632046FFF707FFF8BDFFE776
:1023B00005062BD5150629D594F841002128F5D11D
:1023C000A068B0F5805F01D12069B0B1206A411CDE
:1023D0002162216800784860E08C401E0004000CF7
:1023E000E084E3D12068C16821F08001C1602068E9
:1023F000C16841F04001C160D8E7206A0088C0F39D
:1024000008004860206A801C2062E5E74006CDD5C0
:102410005006CBD5CA68204622F04002CA6084F834
:10242000413000F0EDF8C1E7B72C000870B50400AA
:1024300004D094F84100002510B106E0012070BDE1
:1024400084F84050204600F023F8242084F841000E
:102450002068C16821F40051C160204600F064FD8D
:102460002068016921F4904101612068416921F0EF
:102470002A0141612068C16841F40051C16065646E
:10248000202084F8410084F842006563002070BD7C
:1024900070B586B000250646009501950295039516
:1024A0000068224988423FD12149886940F4804030
:1024B0008861886900F480400490886940F00400D5
:1024C000886188691B4C00F0040004904815009056
:1024D000022001900320039069462046FEF7F8FE93
:1024E0002015CDE90005694620460295FEF7F0FE6D
:1024F000124C1148C4E900058020C4E90250202094
:102500002561C4E905502046E561FEF769FE08B182
:10251000FEF704FAF4630022114625206662FFF7F5
:102520002DF82520FFF71CF806B070BD00380140DB
:102530000010024000080140580002400805002039
:1025400090F84230202B01D00220704721B11AB1FF
:102550000023036300F044BD0120704770477047BB
:102560002DE9F843044690F84100984616460D467A
:10257000202802D00220BDE8F88385B17EB100207A
:102580006064212084F84100FEF78CFFA684814618
:10259000E684A0682027B0F5805F02D003E0012028
:1025A000E9E7206910B12E4600250EE000260CE078
:1025B0008021204600F05CFDA8B9C6B116F8010BD9
:1025C00021684860E08C401EE084E08C4B464FF070
:1025D0000002CDF800800028EAD14FF040012046EB
:1025E00000F046FD40B184F841700320C3E735F8A0
:1025F000020BC0F30800E3E784F841700020BAE75B
:1026000070470000F0B5154985B047200860081FE5
:1026100001684906FCD5124E0024371F4FEA0D050C
:1026200056F8240004A9FDF793FF395D05F824103E
:1026300005EB8401020A4A7088709DF8100000B111
:102640000120641CE4B2C870042CE9D3102269464E
:10265000282000F0D9F905B0F0BD00000438014091
:10266000AC320008FEE700003EB50024114800949B
:10267000019402940E49846001600473047501257D
:1026800005614FF460214460C161FEF7ADFA08B105
:10269000FEF744F90820CDE9000569460294054893
:1026A000FEF720FA002801D0FEF738F93EBD000001
:1026B0000024014048040020094808B5416941F060
:1026C000010141614069002200F0010000901146C3
:1026D0000F20FEF753FFBDE808400F20FEF740BF74
:1026E000001002402DE9F04385B0002438480094E2
:1026F000019402940394816941F010018161816920
:1027000001F010010491816941F004018161816946
:1027100001F004010491816941F00801816180693F
:102720002C4F00F008004FF4005504900022294679
:102730003846FEF7B2FEDFF8A08001222021404695
:10274000FEF7ABFE012280214046FEF7A6FEDFF831
:102750008C90002210214846FEF79FFE0126CDE90D
:102760000056022569463846CDE90245FEF7B0FD20
:102770000420CDE900050320039069464046FEF79A
:10278000A7FDA020CDE9000669464046CDE90245F7
:10279000FEF79EFD4020CDE90004694640460294C4
:1027A000FEF796FD4FF46060CDE9000469464846A7
:1027B0000294FEF78DFD1020CDE9000669464846DB
:1027C000CDE90245FEF784FD05B0BDE8F0830000C9
:1027D000001002400010014000080140000C0140C0
:1027E00010B58AB0002407941C2168460894FDF7B0
:1027F00072FD17481549C0E9001441F6FF01C0E910
:10280000024104618461FFF7B2FB08B1FEF786F86C
:10281000079407A90E480894FFF72CFA08B1FEF7B1
:102820007DF8602000904FF44860CDE90104042257
:10283000694607480494FFF734FB08B1FEF76EF8C9
:102840000348FFF7F3FA0AB010BD0000000400408F
:10285000780400200C4810B50A4901604FF4E131BA
:102860004160002181600C22C160C0E904128161D5
:10287000C161FFF7DBFD002803D0BDE81040FEF783
:102880004DB810BD00380140C0040020FEE7FEE74F
:10289000024800210170418070470000240100209F
:1028A0002DE9F041DFF85081C6B0524DA8F1040681
:1028B0000027524C93E020780A284AD2DFE800F043
:1028C000050F19212931394A575F9DF80811A529AB
:1028D0003FD160882954401C6080012038E09DF879
:1028E00008115B2979D160882954401C608002203E
:1028F0002EE060889DF808112954401C6080032058
:1029000026E060889DF808112954401C608004204E
:102910001EE060889DF808112954401C6080052045
:1029200016E060889DF808112954401C608006203C
:102930000EE060889DF808112954401C6080687979
:1029400041EA0020A080B0F5807F46D868B107201A
:10295000207044E060889DF808112954401C80B222
:102960006080A188C91D884239D30820F0E76088BB
:102970009DF808112954401C60800920E8E7608810
:102980009DF8081145AA2954401C81B2618002A813
:10299000CDE9000244AB43AA1648FDF7FCFF98B10D
:1029A000BDF81001E08030680006FCD55021C8F861
:1029B000001030684006FCD5BDF8142102A99DF82E
:1029C0000C01FDF707FF08E030680006FCD5462142
:1029D000C8F8001030684006FCD56780277042A90F
:1029E000074800F01CFA00287FF465AF46B0BDE848
:1029F000F08100003C030020043801402401002045
:102A0000100000207047704700B50B46C5B007495D
:102A10000092CA88014601A8FDF782FF024601A97B
:102A2000034800F07DFA45B000BD000024010020FD
:102A3000C0040020FEF73CBD30B593B028216846A5
:102A4000FDF749FC14210AA8FDF745FC00240225E6
:102A500001200F94049000951020059012944FF4DB
:102A60006010CDE908401194109407956846FEF770
:102A70005BFF08B172B6FEE70F20CDE90A054FF4FF
:102A8000A060CDE90C4002210AA80E94FEF770FE6A
:102A900008B172B6FEE74FF4404011900F950FA8B1
:102AA000FEF7F0FD002801D072B6FEE713B030BD8E
:102AB000704700000148FFF721B9000078040020AA
:102AC00070B50268174B184C4FF08046984203D0FF
:102AD000B04201D0A04203D122F070054A682A43D7
:102AE000984203D0B04201D0A04203D122F44074F6
:102AF000CA6822434C6922F08002224302608A683D
:102B0000C2620A688262984201D1096901630121A7
:102B100041610169C90703D0016921F00101016127
:102B200070BD0000002C01400004004010B501F011
:102B30001F030121046A99408C430462016A9A4090
:102B40001143016210BD000030B5036A026A22F031
:102B5000010202624268846924F073050C682C4308
:102B600023F002058B682B430A4DA8420BD123F0BA
:102B70000805CB6822F440722B434D6923F004030F
:102B800015438A692A43426084614968416303624C
:102B900030BD0000002C014030B5026A036A23F00A
:102BA00010030362436884690D6824F4E64444EA30
:102BB00005248D6822F0200242EA05120B4DA8423E
:102BC0000ED1CD6822F0800242EA05124D6923F44D
:102BD000406343EA85038D6922F0400243EA85039E
:102BE0004360846149688163026230BD002C01400A
:102BF00030B5036A026A22F4807202624268C469D4
:102C000023F4007324F073050C682C438D6843EAA9
:102C100005230C4DA8420ED1CD6823F4006343EA8E
:102C200005234D6922F4405242EA05128D6923F4CE
:102C3000806342EA05124260C4614968C16303626D
:102C400030BD0000002C014030B5046A026A22F455
:102C5000805202624268C3690D6823F4E64343EA86
:102C600005238D6824F4005444EA0534064DA84237
:102C700004D14D6922F4804242EA85124260C36168
:102C800049680164046230BD002C0140EFF31081FB
:102C900072B60022A0F80021A0F80221D0F8042189
:102CA0002AB1D26B1AB112685268A0F8102100291B
:102CB00000D162B6704710B5406A0021C185C18459
:102CC000FFF77CFA10BD70B5446A2068406994F83B
:102CD0004110C0F3C0100025212904D118B1E584AA
:102CE000204600F08EF82068406994F84210C0F346
:102CF0008010222904D118B1E585204600F05AF849
:102D0000606C40F0100060642046FFF757FA70BD19
:102D100010B50146406A096809684FF0000289064B
:102D20002ED4C28501680C3151E8003F23F4807332
:102D300041E80034002CF5D10168143151E8003F1E
:102D400023F0010341E80034002CF5D1016814316F
:102D500051E8003F23F0400341E80034002CF5D156
:102D6000202180F84210016B012909D101680C3142
:102D700051E8003F23F0100341E80034002CF5D166
:102D80004263016B012902D0FFF7E8FB10BD818D82
:102D9000FFF713FA10BD10B5406A01214163016BC2
:102DA000012902D0FFF7DBFB10BD818D4908FFF739
:102DB00004FA10BD01680C3151E8002F22F4907222
:102DC00041E80023002BF5D10168143151E8002FB0
:102DD00022F0010241E80023002BF5D1016B01290B
:102DE00009D101680C3151E8002F22F0100241E8AE
:102DF0000023002BF5D1202180F84210002101632F
:102E0000704701680C3151E8002F22F0C00241E800
:102E10000023002BF5D1202180F84110704730B5F8
:102E20000446B0F800010D46B4F8021188420AD1F8
:102E30002046FDF751FCB4F80001B4F802118842B5
:102E400001D1002030BDB4F80201205C2870B4F834
:102E50000201401CC0B2A4F80201012030BD08B537
:102E600090F84210222901D0022008BD82684FF458
:102E700080539A4201D1016921B1816A9A421BD0E3
:102E80004AB10AE00268816A5268C2F308020A8005
:102E9000816A891C08E0026972B10268526802F016
:102EA0007F020A70816A491C8162C18D491E090432
:102EB000090CC18503D01BE002685268F1E7016884
:102EC000CA6822F02002CA600168CA6822F48072CF
:102ED000CA6001684A6922F001024A61202180F833
:102EE000421000214163026B012A03D0FFF736FB39
:102EF000002008BD016301680C3151E8002F22F069
:102F0000100241E80023002BF5D101680A68D206BF
:102F100002D50A6849680091818DFFF74EF9E7E70D
:102F20004FF47A73FFF71CBB70B504460068016963
:102F3000E26821F44051114301612169A06808430E
:102F4000616908432168CA6841F20C639A430243ED
:102F5000CA6020684169A26921F44071114341614E
:102F60001E492068884202D1FEF7A8FC01E0FEF766
:102F700095FC00EBC00101EB001260686421800049
:102F8000B2FBF0F3B3FBF1F36FF018067343B2FB3F
:102F9000F0F5B2FBF0F605EB8305322303EB0515E4
:102FA000B5FBF1F5B6FBF1F605F0F00505EB0615FE
:102FB000B2FBF0F6B2FBF0F0B0FBF1F06FF01802EC
:102FC000504306EB800003EB0010B0FBF1F02168EA
:102FD00000F00F002844886070BD000000380140F8
:102FE00038B581620446828500201346606422223F
:102FF00084F84220E56B1B4AAA62E56B1A4AEA6232
:10300000E56B1A4A2A63E26B50630A462168E06B5B
:10301000091DFEF713F920680168406800902069D7
:1030200048B120680C3050E8001F41F4807140E83E
:103030000012002AF5D12068143050E8001F41F03A
:10304000010140E80012002AF5D12068143050E850
:10305000001F41F0400140E80012002AF5D1002095
:1030600038BD0000112D0008972D0008C72C00085E
:103070002DE9F843984617460D460446089E24E07D
:10308000701C22D0FEF70EFAA0EB0800B0421AD84E
:10309000CEB12068C168490717D5802D15D0402DC5
:1030A00013D00168C94309070FD40168002540689F
:1030B00000902046FFF77EFE0820606484F84050B0
:1030C0000120BDE8F8830320FBE72068006835EAAB
:1030D000000004D00020B842D2D00020F1E7012047
:1030E000F9E700000148FFF76BB80000C0040020BA
:1030F000FEE70907090E002804DB00F1E02080F854
:103100000014704700F00F0000F1E02080F8141D5B
:103110007047000086B0FEF7D3F9FFF78DFCFFF78C
:10312000E1FAFFF7C9FAFFF75BFBFFF793FBFFF745
:103130009BFAFDF74FFAFDF715FB554C206840F060
:1031400004002060FDF796F92068514C86B20C3CD3
:103150002068142287B24FA16846FDF78AF8251D22
:103160004FF04309C5F8009020684006FCD5312097
:10317000286020684006FCD54FF03D08C5F8008067
:1031800020684006FCD5684600EB163109782960B6
:1031900021684906FCD5C6F30321415C29602168FA
:1031A0004906FCD5C6F30311415C29602168490634
:1031B000FCD506F00F01415C296021684906FCD569
:1031C0002021296021684906FCD553212960216806
:1031D0004906FCD5C5F8008021684906FCD5C7F32F
:1031E0000321415C296021684906FCD5C7F303111E
:1031F000415C296021684906FCD507F00F01405C5D
:10320000286020684006FCD50D262E602068400608
:10321000FCD50A272F6020684006FCD569460820A7
:10322000FDF796F92E6020684006FCD538462F60E1
:1032300021684906FCD54121296021684906FCD551
:103240004421296021684906FCD5C5F80090216811
:103250004906FCD5C5F8008021684906FCD59DF8D3
:10326000001009B1312100E03021296021684906B0
:10327000FCD52E6021684906FCD5286020684006F0
:10328000FCD5FFF705FB00BFFFF70AFBFCE70000DA
:103290000C38014030313233343536373839414219
:1032A00043444546000000000102030408000000FA
:1032B00009000000000000000100000001020203FC
:1032C0000405060708090A0B0C0D0E0F1010010269
:1032D00002030405060708090A0B0C0D0E0F101057
:1032E00000000000000000000102030406070809B6
:1032F0000000000001020304183300080000002051
:103300003C01000028010008343300083C01002083
:10331000740A00006401000803FFE40C0115ECC00E
:103320000400203C0100200002014201921014120E
:043330007A0000001F
:04000005080000ED02
:00000001FF
