:020000040800F2
:100000009007002089010008872B00085D2900085F
:10001000852B000833120008C92F000800000000DB
:100020000000000000000000000000008B2B000812
:100030004112000800000000892B00088D2B0008E9
:10004000A3010008A3010008A3010008A301000800
:10005000A3010008A3010008A3010008A3010008F0
:10006000A3010008A3010008A3010008A3010008E0
:10007000A3010008A3010008A3010008351200082D
:10008000A3010008A3010008A3010008A3010008C0
:10009000A3010008A3010008A3010008A3010008B0
:1000A000A3010008A3010008A3010008A3010008A0
:1000B000A30100080D2C000800000000A3010008A7
:1000C000A30100080000000000000000A3010008D8
:1000D00000000000BD2F0008A30100080000000080
:1000E000A3010008A3010008A301000800F002F822
:1000F00000F03AF80AA090E8000C82448344AAF188
:100100000107DA4501D100F02FF8AFF2090EBAE885
:100110000F0013F0010F18BFFB1A43F0010318473B
:1001200098340000B8340000103A24BF78C878C171
:10013000FAD8520724BF30C830C144BF04680C60ED
:10014000704700000023002400250026103A28BF35
:1001500078C1FBD8520728BF30C148BF0B60704739
:100160001FB51FBD10B510BD00F058F81146FFF7C0
:10017000F7FF02F03BFF00F076F803B4FFF7F2FF61
:1001800003BC00F07DF8000009488047094800479B
:10019000FEE7FEE7FEE7FEE7FEE7FEE7FEE7FEE737
:1001A000FEE7FEE704480549054A064B7047000094
:1001B000092C0008ED0000089001002090070020A5
:1001C00090030020900300204FF0000200B513467A
:1001D00094469646203922BFA0E80C50A0E80C5067
:1001E000B1F12001BFF4F7AF090728BFA0E80C5018
:1001F00048BF0CC05DF804EB890028BF40F8042B11
:1002000008BF704748BF20F8022B11F0804F18BF7D
:1002100000F8012B7047704770477047754600F033
:100220002BF8AE4605006946534620F00700854688
:1002300018B020B5FFF7B6FFBDE820404FF000062C
:100240004FF000074FF000084FF0000B21F00701BE
:10025000AC46ACE8C009ACE8C009ACE8C009ACE801
:10026000C0098D46704710B50446AFF300802046A4
:10027000BDE81040FFF781BF004870472C01002007
:1002800001491820ABBEFEE72600020070470000BF
:1002900070B5044600688168C943C90717D18168F1
:1002A00021F00101816001F05BFB05460AE000BF1F
:1002B00001F056FB401B022804D920688068C04327
:1002C000C00706D020688068C043C007F0D0002077
:1002D00070BDA06A40F01000A062E06A40F001002A
:1002E000E062012070BD000008B1012200E00022A0
:1002F0001021014801F02FBB000C014008B1012280
:1003000000E000222021014801F025BB0008014047
:1003100001F01CBB02B1012201F01DBB70B5002928
:1003200038D0002A36D01D4B1C78002C32D11C4C02
:10033000B4FBF2F47CB3B4F5803F01D34FF6FF7405
:100340005960002199600121197000B10120FFF767
:10035000CBFF144D601E80B22968C862E86029682E
:10036000C4F34F0088630121284601F0BFFE2968CD
:100370006FF0010008610020FFF7C0FF0A4920204C
:1003800008600421284602F04BF80848016841F053
:100390000101016070BDFFE70124D1E700000020EA
:1003A0000048E80158000020140801400C040040F7
:1003B00010B50421054802F093F80120FFF79EFFD5
:1003C0000348002101704160816010BD5800002089
:1003D000000000202DE9F04137A002F021FE3DA0F1
:1003E00002F01EFE00F0A8F9542807D0572807D0C5
:1003F0003CA002F015FE3120BDE8F0813CA000E0F9
:100400003EA002F00DFEC82001F0AEF944A002F0BB
:1004100007FE4FF4FA744FF4486723463A4600212A
:1004200044A002F031FE00F001064FF49675284614
:1004300001F09AF923463A46012144A002F024FE35
:1004400000EA0604284601F08FF94FF4FA66F70037
:1004500033463A46002143A002F016FE04402846E7
:1004600001F082F933463A46012144A002F00CFE25
:1004700000EA0406284601F077F941F288347F004B
:1004800023463A46002143A002F0FEFD06402846DE
:1004900001F06AF923463A46012144A002F0F4FD36
:1004A000304204D047A002F0BBFD5420A4E74BA08B
:1004B00002F0B6FD32209FE70D0A3D3D3D3D3D2057
:1004C0004D6F746F722054657374203D3D3D3D3D0A
:1004D0000D0A00005B315D20544D43323230392E1D
:1004E0002E2E200020204641494C0D0A000000001D
:1004F0002020504153530D0A000000002020574196
:10050000524E2028573D4F4B20523D4641494C2CDE
:1005100020636F6E74696E7565290D0A0000000016
:100520005B325D2053706565642074657374733A43
:100530000D0A00002020353030487A202043572013
:10054000317265762E2E2E200000000020203530DE
:1005500030487A2043435720317265762E2E2E2064
:10056000000000002032303030487A2020435720ED
:10057000357265762E2E2E2000000000203230309D
:1005800030487A2043435720357265762E2E2E2030
:10059000000000002035303030487A2020435720BA
:1005A00031307265762E2E2E00000000203530305E
:1005B00030487A204343572031307265762E2E2EF4
:1005C000000000003D3D3D3D3D20414C4C20504150
:1005D0005353203D3D3D3D3D0D0A00003D3D3D3D19
:1005E0003D20534F4D45204641494C4544203D3D1B
:1005F0003D3D3D0D0A000000FEB50D4605230021DE
:100600008DF800308DF801108DF802000321684646
:1006100002F042FE8DF8030039A002F059FE0024DA
:100620006E460221305D02F063FE38A002F050FEFB
:10063000641CE4B2042CF4D335A002F049FE02F0AD
:10064000CFFE72B60024305D02F03CFF641CE4B2C1
:10065000042CF8D302F0A8FD002401AE30190A21C1
:1006600002F0DCFEE8B1641CE4B2082CF6D362B6FA
:1006700028A002F02DFE00240221305D02F038FE99
:1006800022A002F025FE641CE4B2082CF4D320A0C2
:1006900002F01EFE082201A901200B5CFF2B0FD0E7
:1006A00013E0142002F030FD62B61DA002F010FE2F
:1006B0000121204602F01CFE15A002F009FE12E006
:1006C0000B1813F8013C052B05D0401CC0B2C31D0C
:1006D0009342E2D907E00C18601E072102F0DCFD0E
:1006E000A179814201D00020FEBD6088217940BA05
:1006F000000440EA01206179084328600120FEBD22
:100700005B4442475D2074783A00000020000000FE
:100710000D0A00005B4442475D2072783A000000F9
:100720005B4442475D2054494D454F555420617408
:1007300020627974652000002DE9FF5FC6A002F0F9
:10074000C7FDCFA002F0C4FD02F08AFD02F048FE12
:10075000D1A002F0BDFDD2A002F0BAFD72B6002514
:10076000D64F2A4680213846FFF7D4FD40F6055B78
:10077000584602F029FDA526002440F283694FF077
:10078000010840F2826A00BF06F00102802138466B
:10079000FFF7C0FD484602F017FD40213846FFF73D
:1007A000B7FD18B108FA04F02843C5B2504602F06C
:1007B0000BFD641C7608E4B2082CE5D301228021ED
:1007C0003C463846FFF7A6FD584602F0FDFC62B6EF
:1007D000BBA002F07DFD0221284602F089FDA52D77
:1007E00001D0BCA0B2E0BDA002F072FDBDA002F03D
:1007F0006FFD002280212046FFF78CFD322000F0A3
:10080000B3FF012280212046FFF784FD642000F021
:10081000ABFFA1A002F05CFDB8A002F059FD02F010
:10082000C3FC012000F0A0FFB9A002F051FDA348D5
:10083000083000680121C0F3801002F059FD8FA03C
:1008400002F046FD02F0CCFDB3A002F041FDBBA0DA
:100850000068019072B6002401AE6D46305D02F072
:1008600057FE2855641CE4B2042CF7D362B6B4A03A
:1008700002F02EFDB7A002F02BFD00240221285D1E
:1008800002F036FDB5A002F023FD641CE4B2042C96
:10089000F4D37AA002F01CFD0020295C325C914266
:1008A00004D0AFA002F014FDBAA04FE0401CC0B2CB
:1008B0000428F2D3C1A002F00BFDCBA002F008FD8A
:1008C0000024D1A002F004FD0221204602F010FD18
:1008D000CFA002F0FDFC204602F048FD10B3CEA0F0
:1008E00002F0F6FCFF2C27D0CFA002F0F1FC022191
:1008F000204602F0FDFC61A002F0EAFC052000F0B9
:1009000033FF0024694620460094FFF775FE002857
:1009100024D0CAA002F0DCFC0821009802F0E8FC18
:1009200056A01CE0C8A002F0D3FC052000F01CFF7C
:10093000641CE4B2042CC4D3C7A002F0C9FCCEA04E
:1009400002F0C6FCD9A002F0C3FCE7A002F0C0FC94
:1009500002F046FC302004B0BDE8F09FEDA002F0AC
:10096000B7FC0A2000F000FFFAA002F0B1FC4FF43F
:10097000E8752946002000F02DFC2A460021FDA044
:1009800002F0D0FC3DA002F0A3FCFD4E1020314649
:1009900000F020FC32461021FAA002F0C3FC37A080
:1009A00002F096FC2146142060F307010E46112048
:1009B00000F010FC32461121F5A002F0B3FC2FA08C
:1009C00002F086FCF54E6C20314600F003FC324606
:1009D0006C21F3A002F0A6FC28A002F079FC2046CE
:1009E000242161F307000E2161F30F2000F5803010
:1009F00040F4402000F1016020F07046A6F18046EE
:100A00003146702000F0E6FB32467021E7A002F08C
:100A100089FC1AA002F05CFCE7A002F059FC1E2041
:100A200000F0A2FEEBA002F053FC02A90020029409
:100A3000FFF7E2FD00280DD07FA002F049FC08215D
:100A4000029802F055FC0298A84204D1E7A002F0F7
:100A50003FFCD1E190E284E20D0A3D3D3D3D3D3D4C
:100A60003D3D3D3D20544D43323230392054657375
:100A700074203D3D3D3D3D3D3D3D3D3D0D0A000069
:100A80005B305D2054494D33205541525420696EEE
:100A900069742E2E2E2000004F4B0D0A000000001E
:100AA0005B30625D204C6F6F706261636B20504100
:100AB000372D3E5041362E2E2E20000000080140DA
:100AC00073656E743D30784135206563686F3D30E5
:100AD00078000000204641494C0D0A00204F4B0D84
:100AE0000A0000005B315D2050444E20706F776536
:100AF000722D6379636C652E2E2E20005B325D2093
:100B00005041362069646C652E2E2E2000000000B6
:100B10005041363D000000005B32625D2054582099
:100B20006563686F20287265616420726571206258
:100B300079746573292E2E2E0D0A000005000048D9
:100B4000202074783A203035203030203030203466
:100B5000380D0A00202072783A20000020000000A2
:100B600020205458206563686F204641494C202856
:100B70007369676E616C204E4F54207265616368C3
:100B8000696E672050444E5F5541525421290D0A29
:100B9000000000003D3D3D3D3D3D3D3D3D3D205281
:100BA0004553554C543A205458204641494C203D19
:100BB0003D3D3D3D3D3D3D3D3D0D0A00202054580D
:100BC000206563686F204F4B20287369676E616CE6
:100BD00020726561636865732050444E5F554152D1
:100BE00054290D0A000000005B335D2041646472EB
:100BF000657373207363616E20307830302D3078E8
:100C000030332E2E2E0D0A0020205B30780000009D
:100C10005D2E2E2E0000000020524553504F4E53A3
:100C200045210D0A000000002020466F756E6420EB
:100C30006174206164647220307800002020474392
:100C40004F4E463D30780000206E6F207265737005
:100C50006F6E73650D0A000020204E6F20544D43C7
:100C60003232303920617420616E7920616464729F
:100C70006573732E0D0A000020205458207665728B
:100C80006966696564204F4B2062757420544D433A
:100C900032323039206E657665722064726976650D
:100CA00073206275732E0D0A0000000020202D3E77
:100CB00020436865636B2068617264776172653A8E
:100CC0002032345620737570706C792C2035564F55
:100CD00055542C205643435F494F2C20736F6C644E
:100CE0006572696E670D0A003D3D3D3D3D3D3D3DF0
:100CF0003D3D20524553554C543A206E6F20544D83
:100D00004332323039203D3D3D3D3D3D3D3D3D3D51
:100D10000D0A0000202047434F4E46207265616453
:100D2000206661696C6564202870726F626520734B
:100D300061696420726573706F6E7365206275748B
:100D400020526561645265672074696D656F7574C2
:100D5000290D0A005B345D20577269746520636F4A
:100D60006E666967207265676973746572733A0DA0
:100D70000A00000047434F4E46202020202000005C
:100D80000810070049484F4C445F4952554E000037
:100D900054504F574552444F574E0000C300030470
:100DA00043484F50434F4E462020000050574D437C
:100DB0004F4E4620202000002020352072656769B4
:100DC0007374657273207772697474656E2E0D0A80
:100DD000000000005B355D20526561642D62616337
:100DE0006B2047434F4E462E2E2E200020286D614B
:100DF000746368290D0A000063A002F069FA69466D
:100E00000620FFF7F9FB20B367A002F061FA082182
:100E1000009802F06DFA69A002F05AFA00980121D8
:100E200000F0010002F064FA66A002F051FA0098A6
:100E30000121C0F3402002F05BFA64A002F048FAFE
:100E400000980121C0F3C01002F052FAAFF2D43082
:100E500000E060A002F03CFA69461020FFF7CCFBEE
:100E600040B161A002F034FA0821009802F040FA83
:100E70005CA000E061A002F02BFA69466C20FFF74D
:100E8000BBFB40B164A002F023FA0821009802F0F5
:100E90002FFA54A000E065A002F01AFA694670200B
:100EA000FFF7AAFB40B167A002F012FA08210098F0
:100EB00002F01EFA4BA000E067A002F009FA6946B2
:100EC0000120FFF799FB002847D069A002F000FA43
:100ED0000821009802F00CFA009810B169A002F005
:100EE000F7F940A002F0F4F969466F20FFF784FBA0
:100EF000002834D067A002F0EBF90821009802F036
:100F0000F7F90098400602D567A002F0E1F90098D1
:100F1000000602D566A002F0DBF90098400702D572
:100F200065A002F0D5F90098000702D564A002F090
:100F3000CFF90098C00702D063A002F0C9F929A038
:100F400002F0C6F961A002F0C3F90721012000F008
:100F500041F902F045F95420FDE467A0C2E76BA017
:100F6000EEE771A002F0B4F973A000BF02F0B0F98F
:100F700002F036F95720EEE47BA002F0A9F97EA03A
:100F800002F0A6F988A0F1E75B35625D2056657234
:100F900069667920616C6C2072656769737465722B
:100FA000733A0D0A000000002020494F494E2020CE
:100FB00020202020203D30780000000020454E4EAB
:100FC0003D000000204449523D000000205354459C
:100FD000503D00002020494F494E20726561642039
:100FE0004641494C0D0A0000202049484F4C445FBF
:100FF0004952554E203D30780000000020204948DD
:101000004F4C445F4952554E207265616420464101
:10101000494C0D0A00000000202043484F50434F28
:101020004E462020203D307800000000202043481C
:101030004F50434F4E462072656164204641494CF3
:101040000D0A0000202050574D434F4E46202020CF
:10105000203D307800000000202050574D434F4E77
:10106000462072656164204641494C0D0A0000002B
:10107000202047535441542020202020203D307808
:1010800000000000202A2A2A204641554C54202ADC
:101090002A2A000020204452565F5354415455538D
:1010A000203D307800000000204F4C41000000003F
:1010B000204F4C4200000000205332474100000006
:1010C0002053324742000000204F54003D3D3D3D3B
:1010D0003D3D3D3D3D3D20524553554C543A2050F9
:1010E0004153532028522F5729203D3D3D3D3D3D42
:1010F0003D3D3D3D0D0A0000202047535441542002
:1011000072656164204641494C0D0A00202044521A
:10111000565F5354415455532072656164204641D3
:10112000494C0D0A0000000020284D49534D415400
:101130004348290D0A0000003D3D3D3D3D3D3D3DFC
:101140003D3D20524553554C543A20573D4F4B207E
:10115000523D4D49534D41544348203D3D3D3D3D59
:101160003D3D3D3D3D0D0A006E6F20726573706F11
:101170006E73650D0A00000020202877726974657F
:101180007320617373756D6564204F4B2C20636809
:1011900065636B206D6F746F72206D6F76656D6522
:1011A0006E74290D0A0000003D3D3D3D3D3D3D3D35
:1011B0003D3D20524553554C543A20573D4F4B200E
:1011C000523D4641494C203D3D3D3D3D3D3D3D3D2F
:1011D0003D0D0A007CB50246052400238DF8004031
:1011E0008DF8013042F080028DF802200A0E8DF851
:1011F00003200A0C8DF804200A0A8DF805208DF8CA
:1012000006106846072102F047F88DF8070002F043
:10121000E7F872B600246D46285D02F053F9641CAD
:10122000E4B2082CF8D362B6012000F09DFA012048
:101230007CBDFEE7014800F0BFB90000E8000020D7
:10124000704772B6FEE70000F8B50024009490F8ED
:1012500024202546012A12D0012280F824204A6841
:101260001F23072A0DD20668776B521E02EB8202FB
:1012700093409F430B6893401F43776319E002201C
:10128000F8BD06680D2A0AD2376BD21F02EB820224
:1012900093409F430B6893401F43376309E0F76A0D
:1012A0000D3A02EB820293409F430B6893401F4329
:1012B000F7620A68072306680A2A0AD3F7680A3A17
:1012C00002EB420293409F438B6893401F43F760B9
:1012D00008E0376902EB420293409F438B689340DA
:1012E0001F4337610A68102A01D0112A20D1124BFE
:1012F00002689A4217D193681B0219D4936843F489
:10130000000393600968102912D10C490C4A09683E
:10131000B1FBF2F101EB8101490000E0491E0091AF
:101320000029FBD104E0816A41F02001816201249F
:1013300080F824502046F8BD0024014024000020FD
:1013400040420F002DE9F0414FF0000704003D46F8
:101350007ED0A06A002628B9E66284F82460204680
:1013600000F07EF82046FEF793FFA16AC90600D47C
:1013700020B1A06A40F01000A06269E0A16A21F4E7
:10138000885141F00201A1626268E169237B0A434E
:1013900047EA43010A43A1684FF48077B94209D074
:1013A000012907D05FF0000194F814C0BCF1010FCF
:1013B00002D00AE03946F7E7F3B1A36A43F020030D
:1013C000A362E36A43F00103E3622368D3F804C035
:1013D0002CF4694C4CEA010CC3F804C021688B68FA
:1013E000DFF870C003EA0C0313438B60A168B942B5
:1013F0000BD0012909D00CE0DFF85CC0A3690CEB2D
:1014000043330B4343F40061DFE7218A0D05A5F563
:1014100080152168CB6A23F470032B43CB622168CB
:1014200089680E4B1940914208D1E662A16A21F009
:10143000020141F00101A162BDE8F081A06A20F043
:10144000020040F01000A062E06A40F00100E0629B
:101450000120F1E7FDF7E1FF00E0FFFFFE0E1FFFB7
:1014600010B586B0002100910191029103910068AE
:101470001549884225D11548816941F4007181617F
:10148000816901F400710491816941F00401816175
:10149000816901F004010491816941F008018161D1
:1014A0008069032400F008000490009469460194C8
:1014B000074800F06BF9009469460648019400F073
:1014C00065F906B010BD0000002401400010024084
:1014D00000080140000C014010B590F821100022D6
:1014E000022905D00421816380F82020012010BD4D
:1014F00001680B6823F00E030B6001680B6823F092
:1015000001030B6090F84030C46B012101FA03F332
:10151000636080F8211080F82020104610BD000084
:1015200010B590F821100024022903D00421816312
:1015300001243DE001680A6822F00E020A60016899
:101540000A6822F001020A601A4A0168914201D138
:10155000012121E0174A1432914201D110211BE0F0
:10156000144A2832914201D1891515E0114A3C32C2
:10157000914201D189140FE00E4A5032914202D1BA
:101580004FF4803108E00B4A6432914202D14FF4AB
:10159000801101E04FF08071064A083A5160012144
:1015A00080F82110002180F82010416B01B188479C
:1015B000204610BD080002402DE9F05FC16B0C68A9
:1015C00001680B68D0F840C0042202FA0CF2494DC1
:1015D000DFF824A1494E4A4FDFF828B1DFF828E1AF
:1015E00022422CD05A072AD50A68920603D40A68E8
:1015F00022F004020A600168A94201D1042219E024
:10160000514501D1402215E0B14202D14FF4806230
:1016100010E0B94202D14FF480420BE0594502D1AB
:101620004FF4802206E0714502D14FF4800201E0C0
:101630004FF080622F4908394A60C16A3BE04FF0A1
:10164000020808FA0CF818EA040F4FF000094FF0EE
:10165000010235D05FEA837832D50B689B0605D44A
:101660000B6823F00A030B6080F821200168A9426F
:1016700001D1022219E0514501D1202215E0B142E9
:1016800002D14FF4007210E0B94202D14FF400527F
:101690000BE0594502D14FF4003206E0714502D10A
:1016A0004FF4001201E04FF00072124908394A600D
:1016B00080F82090816A00291AD0BDE8F05F0847C1
:1016C000082505FA0CF5254212D01B0710D50B682A
:1016D00023F00E030B6090F84010C36B02FA01F187
:1016E0005960826380F8212080F82090016BE2E746
:1016F000BDE8F09F080002401C000240300002409C
:1017000044000240580002406C00024030B528B34B
:1017100008C8134914221944B1FBF2F18900C163CE
:1017200010498163022141771A6843F6F0718A43B8
:10173000D0E900142143D0E902452C432143046938
:1017400021434469214384692143114319600021E5
:101750004163012242770177084630BD012030BD48
:10176000F8FFFDBF0000024070B5044600F0F8F835
:101770000546601C02D004480078044400F0F0F8EC
:10178000401BA042FAD370BD180000202DE9F84F8D
:10179000DFF89C910024A9F1040B23460F2709F1DF
:1017A000040AABF1040EBBE00125A5402A40AA4281
:1017B00076D1DFF880C14E68A6EB0C0866452BD0C9
:1017C0000DDC032E34D005DC36B3012E19D0022EE9
:1017D0002FD11BE0112E16D0122E2AD119E0B8F508
:1017E000881F19D006DCB8F5803F15D0B8F5801FEA
:1017F0001FD111E0B8F5001F0ED0B8F5041F18D1A5
:101800000AE0CB6815E0CB681B1D12E0CB680833FB
:101810000FE0CB680C330CE08B682BB1012B4FF041
:10182000080303D0456104E0042302E0056100E001
:101830000023FF2A01D8064601E000F104064FEA22
:10184000840501D9A5F12005D6F8008007FA05FC2A
:1018500028EA0C0803FA05F548EA0508C6F80080EE
:101860004D68ED005BD5344DAE6946F00106AE61C2
:10187000AD6924F0030605F0010500952F4D06EB38
:10188000050CDCF80850A607360F07FA06F825EA1B
:101890000805DFF8AC80404503D14FF0000810E0A8
:1018A0003DE0DFF8A080404502D14FF0010808E09C
:1018B000DFF89480404502D14FF0020801E04FF07C
:1018C000030808FA06F848EA0508CCF808804D68CD
:1018D000D9F80060ED024D4601D5164300E096436D
:1018E0002E604D68DAF80060AD02554601D516430A
:1018F00000E096432E604D68DBF80060AD035D4666
:1019000001D5164300E096432E604D68DEF8006076
:10191000ED03754601D5164300E096432E60641C26
:101920000A6832FA04F57FF43FAFBDE8F88F000093
:1019300008040140000011100010024000000140A6
:1019400000080140000C0140001001408068084080
:1019500000D0012070470AB1016170470904FBE71C
:101960000148806870470000180000200248816824
:10197000027811448160704718000020074810B5B4
:10198000016841F010010160032000F075F80F209C
:1019900000F006F800F024F8002010BD00200240FE
:1019A00070B50D4D04464FF47A712878B1FBF0F014
:1019B0000A490968B1FBF0F000F052FB48B9102C5D
:1019C00007D200222146501E00F036F800206C603D
:1019D00070BD012070BD0000180000202400002010
:1019E0000C4808B5816941F001018161816901F00C
:1019F00001010091C16941F08051C161C06900F0ED
:101A0000805000900448416821F0E06141F000718D
:101A1000416008BD0010024000000140002809DBC1
:101A200000F01F02012191404009800000F1E020F8
:101A3000C0F8001170470000F0B40E4B1B680C4654
:101A4000C3F30223C3F10705042D00D90425191D92
:101A5000072901D2002300E0DB1E012606FA05F16A
:101A6000491E214099409E40761E16403143F0BCED
:101A700001F0ABBA0CED00E0064900F0070208687F
:101A80004FF6FF03184040EA0220034A1043086063
:101A9000704700000CED00E00000FA052DE9F84366
:101AA00005460078354CC00754D0E0690026C000D8
:101AB00008D4E06940F08050E061E069012600F060
:101AC000805000902E480168C90512D401688046F4
:101AD00041F480710160FFF743FF074605E000BF56
:101AE000FFF73EFFC01B642823D8D8F80000C005CC
:101AF000F6D5206A10F4407021D0A98801F4407115
:101B000081421CD0206A1F49012220F440700A60E3
:101B100000220A602062C00711D0FFF721FF0746AC
:101B200041F2883808E000BFFFF71AFFC11B4145AA
:101B300002D90320BDE8F883206A8007F4D5206A23
:101B4000696820F44070084320621EB1E06920F00B
:101B50008050E0612878800705D56068A96820F486
:101B60004040084360602878C00605D56068E96891
:101B700020F48000084360600020DBE70010024092
:101B800000700040400442422DE9F0470F46050036
:101B900061D0434E306800F00700B84209D2306887
:101BA00020F0070038433060306800F00700B8428A
:101BB00051D128683B4C810712D5400703D5606896
:101BC00040F4E06060602878000703D5606840F466
:101BD000605060606068A96820F0F00008436060B1
:101BE0002878C00728D06868012810D0216802280A
:101BF00010D0890700292EDA616821F00301014322
:101C00006160FFF7ADFE804641F288390DE0216842
:101C10008903EFE78901EDE7FFF7A2FEA0EB0801DA
:101C2000494502D90320BDE8F0876068696800F083
:101C30000C00B0EB810FEFD1306800F00700B84224
:101C40000BD9306820F0070038433060306800F06E
:101C50000700B84201D00120E5E72878400705D504
:101C60006068E96820F4E060084360602878000755
:101C700006D56068296920F4605040EAC1006060C0
:101C800000F038F86168084AC1F30311515CC8409C
:101C90000649086006480068FFF782FE0020C2E798
:101CA00000200240001002409E3500082400002061
:101CB0001C0000200448054900684968044AC1F333
:101CC0000221515CC84070472400002000100240EF
:101CD000AE3500080448054900684968044AC1F364
:101CE000C221515CC840704724000020001002400F
:101CF000AE3500080E4A51680E4801F00C03042B63
:101D000011D0082B0FD10C48C1F38343C903C05C29
:101D10000AD55168084AC1F34041921E515C054AF8
:101D20005043B0FBF1F0704704494843704700004E
:101D30000010024000127A008E35000800093D00B4
:101D40002DE9F84F040070D02078C04DC00749D06D
:101D50006868C0F38100012807D06868C0F381007B
:101D6000022809D16868C00306D52868800339D5E0
:101D700060680028E7D035E06068B0F5803F0BD0A0
:101D800010B1B0F5A02F11D0286820F48030286061
:101D9000286820F4802002E0286840F48030286021
:101DA000606890B1FFF7DCFD06460AE0286840F461
:101DB00080202860F0E700BFFFF7D2FD801B642879
:101DC00073D828688003F7D50CE0FFF7C9FD0646F5
:101DD00005E000BFFFF7C4FD801B6428F0D8286829
:101DE0008003F7D420789A4E80074FF001094FF016
:101DF000000839D5686810F00C0F07D06868C0F388
:101E00008100022809D16868C00306D428688007C9
:101E100014D52069012808D110E02069B0B1C6F8B6
:101E20000090FFF79DFD074605E00AE1FFF798FDEA
:101E3000C01B0228C4D828688007F7D528686169C4
:101E400020F0F80040EAC10028600DE0C6F80080EC
:101E5000FFF786FD074604E0FFF782FDC01B02285E
:101E600023D828688007F7D4207800072CD5794834
:101E7000A169D9B1C0F80090FFF772FD074604E0F0
:101E8000FFF76EFDC01B02280FD8686A8007F7D5E0
:101E900071484FF4FA510068B0FBF1F0009000BFB8
:101EA0000098411E0091FAD20EE080E0C0F8008058
:101EB000FFF756FD074604E0FFF752FDC01B02285E
:101EC00075D8686A8007F7D42078400760D5E8693C
:101ED0000027C00008D4E86940F08050E861E86954
:101EE000012700F0805000905C480168C90513D4B8
:101EF0000168834641F480710160FFF731FD82463D
:101F000006E000BFFFF72CFDA0EB0A0064284ED8C6
:101F1000DBF80000C005F5D5E06801280AD008B15B
:101F2000052813D0286A20F001002862286A20F0D2
:101F3000040002E0286A40F001002862E06841F2F3
:101F4000883B98B1FFF70CFD82460BE0286A40F011
:101F500004002862EEE700BFFFF702FDA0EB0A01D4
:101F600059455AD8286A8007F6D50CE0FFF7F8FCE7
:101F7000824605E0FFF7F4FCA0EB0A0159454CD876
:101F8000286A8007F6D41FB1E86920F08050E86124
:101F9000E06988B36968C1F38101022944D002284D
:101FA000C6F8608004D0FFF7DBFC044638E034E07C
:101FB000FFF7D6FC074604E0FFF7D2FCC01B02285F
:101FC0002BD828688001F7D4206AB0F5803F05D16E
:101FD0006868A16820F4003008436860D4E908010B
:101FE0000843696821F4741108436860C6F860907A
:101FF000FFF7B6FC044606E025E000BFFFF7B0FCA3
:10200000001B022809D828688001F7D51BE000BF13
:10201000FFF7A6FC001B022802D90320BDE8F88FB9
:1020200028688001F4D40EE00128F7D06868226A9D
:1020300000F48031914204D1616A00F4701088424A
:1020400001D00120EAE70020E8E70000001002408C
:102050000000424280044242240000200070004000
:1020600010B5401EB0F1807F01D3012010BD4FF0AC
:10207000E02460610F21601700F0A7FF0020A0613D
:1020800007202061002010BD7047704770B590F8A0
:102090003C20012A23D0012480F83C40022280F811
:1020A0003D2003685A689D6822F070060A68324332
:1020B0005A600C4B02689A4205D0B2F1804F02D0B0
:1020C000094B9A4204D1496825F080031943916075
:1020D00080F83D40002180F83C10084670BD022089
:1020E00070BD0000002C01400004004090F83C202E
:1020F000012A0CD0012200F83C2F0223437050F833
:102100003C3C596142700021017008467047022032
:10211000704770472DE9F04104460068C6680569BC
:102120004FF00007A90713D5B10711D5F91E0161BA
:1021300001202077206880698007204602D0FFF7C1
:10214000E8FF04E000F0B8F8204600F067F92777D0
:10215000680716D5700714D521686FF00400086170
:10216000022020772068806910F4407F204602D04A
:10217000FFF7CFFF04E000F09FF8204600F04EF993
:102180002777280715D5300713D521686FF0080089
:102190000861042020772068C0698007204602D0AB
:1021A000FFF7B7FF04E000F087F8204600F036F9AB
:1021B0002777E80616D5F00614D521686FF01000D1
:1021C0000861082020772068C06910F4407F20460D
:1021D00002D0FFF79EFF04E000F06EF8204600F00A
:1021E0001DF92777E80708D0F00706D021686FF0BF
:1021F00001000861204600F0CBF9280608D530061A
:1022000006D521686FF0800008612046FFF73CFF8B
:10221000680608D5700606D521686FF04000086191
:10222000204600F0D5F9A8060AD5B00608D52168E1
:102230006FF0200008612046BDE8F041FFF725BFA0
:10224000BDE8F08100B585B00021009101910291B7
:10225000039100681449884223D11448816941F0F0
:1022600008018161816901F008010491816941F0EF
:1022700001018161806900F0010004900C4841680F
:1022800021F4406141F0E06141F4006141602020AF
:102290000090022001900320039069460548FFF753
:1022A00075FA05B000BD00000004004000100240B7
:1022B00000000140000C0140704770B5044690F8E2
:1022C0003C0000260D4601280FD0012084F83C0078
:1022D0006AB1042A1DD0082A2FD00C2A3FD001262B
:1022E000002084F83C00304670BD022070BD20689C
:1022F00000F0D6FC2068816941F008018161206806
:10230000816921F004018161206881692A69114392
:1023100011E0206800F0ECFC2068816941F4006164
:1023200081612068816921F480618161206881690F
:102330002A6941EA02218161D2E7206800F004FDA8
:102340002068C16941F00801C1612068C16921F0BC
:102350000401C1612068C1692A69114311E0206844
:1023600000F01EFD2068C16941F40061C161206870
:10237000C16921F48061C1612068C1692A6941EAAB
:102380000221C161ACE710B5040003D094F83D0010
:1023900010B107E0012010BD002084F83C00204669
:1023A00000F01EF8022084F83D00211D206800F096
:1023B00033FC012084F8460084F83E0084F83F0096
:1023C00084F8400084F8410084F8420084F8430017
:1023D00084F8440084F8450084F83D00002010BDD6
:1023E00008B500680B49884212D10B48C16941F019
:1023F0000201C161C069002200F002000090114694
:102400001D20FFF719FBBDE808401D20FFF706BBA4
:1024100008BD0000000400400010024070470000AA
:1024200030B500250446022249B1042912D00829FA
:102430003BD094F84100012842D0012030BD94F8EF
:102440003E000128F9D184F83E202068C26842F09D
:10245000020209E094F83F000128EED184F83F2001
:102460002068C26842F00402C2600122206800F0C5
:1024700009FC19492068884203D1426C42F40042A9
:1024800042642068884205D0B0F1804F02D01349E1
:10249000884204D1816801F00701062903D0016850
:1024A00041F001010160284630BD94F84000012848
:1024B000C3D184F840202068C26842F00802D3E704
:1024C00084F841200C2901D00125ECE72068C2687E
:1024D00042F01002C8E70000002C01400004004058
:1024E00070B50D0004464FF0000607D0042D0AD049
:1024F000082D0DD00C2D10D001263CE02068C168BD
:1025000021F002010DE02068C16821F0040108E01B
:102510002068C16821F0080103E02068C16821F04B
:102520001001C16000222946206800F0ABFB174B68
:1025300041F2111120688A10984209D1036A0B42B6
:1025400006D1036A134203D1436C23F4004343646E
:102550002068036A0B4206D1016A114203D1016867
:1025600021F00101016001203DB1042D08D0082DAA
:1025700009D084F84100304670BD84F83E00FAE787
:1025800084F83F00F7E784F84000F4E7002C0140AE
:1025900010B500680B49884213D10B4C20780028F5
:1025A0000FD0A068401CA060A0686168884208D372
:1025B00004210648FFF794FF0120FDF79FFE00204D
:1025C000207010BD000400400000002058000020D2
:1025D0007047704770470000F8B501680446086806
:1025E000CA684B6910F00F0F4FF0000559D003F087
:1025F000010602F49077374365D0C10705D0D105B5
:1026000003D5616C41F001016164410705D5D9072B
:1026100003D0616C41F002016164810705D5D907DF
:1026200003D0616C41F004016164010707D502F039
:102630002001314303D0616C41F008016164616C99
:1026400000293AD0800604D5900602D5204600F035
:10265000F8FB20684069616CC0F38010090700D462
:1026600060B3204600F0C6FB20684069400621D5D3
:102670002068143050E8001F21F0400140E80012AB
:10268000002AF5D1E06BA8B16D494163E06BFEF71C
:1026900047FF002811D0E06B416B01B0BDE8F0406E
:1026A000084783060FD593060DD52046BDE8F840B0
:1026B00000F0C7BB2046FFF78DFFF8BD2046FFF7AF
:1026C00089FF6564F8BD266B2023012E7CD1C606E8
:1026D0007AD5D60678D508684868009048694FF0E2
:1026E0000206400640D5E16B086840680004000C13
:1026F000E8D0A28D8242E5D9E085886920282DD0D6
:1027000020680C3050E8001F21F4807140E800126E
:10271000002AF5D12068143050E8001F21F0010193
:1027200040E80012002AF5D12068143050E8001F5C
:1027300021F0400140E80012002AF5D184F842302F
:10274000256320680C3050E8001F21F0100140E89C
:102750000012002AF5D1E06BFEF7BEFE6663A08D85
:10276000E18D401A81B22AE0A08DE18D401A81B23C
:10277000E08D0028A6D00029A4D022680C3252E8AF
:10278000000F20F4907042E80007002FF5D1206878
:10279000143050E8002F22F0010240E80027002FFB
:1027A000F5D184F84230256320680C3050E8002FC2
:1027B00022F0100240E80023002BF5D1666320468A
:1027C000FFF707FFF8BDFFE705062BD5150629D54E
:1027D00094F841002128F5D1A068B0F5805F01D1BF
:1027E0002069B0B1206A411C2162216800784860EC
:1027F000E08C401E0004000CE084E3D12068C16836
:1028000021F08001C1602068C16841F04001C160D1
:10281000D8E7206A0088C0F308004860206A801C5E
:102820002062E5E74006CDD55006CBD5CA682046E4
:1028300022F04002CA6084F8413000F08EF8C1E70F
:10284000E52D000870B5040004D094F8410000257F
:1028500010B106E0012070BD84F84050204600F021
:1028600023F8242084F841002068C16821F4005135
:10287000C160204600F046FB2068016921F49041C8
:1028800001612068416921F02A0141612068C16825
:1028900041F40051C1606564202084F8410084F84F
:1028A00042006563002070BD70B586B00025064605
:1028B00000950195029503950068224988423FD111
:1028C0002149886940F480408861886900F480402B
:1028D0000490886940F00400886188691B4C00F00E
:1028E00004000490481500900220019003200390FA
:1028F00069462046FEF74AFF2015CDE900056946E6
:1029000020460295FEF742FF124C1148C4E900052B
:102910008020C4E9025020202561C4E905502046EA
:10292000E561FEF7F3FE08B1FEF78BFCF4630022CD
:10293000114625206662FFF77FF82520FFF76EF825
:1029400006B070BD00380140001002400008014090
:1029500058000240E800002070477047FEE7000082
:102960003EB5002411480094019402940E498460FD
:10297000016004730475012505614FF46021446012
:10298000C161FEF7DFFC08B1FEF75BFC0820CDE972
:102990000005694602940548FEF756FC002801D060
:1029A000FEF74FFC3EBD000000240140280000203F
:1029B000094808B5416941F00101416140690022BF
:1029C00000F00100009011460F20FFF735F8BDE838
:1029D00008400F20FFF722B8001002402DE9F04315
:1029E00085B00024384800940194029403948169CE
:1029F00041F010018161816901F010010491816948
:102A000041F004018161816901F00401049181694F
:102A100041F00801816180692C4F00F008004FF4FB
:102A200000550490002229463846FEF794FFDFF84F
:102A3000A080012220214046FEF78DFF0122802147
:102A40004046FEF788FFDFF88C90002210214846B0
:102A5000FEF781FF0126CDE900560225694638467A
:102A6000CDE90245FEF792FE0420CDE900050320E2
:102A7000039069464046FEF789FEA020CDE9000696
:102A800069464046CDE90245FEF780FE4020CDE98B
:102A90000004694640460294FEF778FE4FF46060F9
:102AA000CDE90004694648460294FEF76FFE102007
:102AB000CDE9000669464846CDE90245FEF766FEC7
:102AC00005B0BDE8F0830000001002400010014096
:102AD00000080140000C014010B58AB000240794A2
:102AE0001C2168460894FDF76FFB17481549C0E99B
:102AF000001441F6FF01C0E9024104618461FFF75F
:102B000042FC08B1FEF79DFB079407A90E48089404
:102B1000FFF7BCFA08B1FEF794FB602000904FF479
:102B20004860CDE901040422694607480494FFF790
:102B3000C4FB08B1FEF785FB0348FFF783FB0AB02F
:102B400010BD000000040040580000200C4810B5E3
:102B50000A4901604FF4E1314160002181600C229B
:102B6000C160C0E904128161C161FFF76BFE0028FA
:102B700003D0BDE81040FEF764BB10BD0038014033
:102B8000A0000020FEE7FEE770477047FEF7EEBEAC
:102B900030B593B028216846FDF716FB14210AA82A
:102BA000FDF712FB0024022501200F9404900095EC
:102BB0001020059012944FF46010CDE90840119454
:102BC000109407956846FFF7BBF808B172B6FEE7A8
:102BD0000F20CDE90A054FF4A060CDE90C40022199
:102BE0000AA80E94FEF7D0FF08B172B6FEE74FF4C4
:102BF000404011900F950FA8FEF750FF002801D01C
:102C000072B6FEE713B030BD704700000148FFF711
:102C100081BA00005800002070B50268174B184CAC
:102C20004FF08046984203D0B04201D0A04203D179
:102C300022F070054A682A43984203D0B04201D07E
:102C4000A04203D122F44074CA6822434C6922F0A6
:102C50008002224302608A68C2620A6882629842E5
:102C600001D109690163012141610169C90703D0EB
:102C7000016921F00101016170BD0000002C0140DB
:102C80000004004010B501F01F030121046A9940BF
:102C90008C430462016A9A401143016210BD000036
:102CA00030B5036A026A22F0010202624268846956
:102CB00024F073050C682C4323F002058B682B432A
:102CC0000A4DA8420BD123F00805CB6822F44072CC
:102CD0002B434D6923F0040315438A692A4342605C
:102CE000846149684163036230BD0000002C0140EB
:102CF00030B5026A036A23F01003036243688469F3
:102D00000D6824F4E64444EA05248D6822F020028C
:102D100042EA05120B4DA8420ED1CD6822F0800286
:102D200042EA05124D6923F4406343EA85038D6945
:102D300022F0400243EA850343608461496881636D
:102D4000026230BD002C014030B5036A026A22F4F1
:102D5000807202624268C46923F4007324F0730530
:102D60000C682C438D6843EA05230C4DA8420ED114
:102D7000CD6823F4006343EA05234D6922F44052F1
:102D800042EA05128D6923F4806342EA051242602B
:102D9000C4614968C163036230BD0000002C01407A
:102DA00030B5046A026A22F4805202624268C36942
:102DB0000D6823F4E64343EA05238D6824F40054A8
:102DC00044EA0534064DA84204D14D6922F48042FC
:102DD00042EA85124260C36149680164046230BD01
:102DE000002C014010B5406A0021C185C184FFF765
:102DF000F1FB10BD01680C3151E8002F22F49072F4
:102E000041E80023002BF5D10168143151E8002F6F
:102E100022F0010241E80023002BF5D1016B0129CA
:102E200009D101680C3151E8002F22F0100241E86D
:102E30000023002BF5D1202180F8421000210163EE
:102E4000704708B590F84210222901D0022008BD31
:102E500082684FF480539A4201D1016921B1816A9D
:102E60009A421BD04AB10AE00268816A5268C2F3F2
:102E700008020A80816A891C08E0026972B102684E
:102E8000526802F07F020A70816A491C8162C18D1A
:102E9000491E0904090CC18503D01BE00268526871
:102EA000F1E70168CA6822F02002CA600168CA68B6
:102EB00022F48072CA6001684A6922F001024A6104
:102EC000202180F8421000214163026B012A03D0C7
:102ED000FFF742FD002008BD016301680C3151E895
:102EE000002F22F0100241E80023002BF5D10168E9
:102EF0000A68D20602D50A6849680091818DFFF7F9
:102F000068FBE7E770B5044600680169E26821F4F0
:102F10004051114301612169A06808436169084378
:102F20002168CA6841F20C639A430243CA60206870
:102F30004169A26921F44071114341611E49206831
:102F4000884202D1FEF7C6FE01E0FEF7B3FE00EBB9
:102F5000C00101EB0012606864218000B2FBF0F355
:102F6000B3FBF1F36FF018067343B2FBF0F5B2FB5D
:102F7000F0F605EB8305322303EB0515B5FBF1F500
:102F8000B6FBF1F605F0F00505EB0615B2FBF0F621
:102F9000B2FBF0F0B0FBF1F06FF01802504306EB1B
:102FA000800003EB0010B0FBF1F0216800F00F008F
:102FB0002844886070BD0000003801400148FFF7D8
:102FC0000BBB0000A0000020FEE70907090E002847
:102FD00004DB00F1E02080F80014704700F00F00DF
:102FE00000F1E02080F8141D70470000FEF7C6FCD9
:102FF000FFF7CEFDFFF7F2FCFFF7DAFCFFF76CFD01
:10300000FFF7A4FDFFF7ACFCFDF7E4F90349086006
:10301000081F01684906FCD5FEE70000043801409E
:10302000064910B50B1D04E00C682406FCD51A6097
:10303000401C0278002AF7D110BD00000038014082
:103040007EB5104A0021141D70B10A254FEA0D0308
:10305000B0FBF5F605FB1606B0FBF5F030365E5416
:10306000491C0028F4D10AE010680006FCD5302085
:1030700020607EBD10680006FCD5585C2060491EAB
:10308000F8D27EBD0038014070B51C4615460E468C
:10309000FFF7C6FF224629463046FDF73FF942F2C8
:1030A00010740E4D02E00120FEF75EFB287808B197
:1030B000641EF8D2287830B1FDF77AF908A0FFF73E
:1030C000AFFF002070BD0BA0FFF7AAFFA868FFF7B5
:1030D000B7FF0CA0FFF7A4FF012070BD0000002087
:1030E000204641494C202874696D656F7574290D1F
:1030F0000A00000020504153532028646F6E653D44
:1031000000000000290D0A002DE9F041DFF86CC035
:103110004FF4FA4100FB01F3DCF80000184F80B2D5
:1031200000213A680C46C2F380120D4610E03E685A
:10313000C6F38016964204D004B94D09641CE4B26B
:103140003246DCF80060B6B2301A80B20144304634
:103150009942ECD30BA000F0BBF80221204600F00E
:10316000C7F80DA000F0B4F80421284600F0C0F81C
:10317000BDE8F0410AA000F0ABB800002404004014
:10318000080801405B5241575D206368616E6765C6
:10319000733D30780000000020666972737440004F
:1031A00075730D0A000000001FB500200190039008
:1031B000802000900120029069460248FEF7E6FA5E
:1031C0001FBD000000080140044A116889B213685D
:1031D0005B1A9BB28342FAD370470000240400407C
:1031E0000D4910B500220A600C480B4C28340388A6
:1031F0002360241D43882360074C83883834236070
:10320000054B24331A601B1F02891A60C08840F0E6
:103210000100086010BD0000000400400C00002008
:103220000D49086820F0010008600B48283002684A
:103230000A480280084A2C3212684280064A383214
:1032400012688280044A20321268028109684FF6AF
:10325000FE721140C1807047000400400C00002045
:1032600010B5FFF7DDFF0B48016821F01001016088
:103270000849002008310860064A4FF6FF710C32F9
:1032800011600449091D08600249012020390860C5
:1032900010BD00002004004070B505460020024625
:1032A00013E0AC5C5FF0000304F00106B6EBD01F46
:1032B0004FEA4000C0B201D080F007005B1C6408F8
:1032C000DBB2082BF0D3521CD2B28A42E9D370BDD4
:1032D000064910B50B1D04E00C682406FCD51A60E5
:1032E000401C0278002AF7D110BD000000380140D0
:1032F00030B50B4B1C1D10E08A00121F20FA02F2A1
:1033000002F00F020A2A01D2303200E037321D6883
:103310002D06FCD52260491EC9B20029ECD130BD72
:103320000038014070B5044615460E460AA0FFF766
:10333000CFFF2046FFF7CCFF08A0FFF7C9FF02210F
:103340003046FFF7D5FF07A0FFF7C2FF2846BDE8CC
:1033500070400821FFF7CCBF20200000205B3078B0
:10336000000000005D203D2030780000F8B5052108
:103370008DF800108DF8010000208DF80200032167
:103380006846FFF789FF8DF8030000F029F872B650
:1033900000246D46285D00F095F8641CE4B2042C0E
:1033A000F8D3FFF701FF0B4C2068002285B20A4BCF
:1033B0000A4E10463168490601D4012007E0216811
:1033C00089B24D1BADB22A440D469A42F2D362B681
:1033D000F8BD00002404004000E204000808014099
:1033E0007FB580200125CDE9000500240320CDE92B
:1033F0000240094E69463046FEF7C8F90122802195
:103400003046FCF787FF40208DE8310069463046A2
:10341000FEF7BCF97FBD000000080140F0B5274C65
:103420004FF4FA4251432268002593B2244A07E040
:103430002668B6B2F31A9BB21D4433468D4237D884
:1034400016687606F4D5236800259BB207E0266847
:10345000B6B2F31A9BB21D4433468D4228D8166883
:103460007606F4D4216841F288331944002589B2E4
:103470002B464FF0010C4FF400472668761AB6B27F
:10348000BE42FAD21668760603D50CFA03F62E432E
:10349000F5B25B1C01F60551DBB289B2082BECD307
:1034A00023685B1A9BB2BB42FAD21168490601D469
:1034B0000020F0BD05700120F0BD00002404004094
:1034C000080801402DE9F047104F802506463D6071
:1034D00040F605594846FFF777FE0024A7F1040897
:1034E000F00702D0C8F8005000E03D604846FFF702
:1034F0006BFE641C7608E4B2082CF1D3C8F80050C7
:103500004846BDE8F047FFF75FBE000014080140E1
:103510002DE9F05FDFF87080002780260546C8F8A7
:10352000006040F60550FFF74FFEA8F10409C346BE
:10353000DFF854800024A8F10C084FF0010AE807D6
:1035400001D0484600E05846066040F28360FFF72D
:103550003BFED8F80000400603D50AFA04F03843D1
:10356000C7B240F28260FFF72FFE641C6D08E4B220
:10357000082CE4D3C9F8006040F60550FFF724FE9C
:103580003846BDE8F09F0000140801400102020324
:103590000405060708090A0B0C0D0E0F1010000099
:1035A00000000000000001020304060708090000F3
:1035B0000000010203040000D835000800000020CC
:1035C000280000002801000800360008280000201C
:1035D000680700004401000800000000000000002F
:1035E00000000000000000000000000000000000DB
:1035F00001000000100000000000000000127A002E
:04000005080000ED02
:00000001FF
