:020000040800F2
:10000000D826002005010008254C00089745000867
:10001000454B000871160008257B00080000000011
:1000200000000000000000000000000099510008DE
:100030004717000800000000CD4F00089B51000842
:100040001F0100081F0100081F0100081F01000810
:100050001F0100081F0100081F0100081F01000800
:100060001F0100081F0100081F0100081F010008F0
:100070001F0100081F0100081F01000805170008E4
:10008000111700081F0100081F010008317A00083D
:100090003D7A00081F0100081F0100081F01000829
:1000A0001F0100081F0100081F0100081F010008B0
:1000B0001F0100081F010008000000001F010008C8
:1000C0001F01000800000000000000001F010008E0
:1000D00000000000BD630008C963000800000000C4
:1000E0001F0100081F0100081F010008DFF810D0E1
:1000F00000F052F800480047657B0008AFF300802D
:10010000D82600200648804706480047FEE7FEE75D
:10011000FEE7FEE7FEE7FEE7FEE7FEE7FEE7FEE7B7
:100120001B520008ED00000840EA01039B0703D0C2
:1001300009E008C9121F08C0042AFAD203E011F826
:10014000013B00F8013B521EF9D27047D2B201E0E8
:1001500000F8012B491EFBD270470022F6E710B5CC
:1001600013460A4604461946FFF7F0FF204610BD25
:10017000421C10F8011B0029FBD1801A704730B5D2
:1001800004460020034600E05B1C934203D2E05C7F
:10019000CD5C401BF8D030BD064C074D06E0E06852
:1001A00040F0010394E8070098471034AC42F6D3BE
:1001B000FFF7A0FF387C0008587C000870B58C1849
:1001C00010F8015B15F0070301D110F8013B2A116B
:1001D00006D110F8012B03E010F8016B01F8016B58
:1001E0005B1EF9D12B0705D40023521E0DD401F854
:1001F000013BFAE710F8013BCB1A921C03E013F81D
:10020000015B01F8015B521EF9D5A142D8D3002051
:1002100070BD000001490020087070478001002077
:1002200002480078002800D001207047800100209B
:100230002DE9FC41454C2078002828D0012828D001
:100240000125434F042836D0002602284CD003282D
:100250001DD1A0880822010A8DF800108DF8010038
:10026000E088010A8DF802108DF803002089010A48
:100270008DF804108DF805006089010A8DF80610CC
:100280008DF807006946102000F09CFE2670BDE83E
:10029000FC81607808B1012100E000216422002087
:1002A00005F074FC0128F2D002F052FC00F5FA705F
:1002B000E060042043E002F04BFCE1688842E6D3B2
:1002C00010212348FFF749FF22493D70C888020AE0
:1002D0007A70B870FD7002223A710889010A79714A
:1002E000B871FD712270D2E737F8010FB988BB7879
:1002F000BA7940BA49BA3BB1A388984200D9A080E4
:10030000E388984200D2E0803AB12089814200D946
:1003100021816089814200D26181E078401CC0B2B5
:10032000E070042807D3E670607850B10020607058
:10033000A078401CA070A078062804D30320207069
:10034000A5E70120F3E72570A1E700008001002068
:10035000880E0020880800200948017809B1012092
:10036000704701210170002141708170C17081804E
:100370004FF6FF72C280018142810846704700003B
:10038000800100202DE9F04F8B46824600214FF678
:10039000FF794F1C002607F0FF0C4C4635463346CC
:1003A0000AEB031000EB810898F8030050B1B8F88D
:1003B000010040BAA04200D20446B04200D906462D
:1003C0006D1CEDB25B1CDBB2032BE9D3022D02D313
:1003D000A6EB040000E0484680B203D3584501D89C
:1003E000012300E0002302F821C002EB8101040A8E
:1003F0004C708870CB70F9B20429CAD3BDE8F08F75
:1004000001490020087070479001002070B51E4C13
:100410002078002830D002F09BFB616803261B4D3A
:10042000884201D9267004E02078022825D00328CC
:1004300022D1164910222039A1F14000FFF774FEA5
:10044000124910221039A1F14000FFF76DFE0F484C
:10045000102229464038FFF767FE0C4A6178303A8F
:1004600002F11000FFF78EFF08494022603920207A
:1004700000F0A8FD0020207070BD284605F000FBAC
:100480000128CFD170BD000090010020F80E00209F
:100490002DE9FE432C4E317811B10120BDE8FE83D9
:1004A0002A4F2B4D70700024A7F1040857F8241030
:1004B0000422684600F09EFF18F8040005F82400A6
:1004C000BDF8021005EB84000A0A427081709DF8A5
:1004D000081001B10121641CE4B2C170042CE5D301
:1004E0001B4810211030FFF738FE1A486C46C188AF
:1004F000ADF800100189ADF80210008BADF80400D2
:100500000020012305EB8001421C0A7434F810001E
:10051000070A4F748874D0B2CB740328F2D3042036
:1005200028770B48102120300446FFF716FE20469E
:1005300005F0A6FA0220307002F00AFB41F2883181
:10054000084470600020A9E790010020E47B0008C7
:10055000D80E00208808002070B504460068816825
:10056000C943C90717D1816821F00101816002F0F8
:10057000EFFA05460AE000BF02F0EAFA401B022843
:1005800004D920688068C043C00706D0206880680E
:10059000C043C007F0D0002070BDA06A40F010003A
:1005A000A062E06A40F00100E062012070BD00003E
:1005B000F8B500260446009600688168C943C9075B
:1005C0002DD0816841F0010181601648164900680C
:1005D000B0FBF1F000E0401E00900028FBD102F0DB
:1005E000B7FA054616E000BF02F0B2FA401B022837
:1005F00010D920688068C043C0070BD0A06A40F0C3
:100600001000A062E06A40F00100E06284F824601B
:100610000120F8BD20688068C043C007E4D10020F5
:10062000F8BD00004402002040420F002DE9F74FC2
:10063000FC4C8AB001260A98FF27B4F814C0E37A6C
:1006400000254FF00C084FF0070B4FF6F8791228F1
:100650007ED00CDCA0F104000E2827D2DFE800F0E9
:100660002926262630E7E7E7EDA42626FDFCDFF85D
:10067000B4834FF0020AB0F5897F98F8008068D003
:100680000BDC132866D00B23202837D02B2871D001
:10069000A0F58070113809D146E10421A0F58070E1
:1006A000133868D0012867D0022878D08DF8007000
:1006B00004E1DDA003220068009069460420A3E164
:1006C00002A901A805F008FA01280AD058B18DF84E
:1006D00000508DF801508DF8027003226946082001
:1006E00092E108200AE18DF800609DF804008DF881
:1006F00001009DF808008DF80200EEE7022A01D300
:10070000087860B132B10E78012E10D0072E34D0A7
:10071000042E36D08DF81030012204A9D8E0487894
:10072000FFF7B6FE00287FD08DF81060F4E7BF4ECB
:100730000024A6F11C076D4656F82410042206A8D2
:1007400000F058FE385D05F82400BDF81A1002E0EC
:10075000C0E0F0E0D8E005EB84000A0A4270817046
:100760009DF8201001B10121641CE4B2C170042C79
:10077000E2D310E03DE020E12DE1684605F080F98C
:1007800002E0684604F08AFF012809D018B10095FC
:1007900001950295039510226946202034E12AE153
:1007A0002020A082A6723CE003AA02A901A804F0BE
:1007B000ADFD01280CD068B18DF800808DF8015096
:1007C0008DF802708DF80370042269460D201BE13C
:1007D0000D2025E08DF800509DF804008DF80100F3
:1007E0009DF808008DF802009DF80C008DF80300BC
:1007F000EAE7022A04D28DF80430012201A90BE0B5
:10080000088840BA05F086F8012808D000B1042015
:100810008DF80000012269462B20F5E004E02B2032
:10082000A08202F095F9A0610DB0BDE8F08F0A98A2
:100830000DB0BDE8F04F01F0F9B901200295019526
:100840008DF80C7003AB01AA02A901F085F802989B
:1008500008B148450AD901E033E02CE0002003ABA1
:1008600001AA02A901F078F8029808B1484509D90F
:1008700006208DF800008DF803508DF802508DF899
:10088000015014E09DF80C00A52802D08DF800B0AE
:1008900001E08DF800509DF804008DF801009DF8EE
:1008A00005008DF802009DF806008DF80300042273
:1008B00069460C20A8E0FFF74FFD04E001226946DD
:1008C00006E001F023F80028AED08DF80060F5E7CF
:1008D0000A9899E053EA0C0302D12078012802D04B
:1008E0008DF8086006E005F027F9012805D038B139
:1008F0008DF80880012202A9EAE71220A08293E77E
:100900008DF80850E561F5E7BCF1000F03D1B8F1AF
:10091000010F00D123B18DF800600122694673E018
:10092000E672257365737FE78DF8005001226946F2
:1009300040F2111068E02078012802D08DF8106094
:1009400019E038496B4602AA3C31002001F004F856
:10095000344E01AB3C3603AA311D012000F0FCFFF0
:10096000306828B1484503D872680AB14A4507D9AA
:1009700006208DF81000012204A94FF4897043E08D
:100980009DF80010A52903D19DF80410A52902D0D7
:100990008DF810B0EFE7B0F5A04F02D98DF810A098
:1009A000E9E7002004F0F8FFA571657103202070CD
:1009B0000221042000F068FB36E7B8F1010F06D0F1
:1009C0008DF800600122694640F213101CE0E571C9
:1009D000257266721EE0B8F1010F06D08DF8006036
:1009E000012269464FF48A700EE01120E0712572F1
:1009F00084F809A00EE0B8F1010F08D08DF800606E
:100A00000122694640F2151000F0DCFA0CE7E571AE
:100A10002572657221700DB00221BDE8F04F0520EE
:100A200000F032BB3C01002001000000D07B000838
:100A3000044908B14A8802800020087048800248B2
:100A40007047000098010020080F0020F0B51C49F5
:100A5000002601254A881B4B541CA4B2082A26D222
:100A6000DFE802F004090F0F0F0F1215A52801D1BE
:100A700018704D80F0BD5B2811D15870022048805D
:100A8000F0BD98544C80F0BD98710720F7E7D871FD
:100A90009A7940EA02208880B0F5807F01D94E80A3
:100AA000F0BD08224A800028FAD14A80F0BD8E8825
:100AB0000836B242E5D998544C800D70F0BD000064
:100AC00098010020080F0020024800214180017099
:100AD000704700009801002001480078704700002E
:100AE0009801002010B5124C0020411E2070617149
:100AF000E17160822071A082FFF7E6FF01F09CF9AE
:100B0000FFF77EFCFFF786FB00F01EFE04F060FAA4
:100B10000021072000F0B8FA06A000F017F8012025
:100B200020700146BDE81040032000F0ADBA00007F
:100B30003C0100200D0A3D3D205531204A696720C7
:100B40005265616479203D3D0D0A000070B506468E
:100B5000FFF70EFB85B201F0FBFF044605E000BF86
:100B600001F0F6FF001B322805D82946304600F078
:100B7000A9FD0128F4D070BD1CB5002205218DF817
:100B800005206B465FF00A02B0FBF2F402FB14048E
:100B9000B0FBF2F0491E49B230345C540028F3D166
:100BA0005818FFF7D3FF1CBD2DE9F0475D4C002519
:100BB000012694F905300A216F1EF006C2B04FF0ED
:100BC00004094FF4897A04F13C024FF480780B2B2E
:100BD00018D2DFE803F0061A212A7917171717171A
:100BE0003500012004F0C2FD03F0D6FC38B100202E
:100BF00004F0BCFD8DF80090012269464FE004F03E
:100C0000EFF9667142B0BDE8F08703F031FD0028CE
:100C1000EDD10220A56253E04FF48033A562236337
:100C20001268E2626063A57108E04FF4003020634F
:100C30005068E0623C48A5626063A6716171E1E7BB
:100C4000D4E90A01884238D2091AFF2901D9454658
:100C500000E08DB205F107084FF6F87108EA0108C7
:100C6000216B2A4601446846083101F049F9A8453C
:100C700006D9A8EB05010DEB0500FF22FFF766FA88
:100C8000A16A606B42460844694603F0ABFD80B13F
:100C9000002004F06BFD8DF80091012240A9504620
:100CA00000F090F9267067710021012000F0ECF946
:100CB000A8E7A06A4044A062A4E7A07910B104208C
:100CC00060719FE70320FBE703F098FC0022414698
:100CD000164801F037FFDFF858904FF40048002223
:100CE0004146484601F02EFF0A2001F039FE01225C
:100CF0004146484601F026FF012004F04DFE002049
:100D000004F034FD8DF8005001226946504600F091
:100D100059F92670677142B00021BDE8F047022002
:100D200000F0B2B93C01002000500008000801406A
:100D3000000C014010B501F00BFF1C4B9978A9B1D4
:100D4000012902D0022911D102E04FF4FA7100E02A
:100D50007D215A6A821A8A4207D3D97819B10021B3
:100D6000D970586204E00121FAE709B90120D8706E
:100D70000020DC780146024694B15B78082B0FD244
:100D8000DFE803F00E04060D080A0C12012007E04C
:100D9000012105E00120FBE7012100E00120012203
:100DA000BDE8104000F0AABB0120F5E73C0100209F
:100DB0002DE9F041C6B0FFF78FFE804C0127D0B17E
:100DC00042A8FFF735FE44AA02A9CDE9001245ABBF
:100DD00043AABDF8081100F07AFE60B1BDF8140115
:100DE00008B1608227712082BDF8102102A9BDF8E8
:100DF0000C01FFF71BFCFFF79DFFFFF711FA40F610
:100E0000B8360025E8B900F0A5FCD0B9E07AC0B941
:100E1000A08AB0B901F09CFEA16B401AB04201D982
:100E2000A07B18B1A07B012806D00AE004F0E2FE06
:100E300001F08EFEA063A77304F0DCFE012800D051
:100E4000A57304F013FF04F0E1FAFFF7DFFAFFF7F0
:100E5000EFF900F087FC03F077FEA08A4FF0FF085F
:100E6000082809D00C27122822D00D282FD02B2893
:100E700059D0202872D08CE002A901A804F02CFEE1
:100E8000012869D048B18DF800508DF801508DF8D7
:100E900002800322694608205BE08DF800709DF80F
:100EA00004008DF801009DF808008DF80200F0E7BD
:100EB00004F042FE01286CD028B18DF800700122A8
:100EC0006946122045E08DF80050E561F7E703AA76
:100ED00002A901A804F01AFA01280DD0B0B18DF8CA
:100EE00000708DF8015040468DF802808DF80300A7
:100EF000042269460D202CE001F02AFEA169401A67
:100F0000B04246D92EA000680090F1E78DF800505D
:100F10009DF804008DF801009DF808008DF802008E
:100F20009DF80C00E2E7002004F0F4FC012807D053
:100F300000B104208DF80000012269462B2008E052
:100F400001F006FEA169401AB04222D98DF8007066
:100F5000F2E700F037F8A5821BE0FFE7A07A072848
:100F6000684605D004F09AFB012804D048B90CE08B
:100F700004F086FDF8E701F0EBFDA169401AB042EC
:100F800007D9009501950295039510226946202006
:100F9000DFE700F05FFF2078032806D0042809D19E
:100FA00046B0BDE8F04100F093B846B0BDE8F0416E
:100FB000FFF7FABD46B0BDE8F08100003C0100201B
:100FC0000C00FFFF30B50B46C5B00D4900920A8AF0
:100FD000014601A800F0FBFC054601F0B9FD0446FE
:100FE00005E000BF01F0B4FD001B322805D82946FA
:100FF00001A800F067FB0128F4D045B030BD000027
:101000003C010020F0B5174E87B000246D46A6F1D4
:10101000100700BF56F82410042204A800F0EAF9D3
:101020009DF81800002801D0BDF8120002D04FF042
:10103000010201E04FF00002395D05F8241005EBD4
:1010400084014FEA10234B7004F101048870E4B26C
:10105000CA70042CDED310226946142000F004F874
:1010600007B0F0BDC07B000800B5C5B00B460092CC
:101070000146002201A800F0AAFC014601A800F0E8
:1010800021FB45B000BD0000024A50709170012064
:10109000D07070473C01002010B520B1BDE8104071
:1010A00004A0FFF753BD06A0FFF750FD074901203C
:1010B000087210BD2020504153530D0A000000005B
:1010C00020204641494C0D0A000000003C01002050
:1010D0007CB5644C1726012594F9070018287CD2AA
:1010E000DFE800F00C0E191B222427292C2E3133A7
:1010F00036383B3D404F535F617C7E8E5AA069E09D
:1011000004F0A0FC0BE0012000E00020FFF7C4FF8A
:10111000E079401CA4E058A05CE004F01FFC01282A
:101120006BD00028F1D1EEE757A053E004F0D0F8DF
:10113000F5E759A04EE004F08FF8F0E75AA049E037
:1011400004F0D8FAEBE75CA044E004F0F1FAE6E73B
:101150005DA03FE004F09EF8E1E75FA03AE004F014
:101160005DF8DCE7607A08B1012806D15EA0FFF7E0
:10117000EDFCFFF747FF607A08B1172070E01120FF
:101180006EE000F0EFF95CA024E004F033FD0128EC
:1011900033D020B15CA0FFF7D9FC2572B8E760A07E
:1011A00018E062A016E001A9684604F095FC012849
:1011B00023D00028A9D161A0FFF7C8FC9DF800004A
:1011C000FFF7DAFC5EA0FFF7C1FC9DF80400FFF713
:1011D000D3FC59A0FFF7BAFC9AE70DE059A0F9E754
:1011E000684604F061FE012807D09DF8001008430E
:1011F00004D00020FFF750FFE6717CBD0120F9E725
:1012000000F0A8F9607A012813D0022814D040F227
:101210001516207A98B14FA0FFF798FC05208DF89D
:101220000000012269463046FFF7CCFE0021012074
:1012300012E040F21316ECE74FF48A76E9E74CA08F
:10124000FFF784FC00208DF800000122694630463B
:10125000FFF7B8FE00210220FFF716FF2570FF20E0
:10126000E0717CBD3C0100205B544553545D20304F
:101270007831300D0A0000005B544553545D203036
:101280007831310D0A0000005B544553545D203025
:101290007831320D0A0000005B544553545D203014
:1012A0007831330D0A0000005B544553545D203003
:1012B0007831340D0A0000005B544553545D2030F2
:1012C0007831350D0A0000005B544553545D2030E1
:1012D0007831360D0A0000005B544553545D2030D0
:1012E0007832300D0A0000005B544553545D2041B4
:1012F00044430D0A000000005B544553545D2055E3
:101300003750696E670D0A0020204641494C3A204B
:101310005537206F66666C696E650D0A0000000027
:101320002020504153530D0A000000005B544553E8
:10133000545D2055375665720D0A00002020760056
:101340002E0000005B544553545D20553753656CA7
:10135000660D0A003D3D3D205445535420524553EF
:10136000554C543A204641494C203D3D3D0D0A0024
:101370003D3D3D205445535420524553554C543A1D
:101380002050415353203D3D3D0D0A0070B50D46A0
:101390000646002403E0305DFFF758FB641CAC42B6
:1013A000F9D370BD0F4808B5016841F40001016030
:1013B000012001F0D5FA0C4800F082FE69461120A8
:1013C00000F054F89DF8001000290AD0002808D039
:1013D000064940F6E44209885143B1FBF0F0044964
:1013E000086008BD08240140E80C0020BAF7FF1F80
:1013F0002C0100202DE9F84F002481462546501E7F
:1014000016468A4664F30705202804D3C9F800402D
:10141000C9F8044023E04FF0000847460AE0694657
:10142000504600F023F89DF800100029EED07F1CF4
:101430008044FFB2B742F2D308EB5600B0FBF6F09F
:10144000094980B260F31F440968484340F6FF71C0
:10145000B0FBF1F0C9E90040012161F30705C9F8CB
:101460000850BDE8F88F00002C010020FEB50C00EC
:101470004FF0000100910191029100D021700125EF
:10148000CDE900050720029069460E4800F084FE71
:1014900008B10020FEBD0B4801F068F80A21094898
:1014A00000F0C6FF0028074802D001F0BFF8F0E7BF
:1014B00000F0F0FE86B2034801F0B8F804B12570E0
:1014C0003046FEBDE80C002010B500F043F800F0F7
:1014D00039F800221146104600F010F8064C0022A0
:1014E0001021204601F02EFB20460022BDE81040CE
:1014F000202101F027BB0000000C014070B515460B
:101500000E4608B1012200E000220D4C4FF480513C
:10151000204601F017FB0EB1012200E000224FF43B
:101520000051204601F00EFB0DB1012200E0002227
:101530002046BDE870404FF4804101F003BB00003D
:10154000000C014000224FF40051014801F0FABAAA
:101550000010014000220821014801F0F3BA000008
:10156000000C014001220821014801F0EBBA000003
:10157000000C014070B5D0F8841000293ED0C96B32
:1015800000293BD009684968B0F890308AB293428C
:1015900001D3991A03E0B0F88C10891A1944002974
:1015A0002CDDB0F88C408C4200D22146E31AB0F812
:1015B0008E4089B26343DC1703EB146424F0FF040C
:1015C0001B1B9BB215E000BFB0F88040B0F8825002
:1015D000641C04F07F04A54207D0D0F88850B0F80E
:1015E0008060ED5C8555A0F8804090F88E402344E3
:1015F000DBB2491E89B2E7D2A0F8902070BD00008E
:1016000010B5164804F0A6FC1448943004F0A2FC6F
:10161000124C13491348B4F88C2002F05BFFD8B188
:1016200000200E494FF48072091F08700E490F48C0
:1016300002F050FF0B48C06B18B100684068A4F876
:1016400090000A48C06B002805D000684068034934
:101650009431A1F8900010BD0120E2E704000020C1
:101660005C030020B80D00205C040020700D0020F9
:10167000FEE70020704700207047000010B50022F0
:101680000449054804F098FF0449034804F08EFF1C
:10169000002010BDE01700201C110020E0150020E4
:1016A00070B50D4604460146054804F07FFF044826
:1016B00004F060FF20462968FFF768FE002070BD37
:1016C0001C110020094A10B5D2F8B822D2F8142211
:1016D0000AB1012010BD0A460146044804F06CFF1F
:1016E000BDE81040014804F0C5BF00001C110020F7
:1016F0004FF44861484343F68C41B0FBF1F080B2AF
:1017000070470000014801F01BB80000000E0020E7
:10171000014801F015B80000440E002030B590F8E3
:1017200040500124AC40C56B6C6004686360436842
:10173000102B036803D099600068C26030BD9A60C6
:101740000068C16030BD70470149002008707047D3
:10175000BC01002002480078002800D0012070471A
:10176000BC0100202DE9F04F644D87B02878002897
:101770005ED04FF006084FF0020A01281ED0022862
:1017800022D05F4F4FF00009032843D005F1160423
:10179000A11FAE1C04284FD0052873D0062847D1BE
:1017A0000127B2463D460020A6468B464FEA0D066D
:1017B0001AF800C0BCF1000F71D071E004F042F9DA
:1017C000012835D0B8BB63E04E4C697834F811007D
:1017D000C1B1FFF78DFF0646687804EB400030F892
:1017E000020CFFF785FF301A82B20021084604F090
:1017F000CDF901281CD001F0ABF900F5FA70A86012
:10180000032014E04FF44861484343F68C41B0FB99
:10181000F1F0E9E701F09CF9A968884208D387F85C
:10182000009001F095F900F57A70E86004202870C6
:1018300007B0BDE8F08F2EE038784FF0050860B1B2
:1018400087F8009030486A78008824F8120031F850
:10185000121088420CD9401A0BE001F079F9E968BE
:101860008842E5D9697824F8119006F8019012E0D1
:10187000081A80B2322802D8012001E002E00020DC
:10188000B05408E06878401CC0B26870032802D2E7
:1018900085F800A0CCE785F80080C9E7FFE70027BE
:1018A0003BF810203EF81010914201D98B1A00E04D
:1018B000531A401C705574194FEA122884F801809D
:1018C000A2700A0AE2702171190A61710835A371C8
:1018D000C0B284F807C0EDB20328FFF469AF0FB1BE
:1018E000012000E000208DF800001922314611206F
:1018F000FFF768FB014981F8009099E7BC010020DF
:1019000032010020F47B00088808002070B50F48E1
:10191000017809B1012070BD012101700B4B00213C
:10192000103341700A4A08469D1DA3F10E0400BF02
:1019300032F8106023F8106025F810102154401C74
:10194000C0B20328F4D3002070BD0000BC01002009
:10195000F47B000872B6FEE77CB51D4614460E46C1
:1019600008B34FF400310822684600F0C9FA56B1B6
:101970009DF80210BDF8000061F31F409DF80310B0
:1019800040EA0160306044B19DF8040020709DF889
:10199000050060709DF80600A070002D02D09DF833
:1019A000070028707CBD4FF48031DCE713B548B1E7
:1019B0004FF40031012201A8C91D00F03BFB20B10A
:1019C00000201CBD4FF48031F4E703201CBD70B52E
:1019D0000446A520049D20705B206070080AA0705A
:1019E000E170100A20716271280AA071E5712DB1B1
:1019F0002A46194604F10800FEF796FB0835ADB2F9
:101A00002946204600F049F8010A61556119AD1CCC
:101A10004870A8B270BD70B50446A520049D207022
:101A20005B206070A170100AE0702271280A60715A
:101A3000A57125B12A461946E01DFEF775FBED1D7F
:101A4000ADB22946204600F028F8010A6155611917
:101A5000AD1C4870A8B270BD70B50446A520049DA9
:101A600020705B206070A170100AE0702271280A5B
:101A70006071A57125B12A461946E01DFEF754FB99
:101A8000ED1DADB22946204600F007F86055000A6A
:101A90006119AD1C4870A8B270BD70B505464FF60F
:101AA000FF7000224AF201040EE0AB5C58400023B4
:101AB000C60702D084EA500000E040085B1CDBB29D
:101AC000082BF5D3521C92B28A42EED370BD2DE999
:101AD000F0471E46DDE90898174604460A2916D342
:101AE0002078A52813D160785B2810D1E08845BA0A
:101AF00005F10A0081420AD1801E81B22046FFF71B
:101B0000CCFF01466019008940BA814202D0002012
:101B1000BDE8F08717B1608840BA388016B1A08858
:101B200040BA3080B9F1000004D02A4604F108011F
:101B3000FEF7FAFAB8F1000F01D0A8F80050012022
:101B4000E6E72DE9F0471E46DDE90898174604460A
:101B5000092918D32078A52815D160785B2812D1DF
:101B6000B4F8050045BA05F1090081420BD1E81D22
:101B700081B22046FFF791FF01466019B0F80700D7
:101B800040BA814202D00020BDE8F0870FB1A078B2
:101B900038701EB1B4F8030040BA3080B9F10000CB
:101BA00003D02A46E11DFEF7BFFAB8F1000F01D0BD
:101BB000A8F800500120E7E72DE9F0471E46DDE9CF
:101BC000089817460446092916D32078A52813D16A
:101BD00060785B2810D1B4F8050045BA05F109001A
:101BE000814209D1E81D81B22046FFF756FF6119F5
:101BF000B1F80710884202D00020BDE8F0870FB18D
:101C0000A07838701EB1B4F8030040BA3080B9F142
:101C1000000003D02A46E11DFEF786FAB8F1000F56
:101C200001D0A8F800500120E7E700002DE9F04FAF
:101C3000DFF8F8817E4C92460E46012598F8002088
:101C40000021277887B003464FF00309092809D0FF
:101C500020460A2B40787DD00B2B7CD0002007B08B
:101C6000BDE8F08F012A02D08DF8005077E04FF0E8
:101C70000208BAF1090F3BD33088337942BA708831
:101C800040BA000440EA03257079054330D04FF68E
:101C9000F87085422CD85AB36FB34FF4003700BFA9
:101CA00007F10800C4E903056161DFF884A16280DF
:101CB000A1800AF1080AB2798AF80020F2798AF83C
:101CC0000120327A8AF80220E1808B46617000F0B0
:101CD0003FFFA0614FF480715648FEF73EFA00F0D6
:101CE0003BF941F207003C0B284404EB10360AE0B4
:101CF0008DF8008033E04FF48037D1E7200300F007
:101D0000D7F848B3641CA642F8D88DF80C50280ABE
:101D10008DF80D00280C8DF80E00280E8DF80F00A0
:101D20009AF800108DF810109AF801108DF8111023
:101D30009AF802008DF812000722394603A800F035
:101D400079F948B13949032081F800800221FFF771
:101D50009BF902E00AE02BE005E08DF800B00122DB
:101D60006946092020E08DF80090F8E7022A02D0A9
:101D70008DF8005002E028B18DF80000012269467C
:101D80000A2011E000F0E4FEA061A0885146401C4A
:101D9000A080304605F08EFE20B160700021012049
:101DA000FFF772F96078E7E7FFF70CF9012056E7D3
:101DB000022A04D08DF800500122694630E08DF8E7
:101DC000041010B18DF8040006E0E2885AB11948F9
:101DD000E16800F02FF918B19DF8040018B110E087
:101DE0008DF804900DE0D4E90401814203D00A206B
:101DF0008DF8040005E03846A521FFF7D7FD00283F
:101E0000EED1207870B10020207088F800509DF845
:101E1000040048B101200121FFF736F9012201A990
:101E20000B20C1E70120EFE70320F4E73C0100208D
:101E3000A00100201A100020054800210170416116
:101E400001614180818041708161C18070470000E3
:101E5000A001002038B5144C2078022822D100F0CF
:101E600077FE12498A69801A42F21072904219D99B
:101E70004878002802D100BF4FF00C008DF8000018
:101E80004FF00100207002D14FF00C0048704FF06D
:101E900000014FF00100FFF7F7F8012269460A2020
:101EA000FFF790F838BD00003C010020A0010020A1
:101EB00070B5044600F0AAF800F07CF800281CD0A9
:101EC0000E4D00221021284600F03CFE202003F099
:101ED000D9F8C4F3074003F0D5F8C4F3072003F0A2
:101EE000D1F8E0B203F0CEF801221021284600F02C
:101EF00029FEBDE8704000F05DB870BD00080140EB
:101F00002DE9F041134F15460C46064600221021DC
:101F1000384600F017FE032003F0B4F8C4F307407E
:101F200003F0B0F8C4F3072003F0ACF8E0B203F01C
:101F3000A9F8002405E0FF2003F0A4F83055641C44
:101F4000A4B2AC42F7D33846BDE8F04101221021DB
:101F500000F0F8BD0008014010B500F057F8144C2F
:101F600000221021204600F0EDFD012003F08AF848
:101F7000002003F087F801221021204600F0E2FD46
:101F800000F018F800F042F800221021204600F07E
:101F9000D9FD312003F076F8002003F073F8012218
:101FA0001021204600F0CEFDBDE8104000F002B840
:101FB000000801402DE9F04100F0CAFD124E044630
:101FC00000221021304600F0BDFD052003F05AF834
:101FD0004FF4FA77FF2003F055F8054600F0B8FDFE
:101FE000001BB84207D901221021304600F0AAFD9B
:101FF0000020BDE8F081E807ECD101221021304635
:1020000000F0A0FD0120F4E70008014010B5084CE5
:1020100000221021204600F095FD062003F032F842
:1020200020460122BDE81040102100F08BBD0000C9
:10203000000801402DE9F04717460D468046DFF8BD
:102040007C9036E0E8B2C0F58074A74200D83C46E8
:10205000FFF7DCFFFFF7AEFF00282DD00022102194
:10206000484600F06FFD022003F00CF8C5F307406E
:1020700003F008F8C5F3072003F004F8E8B203F012
:1020800001F8002606E000BF18F8060002F0FAFF8B
:10209000761CB6B2A642F7D301221021484600F0C2
:1020A00051FDFFF787FF002806D0381B2544A044C8
:1020B00087B2002FC6D10120BDE8F087000801409B
:1020C000F8B500250446009590F8240001280BD0AF
:1020D000012084F824002046FEF73EFA2046FEF751
:1020E00067FA060002D050E00220F8BDA06A20F492
:1020F000885040F00200A062022001F081FA2549D8
:102100000968B1FBF0F0400000E0401E009000289C
:10211000FBD12068816841F00801816000F018FD62
:10212000074608E000F014FDC01B0A2803D9206808
:102130008068000715D4206880680007F2D4206802
:10214000816841F00401816000F002FD074612E061
:1021500000F0FEFCC01B0A280DD9206880684007EB
:1021600009D5A06A20F0020040F01000A06284F8B7
:1021700024500120F8BD206880684007E8D4A06A98
:1021800020F0020040F00100A06284F824503046A4
:10219000F8BD000044020020F8B50024009490F837
:1021A00024202546012A12D0012280F824204A68E2
:1021B0001F23072A0DD20668776B521E02EB82029C
:1021C00093409F430B6893401F43776319E00220BD
:1021D000F8BD06680D2A0AD2376BD21F02EB8202C5
:1021E00093409F430B6893401F43376309E0F76AAE
:1021F0000D3A02EB820293409F430B6893401F43CA
:10220000F7620A68072306680A2A0AD3F7680A3AB7
:1022100002EB420293409F438B6893401F43F76059
:1022200008E0376902EB420293409F438B6893407A
:102230001F4337610A68102A01D0112A20D1124B9E
:1022400002689A4217D193681B0219D4936843F429
:10225000000393600968102912D10C490C4A0968DF
:10226000B1FBF2F101EB8101490000E0491E009150
:102270000029FBD104E0816A41F020018162012440
:1022800080F824502046F8BD00240140440200207C
:1022900040420F000068C06C704700002DE9F0411B
:1022A0004FF0000704003D467ED0A06A002628B902
:1022B000E66284F82460204600F07EF82046FEF7AF
:1022C0004BF9A16AC90600D420B1A06A40F0100001
:1022D000A06269E0A16A21F4885141F00201A16283
:1022E0006268E169237B0A4347EA43010A43A16824
:1022F0004FF48077B94209D0012907D05FF000017F
:1023000094F814C0BCF1010F02D00AE03946F7E797
:10231000F3B1A36A43F02003A362E36A43F001032D
:10232000E3622368D3F804C02CF4694C4CEA010C36
:10233000C3F804C021688B68DFF870C003EA0C039F
:1023400013438B60A168B9420BD0012909D00CE07E
:10235000DFF85CC0A3690CEB43330B4343F400612B
:10236000DFE7218A0D05A5F580152168CB6A23F4E6
:1023700070032B43CB62216889680E4B1940914250
:1023800008D1E662A16A21F0020141F00101A162D7
:10239000BDE8F081A06A20F0020040F01000A062C9
:1023A000E06A40F00100E0620120F1E7FDF7E1FFA3
:1023B00000E0FFFFFE0E1FFF10B586B00021009168
:1023C00001910291039100681549884225D1154871
:1023D000816941F400718161816901F400710491A6
:1023E000816941F004018161816901F00401049176
:1023F000816941F0080181618069032400F00800CF
:102400000490009469460194074800F0BBFA0094D8
:1024100069460648019400F0B5FA06B010BD000008
:10242000002401400010024000080140000C01405F
:102430002DE9F84300270D460446009700F088FB7D
:10244000804620688168C90508D5A06A40F0200050
:10245000A06284F824700120BDE8F8834168C905B2
:1024600003D4C06A10F4700F2AD0022001F0C8F81B
:102470003B490968B1FBF0F62068036939490B4212
:102480004FEA61014FEAA1121FD1C3684FEA611CF4
:1024900013EA0C0F19D103690B4225D1C068104211
:1024A00022D1142023E0681C0AD02DB100F050FB8B
:1024B000A0EB0800A84203D920680068800725D552
:1024C000206800688007EED52DE003690B4202D139
:1024D000C168114206D0026923490A4206D1C06888
:1024E000084203D1542002E0292000E0FC204643AA
:1024F000009816E0681C11D02DB100F029FBA0EB6C
:102500000800A8420AD90098B04207D2A06A40F059
:102510000400A06284F8247003209DE70098401C0A
:102520000090B042E6D321686FF012000860A06A04
:1025300040F40070A06220688068C0F34240072821
:102540000CD1207B50B9A06A20F48070A062A06AF0
:10255000C00403D4A06A40F00100A06200207BE721
:1025600044020020244992244992240070B5044674
:1025700090F8240001280DD0012084F82400204682
:10258000FEF716F802004FF0000005D084F8240092
:10259000104670BD022070BDA16A40F2012399432C
:1025A00041F48071A1621F4D23681F49AB4218D1CD
:1025B0000E6816F4702F14D0A66A46F48016A66230
:1025C0000E68760505D5A66A26F4005646F48056B0
:1025D000A662A66AF6040AD5E66A26F00606E66250
:1025E00006E0A66A26F48016A6625E68E9E7E06265
:1025F00084F824006FF00200186020688368C3F339
:102600004243072B05D1A84208D1096811F4702F65
:1026100004D0816841F480118160B9E7816841F498
:10262000A001F9E7002801400424014010B5044648
:1026300090F82400012807D0012084F824002046C7
:10264000FDF78AFF10B107E0022010BDA16A21F456
:10265000885141F00101A162002184F8241010BDCD
:1026600010B590F821100022022905D004218163C1
:1026700080F82020012010BD01680B6823F00E03B4
:102680000B6001680B6823F001030B6090F8403089
:10269000C46B012101FA03F3636080F8211080F814
:1026A0002020104610BD000010B590F82110002425
:1026B000022903D00421816301243DE001680A68F6
:1026C00022F00E020A6001680A6822F001020A6024
:1026D0001A4A0168914201D1012121E0174A1432BE
:1026E000914201D110211BE0144A2832914201D1BC
:1026F000891515E0114A3C32914201D189140FE04D
:102700000E4A5032914202D14FF4803108E00B4A18
:102710006432914202D14FF4801101E04FF0807198
:10272000064A083A5160012180F82110002180F802
:102730002010416B01B18847204610BD08000240BF
:102740002DE9F05FC16B0C6801680B68D0F840C0E0
:10275000042202FA0CF2494DDFF824A1494E4A4FF7
:10276000DFF828B1DFF828E122422CD05A072AD519
:102770000A68920603D40A6822F004020A6001681B
:10278000A94201D1042219E0514501D1402215E0AE
:10279000B14202D14FF4806210E0B94202D14FF44D
:1027A00080420BE0594502D14FF4802206E071458A
:1027B00002D14FF4800201E04FF080622F490839C6
:1027C0004A60C16A3BE04FF0020808FA0CF818EAC8
:1027D000040F4FF000094FF0010235D05FEA837813
:1027E00032D50B689B0605D40B6823F00A030B60F7
:1027F00080F821200168A94201D1022219E0514547
:1028000001D1202215E0B14202D14FF4007210E054
:10281000B94202D14FF400520BE0594502D14FF4B6
:10282000003206E0714502D14FF4001201E04FF092
:102830000072124908394A6080F82090816A0029A4
:102840001AD0BDE8F05F0847082505FA0CF52542C7
:1028500012D01B0710D50B6823F00E030B6090F805
:102860004010C36B02FA01F15960826380F82120A5
:1028700080F82090016BE2E7BDE8F09F080002407D
:102880001C00024030000240440002405800024058
:102890006C00024030B528B308C81349142219440B
:1028A000B1FBF2F18900C1631049816302214177D4
:1028B0001A6843F6F0718A43D0E900142143D0E945
:1028C00002452C432143046921434469214384691F
:1028D00021431143196000214163012242770177AE
:1028E000084630BD012030BDF8FFFDBF00000240AA
:1028F00070B5044690F82000002501280CD0012076
:1029000084F8200094F821600020012E06D084F87D
:1029100020000225284670BD022070BD022684F8E2
:102920002160A0632068066826F001060660204644
:10293000FEF7F4FEE06A00282068016802D041F04A
:102940000E0106E021F0040101602068016841F0F9
:102950000A0101602068016841F001010160D9E7C6
:1029600070B5044600F0F4F80546601C02D0044837
:102970000078044400F0ECF8401BA042FAD370BD8C
:10298000380200202DE9F84FDFF89C910024A9F1CE
:10299000040B23460F2709F1040AABF1040EBBE038
:1029A0000125A5402A40AA4276D1DFF880C14E68B1
:1029B000A6EB0C0866452BD00DDC032E34D005DCCD
:1029C00036B3012E19D0022E2FD11BE0112E16D0B6
:1029D000122E2AD119E0B8F5881F19D006DCB8F5F7
:1029E000803F15D0B8F5801F1FD111E0B8F5001F4A
:1029F0000ED0B8F5041F18D10AE0CB6815E0CB68FB
:102A00001B1D12E0CB6808330FE0CB680C330CE0E1
:102A10008B682BB1012B4FF0080303D0456104E014
:102A2000042302E0056100E00023FF2A01D80646E6
:102A300001E000F104064FEA840501D9A5F1200563
:102A4000D6F8008007FA05FC28EA0C0803FA05F519
:102A500048EA0508C6F800804D68ED005BD5344DA6
:102A6000AE6946F00106AE61AD6924F0030605F0DB
:102A7000010500952F4D06EB050CDCF80850A60764
:102A8000360F07FA06F825EA0805DFF8AC8040455E
:102A900003D14FF0000810E03DE0DFF8A080404592
:102AA00002D14FF0010808E0DFF89480404502D1E0
:102AB0004FF0020801E04FF0030808FA06F848EA70
:102AC0000508CCF808804D68D9F80060ED024D4645
:102AD00001D5164300E096432E604D68DAF8006099
:102AE000AD02554601D5164300E096432E604D6871
:102AF000DBF80060AD035D4601D5164300E0964368
:102B00002E604D68DEF80060ED03754601D5164372
:102B100000E096432E60641C0A6832FA04F57FF4E4
:102B20003FAFBDE8F88F000008040140000011101D
:102B3000001002400000014000080140000C01406C
:102B4000001001400AB1016170470904FBE7000071
:102B50000148806870470000380200200248816800
:102B6000027811448160704738020020074810B590
:102B7000016841F010010160032000F075F80F209A
:102B800000F006F800F024F8002010BD00200240FC
:102B900070B50D4D04464FF47A712878B1FBF0F012
:102BA0000A490968B1FBF0F001F0E8F948B9102CC6
:102BB00007D200222146501E00F036F800206C603B
:102BC00070BD012070BD00003802002044020020CA
:102BD0000C4808B5816941F001018161816901F00A
:102BE00001010091C16941F08051C161C06900F0EB
:102BF000805000900448416821F0E06141F000718C
:102C0000416008BD0010024000000140002809DBBF
:102C100000F01F02012191404009800000F1E020F6
:102C2000C0F8001170470000F0B40E4B1B680C4652
:102C3000C3F30223C3F10705042D00D90425191D90
:102C4000072901D2002300E0DB1E012606FA05F168
:102C5000491E214099409E40761E16403143F0BCEB
:102C600004F061BF0CED00E0064900F007020868BF
:102C70004FF6FF03184040EA0220034A1043086061
:102C8000704700000CED00E00000FA0510B50C06DE
:102C900007D501F0070101EB810100EBC100103005
:102CA00005E001EB810100EBC10000F5A87099B2CD
:102CB00032B1012202730181190C4181002010BD43
:102CC00000220273C180F9E7704701EB810200EB3B
:102CD000C202D0F8D402526A03F07BBE01EB81023B
:102CE00000EBC202D0F8D402D2F8642103F0D4BEC3
:102CF00070B504460B0601F0070000EB800104EB01
:102D0000C1014FF001024FF0000502D54A741031A5
:102D100003E081F8515101F5A871087094F8900210
:102D2000012808D084F89022206804F015FB84F86C
:102D30009052002070BD022070BD70B5044601F0B5
:102D40000F002279904201D9012070BD0B0601F0DD
:102D5000070000EB800104EBC1014FF001024FF0CE
:102D6000000502D54A74103103E081F8515101F594
:102D7000A8718D70087094F89002012808D084F82A
:102D80009022206804F085FB84F89052002070BDEA
:102D9000022070BD2DE9F05F04685FEA424C0B78B9
:102DA0008D69B4F850C04FF000064BF68F7948F2A9
:102DB000800A48F68F7B48F2C00E4FF480672AD510
:102DC0004FF0020808EBC308C44407EB4C07E45B70
:102DD000C4F30904A54203D32D1B8D6101D00BE080
:102DE0008E61066836F8235005EA090585F400551A
:102DF00045EA0A0526F82350520609D50D780368DE
:102E000033F8252002EA0B0242EA0E0223F82520BD
:102E100084B30A8929E04FF0060808EBC308C444CC
:102E200007EB4C07E45BC4F30904A54203D32D1B55
:102E30008D6101D00BE08E61066836F8235005EAFB
:102E4000090585F4005545EA0A0526F8235052067F
:102E500009D40B78056835F8232002EA0B0242EA10
:102E60000E0225F823202CB14A89496900682346BF
:102E700004F0EEFD2046BDE8F09F2DE9F05F054629
:102E800000680C465FEA426C16468B692278B0F8FF
:102E900050C048F68F774CF280094FF4004B4FF644
:102EA000FF7E4FF4806A4FF0000172D54FF00208A8
:102EB00008EBC208E0440AEB480C30F80C00C0F301
:102EC0000900834211D91B1AA3610FD0730407D5DF
:102ED0002E6836F822303B4043EA090326F82230B8
:102EE00094F82420012A47D052E1A161607810B102
:102EF000012813D01AE02868B0F85030184400EBCD
:102F00000210B0F80424C2F30902A0F80424B0F8B7
:102F1000042442F40042A0F8042407E02868B0F832
:102F20005030184400EB0210A0F8041462782868AE
:102F300012B1012A11D018E0B0F8501008442178DD
:102F400000EB0110B0F80C14C1F30901A0F80C1447
:102F5000B0F80C1441F4004105E0B0F850201044E2
:102F6000227800EB0210A0F80C1421782846FFF715
:102F7000ACFE700472D40BE1626902446261E269E2
:102F80000244E2612369226A9A4203D31846111A65
:102F900004E03EE084F824100AB110462162617812
:102FA00011B1012929D031E02968B1F8502011442C
:102FB000227801EB0211B1F80424C2F30902A1F84E
:102FC000042401F204413E2807D94209C30600D176
:102FD000521E0B884BEA822207E048B14208C30721
:102FE00000D0521C0B880EEA822213430B800DE0A6
:102FF0000A8842F400420A8008E02968B1F85020AB
:103000001144227801EB0211A1F8040483B2228951
:10301000BAE04FF0060808EBC208E0440AEB480C9F
:1030200030F80C00C0F30900834211D31B1AA361CE
:103030000FD0730407D42E6836F822303B4043EAA1
:10304000090326F8223094F82420012A51D09FE069
:10305000A161607818B1012814D01BE03FE0286816
:10306000B0F85030184400EB0210B0F80424C2F35A
:103070000902A0F80424B0F8042442F40042A0F8A5
:10308000042407E02868B0F85030184400EB021020
:10309000A0F804146278286812B1012A11D018E04F
:1030A000B0F850100844217800EB0110B0F80C146F
:1030B000C1F30901A0F80C14B0F80C1441F400415C
:1030C00005E0B0F850201044227800EB0210A0F880
:1030D0000C1421782846FFF7F8FD700458D42278A4
:1030E000296831F82200384040EA090021F822001E
:1030F0004EE0626902446261E2690244E26123696E
:10310000226A9A4203D31846111A216204E00AB1D6
:103110001046216284F824106278296812B1012ACD
:1031200028D02FE0B1F850201144227801EB021191
:10313000B1F80C24C2F30902A1F80C2401F20C41ED
:103140003E2807D94209C30600D1521E0B884BEA1C
:10315000822207E048B14208C30700D0521C0B8806
:103160000EEA822213430B800CE00A8842F40042EC
:103170000A8007E0B1F850201144227801EB0211D7
:10318000A1F80C04628983B26169286804F07EFCAE
:103190002278296831F8220048F6BF73184080F081
:1031A000300048F28003184321F822000020BDE8D7
:1031B000F09F01F0070101EB810100EBC100D0F8A5
:1031C0006C0170472DE9F04104460F0601F007003D
:1031D00000EB800104EBC1014FF001064FF0000548
:1031E00002D54E74103103E081F8515101F5A871F8
:1031F000022B08700A61CB7000D10D7194F8900217
:10320000012809D084F89062206803F055FF284611
:1032100084F89052BDE8F0810220FBE710B501F080
:10322000070404EB840100EBC101C1E9592300222A
:10323000C1F86C2181F8512181F85041006801F5F5
:10324000A87104F07BF9002010BD70B504460D464E
:1032500001F007002179884201D9012070BD2906BB
:103260004FF000064FF0010206D500EB800104EBA1
:10327000C1014A74103107E005EB850104EBC1017F
:1032800081F8516101F5A8718A70087094F8900274
:10329000012807D084F89022206804F036F96807E6
:1032A00002D006E0022070BD04F52671206804F00B
:1032B000EEF884F89062002070BD10B501F00704AC
:1032C00004EB840100EBC101C1E90923012281F86B
:1032D00034200B630023CB624A7401F8104F00685E
:1032E00004F02CF9002010BD1FB50446006804F05E
:1032F000ABFB010403D5204601F095FC1FBD410541
:103300000DD5206830F8441F21F4806101802046EB
:1033100000F016F90021204600F02DF91FBD4104F0
:1033200005D5206830F8441F21F4804174E0810401
:1033300005D5206830F8441F21F400516CE0C10429
:1033400014D5206830F8401F21F004010180206866
:1033500030F8401F21F008010180204600F003F9F9
:10336000206830F8441F21F4805155E0010540D514
:10337000D4F800200020694632F8203021F81030BF
:10338000401CC0B20828F7D332F8400F40F00100CB
:103390001080206830F8402F22F00102028020685F
:1033A000B0F844205205FBD530F8442F22F4806257
:1033B00002800020236831F8102023F82020401CD0
:1033C000C0B20828F6D3206830F8401F41F0080149
:1033D0000180206830F8441F21F4006101802068DA
:1033E00030F8401F41F004010180204600F0F6F85B
:1033F0001FBD810509D5206830F8441F21F40071F4
:103400000180204600F0B3F81FBDC005FCD5206840
:1034100030F8441F21F4807101801FBD2DE9F04177
:10342000040004D094F89102002518B107E00120AF
:10343000BDE8F08184F89052204600F04DF803205A
:1034400084F891026571206804F01AF894E80F007E
:1034500003F080FF022698BB0021206804F00EFBD9
:1034600070BB002001270BE000EB800104EBC101E1
:103470004F740874CD740D624D62401CC0B28D62F1
:1034800021798142F0D8002012E000BF00EB8001DA
:1034900004EBC10181F8515181F8500181F8535179
:1034A000C1F86051C1F86451401CC0B2C1F8685104
:1034B00021798142EAD894E80F0003F0D8FF10B1D7
:1034C00084F89162B3E7657384F89172206803F021
:1034D000CCFF0020ACE7000000B50068154985B0BE
:1034E000884225D1002002904FF4C0500090022065
:1034F00001900320039069460F48FFF743FA0F48F5
:10350000C16941F40001C161C069002200F40000FA
:10351000049011461320FFF787FB1320FFF776FB7B
:10352000002211461420FFF77FFB1420FFF76EFBEB
:1035300005B000BD005C00400008014000100240E2
:1035400070B5044680790125022801D0FEF702FA01
:103550002946D4F8D40203F087FBD4F8D402BDE89E
:10356000704003F043BBD0F8D40203F067BBD0F83F
:10357000D40203F06DBB10B5044690F89002012808
:103580000AD0012084F890026173206804F078FA70
:10359000002084F8900210BD022010BDD0F8D42283
:1035A00000F52671104603F06BBB10B5044690F889
:1035B0009002012810D0012084F89002206804F0C5
:1035C0002EFA01212046FFF77FFB206803F04BFF16
:1035D000002084F8900210BD022010BD10B50446F2
:1035E000D0F8D40203F08BFBA07A002804D0034863
:1035F000016841F00601016010BD000010ED00E01F
:1036000010B501460020234C012922D0022939D0CF
:1036100010291DD161682268D20119D51E48C1F355
:103620008342C903805C0AD561681B4AC1F34041EB
:10363000921E515C194AB2FBF1F1484301E018496E
:1036400048436168490203D440000321B0FBF1F014
:1036500010BD226AC2F30121012903D1920701D5CD
:10366000C80310BD022905D1626A920702D549F646
:10367000404010BD0329FCD121688903F9D54FF2E0
:10368000244010BD00F02AF96168C1F38131491C62
:103690004900DBE7001002400E7C000800127A00AF
:1036A00000093D002DE9F84305460078354CC00778
:1036B00054D0E0690026C00008D4E06940F0805092
:1036C000E061E069012600F0805000902E4801681A
:1036D000C90512D40168804641F480710160FFF78A
:1036E00037FA074605E000BFFFF732FAC01B64282F
:1036F00023D8D8F80000C005F6D5206A10F4407031
:1037000021D0A98801F4407181421CD0206A1F4950
:10371000012220F440700A6000220A602062C00783
:1037200011D0FFF715FA074641F2883808E000BFCC
:10373000FFF70EFAC11B414502D90320BDE8F8830B
:10374000206A8007F4D5206A696820F44070084335
:1037500020621EB1E06920F08050E0612878800787
:1037600005D56068A96820F4404008436060287867
:10377000C00605D56068E96820F4800008436060F1
:103780000020DBE70010024000700040400442428D
:103790002DE9F0470F46050061D0434E306800F038
:1037A0000700B84209D2306820F007003843306083
:1037B000306800F00700B84251D128683B4C8107BF
:1037C00012D5400703D5606840F4E0606060287857
:1037D000000703D5606840F4605060606068A968C5
:1037E00020F0F000084360602878C00728D068689F
:1037F000012810D02168022810D0890700292EDA6C
:10380000616821F0030101436160FFF7A1F980467F
:1038100041F288390DE021688903EFE78901EDE77E
:10382000FFF796F9A0EB0801494502D90320BDE84E
:10383000F0876068696800F00C00B0EB810FEFD191
:10384000306800F00700B8420BD9306820F007005C
:1038500038433060306800F00700B84201D00120E2
:10386000E5E72878400705D56068E96820F4E0605E
:10387000084360602878000706D56068296920F44D
:10388000605040EAC100606000F038F86168084AA2
:10389000C1F30311515CC84006490860064800683E
:1038A000FFF776F90020C2E7002002400010024036
:1038B0001E7C0008440200203C0200200448054908
:1038C00000684968044AC1F30221515CC84070474E
:1038D00044020020001002402E7C000804480549E4
:1038E00000684968044AC1F3C221515CC84070476E
:1038F00044020020001002402E7C00080E4A51684D
:103900000E4801F00C03042B11D0082B0FD10C48EA
:10391000C1F38343C903C05C0AD55168084AC1F3A7
:103920004041921E515C054A5043B0FBF1F0704794
:1039300004494843704700000010024000127A001A
:10394000FC7B000800093D002DE9F84F040070D011
:103950002078C04DC00749D06868C0F381000128B5
:1039600007D06868C0F38100022809D16868C003E5
:1039700006D52868800339D560680028E7D035E08F
:103980006068B0F5803F0BD010B1B0F5A02F11D01A
:10399000286820F480302860286820F4802002E025
:1039A000286840F480302860606890B1FFF7D0F854
:1039B00006460AE0286840F480202860F0E700BF4F
:1039C000FFF7C6F8801B642873D828688003F7D5F2
:1039D0000CE0FFF7BDF8064605E000BFFFF7B8F8BA
:1039E000801B6428F0D828688003F7D420789A4E8A
:1039F00080074FF001094FF0000839D5686810F0D2
:103A00000C0F07D06868C0F38100022809D16868EC
:103A1000C00306D42868800714D52069012808D17E
:103A200010E02069B0B1C6F80090FFF791F80746A2
:103A300005E00AE1FFF78CF8C01B0228C4D828680B
:103A40008007F7D52868616920F0F80040EAC100D6
:103A500028600DE0C6F80080FFF77AF8074604E01A
:103A6000FFF776F8C01B022823D828688007F7D410
:103A7000207800072CD57948A169D9B1C0F8009009
:103A8000FFF766F8074604E0FFF762F8C01B02285C
:103A90000FD8686A8007F7D571484FF4FA5100686B
:103AA000B0FBF1F0009000BF0098411E0091FAD2E7
:103AB0000EE080E0C0F80080FFF74AF8074604E017
:103AC000FFF746F8C01B022875D8686A8007F7D44C
:103AD0002078400760D5E8690027C00008D4E8696D
:103AE00040F08050E861E869012700F080500090C4
:103AF0005C480168C90513D40168834641F48071AC
:103B00000160FFF725F8824606E000BFFFF720F8C6
:103B1000A0EB0A0064284ED8DBF80000C005F5D5FC
:103B2000E06801280AD008B1052813D0286A20F0DF
:103B300001002862286A20F0040002E0286A40F0B0
:103B400001002862E06841F2883B98B1FFF700F875
:103B500082460BE0286A40F004002862EEE700BFCE
:103B6000FEF7F6FFA0EB0A0159455AD8286A8007EC
:103B7000F6D50CE0FEF7ECFF824605E0FEF7E8FF25
:103B8000A0EB0A0159454CD8286A8007F6D41FB12A
:103B9000E86920F08050E861E06988B36968C1F3A2
:103BA0008101022944D00228C6F8608004D0FEF7C3
:103BB000CFFF044638E034E0FEF7CAFF074604E0D2
:103BC000FEF7C6FFC01B02282BD828688001F7D457
:103BD000206AB0F5803F05D16868A16820F4003004
:103BE00008436860D4E908010843696821F4741146
:103BF00008436860C6F86090FEF7AAFF044606E036
:103C000025E000BFFEF7A4FF001B022809D82868A2
:103C10008001F7D51BE000BFFEF79AFF001B0228CA
:103C200002D90320BDE8F88F28688001F4D40EE0A3
:103C30000128F7D06868226A00F48031914204D1EB
:103C4000616A00F47010884201D00120EAE7002088
:103C5000E8E70000001002400000424280044242B7
:103C6000440200200070004070B5040009D0606A72
:103C7000002540B125616561A56294F8510040B10D
:103C80000CE0012070BD6068B0F5827FF4D0E56182
:103C9000F2E784F85050204600F040F8022084F803
:103CA00051002068016821F040010160A08821894D
:103CB00000F4827001F404410843A18901F4006119
:103CC0000843217C01F002010843217D01F001013C
:103CD0000843218B01F400710843217F01F0380172
:103CE000084394F8201001F080010843218D01F46D
:103CF0000051084321680860A069042101EA1040CE
:103D0000216848602068C16921F40061C16165656E
:103D1000012084F85100002070BD000030B585B04E
:103D2000002400940194029403940068144988428A
:103D300023D11448816941F480518161816901F482
:103D400080510491816941F00401816180690E4DC7
:103D500000F004000490A0200090022001900320B5
:103D6000039069462846FEF70DFE4020CDE9000489
:103D7000694628460294FEF705FE05B030BD0000F6
:103D80000030014000100240000801402DE9FF4FC3
:103D900081B01D46934604464FF001090E9EFEF782
:103DA000D7FE074694F851006168012806D0B1F5A6
:103DB000827F3CD1A168C9BB042838D10298002871
:103DC00071D0BBF1000FFBD0002DF9D094F850005A
:103DD00001282CD04FF0010A84F850A094F851002B
:103DE000042802D0052084F851004FF00008C4F8E0
:103DF0005480C4F838B0E587A58702992163E58629
:103E0000A586C4F84080C4F844802068016849064B
:103E100003D4016841F040010160E068B0F5006F33
:103E2000606808D0F0B3012D49D081E0FFE702209F
:103E300005B0BDE8F08F08B1012D39D1206B2168A4
:103E40000088C860206B801C2063E08E401EE086E6
:103E50002EE02068816889070FD5E18E69B1B9F13C
:103E6000010F0AD1216B0988C160206B801C20637F
:103E7000E08E401EE0864FF0000920688168C90787
:103E80000CD0E18F51B1C068A16B0880A06B801C81
:103E9000A063E08F401EE0874FF00109FEF758FE57
:103EA000C01B01E00BE067E0B04201D3701C50D1B1
:103EB000E08E0028CDD1E08F0028CAD13EE0206BF3
:103EC000216800780873206B401C2063E08E401E40
:103ED000E0862DE02068816889070FD5E18E69B101
:103EE000B9F1010F0AD1216B09780173206B401CD5
:103EF0002063E08E401EE0864FF000092068816854
:103F0000C9070CD0E18F51B1C068A16B0870A06BDC
:103F1000401CA063E08F401EE0874FF00109FEF7D0
:103F200017FEC01BB04202D3701C01D011E086B155
:103F3000E08E0028CED1E08F0028CBD13A46314622
:103F4000204601F0B3F850B12020606584F850801D
:103F500012E084F851A084F85080032068E7A0683C
:103F600018B92068C1688068009084F851A084F86E
:103F70005080606D0028F1D0012059E710B5401E37
:103F8000B0F1807F01D3012010BD4FF0E0246061CB
:103F90000F21601703F0C7FD0020A06107202061FA
:103FA000002010BD704710B504460068406994F8C1
:103FB0004110C0F3C010212911D180B12068143004
:103FC00050E8001F21F0800140E80012002AF5D1DE
:103FD000A06B08B1FEF744FB204602F076F820689B
:103FE000406994F84210C0F38010222911D180B1A9
:103FF0002068143050E8001F21F0400140E8001212
:10400000002AF5D1E06B08B1FEF72AFB204602F04A
:1040100035F8002010BD7047F8B5016804460868FF
:10402000CA684B6910F00F0F4FF0000559D003F02C
:10403000010602F49077374365D0C10705D0D1055A
:1040400003D5616C41F001016164410705D5D907D1
:1040500003D0616C41F002016164810705D5D90785
:1040600003D0616C41F004016164010707D502F0DF
:104070002001314303D0616C41F008016164616C3F
:1040800000293AD0800604D5900602D5204602F0D9
:104090004AF820684069616CC0F38010090700D4B9
:1040A00060B3204601F0EAFF20684069400621D550
:1040B0002068143050E8001F21F0400140E8001251
:1040C000002AF5D1E06BA8B16D494163E06BFEF7C2
:1040D000EBFA002811D0E06B416B01B0BDE8F04075
:1040E000084783060FD593060DD52046BDE8F84056
:1040F00002F019B82046FFF78EFFF8BD2046FFF703
:104100008AFF6564F8BD266B2023012E7CD1C6068C
:104110007AD5D60678D508684868009048694FF087
:104120000206400640D5E16B086840680004000CB8
:10413000E8D0A28D8242E5D9E085886920282DD07B
:1041400020680C3050E8001F21F4807140E8001214
:10415000002AF5D12068143050E8001F21F0010139
:1041600040E80012002AF5D12068143050E8001F02
:1041700021F0400140E80012002AF5D184F84230D5
:10418000256320680C3050E8001F21F0100140E842
:104190000012002AF5D1E06BFEF762FA6663A08D8B
:1041A000E18D401A81B22AE0A08DE18D401A81B2E2
:1041B000E08D0028A6D00029A4D022680C3252E855
:1041C000000F20F4907042E80007002FF5D120681E
:1041D000143050E8002F22F0010240E80027002FA1
:1041E000F5D184F84230256320680C3050E8002F68
:1041F00022F0100240E80023002BF5D16663204630
:10420000FFF7D0FEF8BDFFE705062BD5150629D52B
:1042100094F841002128F5D1A068B0F5805F01D164
:104220002069B0B1206A411C216221680078486091
:10423000E08C401E0004000CE084E3D12068C168DB
:1042400021F08001C1602068C16841F04001C16077
:10425000D8E7206A0088C0F308004860206A801C04
:104260002062E5E74006CDD55006CBD5CA6820468A
:1042700022F04002CA6084F8413000F08BF9C1E7B7
:104280007F5F000870B5040004D094F84100002559
:1042900010B106E0012070BD84F84050204600F0C7
:1042A00023F8242084F841002068C16821F40051DB
:1042B000C160204601F0A4FF2068016921F490410B
:1042C00001612068416921F02A0141612068C168CB
:1042D00041F40051C1606564202084F8410084F8F5
:1042E00042006563002070BD2DE9F04186B00024D6
:1042F00000940194029403940646DFF810C1036809
:10430000434802210322434D80274FF02008634594
:1043100038D1836943F480438361836903F4804324
:104320000493836943F0040383618069039200F07E
:10433000040004900802CDE9000169462846FEF712
:1043400021FB2815CDE90004694628460294FEF7B2
:1043500019FB324D3048C5E90004C5E902472C611C
:10436000C5E905482846EC61FEF794FA08B1FDF767
:10437000F1FAF5630022114625206E62FEF754FC27
:1043800025203DE0DFF898C063453BD1C36943F485
:104390000033C361C36903F400330493836943F0BA
:1043A000040383618069039200F0040004900420F8
:1043B000CDE9000169462846FEF7E4FA0820CDE978
:1043C0000004694628460294FEF7DCFA134D1248B1
:1043D00044351430C5E90004C5E902472C61C5E93C
:1043E00005482846EC61FEF755FA08B1FDF7B2FA28
:1043F000F5630022114626206E62FEF715FC26208A
:10440000FEF704FC06B0BDE8F08100000038014072
:10441000001002400008014058000240000E002039
:10442000004400402DE9F84F044690F842009A46B7
:1044300016460D46202802D00220BDE8F88FB5B1FF
:10444000AEB100206064222184F842102063FEF7A0
:104450007FFBA6858146E685A0684FF4805820271B
:10446000404501D1206920B12E46002529E00120D8
:10447000E3E7002625E04B46002220212046CDF828
:1044800000A001F061FF18B184F842700320D4E766
:1044900026B1A06840451AD038B108E020684068CD
:1044A000C0F3080025F8020B08E0206978B1206805
:1044B000406800F07F0000BF06F8010BE08D401E51
:1044C000E085E08D0028D6D184F84270B5E72068F9
:1044D0004068F1E790F84230202B01D0022070476D
:1044E00021B11AB10023036301F0E6BE0120704739
:1044F000704770472DE9F843044690F8410098460C
:1045000016460D46202802D00220BDE8F88385B16A
:104510007EB100206064212084F84100FEF718FB82
:10452000A6848146E684A0682027B0F5805F02D08B
:1045300003E00120E9E7206910B12E4600250EE0D6
:1045400000260CE08021204601F0FEFEA8B9C6B18D
:1045500016F8010B21684860E08C401EE084E08C76
:104560004B464FF00002CDF800800028EAD14FF012
:104570004001204601F0E8FE40B184F8417003207C
:10458000C3E735F8020BC0F30800E3E784F8417095
:104590000020BAE77047FEE770B51548FFF703FD46
:1045A00013486FF00E010268116000684068012234
:1045B00011021048FEF7C6FA0F4D4FF400440022D6
:1045C00021462846FEF7BEFA0A20FEF7C9F9012265
:1045D00021462846FEF7B6FA3220FEF7C1F97F21C0
:1045E000034801F005FEBDE87040642000F0DAB831
:1045F000B80D002000080140000C01407CB50446C5
:10460000212000F0B9F8642000F0CCF808B10120B6
:104610007CBD200E8DF80000220C8DF80120210AAF
:104620008DF802105040614048408DF804008DF82C
:104630000340052269460B4801F0D6FD642000F0D6
:10464000B1F8094C05460949B4F88C200548FFF734
:1046500041FF0448C16B19B108684068A4F8900094
:1046600028467CBDB80D0020040000205C0300201B
:1046700008B5442000F080F84FF4FA7000F092F88A
:1046800068B908A00322006800906946064801F056
:10469000ABFD42F2107000F085F8002800D0042035
:1046A00008BD0000FFFF0000B80D00202DE9FC410F
:1046B00014008846054659D0B4F5807F56D811209D
:1046C00000F05AF8642000F06DF898BB280E8DF8C1
:1046D00000002A0C8DF80120290A8DF802105040A4
:1046E000694048408DF804008DF80350204801F0DF
:1046F00031FC052269461F4801F076FD642000F078
:1047000051F8B8B91A4801F025FC651EE9B21948FC
:1047100001F06EFDE843C1B2164801F069FD642066
:1047200000F040F830B9FEF713FA064600254FF4C2
:10473000FA770EE01AE000BF08EB050132230122F0
:104740000C48FFF76FFE70B1FEF702FA801BB8420B
:104750000CD8A542F0D3142000F024F8022805D08C
:104760000020BDE8FC816D1CADB2F2E70720F8E740
:1047700004000020B80D002008B56FF00E018DF880
:104780000000C0438DF80100054802681160006810
:10479000406802226946024801F026FD08BD00007B
:1047A000B80D002038B50546FEF7D2F904460CE0F6
:1047B0003223012269460A48FFF734FE28B99DF8E2
:1047C0000000792808D01F2808D0FEF7C1F9001B87
:1047D000A842EDD3032038BD002038BD022038BDEB
:1047E000B80D00202DE9FC4115000E4604464AD0C4
:1047F000B5F5807F47D8680745D1600743D13120A0
:10480000FFF7BAFF6420FFF7CDFFE0BB200E8DF865
:104810000000220C8DF80120210A8DF80210504072
:10482000614048408DF804008DF80340174801F0BE
:1048300091FB05226946164801F0D6FC6420FFF77B
:10484000B1FF00BB681EC7B23C46002003E0315CEC
:104850004C40401C80B2A842F9D30C4801F07AFBCE
:1048600039460B4801F0C4FC2A463146084801F09D
:10487000BBFC2146064801F0BBFC4FF4FA70FFF781
:1048800091FF002800D00520BDE8FC810400002035
:10489000B80D0020F0B500230A24302537261F4626
:1048A00011E000BFB4EB107F02D905EB107C01E0F2
:1048B00006EB107C01F813C001EB430C00015B1CFC
:1048C0008CF80170DBB29342ECD3F0BD3EB500240E
:1048D00011480094019402940E49846001600473AD
:1048E0000475012505614FF460214460C161FDF745
:1048F000D5FC08B1FDF72EF81120CDE90005694679
:1049000002940548FDF748FC002801D0FDF722F885
:104910003EBD000000240140E80C00200D4808B511
:10492000416941F0010141614069002200F001004C
:10493000009011460F20FEF777F90F20FEF766F979
:10494000002211461020FEF76FF9BDE80840102044
:10495000FEF75CB9001002402DE9F04786B0002454
:1049600031480094019402940394816941F010014C
:104970008161816901F010010491816941F0200198
:104980008161816901F020010491816941F0040194
:104990008161816901F004010491816941F008019C
:1049A00081618069DFF8848000F008004FF40055D1
:1049B0000490002229464046FEF7C4F8DFF87090C4
:1049C0004FF48877002239464846FEF7BBF8DFF8F7
:1049D00064A0012248F608415046FEF7B3F80022D1
:1049E00047F230015046FEF7ADF80095022601254A
:1049F0000396CDE9015469464046FDF7C3FF009791
:104A00000396CDE9015469464846FDF7BBFF4FF6D2
:104A10003840CDE90005CDE9024669465046FDF72C
:104A2000B1FF06B0BDE8F087001002400010014061
:104A300000080140000C0140104810B50E4901600B
:104A40004FF48271416000218160C1604FF40072B7
:104A50000161C0E905121022C0E9072141628162AB
:104A60000A21C162FFF700F9002803D0BDE8104019
:104A7000FCF770BF10BD000000300140180D002091
:104A80000C4810B50A4901604FF4E1314160002142
:104A900081600C22C160C0E904128161C161FFF72D
:104AA000F1FB002803D0BDE81040FCF753BF10BD58
:104AB00000380140700D00200C4810B50A49016013
:104AC0004FF4E1314160002181600C22C160C0E9F6
:104AD00004128161C161FFF7D5FB002803D0BDE856
:104AE0001040FCF737BF10BD00440040B80D002057
:104AF00010B500220F49104801F044FF08B1FCF73F
:104B000029FF0E490C4802F020F908B1FCF722FFFA
:104B10000B49094801F042FD08B1FCF71BFF0648AC
:104B200002F068F9002803D0BDE81040FCF712BF7E
:104B300010BD0000D80100201C110020240300201B
:104B400028020020FEE700002DE9F84F334CE07A00
:104B500000281DD0012604254FF000094FF0020A5D
:104B6000012817D0DFF8B88043F68C4702281BD005
:104B7000032839D004280BD1607B00B105208DF8C3
:104B80000000012269461320FCF71CFA84F80B9000
:104B9000BDE8F88F00F0D0FF0128F9D008B16673A6
:104BA00039E0C4F81C9033E0207B4FF4486138F8BA
:104BB00010004843B0FBF7F0E16980B2471A002FBC
:104BC000EDDDBAB20121002000F0E0FF0128DFD0C6
:104BD0000028E4D1FDF7BCFF00EB470000F5FA70B8
:104BE00020620320E072D3E7FDF7B2FF216A88421A
:104BF000CED3207B4FF4486238F81010401C51434C
:104C0000B1FBF7F189B2C0B2E1612073032802D28F
:104C100084F80BA0BCE7E572BAE700003C01002075
:104C2000B87B0008FEE72DE9F84F044640F68F7B7D
:104C300048F60F794FF480684FF0000ABDE1B0F8F4
:104C4000441011F00F0539D030F8256031047ED5BD
:104C500030F8251001EA0B0141F0800120F8251001
:104C600005EB850004EBC00797F85C0107F5A87712
:104C700000286DD0F87802286BD03978226832F895
:104C8000210048F68F73184048F2C003184322F8F9
:104C900021003978206830F82120B0F850305204D3
:104CA0007DD5022202EBC1015A1808EB4201415A9C
:104CB0008905890D009173D03A89DDE0C9062BD4AE
:104CC000018801EA090141F400410180206804F1F2
:104CD0001005B0F85030217C022202EBC1015A18B5
:104CE00008EB4201405AC0F30900E062616A0844DF
:104CF000606200212046FDF7E8FF607B00289DD020
:104D0000A86900289AD1607B216840F08000A1F852
:104D10004C0084F80DA050E1018804F5A8750A053F
:104D200021D5B0F850202B78062101EBC3010A44AD
:104D300008EB4201405A04F52671C0F30903EB6108
:104D4000EA88206802F084FE2068018802E0AEE074
:104D50006EE07EE001EA0B0141F080010180204617
:104D6000FEF71CFC29E10904D5D5018801EA0B01F5
:104D700041F0800101802068B0F850202B78062196
:104D800001EBC3010A4408EB4201405A83059B0D25
:104D9000EB6110D0696971B1EA88206801E05FE0D9
:104DA0005DE002F055FEE969686908446861002128
:104DB0002046FDF793FF216808880205ABD4C0F3B5
:104DC00001300328A7D0B1F850000844B0F80C1403
:104DD000C1F30901A0F80C142A6900F20C403E2A24
:104DE00009D95109D20600D1491E02884FF4004367
:104DF00043EA812109E0B2B15108D20700D0491C31
:104E000002884FF6FF7303EA81210A43028021687A
:104E100008884BF68F72104080F4405048F28002B0
:104E200010430880C9E0018841F400410180EEE7A9
:104E30002068B0F850203B78062101EBC3010A44FA
:104E400008EB4201415A8905890D009118D0FA8872
:104E500012E0324639462046FDF79CFF00900FE0F5
:104E6000062202EBC1015A1808EB4201415A89059A
:104E7000890D009104D07A897969009B02F0E8FDE0
:104E8000F86900990844F8617969009808447861E4
:104E9000B86918B139690098814204D93978204637
:104EA000FDF71CFF03E03946206802F047FB30069F
:104EB0002ED505EB850004EBC001206830F82520D5
:104EC00002EA090242F4004220F82520C87C103191
:104ED00001281ED0F0056CD42068B0F850300D7851
:104EE000022202EBC5021A4408EB4202805A8A6988
:104EF000C0F30900824255D9121A8A6154D04A6916
:104F000002444A61CA691044C861206802F016FB75
:104F100053E0C1F818A0087B524608B3700620D5AC
:104F2000487810B1012812D03AE02068B0F850203B
:104F300010440A7800EB0210B0F80424C2F309020E
:104F4000A0F80424B0F8042442F4004206E02068EB
:104F5000B0F8503018440B7800EB0310A0F804248C
:104F60001EE04B78206813B1012B11D018E0B0F887
:104F7000502010440A7800EB0210B0F80C24C2F361
:104F80000902A0F80C24B0F80C2442F4004205E019
:104F9000B0F8503018440B7800EB0310A0F80C2444
:104FA000097802E0C1F818A0E9B22046FDF78DFEAD
:104FB00003E032462046FDF760FF2068B0F8441059
:104FC00009043FF53CAE0020BDE8F88F70470000B3
:104FD000FF220C210148FBF7B9B80000D90C0020D2
:104FE00030B5CBB00C2248A92448FFF75FFB00285E
:104FF00041D10C22224948A8FBF7C1F800283AD039
:105000001F4948980860499A4A604A9A8A60002174
:1050100001238DF81031CDF811014998CDF8150113
:105020004A98CDF8190148AA0846135C401C59401B
:10503000C0B20C28F9D38DF81D1100208DF81E0187
:105040008DF81F011020009044AB0022242101A8FC
:10505000FCF7BDFC0546FDF77BFD044605E000BFFF
:10506000FDF776FD001B322805D8294601A8FCF77C
:1050700029FB0128F4D04BB030BD00009075FF1F14
:10508000D90C002001B582B000208DF804004FF447
:105090007A700090012301AA02A90348FEF776FE68
:1050A0009DF804000EBD0000180D0020F8B515464F
:1050B0000E460B46009204460122022100F010F831
:1050C00040B93346002280212046009500F008F8C0
:1050D000002804D0606D40F0200060650320F8BD1A
:1050E0002DE9F8431E46914688460446089DFDF783
:1050F0002FFD401B351AFDF72BFD0746254800689C
:10510000C0F3CB30684338E0701C37D0FDF720FD8A
:10511000C01BA84203D215B1009860B32CE02068F0
:10512000416821F0E00141606068B0F5827F0BD1F9
:10513000A068B0F5004F02D0B0F5806F04D12068B0
:10514000016821F040010160A06AB0F5005F09D15B
:105150002068016821F4005101602068016841F471
:1051600000510160012084F85100002084F85000B3
:105170000320BDE8F8830025401E00902068816868
:1051800038EA010004D000214945BDD10020F0E7F4
:105190000121F9E7440200207047FDF7DFBC30B57C
:1051A00093B028216846FAF7D8FF14210AA8FAF725
:1051B000D4FF002401200F94109411940104129440
:1051C0008DE8130004904FF4E010CDE9081002259B
:1051D00007956846FEF7B8FB08B172B6FEE70F20E8
:1051E000CDE90A054FF48060CDE90C4002210AA800
:1051F0000E94FEF7CDFA08B172B6FEE712200F90BA
:105200004FF40040CDE911040FA8FEF74BFA002837
:1052100001D072B6FEE713B030BD70470D4908B536
:10522000087828B104280CD005280ED0012008BD2C
:10523000C820002300901A461946202000F050FB99
:1052400008BDBDE8084000F035BB0022D1F80C02D3
:105250000A7008BDA40800200D4908B5087828B1D7
:1052600004280CD005280ED0012008BDC82000233A
:1052700000901A461946132000F032FB08BDBDE825
:10528000084000F017BB0022D1F80C020A7008BDDC
:10529000A40800200D4908B5087828B104280CD0CE
:1052A00005280ED0012008BDC820002300901A4612
:1052B0001946162000F014FB08BDBDE8084000F0B8
:1052C000F9BA0022D1F80C020A7008BDA408002027
:1052D0000D4908B5087828B104280CD005280ED04F
:1052E000012008BDC820002300901A46194612204C
:1052F00000F0F6FA08BDBDE8084000F0DBBA002275
:10530000D1F80C020A7008BDA408002038B5164B6D
:105310001D7835B10024042D0CD0052D20D001209E
:1053200038BD32200022009003231146502000F0A7
:10533000D7FA38BD1C70B3F80842032C0DD310B156
:1053400093F80441047011B193F80501087012B18B
:1053500093F806011070002038BD6FF0010038BDD1
:10536000D3F80C021C7038BDA408002018292AD3D9
:1053700001884ABA14490A80428852BA4A8082880F
:1053800052BA8A80C28852BACA80028952BA0A8145
:10539000428952BA4A81828952BA8A81C28952BAF2
:1053A000CA81028A52BA0A82428A037D52BA120420
:1053B00042EA0322437D1A434A61C08A40BA088305
:1053C000024901200870704788080020320100203F
:1053D00070B50B4800F0BEFD0A4C01204FF44B7134
:1053E000A0800948FAF7B9FE074800251C2105707E
:1053F0001C38FAF7B2FE2570A570E58070BD00007C
:105400000400002032010020A40800202DE9F04F04
:105410009B4FC5B07878B8B99A4CE06BA0B10068E2
:105420000068C00710D121686FF00E000860964D2B
:1054300096492046B5F88C20FFF74CF8E06B18B180
:1054400000684068A5F89000914C207860B304286B
:1054500027D0052825D000264FF0010A4FF0030B76
:10546000022826D001282CD003281AD1FDF770FB82
:10547000D4F810124FF6FF794FF00508884272D920
:1054800094F81402401CC0B284F8140294F8151267
:1054900088423BD2FDF75CFB401DC4F8100202209D
:1054A000207045B0BDE8F08F45B0BDE8F04F00F08A
:1054B00063B9FDF74DFBD4F810128842F1D384F89C
:1054C00000A0B4F8020118B100906178A31C02E0BA
:1054D000009661780023BA8801A8FCF7BDFA05465A
:1054E000694800F037FD2A4601A9664800F07CFEB5
:1054F000FDF72EFBD4F818120844C4F8100284F803
:105500001C62A4F8266384F800B0CAE74FF0FF30AD
:105510009DE0012000E0401CB880C2E75D4894F89F
:105520001C1200F209150A2910D2DFE801F005105B
:10553000212A323B4357656D9DF81020A52A05D1DD
:1055400029884B1C2B80425484F81CA290E09DF8C3
:1055500010205B2A08D129884B1C2B804254022042
:1055600084F81C0284E081E02E8084F81C627FE0D5
:105570002A889DF81030511C2980835484F81CB26D
:1055800076E029889DF810304A1C2A804354042074
:10559000E6E72B889DF81020591C2980C25484F816
:1055A0001C8265E029889DF810204B1C2B804254FA
:1055B0000620D5E729889DF810304A1C2A804354DC
:1055C00040799DF8101041EA0020A4F82803B4F8AF
:1055D00006128842C8D868B10720C1E72B889DF819
:1055E0001020591C2980C254B4F828032988C01DF2
:1055F00081423DD30820B3E729889DF810304A1C2A
:105600002A8043540920ABE729889DF810304A1CB2
:105610002A80435402AA0399CDE900122988002365
:1056200005AAFCF7C9FA00289ED061789DF81400FD
:10563000814208D1BDF80800A4F808020420C4F88B
:105640000C62207007E030280AD06FF00100C4F827
:105650000C0284F80080B8884845FFF45CAF58E736
:10566000BDF808100398FFF781FE7DE70A48039014
:1056700004A9054800F037FD00287FF44FAF10E77C
:1056800032010020B80D0020040000205C0300203F
:10569000A4080020C10A0020A8090020134908B569
:1056A0000B7833B10022042B0CD0052B19D001202C
:1056B00008BDC8200022009010231146342000F0BD
:1056C0000FF908BD0A70B1F80812102906D318B1F5
:1056D00010220749FAF728FD002008BD6FF00100ED
:1056E00008BDD1F80C020A7008BD0000A408002013
:1056F000A80900200D4908B5087828B104280CD065
:1057000005280ED0012008BDC820002300901A46AD
:105710001946142000F0E4F808BDBDE8084000F088
:10572000C9B80022D1F80C020A7008BDA4080020F4
:105730000D4908B5087828B104280CD005280ED0EA
:10574000012008BDC820002300901A4619461520E4
:1057500000F0C6F808BDBDE8084000F0ABB8002274
:10576000D1F80C020A7008BDA40800200149487055
:10577000704700003201002070B54B4DC6B068780C
:10578000002872D1002642A9484800F0ACFC00284D
:105790006BD0454CA9784648A41D0A29F3D2DFE80E
:1057A00001F0050F1D252D353D4F5C659DF8082145
:1057B000A52AE8D12388591C2180C254012008E081
:1057C0009DF808215B2A06D121884B1C2380425476
:1057D0000220A870D7E72680AE70D4E722889DF813
:1057E0000831511C218083540320F2E721889DF861
:1057F00008314A1C228043540420EAE721889DF89E
:1058000008314A1C228043540520E2E722889DF893
:105810000831511C218083540620DAE721889DF845
:1058200008314A1C2280435440799DF8081141EA0E
:1058300000202881B0F5807FCDD860B10720C8E76F
:1058400021889DF808314A1C2280435428892188E8
:10585000C01D814297D30820BBE721889DF80831FD
:105860004A1C228043540920B3E71AE022889DF89D
:105870000831511C2180835444AA02A9CDE90012A9
:105880002188002343AAFCF797F90028A3D09DF8AC
:105890000C0130289FD1BDF8101102A8FFF766FD5A
:1058A00099E746B070BD00003201002004000020DE
:1058B000D00B00200949002008700846B1F80622E4
:1058C000B0F808023AB118B191F80401002801D0EB
:1058D0006FF0010070470028F6D17047A40800203F
:1058E00070B50B4C049E1D466070A4F8022112B1E5
:1058F000A01CFAF719FCA4F806520320C4F8186299
:1059000084F81502002084F814020120207070BD74
:10591000A40800201CB510490A782AB1042A11D025
:10592000052A13D001201CBD010A8DF804108DF842
:105930000500C82000900023022201A91820FFF7CB
:10594000CFFF1CBDBDE81C40FFF7B4BF0022D1F85B
:105950000C020A701CBD0000A40800200D4908B507
:10596000087828B104280CD005280ED0012008BDE5
:10597000C820002300901A4619461120FFF7B0FFF7
:1059800008BDBDE80840FFF795BF0022D1F80C0222
:105990000A7008BDA40800202DE9F04107462548FB
:1059A000FEF701FB234C2068C16821F40051C1605F
:1059B00021686FF00E000860206840681E4E1F4D81
:1059C0004FF4807157B10020A06001222061A5F83A
:1059D0008E20A5F88C10306170610CE04FF480507F
:1059E000A060801002222061A5F88E208022A5F8F8
:1059F0008C20C6E904100F48FEF744FC002817D19C
:105A00003068016821F0010101600B48FCF742FF9A
:105A10000A4800F09FFAB5F88C2009490548FEF7BE
:105A200059FDE06B002803D000684068A5F890009D
:105A3000BDE8F081B80D0020440E002004000020D5
:105A40005C0300200D4908B5087828B104280CD063
:105A500005280ED0012008BDC820002300901A465A
:105A600019461020FFF73CFF08BDBDE80840FFF7CE
:105A700021BF0022D1F80C020A7008BDA408002042
:105A8000134908B50B7833B10022042B0DD0052B38
:105A90001AD0012008BD4FF4FA70002200901023A4
:105AA0001146282000F03CFA08BD0A70B1F808122F
:105AB000102906D318B110220649FAF735FB002049
:105AC00008BD6FF0010008BDD1F80C020A7008BDD6
:105AD0005C0500206006002038B5164A147834B101
