:020000040800F2
:1050000078090020D9500008F18A00085786000866
:105010000000000000000000000000000000000090
:10502000000000000000000000000000F58A0008F9
:105030000000000000000000F38A0008E98B00086F
:10504000EB500008EB500008EB500008EB50000854
:10505000EB500008EB500008EB500008EB50000844
:1050600000000000715B0008815B0008EB50000845
:10507000EB500008798C0008EB500008EB5000085A
:10508000EB500008EB500008EB500008EB50000814
:1050900000000000EB500008EB500008EB50000847
:1050A000EB500008EB500008EB500008EB500008F4
:1050B000559B0008EB5000080000000000000000B5
:1050C0000448854600F004FC0048004755AA000843
:1050D000C046C0467809002004488047044800477D
:1050E000FEE7FEE7FEE7FEE7FEE7FEE7698C000865
:1050F000C150000830B50B46014600202022012493
:1051000009E00D46D5409D4205D31D469540491BFB
:105110002546954040191546521E002DF1DC30BD44
:1051200070B500242546002801DA012440420029F8
:1051300001DA01254942FFF7DDFFAC4200D04042D1
:10514000002C00D0494270BDF0B51FB406460020C7
:1051500082B005464024019100901BE0019922464F
:105160000F46304600F0F0FA049A059B801A9941E8
:1051700010D310461946224600F016F8361A8F4111
:105180000197224601200021009F00F00DF83818F9
:105190004D4100902046641E0028DFDC019B0098F2
:1051A0002946324607B0F0BD10B5202A04DB01467F
:1051B000203A9140002010BD914020239C1A0346C4
:1051C000E3401943904010BD03460B439B0703D0B7
:1051D00009E008C9121F08C0042AFAD203E00B78BC
:1051E0000370401C491C521EF9D27047D2B201E034
:1051F0000270401C491EFBD270470022F6E710B532
:1052000013460A4604461946FFF7F0FF204610BD34
:10521000F8B502464A40D40F42004B0052085B08E2
:105220009A4202D20246084611464A0023D0C30DD4
:105230004A00DDB2120EAD1A202D35DA49020126E0
:10524000490AF6058A19002C00D0524220214F1B32
:105250001146B9402A411018C20D9A4221D0002CA3
:1052600017D0012D08DCDA05801AD20F8019D20779
:10527000DBB200F095FAF8BDDA05801A0123400090
:105280001B06C01880185A428018CA0F10434900E4
:1052900007E04908C2071143DA05801A801940085F
:1052A000801800F075FAF8BD61000122511A001B48
:1052B000F7E70122D2075140AAE70122D207504066
:1052C000A6E7024670B54A40D30FDB0740002DD059
:1052D0004A002AD0010E140E000212020919400AD7
:1052E000520A8418E50104465443000A120A2E04A7
:1052F0005043A4194219200CC543AA18120C0125C9
:10530000AD03521C521912047F39240400D0521CE0
:10531000104301D44000491EC2B20C06C009201837
:10532000401C4008802A02D003E0002070BD4008E5
:105330004000002900DA0020184370BD70B5024615
:105340004A40D50F40004A00ED07400852080028A7
:1053500014D0002A12D0C40DD30D41020120C00583
:105360005202490A520AE41A091812187D3491426D
:1053700001D3641C00E04900002C01DA002070BD5C
:105380000023914201D3891A0343400849000028B1
:10539000F7D100290AD0914202D10121C90705E0C5
:1053A000914201D2012101E00121C943E005C01869
:1053B000401900F0EDF970BD420005D04200120E18
:1053C00052428A4201DB00207047C9050818704725
:1053D000F0B507460846584087B0C00F0490480013
:1053E0000E46590040084908BC1A884105D2384683
:1053F00031461E4617460B460246580040081043E9
:105400004DD0300D039040055900400D490D0590D9
:10541000401A0290402873DA18030121000B090595
:105420000843019004980092002806D01146019A82
:1054300049420020904100910190029840210A1AAF
:1054400001990098FFF7B0FE05460C466B4607CB66
:1054500000F08BF9C0197141039A0E0D0023D71784
:1054600056401A467A40164344D0049A002A2DD05A
:10547000029A012A039A15DC1205C01A91410126ED
:105480003605001C7141D20F059ED2070093019290
:1054900002962A46234600F0C9F907B0F0BD384607
:1054A0003146FAE71605234A0F46B218C01AB7412B
:1054B00001210905001C4F4100187F4111461818B1
:1054C0007941E20F10436D19644113E0E2076D0862
:1054D00015436408C2071443039A01261205C01A33
:1054E00091413605001C7141CE0740083043490800
:1054F000C01851412A46234600F08BF9CDE7FFE75B
:10550000049801224000C117121A00238B4104980D
:105510003146C417381AA141EEE730B40124E4073C
:10552000634030BC54E730B40124E407614030BC30
:105530004EE700000000E0FFF0B51FB488B00B9903
:105540000998002448400999C00F49004908099169
:10555000C0070B990090490049080B9109990898D8
:10556000A64608431CD00B990A98084318D00998FE
:1055700001244000420D4800410D09982405000314
:10558000000B204309900B980003000B20430B9065
:1055900050181C494018002201901446104605E09E
:1055A000002001460DB0F0BD032801DA034600E0FB
:1055B00003239C46C11A0AAE0AE05F0008ADED5B0A
:1055C0004F00F75B7D430027AA187C41491C5B1EF6
:1055D0006145F2DD410004AB5A522104120C0A432A
:1055E000240C401C0828DFDB0198029000997046CB
:1055F00001910090059B049A0799069800F016F90E
:10560000D0E700000DFCFFFFC217C10F504010B5DE
:105610004018CA079623002100F0C2F810BD10B54B
:1056200000229623114600F0BBF810BD0EB5C2173C
:10563000C10F5040CA0740180021054B0293019248
:1056400000910A460B4600F0F1F803B000BD0000DF
:1056500033040000C20F410040020123400ADB0571
:10566000D207090EC0187F2901DA00207047962959
:1056700003DC9623591AC84001E096398840002A75
:10568000F4D040427047000070B5CD0F4A000903C6
:105690000123090B1B0519430B4BED070024520D89
:1056A0009A4201DA002070BD074B34339A4203DC82
:1056B0009A1A00F049F802E00449511888402C4336
:1056C000F1D0404270BD0000FF030000CDFBFFFFA2
:1056D000C20FD207400040080BD0C10D0723DB01E9
:1056E000C91840020905400A1143C2084007114386
:1056F000704700200146704710B5002904DB0124E3
:10570000E40740428C412146002B04DB1C46012368
:10571000DB075242A3418B4200D1824210BD000000
:105720000122D207002800DB101A002900DB511AE1
:10573000814270470122D207002800DB101A00299D
:1057400000DB511A8842704710B5202A04DB084656
:10575000203AD040002110BD0B46D340D040202439
:10576000A21A91400843194610BD10B5202A06DB45
:10577000CB170846203A1041C1170B4306E00B46F1
:105780001341D0402024A21A91400843194610BD6D
:10579000002904DA401C490001D14008400070474C
:1057A00070B40024050C05D11024000402D1002996
:1057B00021D01124050E01D100020834050F01D1BA
:1057C0000001241D850F01D18000A41C002801DBED
:1057D0004000641C002908D020252E1B0D46F540F2
:1057E000A14000D001212943084301061B1B000AE8
:1057F000DB1D02D5002070BC7047DB05181880182F
:105800000029F8DA401C4900F5D170BC400840007E
:10581000704710B5002B08DA0024401C6141921833
:105820005B411A4301D14008400010BDF0B51FB4E0
:1058300082B005460C0003D0084604F06FFC02E07D
:1058400004F06CFC20300246009021462846FFF709
:10585000ABFC049B059A04460F46184311430843CA
:1058600014D0184610431BD0009840210A1A18463D
:105870000599FFF769FF05460E46009A05990498B9
:10588000FFF792FC084305D0012004E0204639468A
:1058900007B0F0BD0020C11705430E432C4337432A
:1058A00000990E986305401A7905E40A00220C431A
:1058B000FD0A0A3002D500200146E9E7010510196A
:1058C00069410C9C0D9D00196941FFF7A2FFDFE7BC
:1058D000064C0125064E05E0E36807CC2B430C3C43
:1058E00098471034B442F7D3FFF7EEFB9CD300087F
:1058F000BCD3000870B5044600681949884203D03B
:10590000184919A004F070FD206802F0ADFE0028CF
:1059100024D0206881688907C90F04D18168204A92
:1059200011401031816001F0BBFD054612E001F02D
:10593000B7FD401B02280DD920688068400709D5B3
:10594000A06D10210843A065E06D01210843E065CA
:10595000084670BD206880684007E8D4002070BD0C
:1059600000240140610A00002E2E5C4472697665B5
:1059700072735C53544D3332473078785F48414CF2
:105980005F4472697665725C5372635C73746D33E5
:1059900032673078785F68616C5F6164632E6300A2
:1059A000E8FFFF7F10B5846AA16D502211420DD12E
:1059B000A06D012149020843A065206802F058FE4D
:1059C00000281BD0A07E002807D017E0A16DC906D3
:1059D00024D5204600F021FD10BD2068016809078C
:1059E0000CD502F041FE0146012000290AD0A16D2C
:1059F00020221143A165E16D0143E165204600F0DD
:105A0000F9FC10BD21684A680C239A434A60A16DD5
:105A1000FF22013291430143A165EFE7216D496BFC
:105A2000884710BD10B5806A816D402211438165A1
:105A3000C16D04221143C16500F0EFFC10BD10B52B
:105A4000806A00F0E9FC10BDF8B504460068816882
:105A50008907CD0F02F000FE00282AD0002D28D1A2
:105A6000206881680522114010250126012914D1E2
:105A70008168114A1140891C8160216803200860F7
:105A800001F00EFD074610E001F00AFDC01B0228E0
:105A90000BD920688068C00707D0A06D2843A06597
:105AA000E06D3043E0650120F8BD20688068C007E4
:105AB000EAD10020F8BD0000E8FFFF7FF8B50446FA
:105AC00000200090206802F0C7FD002845D1206822
:105AD0008168234A10261140002930D18168D543BE
:105AE0002940491C81601F4800680721890508403A
:105AF00000020AD51D481C490068FFF7FBFA401C4C
:105B000000E0401E00900028FBD1607E012824D0D8
:105B100001F0C6FC07461BE002F09EFD002804D100
:105B2000206881682940491C816001F0B9FCC01BD4
:105B300002280DD920680068C043C00708D0A06DB6
:105B40003043A065E06D01210843E0650846F8BDDB
:105B500020680168C943C907DED10020F8BD0000F4
:105B60001700008008270140400D03001C000020A2
:105B700010B5024801F08CF810BD0000C4040020EC
:105B800010B5024803F024FA10BD0000F80200200E
:105B900038B51A48816B012211438163806B194C1F
:105BA0001040009016482060052060600020A06032
:105BB00080212161E06049006161C900A161E0616B
:105BC00088002062204601F0BFF8020009D00EA133
:105BD000032004F08DFE15A1032004F089FE72B6A7
:105BE000FEE700220321092001F0F8FC092001F062
:105BF000C5FC044864380465A06238BD001002404A
:105C000008000240C40400204144433A2048414C6B
:105C10005F444D415F496E6974206661696C6564DB
:105C20002C20726573203D2025640000457869743E
:105C3000696E672E2E2E000010B50446006C0949CF
:105C40008008800040186064207814210838FFF72D
:105C500051FA04498031A164C106C90E012088406F
:105C6000E06410BD000802400179084B8906890EE6
:105C70008A00D2180265054A4432491E42658A07E5
:105C8000920F01219140816570470000FC0802409D
:105C9000F0B5846CC56C6560046D002C02D0446D59
:105CA000856D65600B4C6568066C1C273E400127BE
:105CB000B7403D436560046863608368102B0368E8
:105CC00003D099600068C260F0BD9A600068C1604E
:105CD000F0BD00000000024072B6FEE710B50446B9
:105CE000042803D0054906A004F07EFB144841694E
:105CF0000122120414432143416110BD3B02000004
:105D00002E2E2F447269766572732F53544D3332A1
:105D1000473078785F48414C5F4472697665722FEE
:105D20005372632F73746D3332673078785F6861B4
:105D30006C5F666C6173685F65782E6300000000BD
:105D40000020024010B50C46042803D00C490DA0D9
:105D500004F04AFB1B48008C4006800EA04204D889
:105D6000074908A0491C04F03FFB17494869174A36
:105D70001040E2000243164802434A6110BD000091
:105D8000510200002E2E2F447269766572732F53D4
:105D9000544D3332473078785F48414C5F447269E4
:105DA0007665722F5372632F73746D333267307858
:105DB000785F68616C5F666C6173685F65782E639D
:105DC00000000000C075FF1F0020024007E0FFFF39
:105DD0000200010030B505494C6901252C434C6196
:105DE0000260BFF36F8F436030BD000000200240AF
:105DF00030B50B4C002362690125AD042A43626172
:105E0000EFF3108272B620C95B1C20C0DBB2402BBE
:105E1000F9D32069C003FCD482F3108830BD0000A0
:105E200000200240F8B5044601F03AFB012706467F
:105E30003F04124D06E0601C04D001F031FB801BD2
:105E4000A04213D228693842F5D128690C4908408C
:105E50000C4929610CD00C4948600120F8BD601C38
:105E600006D001F01DFB801BA04201D30320F8BD2A
:105E700028694003F3D40020F8BD00000020024050
:105E8000FAC30000FBC30000EC000020F0B504469C
:105E9000002089B00646029054492068884203D009
:105EA000722153A004F0A0FA25464035287D012830
:105EB0000ED001272F752046FFF7C6FD05902068FC
:105EC00002F0CEFB0028A06D05D01021084388E029
:105ED000022009B0F0BDFF210131884302210843AF
:105EE000A0652068C168514A11400491C168D2433D
:105EF0001140C16000212068826817239A43DB07A4
:105F00001A4382604A4A20680DE0029B5B1C0293A0
:105F1000934208D3A06D0221884310210843A06555
:105F2000002028754DE08368DB0FEED18030406B98
:105F3000491C4006400E86190829DCD33046FFF77D
:105F4000D9F80146206882683A4B1A40521C826098
:105F500020680269920F920713D1374A12680F2600
:105F6000B60432400726B604B2420AD3920C3E462B
:105F7000D21E96407208019600E0521E0192002A3D
:105F8000FBD18030426BD209D2010A4342632068C0
:105F900081681940891C816001F082FA064612E08E
:105FA00001F07EFA801B02280DD9206802F058FB10
:105FB000002808D0A06D10210843A065E06D38438B
:105FC000E065012085E7206802F04AFB0028E7D160
:105FD0002068C168049A1143C160A06D80088000E8
:105FE000401CA06500202875059872E70024014038
:105FF0002E2E5C447269766572735C53544D333255
:10600000473078785F48414C5F4472697665725CCE
:106010005372635C73746D3332673078785F686194
:106020006C5F6164635F65782E630000038000002D
:1060300000F20200E8FFFF7F08270140FEB504469A
:1060400000200D4601900090C1492068884203D08D
:10605000C049C1A004F0C8F92868012843D0CC4940
:10606000884240D0490088423DD0CA4988423AD04F
:10607000C949884237D0C949884234D0C849884282
:1060800031D0C84988422ED0C74988422BD0C74951
:10609000884228D0C649884225D0C649884222D0A5
:1060A000C54988421FD0C54988421CD0C44988428E
:1060B00019D0C449884216D0C349884213D0C34975
:1060C000884210D0C24988420DD0C24988420AD0C5
:1060D000C149884207D0C149884204D09D499EA049
:1060E000491C04F081F9A868002807D0BC498842FF
:1060F00004D01121C90198A004F076F90127206984
:10610000FF07B84202D0391D884207D168680128CC
:1061100023D0022821D08F49C91D1BE0E069401E11
:10612000072804D98B498CA00B3104F05DF968680D
:10613000002812D0042810D008280ED00C280CD02B
:1061400010280AD0142808D0182806D01C2804D0FB
:1061500080490D3180A004F047F926464036307D55
:10616000012810D001203075206802F07DFA002847
:106170000BD0A06D20210843A065012001900020D4
:1061800030750198FEBD0220FEBD686802287DD0F2
:106190002169B94202D0934A914207D12068296807
:1061A000826A4903490B0A4382626DE0C3060F20ED
:1061B000DB0E0146226E99408A4329684F0302D0C4
:1061C000CF074BD102E04900C90E48E08F0701D547
:1061D000012144E04F0701D5022140E00F0701D51E
:1061E00003213CE0CF0601D5042138E08F0601D51C
:1061F000052134E04F0601D5062130E00F0601D518
:1062000007212CE0CF0501D5082128E08F0501D515
:10621000092124E04F0501D50A2120E00F0501D511
:106220000B211CE0CF0401D50C2118E08F0401D50F
:106230000D2114E04F0401D50E2110E00F0401D50B
:106240000F210CE0CF0301D5102108E08F0301D509
:10625000112104E0490301D5122100E000219940F9
:106260000A4322666B68E2699908491C91420BD87F
:1062700021682F688A6ADB06DB0E98408243B800EB
:10628000000F984002438A62206800E038E02A68E4
:10629000A9684369120293430A40510149090B431B
:1062A00043612A68002A00DB69E74F480168072339
:1062B0009B051940474B9A4213D10B0211D4D202CD
:1062C000114302F0DDF94A4848490068FEF712FF21
:1062D0000C21401C484300E0401E00900028FBD1E8
:1062E0004DE73E4B9A4203D1CB0101D4920205E027
:1062F000394B9A42D8D14A02D6D45A02114323E0EC
:106300002069B84202D03749884206D121682868FE
:106310008A6A4003400B82438A622A68002AC3DAF1
:106320003148016807239B0519402A4B9A4201D145
:10633000D20208E0294B9A4201D1920203E0264B97
:106340009A42B1D15202914302F09AF917E7000044
:10635000002401407E0800002E2E5C4472697665A0
:1063600072735C53544D3332473078785F48414CF8
:106370005F4472697665725C5372635C73746D33EB
:1063800032673078785F68616C5F6164632E6300A8
:10639000020000040800000C10000010200000148F
:1063A000400000188000001C0001002000020024B2
:1063B000000400280008002C0010003000200034E9
:1063C000004000380080003C000001400000024412
:1063D00000000448001000B0002000B4004000B8E5
:1063E00004FFFF070400008008270140400D030060
:1063F0001C00002010B500680449884205D10448FB
:1064000000F06AFB03490120087010BD0024014020
:10641000600400203C00002070477047FEB5002556
:10642000044601950295009500287DD0FE4920681C
:10643000884204D0FF218B31FCA003F0D5FF03215B
:106440000126606889077605884233D07102884248
:1064500030D0490088422DD000282BD0490B8842EB
:1064600028D04900884225D003218904884221D0C0
:10647000711088421ED00521890488421AD0032158
:10648000C904884216D007218904884212D0B0423C
:1064900010D00921890488420CD00521C904884202
:1064A00008D00B218904884204D0FF218C31DFA061
:1064B00003F09AFFA06800280AD0082808D0102806
:1064C00006D0182804D0FF218D31D8A003F08CFF0E
:1064D000E068002806D0202804D0FF218E31D3A008
:1064E00003F082FF206900280DD0B0420BD00121BB
:1064F000C907884207D0091D884204D0FF218F3187
:10650000CAA003F071FFA07E002806D0012804D0A5
:10651000FF219031C5A003F067FF0127A06ABF02E9
:1065200000280FD0B84200E096E00BD079008842F6
:1065300008D003218902884204D0FF219131BBA0F9
:1065400003F052FF606AB84216D0112189018842D7
:1065500012D00921C90188420ED013218901884235
:106560000AD017218901884206D0002804D0FF21D3
:106570009231AEA003F038FF27462037387B002841
:1065800006D0012804D0FF219331A8A003F02CFFEE
:106590006069042806D0082804D0FF219431A3A004
:1065A00003F022FF206B002808D001210903884254
:1065B00004D0FF2195319DA003F016FF207E002816
:1065C00006D0012804D0FF21963198A003F00CFFDB
:1065D000607E002806D0012804D0FF21973193A0C7
:1065E00003F002FF606B002812D0012810D00228AF
:1065F0000ED003280CD004280AD0052808D006287D
:1066000006D0072804D0FF21983188A003F0ECFEC3
:10661000A06B002812D0012810D002280ED0032829
:106620000CD004280AD0052808D0062806D0072850
:1066300004D0FF2199317DA003F0D6FE387F0028D9
:1066400047D001280AD0FF219A3178A003F0CCFE70
:10665000387F012802D03CE00120FEBD206C0028DC
:1066600012D0042810D008280ED00C280CD01028E6
:106670000AD0142808D0182806D01C2804D0FF21DE
:106680009D316AA003F0B0FE606C002815D0202870
:1066900013D0402811D060280FD080280DD0A0281A
:1066A0000BD0C02809D0E02807D0C11FF93904D089
:1066B000FF219E315DA003F097FEA06C002808D05A
:1066C000C11FFF39FA3904D0FF219F3157A003F0D1
:1066D0008BFEE06C002808D001214907884204D0D5
:1066E000FF21A13151A003F07FFE2069002815D0C1
:1066F0003878002806D0012804D0FF21A5314BA00E
:1067000003F072FE2069B04208D1E069401E0728FC
:1067100004D9FF21A93145A003F066FE387801288D
:1067200007D1A07E012804D1FF21AF313FA003F0A3
:106730005BFEA06D002806D1204600F01BF900206A
:10674000E0655421085520688168C900C90F12D13D
:106750008168444A11400122120711438160434875
:1067600041490068FEF7C6FC4000801C00E0401E66
:1067700000900028FBD120688168C900C90F08D1AA
:10678000A16D10221143A165E16D01221143E16564
:10679000154601F069FFA16DC90601D4002804D097
:1067A000A06D10210843A065D8E0A06DFF21013144
:1067B000884302210843A065206801F04DFF0028AE
:1067C0006FD1217EA06889030843617ECA03A17E40
:1067D0004B031A431043226B002A01D001221203FB
:1067E0001043E26810432269002A02DA520052087C
:1067F00000E0324610433A7B52001043019A1043A6
:106800003A78012A09D1002947D0A16D20221143ED
:10681000A165E16D01221143E165616A00292BD078
:10682000FF23C133194023E0002401402E2E5C4495
:106830007269766572735C53544D333247307878A1
:106840005F48414C5F4472697665725C5372635C69
:1068500073746D3332673078785F68616C5F616440
:10686000632E6300E8FFFF7F400D03001C00002043
:10687000A26A0143104608432168CA68394B1A408E
:106880000243CA606168029A890F8907E06C0A4373
:1068900010433A7F012A05D00DE001210904084385
:1068A000BBE721E0636C226C491C1A43A36C0B43C9
:1068B000114619430843226811692B4B19400143C3
:1068C000116103206168800781420DD05807814221
:1068D0000AD04000814207D0244882680F239B04DD
:1068E0009A4319400A4382600021626B206801F0DC
:1068F000CEFE1F49A26B206801F0C9FE0F2021695E
:10690000C04300291BD0B1420AD121688A6A227F84
:106910009200121FD206D20E9040226E104388625F
:1069200020684169626B49070020490F91420BD1F1
:10693000E065A06D80088000401CA0650FE0216824
:106940008A6A02438A62EBE7A06D02218843102124
:106950000843A065E06D01210843E0650125284654
:10696000FEBD00000102DEFF02FCFF1F0027014008
:1069700004FFFF0710B586B0044614216846FEF7F1
:106980003CFC1249206888421DD11148026801214F
:1069900009050A4302600068084005900C48403829
:1069A000416B012211434163406B694610400590E1
:1069B0007020009003200190002002900490052098
:1069C000000700F02FFC06B010BD000000240140BD
:1069D00040100240F7B5044600682A49884203D0B7
:1069E00029492AA003F000FD206801F03DFE00289F
:1069F00045D125464035287D012840D001272F75F7
:106A00002068C1682F4EC9070CD101F025FE00286F
:106A100004D0206881683140891C81602068C16889
:106A20003943C1602046FFF749F8002826D1A06D00
:106A300025490840FF2101310843A0650020E06599
:106A4000226D2249D162226D21491163226D2149B3
:106A5000516322681C21116028752068416810224A
:106A6000114341602168206D4031029B019A00F082
:106A70004FFA21688A683240121D8A60FEBD0220EA
:106A8000FEBD000000240140860600002E2E5C445E
:106A90007269766572735C53544D3332473078783F
:106AA0005F48414C5F4472697665725C5372635C07
:106AB00073746D3332673078785F68616C5F6164DE
:106AC000632E6300E8FFFF7FFEF1FFFFA55900087A
:106AD0003F5A0008255A0008F8B5044600682049C6
:106AE000884203D01F4920A003F07EFC2646403692
:106AF000307D012807D0012737752046FEF7FAFEC2
:106B0000050002D028E00220F8BD206D2521095C97
:106B1000022907D100F044F8050003D0A06D402100
:106B20000843A06520684168102291434160002D10
:106B3000204602D0FEF788FF09E0FEF785FF05003A
:106B400005D1A06DFF21013188433843A06520683D
:106B5000C16849084900C160002030752846F8BD69
:106B600000240140E60600002E2E5C447269766522
:106B700072735C53544D3332473078785F48414CE0
:106B80005F4472697665725C5372635C73746D33D3
:106B900032673078785F68616C5F6164632E630090
:106BA000F0B5002808D0014620314A79022A05D0E4
:106BB0000422C263002008710120F0BD026813683E
:106BC0000E24A3431360426C1468FF2301339C43DB
:106BD0001460026814686408640014600C4A556804
:106BE000066C1C24264001242746B7403D435560CF
:106BF000826CC56C5560026D002A05D015689D43F6
:106C00001560826D406D42604C7100200871F0BDCE
:106C100000000240F8B500240246203251790229D2
:106C200003D00421C16301242DE001680B680E2507
:106C3000AB430B6001680B685B085B000B60416C49
:106C40000B68FF250135AB430B6010494D68066C9E
:106C50001C231E4001231F46B7403D434D60816CFD
:106C6000C56C4D60016D002906D00E681D02AE4353
:106C70000E60416D856D4D60537100211171816B06
:106C8000002900D088472046F8BD000000000240DF
:106C9000F0B42C490C6802681368056C1C273D4051
:106CA0000426AE40264211D05E070FD513689B061E
:106CB00003D4146804239C4314604B68046C0422BE
:106CC0003C40A24013434B60016B1CE00227AF40E5
:106CD000064627402036002F19D09F0717D5136886
:106CE0009B0605D413680A24A34313600122727122
:106CF0004B68046C1C2214400222A24013434B60D8
:106D000000213171C16A00291AD0F0BC0847082758
:106D1000AF40274214D01B0712D513680E24A3439B
:106D200013604B68046C1C22144001221546A540D8
:106D30002B434B60C263727100213171416BE2E7FA
:106D4000F0BC704700000240F8B504007ED06049F6
:106D50002068884213D05E49143188420FD05C49C4
:106D6000283188420BD05A493C31884207D05849D3
:106D70005031884203D0A12156A003F035FB0127F2
:106D8000A068BF03002807D0102805D0B84203D060
:106D9000A22150A003F028FBE068402805D000287D
:106DA00003D0A3214BA003F01FFB2069802805D04E
:106DB000002803D0A42147A003F016FB6069002837
:106DC0000AD0C11FF93907D0C11FFF39FA3903D0E2
:106DD000A52140A003F008FBA06900280AD00121EA
:106DE0008902884206D04900884203D0A62139A0F2
:106DF00003F0FAFAE069002805D0202803D0A72183
:106E000034A003F0F1FA206A00280ED00121090312
:106E100088420AD04900884207D0032109038842EA
:106E200003D0A8212BA003F0DFFA6068352803D92E
:106E3000AA2128A003F0D8FA25482568404228183E
:106E40001421FEF757F98000206400E035E00220AD
:106E500026462036707128682C4908402860E16871
:106E6000A06862690843216911430843A169084386
:106E7000E1690843216A084321680A6810430860F1
:106E80002046FEF7D9FEA0680025B84200D1656013
:106E90002079616C8006800E0860A06CE16C416016
:106EA0006068401E03280AD82046FEF7DDFE206DEC
:106EB0000560606DA16D416004E00120F8BD2565AD
:106EC0006565A565E5630120707135710020F8BD29
:106ED000080002402E2E2F447269766572732F537C
:106EE000544D3332473078785F48414C5F44726983
:106EF0007665722F5372632F73746D3332673078F7
:106F0000785F68616C5F646D612E63000F80FFFFC6
:106F1000FFB5044627490025581E81B01E46884209
:106F200004D3FF21B83124A003F05EFA20462030BC
:106F3000017901290CD00127077142790021012A2A
:106F400008D08022E26301710125284605B0F0BD1A
:106F50000220FBE702224271E163206801684908D0
:106F60004900016033462046039A0299FEF790FEDD
:106F7000206B00282068016801D00E2205E0042261
:106F800091430160206801680A2211430160606C2E
:106F90000168CA03164902D502680A430260206DDF
:106FA000002802D002680A43026020680168394361
:106FB0000160CAE7FEFF00002E2E2F44726976653D
:106FC00072732F53544D3332473078785F48414CB9
:106FD0005F4472697665722F5372632F73746D33D9
:106FE00032673078785F68616C5F646D612E630032
:106FF00000010000F8B5044600680F46022805D0DD
:10700000042803D0A0211FA003F0EEF92D4E307804
:1070100001280AD001203070002070607D20C0005F
:10702000FEF700FF002802D029E00220F8BD04216D
:1070300061602268042A03D0491F3960A56814E002
:107040000846FEF74BFE7D20C000FEF7EBFE16E083
:1070500029466068FEF776FE7D20C000FEF7E2FE5E
:10706000002801D03D6005E06D1CE268A168891828
:10707000A942EDD814494A6902239A434A61002182
:107080003170F8BD2E2E2F447269766572732F53BE
:10709000544D3332473078785F48414C5F447269D1
:1070A0007665722F5372632F73746D333267307845
:1070B000785F68616C5F666C6173685F65782E638A
:1070C00000000000EC0000200020024010B57D20F0
:1070D0000124C000FEF7A6FE054841698204114361
:1070E00041614069002800DA0024204610BD0000FC
:1070F00000200240F0B51FB417460C460646012892
:1071000007D001208004864203D0A92127A003F0E4
:107110006BF9354D287801280AD00120287000200D
:1071200068607D20C000FEF77DFE002803D020E0CF
:10713000022005B0F0BD0120C0062C49012E1BD055
:10714000844206D3088C2A494006C00B4018A0424E
:1071500003D2C12115A003F047F939462046FEF7B6
:1071600047FE7D20C000FEF75DFE22494A69B2431A
:107170004A6100212970DCE7844207D3088C1C494E
:107180004006C00BF8314018A04209D21A487F21AE
:107190002018C900884203D9B92104A003F024F9BA
:1071A0003A462046039BFEF715FEDAE72E2E2F44C3
:1071B0007269766572732F53544D33324730787845
:1071C0005F48414C5F4472697665722F5372632F3A
:1071D00073746D3332673078785F68616C5F666CAA
:1071E0006173682E63000000EC000020C075FF1F73
:1071F00000FFFF0700200240009000E00649002049
:107200004A69002A07DA054A8A60054A8A6049699C
:10721000002900DA01207047002002402301674561
:10722000AB89EFCDF8B504460520002700070D46D1
:1072300084420FD0864884420CD08648844209D0CC
:107240008548844206D08548844203D0A92184A081
:1072500003F0CAF828680104090C01D0000C03D01F
:10726000AA217FA003F0C0F86868002825D0012873
:10727000FCD01128FAD00228F8D01228F6D011211B
:1072800009048842F2D0212109048842EED031213C
:1072900009048842EAD0092149048842E6D0112134
:1072A00049048842E2D0192149048842DED00328EB
:1072B000DCD0AB216AA003F097F8C3E00120B8400E
:1072C000009006407ED028798007800F012801D0E9
:1072D00002281ED1E868002809D0012807D002281A
:1072E00005D0032803D0BA215DA003F07DF8A06883
:1072F0007A00032191408843E96891400143A160ED
:107300006168009881432879C006C00FB8400843DF
:1073100060602879C043800713D0A868002807D090
:10732000012805D0022803D0CC214DA003F05CF841
:10733000E0687A00032191408843A96891400143A5
:10734000E16028798007800F022827D105200007F7
:1073500084420FD03E4884420CD03E48844209D03B
:107360003D48844206D03D48844203D0D9213CA008
:1073700003F03AF82869072803D9DA2138A003F086
:1073800033F8F80880000319186A7907CA0E0F212C
:1073900091408843296991400143196220687A002D
:1073A00003219140884329798907890F914001433E
:1073B000216068688003800F43D0B908374889008E
:1073C0000B1800E03DE0186EB907CA0E0F2191407E
:1073D0008843052109078C4201D100210FE01C4997
:1073E0008C4201D101210AE01A498C4201D10221CB
:1073F00005E019498C4201D1032100E005219140AB
:107400000143264A196610686968B043C90200D56D
:107410003043106050686968B043890200D530433A
:1074200050601E49803148686A68B043920300D5B5
:107430003043486008686A68B043D20300D53043DF
:1074400008607F1C2E683046F84000D036E7F8BD53
:107450000004005000080050000C005000140050C0
:107460002E2E2F447269766572732F53544D33322A
:10747000473078785F48414C5F4472697665722F77
:107480005372632F73746D3332673078785F68613D
:107490006C5F6770696F2E63000000000018024087
:1074A0000148806870470000100000200948026809
:1074B00009490978521802600848026852180260A7
:1074C000426852184260826852188260C26851183D
:1074D000C16070471800002010000020200000202C
:1074E00010B508480024016882151143016003208B
:1074F00000F00AF8002801D0012401E000F028F88B
:10750000204610BD0020024070B50F4E0024317897
:107510000546002915D07D20C000FDF7EBFD014692
:107520000A480068FDF7E6FD00F042FD002808D19A
:10753000042D06D200222946401E00F04FF8756047
:1075400000E00124204670BD100000201C00002037
:1075500008B5094801680122114301600068104024
:10756000009005484038C26B01040A43C263C06BF7
:107570000840009008BD00004010024010B5040013
:1075800003D5972105A002F02FFF002C05DBE106B3
:10759000C90E012088401049086010BD2E2E2F44CE
:1075A0007269766572732F53544D33324730787851
:1075B0005F48414C5F4472697665722F5372632F46
:1075C00073746D3332673078785F68616C5F636FB6
:1075D000727465782E63000000E100E070B50C461F
:1075E0000546042903D3892103A002F0FDFE2146AC
:1075F000284602F0B7FD70BD2E2E2F4472697665C5
:1076000072732F53544D3332473078785F48414C72
:107610005F4472697665722F5372632F73746D3392
:1076200032673078785F68616C5F636F7274657819
:107630002E63000070B5012676020446B04206D0E3
:107640007000844203D0104910A002F0CDFE1E4D00
:10765000286803214902884320432860B4420ED1A0
:107660001A480621006848431949FDF743FD401CAC
:1076700002E0002805D0401E69694905F9D40020C0
:1076800070BD032070BD0000FE0200002E2E2F44AE
:107690007269766572732F53544D33324730787860
:1076A0005F48414C5F4472697665722F5372632F55
:1076B00073746D3332673078785F68616C5F7077B0
:1076C000725F65782E630000007000401C0000208F
:1076D00040420F00F8B50E4605007DD028684107EE
:1076E00001D0C00804D0332109017FA002F07CFE44
:1076F000002E07D0012E05D0022E03D088497AA093
:1077000002F072FE874F38684007400FB04213D234
:107710003868C008C00030433860FFF7C1FE044637
:1077200005E0FFF7BDFE011B7F48814271D8386834
:107730004007400FB042F4D128687C4C810735D512
:10774000400704D5A068072109030843A060A86882
:10775000002824D00121C902884220D00921090231
:1077600088421CD005214902884218D00B21090209
:10777000884214D003218902884210D00D210902C9
:1077800088420CD007214902884208D00F21090203
:10779000884204D0624954A0243102F025FEA0683A
:1077A0000F2109028843A9680843A0602878C00710
:1077B00048D06868002825D001281AD0042813D0A2
:1077C000032822D0022817D0D721890046A002F032
:1077D0000BFE6868012800E012E00AD002280BD0F6
:1077E00000280FD0032810D050484030C0698007CF
:1077F00004E02068800301E020688001002809DBA4
:107800000120F8BD20684005F8E748484030006A8C
:10781000EDE72CE0A0686968C008C0000843A060DC
:10782000FFF73EFE009006E0FFF73AFE0099411A8E
:107830003D4881421BD8A068382108406968C900CA
:107840008842F1D138684007400FB04217D9354817
:107850000168C908C90031430160FFF721FE0746EE
:1078600007E0FFF71DFEC11B2F48814201D903200D
:10787000F8BD2C4800684007400FB042F1D128788D
:1078800040071ED5E868002814D0012189038842EA
:1078900010D00521090388420CD0032149038842F6
:1078A00008D007210903884204D01D490EA07E316B
:1078B00002F09AFDA068072109038843E96808439C
:1078C000A06000F04FF8A1683C2289091140184AD5
:1078D000515CC906C90EC8401649086016480068C0
:1078E000FFF712FEF8BD00002E2E2F447269766558
:1078F00072732F53544D3332473078785F48414C80
:107900005F4472697665722F5372632F73746D339F
:1079100032673078785F68616C5F7263632E6300F2
:1079200031030000002002408813000000100240D4
:1079300034D100081C00002014000020064807492C
:1079400000688968064A4904490F8900515CC906E4
:10795000C90EC840704700001C0000200010024003
:1079600074D1000810B5204CA068204A8006400F52
:1079700016D0A0688006410F501001290FD0A168D1
:107980008906490F022912D0A0688006400F0428FA
:1079900023D0A0688006400F032821D0002010BD0E
:1079A000206801218004400F8140104612E0E16808
:1079B0008B07E1689B0F4906490F491C032B00D038
:1079C0001046FDF797FBE1684904490E4843E1681A
:1079D000490F491CFDF78EFB10BD0120C00310BDEF
:1079E0007D20000210BD0000001002400024F400C1
:1079F000F8B504007ED0FE4D2068FD4E403D0028C5
:107A00000CD0C1070DD1810764D4010773D440079E
:107A100072D4FF214331F7A002F0E6FC2078C007C2
:107A200055D0012760683F0400280AD0B84208D02A
:107A300005210904884204D0FF214931EDA002F05C
:107A4000D3FCA86838210840E9688907890F102805
:107A500002D0082809D001E0032906D06168B942A4
:107A60000AD128683843286015E0286880032ED59D
:107A700060680028BED02AE005220120120480049C
:107A80009142296802D101432960EAE7B94329609C
:107A9000296881432960606800280CD0FFF700FD49
:107AA000074604E0FFF7FCFCC01B64287ED828686A
:107AB0008003F7D50BE0FFF7F3FC074604E0FFF780
:107AC000EFFCC01B6428F1D828688003F7D4207825
:107AD00080076CD5E068002807D0C11FF93904D0B1
:107AE000FF217F31C3A002F07FFC60697F2808D9A5
:107AF000FF2102E0BDE092E0CEE08031BDA002F0C7
:107B000073FC07272069FF0200281CD00121C9024D
:107B1000884218D04900884215D00321C902884202
:107B200011D00121490388420DD00521C9028842A4
:107B300009D003210903884205D0B84203D0491176
:107B4000ACA002F051FCA86838210840E968890718
:107B5000890F102802D0002813D001E0022910D08C
:107B6000E068002847D028682169B84308432860A6
:107B70002868FF21013108432860FFF791FC074680
:107B80002DE02968490502D5E168002971D06968AE
:107B90007F22120291436269120211436960002838
:107BA00011D128682169B843084301E096E033E029
:107BB0002860286801218004400F81409B48FDF720
:107BC00099FA9B4908609B480068FFF79DFC0028D4
:107BD0004FD121E0FFF764FCC01B02287ED8286843
:107BE0004005F7D568687F21090288436169090269
:107BF0000843686010E02968FF2001308143296054
:107C0000FFF74EFC074604E0FFF74AFCC01B0228C2
:107C1000E4D828684005F7D42078000739D5A06952
:107C2000002806D0012804D0FF21D53171A002F030
:107C3000DBFBA8688006400F03280AD0A069002853
:107C4000306A17D0012108433062FFF729FC07464C
:107C50000BE0306A80071CD5A069002896D018E098
:107C6000FFF71EFCC01B0228B8D8306A8007F7D582
:107C70000FE090E1400840003062FFF711FC07463A
:107C800004E0FFF70DFCC01B0228A7D8306A80076C
:107C9000F7D42078400778D5A0680027002808D0BE
:107CA000012806D0052804D08321890051A002F0C4
:107CB0009BFBA8688006400F042819D0E86BC00021
:107CC00008D4E96B012000070143E963E96B014037
:107CD0000127009158480168C90500E02CE118D43B
:107CE0000168821511430160FFF7DAFB00900CE098
:107CF000F069800749D5A0680028AFD045E0FFF7BC
:107D0000CFFB0099401A0228AED84B480068C00546
:107D1000F5D5A168012910D004200529F16911D0F9
:107D200049084900F161F1698143F161A0680028C7
:107D300016D0FFF7B5FB00900EE0F0690121084373
:107D4000F061F3E70143F161F7E7FFF7A9FB009961
:107D5000411A3A48814287D8F0698007F5D50DE08D
:107D6000FFF79EFB009006E0FFF79AFB0099411A8F
:107D70003248814289D8F0698007F5D4002F04D0B9
:107D8000E96B012000078143E963E06900287CD0AA
:107D9000012808D0022806D0294916A002F024FBA9
:107DA000E0690028F3D0A8688006400F0228E06947
:107DB0006CD001263606022806D02868B043286019
:107DC000FFF76EFB0446B9E0206A002808D00228BD
:107DD00006D0032804D01A4906A00A3102F004FB99
:107DE000606A00283CD010283AD0202838D029E0FA
:107DF000401002402E2E2F447269766572732F5305
:107E0000544D3332473078785F48414C5F44726953
:107E10007665722F5372632F73746D3332673078C7
:107E2000785F68616C5F7263632E63000024F40006
:107E30001C00002014000020007000408813000087
:107E40008702000030280BD0402809D0502807D0E6
:107E5000602805D0702803D05149524802F0C4FA76
:107E6000A06A08384E2804D94D494E48491C02F0F2
:107E7000BBFA0121E06A4904401A0F2189048842B3
:107E800007D9A5218900474801E086E05EE002F0BD
:107E9000ABFA7F21206B49064018032189068842EE
:107EA00004D93F493F48091D02F09EFA0721606B43
:107EB000490740184900884204D95321C90039486C
:107EC00002F092FA2868B0432860FFF7E9FA074603
:107ED00004E0FFF7E5FAC01B02282DD828688001CE
:107EE000F7D4616A206AA26A0843E16A1202114368
:107EF0000843216B0843616B0843E9682A4A114033
:107F00000843E860286830432860E86801210907D1
:107F10000843E860FFF7C4FA044604E0FFF7C0FA3C
:107F2000001B022808D828688001F7D535E0FFF744
:107F3000B7FA001B022801D90320F8BD2868800188
:107F4000F5D4E86819490840E86026E00128F4D033
:107F5000E868226A8107890F91421CD17021626A08
:107F60000140914217D17F21A26A09020140120209
:107F7000914210D11F214904E26A014091420AD185
:107F800007214906226B0140914204D1400F616BE9
:107F90004007884201D00120F8BD0020F8BD000054
:107FA00092020000F47D00088C80C111FCFFFEEEFF
:107FB000094910B5401E884201D9012010BD074C67
:107FC00060610321081F02F0CDF80020A0610720A6
:107FD0002061002010BD0000FFFFFF0000E000E076
:107FE0007047704770477047F8B504460068C66828
:107FF00005690027A907002913DAB10711D5F91E71
:10800000016101202077206880698007204602D026
:10801000FFF7E9FF04E000F08BF8204600F089F854
:108020002777680716D5700714D504202168C04348
:10803000086102202077206880698005800F204633
:1080400002D0FFF7D0FF04E000F072F8204600F005
:1080500070F82777280715D5300713D50820216831
:10806000C0430861042020772068C069800720464B
:1080700002D0FFF7B8FF04E000F05AF8204600F005
:1080800058F82777E80616D5F00614D51020216891
:10809000C0430861082020772068C0698005800FF0
:1080A000204602D0FFF79FFF04E000F041F8204691
:1080B00000F03FF82777E80708D0F00706D0012046
:1080C0002168C0430861204600F034F8280601D436
:1080D000A80407D5300605D5216813480861204655
:1080E000FFF77FFFE80507D5300605D521680F4863
:1080F00008612046FFF774FF680608D5700606D5AC
:1081000040202168C0430861204600F014F8A8060A
:1081100008D5B00606D520202168C0430861204656
:10812000FFF760FFF8BD00007FDFFFFFFFFEFFFFEE
:108130007047704770477047704770477047704787
:1081400010B50168CA69D24312070AD408220A622C
:1081500000680449884204D101220349034800F021
:108160002DFA10BD004400403400002038020020E9
:10817000F8B503680446D96918689A68B44D0E4684
:108180002E4025468035002E75D0B24EB24F164097
:10819000074037436ED0CF0706D0C70504D5012767
:1081A0001F622B693B432B618B0708D5D30706D091
:1081B000276802233B622B6904273B432B614B0753
:1081C00008D5D30706D0276804233B622B69022712
:1081D0003B432B610B0709D520230340334305D0D4
:1081E0002668082333622E691E432E610B0509D5CC
:1081F000430107D501232668DB0233622B69202661
:1082000033432B612B69002B42D089060AD52021EC
:108210000840C9050A40104304D0616F002901D00D
:1082200020468847286921688968490602D42821A0
:10823000084232D0204600F025FF216888684006B9
:1082400027D5EFF31080012282F310888B6840223B
:1082500093438B6080F310882868002819D07F49E9
:1082600081632868FEF7D6FC002811D02868816B4E
:108270000DE000E017E08E0615D5012720263F0708
:10828000064017403E430ED0616FB5E02046884758
:10829000F8BD2046FFF754FFF8BD2046FFF750FF1A
:1082A00000202861F8BDE66E012E7DD1CE067BD57B
:1082B000C60679D510221A622368986826464006B9
:1082C0004036002849DA2968086840680004000C34
:1082D000E8D0B78B8742E5D9F0830868006880064C
:1082E00034D4EFF31080012181F31088196817014D
:1082F000B943196080F31088EFF31080012181F3F6
:10830000108821688B685B085B008B6080F31088A5
:10831000EFF31080012181F3108821688B684027DA
:10832000BB438B6080F310882020E8600020E0666B
:10833000EFF31080012181F3108821680B689343CB
:108340000B6080F310882868FEF72AFC0220206763
:10835000B08BF18B401A81B235E0B08BF18B401AB3
:1083600081B2F08B00289DD000299BD0EFF31080C4
:10837000012686F310881E68FF272137BE431E6042
:1083800080F31088EFF31080012383F310882368B3
:108390009E68304FFF433E409E6080F3108820204F
:1083A000E8600020E06600E011E06067EFF3108015
:1083B000012383F3108823681D6895431D6080F3B3
:1083C0001088022020672046FFF7B6FEF8BDCE02D7
:1083D00008D5560206D50120000518622046FFF791
:1083E000AEFEF8BD0E060BD501278026FF05064020
:1083F0003A40164304D0A16F002900D046E7F8BDEB
:108400004A0614D5420612D52046EFF31081012208
:1084100082F310881A684024A2431A6081F31088FE
:108420002021A9600021816700F014F9F8BD0A023B
:1084300005D5420003D52046FFF780FEF8BDC901EF
:10844000FCD50028FADA2046FFF777FEF8BD0000D9
:108450000F0800000100001020010004BD8F00087B
:1084600070B504000FD0A06925490028254A264B85
:1084700020680AD0884213D0904211D098420FD081
:10848000FF213F3109E0012070BD884208D09042B1
:1084900006D0984204D0FF2144311CA001F0A4FF73
:1084A00025468035A868002803D12871204600F0B1
:1084B0004BF82420A8602068016849084900016041
:1084C000A06A002802D0204600F022FC204601F0DD
:1084D000A3F80128D8D0206841680922D20291432C
:1084E0004160206881682A22914381602068016888
:1084F000012211430160204600F004FD70BD000020
:108500000038014000440040008000402E2E5C44B2
:108510007269766572735C53544D333247307878A4
:108520005F48414C5F4472697665725C5372635C6C
:1085300073746D3332673078785F68616C5F756132
:1085400072742E630000000010B586B0044614213A
:108550006846FCF752FE17492068884227D1164921
:10856000CA6B012040040243CA63CA6B02400592F1
:108570004A6B012002434A63496B04900140059114
:108580000C2100910221019100210291039105200B
:1085900069460007FEF746FE204600F075FB002204
:1085A00011461C20FFF71AF81C20FEF7E7FF06B063
:1085B00010BD0000004400400010024070B58C2344
:1085C0001B58202B01D0022070BD00290BD0002A9F
:1085D00009D0012483682403A34206D10369002B38
:1085E00003D1CB0701D0012070BD0023C3660B4B24
:1085F00004689C420ED063681B020BD5EFF3108316
:10860000012585F3108825680126B60635432560C7
:1086100083F3108801F0C0F970BD000000800040B5
:1086200010B50068084988420DD1084C08482178E7
:1086300002F056FB02F0D4F86060054801222146A2
:108640009438FFF7BBFF10BD004400403400002009
:10865000CC0200207047FEE78068C007C00F70475B
:108660008068C007C00F704780684007C00F704720
:10867000C0680005800F01D00020704701207047BE
:10868000026807239B059A430A430260704710B5AE
:1086900043690424214007248C40A3438A401343A8
:1086A000436110BD70B51548154D008C154A400644
:1086B000800EC4026019016891420CD14168090C16
:1086C000012908D18168042905D1C168072902D18F
:1086D0000069002801D0012070BD204614304119E6
:1086E00010220948FCF770FD0748243461190E2256
:1086F0001030FCF769FD002070BD0000C075FF1F41
:1087000000F8FF07D0B9A4702005002008B508487C
:10871000816B012211438163806B02211040009024
:1087200000220A20FEF75AFF0A20FEF727FF08BDA5
:108730000010024000B587B014216846FCF75DFDCB
:108740000D48426B01210A434263426B0A40059285
:10875000436B022213434363406B01911040059029
:108760000020029003900820009069460348FEF71D
:1087700059FD07B000BD0000001002400004005089
:1087800010B51249104A0A60486000208860C8602D
:108790000C2208614A6101228861D203CA61121168
:1087A00048620A6288620846FFF75AFE002801D034
:1087B000FDF792FA012206490448FFF7FFFE002860
:1087C00001D0FDF789FA10BD0044004038020020B6
:1087D0003400002070B5054604468035A86820287E
:1087E00001D0022070BD002918D0002A16D0214BDC
:1087F0002068984208D100201F4B02E00E5C1E54F6
:10880000401C9042FADB1C490123A0681B039842DC
:1088100006D12069002803D1C80701D0012070BD0E
:108820002046403021658282C282002028612120BA
:10883000A860E06F00280CD0266813463246283224
:10884000FEF766FB002804D0102028612020A860D5
:10885000E4E7216840200862EFF31080012181F3F2
:10886000108821688A6880231A438A6080F3108800
:10887000002070BD0044004054030020FEB50024D9
:108880000094019443A10120029402F031F8FDF715
:108890007FF94648444D8460032105608907C46020
:1088A0004160014620310C77AA14446202635204ED
:1088B000C264121202610322C261012282760C702C
:1088C000042646610A73072141638163FDF7A6FD13
:1088D000020009D036A1032002F00AF83BA10320D0
:1088E00002F006F872B6FEE73B4800900194694634
:1088F00002942E48FDF7A2FB020009D037A1032005
:1089000001F0F6FF31A1032001F0F2FF72B6FEE79D
:108910003B4800903B480290019669462348FDF78A
:108920008DFB020009D038A1032001F0E1FF27A14F
:10893000032001F0DDFF72B6FEE73C4800900820FE
:108940000190694602941948FDF778FB020009D0AE
:1089500037A1032001F0CCFF1CA1032001F0C8FFC8
:1089600072B6FEE71148FDF791FA020009D039A16D
:10897000032001F0BDFF15A1032001F0B9FF72B67D
:10898000FEE7A868C00FFCD13DA1012001F0B0FFB7
:10899000FEBD0000414443313A20496E69742073A2
:1089A0007461727400000000002401406004002023
:1089B000414443313A20496E6974206661696C65AF
:1089C000642C20726573203D20256400457869740D
:1089D000696E672E2E2E00001000001041444331B6
:1089E0003A2043483420636F6E6669672066616988
:1089F0006C65642C20726573203D202564000000A6
:108A00002000001404FFFF07414443313A2043484B
:108A10003520636F6E666967206661696C65642CDA
:108A200020726573203D202564000000400000187E
:108A3000414443313A2043483620636F6E6669678C
:108A4000206661696C65642C20726573203D202569
:108A500064000000414443313A2043616C69627212
:108A60006174696F6E207374617274206661696CE1
:108A700065642C20726573203D2025640000000091
:108A8000414443313A20496E697420646F6E650039
:108A9000094910B5084603220C30FDF79BFF020080
:108AA00009D006A1032001F023FF0EA1032001F04D
:108AB0001FFF72B6FEE710BD54040020414443314D
:108AC0003A20537461727420636F6E7665727369B5
:108AD0006F6E206661696C65642C20726573203D41
:108AE0002025640045786974696E672E2E2E00007B
:108AF000FEE7704770470000F0B59FB000253420B6
:108B00001A9501461090FF226846FCF76FFB31482A
:108B10000090314801900720039000200424049025
:108B2000029410222D4905A8FCF74EFB2B490E227A
:108B3000103109A8FCF748FBFEF760FB00283BD189
:108B40000220274D1C941B90288C1AA94006800EE9
:108B5000401E1D9001201E901BA8FEF74BFA04003A
:108B600027D1288C1F494006800EC002401819905A
:108B70000720002713900024F8002546264617906A
:108B800010998019884207D26946085C0021F200DA
:108B9000FCF70AFB04430D43761C082E01DA1798F4
:108BA000EEE722462B4601201999FEF7A3FA0400AE
:108BB00004D0FEF78BFA20461FB0F0BD19987F1C39
:108BC0000830199013988742D5D3FEF77FFA00201A
:108BD000F2E70000D0B9A4700400010020050020D5
:108BE000C075FF1F00F8FF0710B5FEF75FFC10BD52
:108BF00010B500F001F810BD30B593B038216846CB
:108C0000FCF7FBFA002501200E950F951095400208
:108C10001195FEF70FFD0224E0010390009440201F
:108C2000059004953020099020200A9000030B90B5
:108C3000079400020C90089400010D906846FEF71E
:108C4000D7FE002801D0FDF747F807200EA931C153
:108C500002210EA81195FEF73DFD002801D0FDF779
:108C60003BF813B030BD00000249014888607047EE
:108C70000050000800ED00E010B50248FFF7B4F91D
:108C800010BD00000801002070B5054600680E49BF
:108C9000884218D10E4C0D482060352060601020AD
:108CA000A0600020E06060618021A0612161E0613E
:108CB000880120622046FEF747F8002801D0FDF722
:108CC0000BF8EC67A56270BD004400403000024024
:108CD000F802002010B50C4A9268202A13D10B4CE0
:108CE0006288FF2A04D8084B9C339854521C628037
:108CF000002908D00449044892B29C318038FFF71B
:108D000069FD0020608010BDB80200203400002002
:108D100070B50446806AFF2803D9694969A001F04B
:108D200063FB208D000711D50125A06BED03002802
:108D300006D0A84204D0624962A0491D01F054FB4C
:108D400020684168A26BA94311434160208DC00790
:108D500011D00125E06A6D04002806D0A84204D095
:108D6000574958A00C3101F03FFB20684168E26A86
:108D7000A94311434160208D800711D50125206B47
:108D80002D04002806D0A84204D04D494DA013312F
:108D900001F02AFB20684168226BA943114341601E
:108DA000208D400711D50125606BAD04002806D049
:108DB000A84204D0424943A01A3101F015FB2168B2
:108DC0004868626BA84310434860208DC00611D5E7
:108DD0000125E06B2D03002806D0A84204D03849B5
:108DE00038A0213101F000FB20688168E26BA943C3
:108DF00011438160208D800611D50125206C6D0303
:108E0000002806D0A84204D02D492EA0283101F018
:108E1000EBFA21688868226CA84310438860208D93
:108E2000400636D536492068884204D0244925A01A
:108E30002F3101F0D9FA0125606C2D05002806D0EC
:108E4000A84204D01E491FA0303101F0CDFA21689C
:108E50004868626CA84310434860606CA84218D10F
:108E60000325A06C6D0500280DD00121490588421D
:108E700009D04900884206D0A84204D0104911A068
:108E8000353101F0B1FA21684868A26CA84310435B
:108E90004860208D000611D50125E06CED04002806
:108EA00006D0A84204D0064906A03D3101F09CFA44
:108EB00020684168E26CA9431143416070BD000025
:108EC000F20C00002E2E5C447269766572735C535E
:108ED000544D3332473078785F48414C5F44726973
:108EE0007665725C5372635C73746D33326730788D
:108EF000785F68616C5F756172742E6300000000BA
:108F000000380140FEB505460026803504462E6136
:108F1000FEF7C6FA019020680068202700070028A5
:108F200017DA25480090002239042046019B00F002
:108F3000C9FD00280DD0EFF31080012181F31088C6
:108F400021680A6880239A430A6080F31088AF6022
:108F500028E020680068400727D5174800900121C5
:108F6000002289052046019B00F0ACFD00281CD0A2
:108F7000EFF31080012181F3108821680A68FF2334
:108F800021339A430A6080F31088EFF310800121A7
:108F900081F3108821688A68520852008A6080F341
:108FA0001088EF602E710320FEBDAF60EF60E666B3
:108FB00026672E710020FEBDFFFFFF0110B5806AFD
:108FC000002201464031CA83CA82FFF7B9F810BDBA
:108FD000F0B52B490D6801680C68066C1C22164020
:108FE00004221746B740836A2F4210D067070ED578
:108FF0000B689B0602D40B6893430B6020494B68B7
:10900000006C1C242040824013434B60F0BD0227BB
:10901000B74002462F402032002F14D0A70712D5A8
:109020000C68A40605D40C680A25AC430C60012129
:10903000517113494C68056C1C2005400220A84062
:1090400004434C6015E00827B7402F42DED02407C8
:10905000DCD50C680E25AC430C60094C6568066CC9
:109060001C210E4001210F46B7403D436560C1639E
:10907000517100201071202080339860F0BD0000F5
:109080000000024010B5EFF31081012282F3108836
:1090900002681368FF242134A343136081F310880E
:1090A000EFF31081012282F31088026893680D4C5F
:1090B0002340936081F31088C16E01290BD1EFF337
:1090C0001081012282F31088026813681024A343E0
:1090D000136081F3108820228C210A500021C16680
:1090E000416710BDFEFFFFEF70B5014640310346FA
:1090F00080330C8CDD680268222D04D09069082131
:109100000843906170BD526A856D22402A80826D4D
:10911000921C8265CA8B521ECA83CA8B002AF1D167
:10912000EFF31082012484F3108804682568FF2679
:109130002136B543256082F31088EFF310820124B5
:1091400084F310880468A5686D086D00A56082F33B
:1091500010882022DA60002343670367174A0468F7
:1091600094420ED0626812020BD5EFF310820125F3
:1091700085F3108825680126B606B543256082F37D
:109180001088C26E012A02D0FFF74AFA70BDC3668A
:10919000EFF31082012383F31088046825681023FD
:1091A0009D43256082F310880268D469E443E40695
:1091B00000D41362898BFEF7BFFF70BD00800040B2
:1091C000F0B50546044640358BB0288C02902068E7
:1091D000C669016806918168049121468031009139
:1091E000C968222905D081690822114381610BB029
:1091F000F0BD2F8D7CE02068406A029AA16D10407E
:109200000880A06D801CA065E88B401EE883206864
:10921000C669710731D0F10709D00699C90506D58D
:109220000121016200980069084300990861B007B4
:109230000BD50498C00708D0216802200862009866
:109240000069042108430099086170070BD5049850
:10925000C00708D021680420086200980069022134
:1092600008430099086100980069002805D020464D
:10927000FEF766FF009900200861E88B002837D1CF
:10928000EFF31080012181F3108821680A68FF2321
:1092900001339A430A6080F31088EFF310800121B4
:1092A00081F3108821688A68324B1A408A6080F303
:1092B000108800982021C1600020606720672E4838
:1092C000216881420ED0486800020BD5EFF3108070
:1092D000012282F310880A6801239B069A430A60E0
:1092E00080F31088E06E01282AD02046FFF798F915
:1092F000002F02D0B00600D57DE7E88B002800D112
:1093000075E7298D8142FBD9EFF31080012181F3AC
:10931000108821688A6801231B079A438A6080F3BA
:1093200010881648EFF310816067012080F31088E1
:109330002268106820231843106081F3108856E7D4
:109340000020E066EFF31080012181F3108822688D
:10935000136810218B43136080F310882068C26962
:10936000D243D20600D40162A98B2046FEF7E4FE68
:10937000BEE70000FEFFFFEF00800040E99000081C
:1093800070B501464031034680330C8CDD680268BD
:10939000222D04D0906908210843906170BD526A63
:1093A0002240846D2270826D521C8265CA8B521ECF
:1093B000CA83CA8B002AF1D1EFF31082012484F30F
:1093C000108804682568FF262136B543256082F39E
:1093D0001088EFF31082012484F310880468A568D4
:1093E0006D086D00A56082F310882022DA600023EA
:1093F00043670367174A046894420ED062681202FA
:109400000BD5EFF31082012585F31088256801261E
:10941000B606B543256082F31088C26E012A02D0D9
:10942000FFF7FEF870BDC366EFF31082012383F3EC
:1094300010880468256810239D43256082F31088F6
:109440000268D469E443E40600D41362898BFEF712
:1094500073FE70BD00800040F0B5054604464035FF
:109460008BB0288C02902068C669016806918168DB
:109470000491214680310091C968222905D0816973
:109480000822114381610BB0F0BD2F8D7CE0206874
:10949000406A02990840A16D0870A06D401CA0654B
:1094A000E88B401EE8832068C669710731D0F10758
:1094B00009D00699C90506D5012101620098006905
:1094C000084300990861B0070BD50498C00708D07D
:1094D000216802200862009800690421084300996D
:1094E000086170070BD50498C00708D021680420D4
:1094F00008620098006902210843009908610098F9
:109500000069002805D02046FEF71AFE00990020C9
:109510000861E88B002837D1EFF31080012181F337
:10952000108821680A68FF2301339A430A6080F398
:109530001088EFF31080012181F310882268916870
:10954000324B1940916080F3108800982021C1604F
:109550000020606720672E49206888420ED041684D
:1095600009020BD5EFF31081012282F31088026803
:1095700001239B069A43026081F31088E06E012864
:109580002AD02046FFF74CF8002F02D0B00600D5B5
:109590007DE7E88B002800D175E7298D8142FBD952
:1095A000EFF31080012181F3108821688B6801227C
:1095B000120793438B6080F3108816486067EFF3BF
:1095C0001080012181F3108823681A6820210A4342
:1095D0001A6080F3108856E70020E066EFF31080F1
:1095E000012181F310882268136810218B431360D6
:1095F00080F310882068C269D243D20600D4016289
:10960000A98B2046FEF798FDBEE70000FEFFFFEFA6
:109610000080004081930008F8B504464068C349C3
:109620000025884203D3C249C2A000F0DDFE01211B
:109630000907A0680F14884208D0002806D0B84255
:1096400004D0BB49BBA0491C00F0CEFEC84803268D
:109650002268411436038242E06806D100281DD0FA
:1096600088421BD0B249091D15E0B8420AD0002833
:1096700008D0B04206D0884204D0AD49ADA0083130
:1096800000F0B2FE206A002808D00121C9028842F9
:1096900004D0C3210901A7A000F0A6FE206900287C
:1096A0000CD001218902884208D003214902884256
:1096B00004D09F499FA00C3100F096FE60690C22F7
:1096C0000146914301D1002804D1994999A00D3157
:1096D00000F08AFEA06900280FD0C11FF9390CD014
:1096E000C11FFF39FA3908D003210902884204D08A
:1096F0008F4990A00E3100F077FE0127E069FF034B
:10970000002806D0B84204D089498AA00F3100F061
:109710006BFE606A00281AD0012818D0022816D0E3
:10972000032814D0042812D0052810D006280ED003
:1097300007280CD008280AD0092808D00A2806D003
:109740000B2804D07A497BA0103100F04DFE21692E
:10975000A068E269084361691143084321680A6807
:10976000844B1A4002430A6021684868E268B043AB
:10977000104348607E4A2168A069914201D0236A63
:1097800018438B687C4E334003438B602068C16A6A
:10979000636A090909011943C16278492368784855
:1097A0008B420AD140698007800F1BD001282AD044
:1097B000022817D0032814D111E072498B421ED021
:1097C00093420ED1416903208002014017D001204D
:1097D0008002091A17D0091A13D0814201D108203A
:1097E00000E010206849694E93423FD100280CD018
:1097F00002280DD004280DD0082836D10EE0002014
:10980000F0E70220EEE70420ECE7FEF797F803E02C
:109810000F4603E0FEF7A6F807007CD0606A400020
:10982000315A38460091FBF765FC66687100711883
:10983000814269D83103814266D3002338461946F4
:10984000009AFBF781FC020E090203027008114323
:1098500018180022514132460023FBF775FC032102
:1098600009024B4A411A914253D94DE0E269BA428A
:1098700029D1002806D0022807D0042807D00828BC
:1098800042D11EE0FEF75AF803E0084603E0FEF777
:1098900069F800283FD0616A4900715AFBF72AFC39
:1098A000616840004A088018FBF724FC0146394AE9
:1098B0001039914228D8511C01400007400F08433D
:1098C00027E03846E7E7002806D0022807D004281A
:1098D00007D0082818D119E0FEF730F803E0084651
:1098E00003E0FEF73FF8002815D0616A4900715A7D
:1098F000FBF700FC61684A088018FBF7FBFB014698
:10990000244A1039914203D9012504E03846ECE796
:1099100080B22168C8602046012140304185018520
:1099200000206067A0672846F8BD000001127A0099
:10993000270C00002E2E5C447269766572735C53AE
:10994000544D3332473078785F48414C5F447269F8
:109950007665725C5372635C73746D333267307812
:10996000785F68616C5F756172742E63000000003F
:1099700000800040F369FFCFFFF4FF110038014081
:1099800040100240004400400024F4001CD10008B4
:10999000FFFC0F00EFFF0000F0B58165014640318C
:1099A0008A83CA8300254567012483682403FF2630
:1099B000A34204D10369002B13D13D4B0AE07F275A
:1099C000002B09D001263607B3420CD10369002BC6
:1099D00005D03F230B8407E00369002B01D00F84DF
:1099E00002E00E8400E00D84034680331D612225D1
:1099F000DD60EFF31083012585F310880568AE68FC
:109A000001273E43AE6083F31088436E7D07AB426F
:109A100029D1098D914226D88168A14202D10169DC
:109A200000291DD023494167016900290CD0EFF3BB
:109A30001081012282F3108802681368FF24013428
:109A40002343136081F31088EFF31081012282F326
:109A500010880068826801231B071A43826023E094
:109A600015494167F0E78168A14202D101690029E7
:109A70000ED012494167016900290BD0EFF3108124
:109A8000012282F3108800680268FF23213309E075
:109A90000B494167EFF31081012282F310880068BF
:109AA000026820231A43026081F310880020F0BD71
:109AB000FF01000059940008C1910008819300083B
:109AC000E9900008FFB581B005460E460446803592
:109AD0000A9F32E0781C30D0FDF7E2FC0499401A6E
:109AE000B84218D8002F16D020680168490724D53D
:109AF000802E22D0402E20D0C169C94309070CD442
:109B0000082606622046FFF7BDFA2E610020287164
:109B1000012005B0F0BD0320FBE7C069C04300058C
:109B20000BD401202168C00208622046FFF7AAFA80
:109B30002020286100202871EDE72068C1693046A7
:109B4000884305D0002103988142C3D00020E0E77C
:109B50000121F8E710B50248FEF70AFB10BD00002E
:109B600038020020F0B5A1B01E4614460D46074647
:109B7000772A00D977242046093080B200908021CE
:109B800001A8FBF73AFBA521684601715B214171F1
:109B90008771290AC1710572210A4172847201AD6F
:109BA000002E06D0002C04D022463146E81DFBF7DB
:109BB0000BFBE01D81B201A800F07CFD020A29190F
:109BC000CA710872054881682029FCD1034801A99F
:109BD0008038009AFEF7FEFD21B0F0BDB8020020EB
:109BE00010B503480021017400F036FA10BD0000E2
:109BF000AC00002010B504480021017400F016FCF0
:109C000000F02AFA10BD0000AC000020FEB5304E76
:109C1000002035463074203D288C0090698C401817
:109C2000FBF7FDFC0021C943FBF7C6FB2C46403C7B
:109C30000746E0600098FBF7F2FC3946FBF739FB7A
:109C400020610190A88B0090E98B4018FBF7E7FC9E
:109C50000021C943FBF7B0FB074620600098FBF7E3
:109C6000DEFC3946FBF725FB1A4F67616060224630
:109C70007D201432C005019901F006FAA760224642
:109C80007D200832C005616801F0FEF91248616963
:109C9000814202D2A168814201D3002000E001206C
:109CA000F0730220B0730D48298C4269118002695B
:109CB000698C1180C269A98B11808269E98B11803E
:109CC000426821681160806861680160FEBD000023
:109CD000AC000020000080BF00008080C000002099
:109CE00010B5084800680168074841650021816592
:109CF000816102466032C1611174016500F0ACF906
:109D000010BD0000C00000204C000020F0B59C4CAD
:109D10000A46214620390546C88B277C84468E8B0F
:109D20004B8C088C89B0002F0FD0964201D28A83C9
:109D300002E0944500D9CA83A84202D20D8409B03A
:109D4000F0BDAB42FBD94D84F9E7A842F7D3AB4253
:109D5000F5D89642F3D38A4E603E9445EFD810462C
:109D6000FBF75DFC03903168FBF7E4FC05D20127AB
:109D700003983168FBF79DFA04E0002703983168E7
:109D8000FBF79BFA01902846FBF749FC0690F16827
:109D9000FBF7D0FC05D201250698F168FBF789FA9C
:109DA00004E000250698F168FBF787FA0290E07B53
:109DB000002807D0A07B022807D071690298FBF722
:109DC000B9FC0AD20220A0730AE0B1680198FBF73F
:109DD000B1FC02D20120A0730DE0A07B01280AD0C3
:109DE0006A467168019801F027F90028A7D1E07B45
:109DF00000281DD061E06A463169029801F01CF923
:109E000000289CD13F2000060099FBF752FA0090F1
:109E1000002D03D0002F64D1014659E0002F01D05E
:109E200001464FE07F21C90558E0FBF742FA57E0B1
:109E30000021C9437068FBF7BFFA0199FBF770FC7A
:109E40003BD23F2000060099FBF733FA02AA3169A2
:109E500001F01AF90028C9D1FF20029CC005C442B4
:109E600000D36CE70698F168FBF723FA0190012014
:109E70002146C00741400D4621460198FBF75AFC98
:109E80000198214602D2FBF714FA01E0FBF715FA1C
:109E9000044629460198FBF74DFC0198294602D259
:109EA000FBF707FA01E0FBF708FA01462046FBF74B
:109EB00037FC01D2012500E00025002F05D0002D40
:109EC0000FD100997F20C005AFE7002D03D0009986
:109ED00001208007A9E77F21C9050098FBF798F9C1
:109EE0000090B069F061009CB461306D0C2180007D
:109EF00080190462306D401CFBF712F9214F316567
:109F0000F868214905688D422DDA29462046FBF77D
:109F100007FC02D2284600990DE01C492846FBF7B1
:109F200077F90099FBF7FCFB0DD201218907284640
:109F3000FBF76EF90099FBF7BCF90146B065FF200D
:109F4000C005C14201D30020B06538680168B06D1A
:109F5000FBF75EF9FF21C9057065C84200D2EEE645
:109F600000207065EBE62846FBF7A3F92146FBF7D6
:109F7000D7FBE8D229460098FBF7D2FBE3D2C9E72A
:109F8000AC000020C00000203333F33FCDCCCC3DEB
:109F900010B5044800210174FEF784FB00F05CF862
:109FA00010BD0000AC000020F0B51F4887B000686D
:109FB00001681E484165002181650F460E460191EA
:109FC000016A0091002403911848A1000818056A4D
:109FD00000992846FBF7AEFB01D22746009528469C
:109FE0000399FBF79DFB01D226460395294601986C
:109FF000FBF70EF9641C01900C2CE5DBB74204D191
:10A000000099FBF756F90A4907E003990098FBF716
:10A01000FFF80199FBF751F90649FBF78FF902495F
:10A02000C968086007B0F0BDC00000204C000020E7
:10A030000000304100002041054801210174002149
:10A0400020388183034AC283018442847047000020
:10A05000AC000020FFFF0000FEB52C482C4D4169EC
:10A060000F882F84016909886984C2691688AE83C4
:10A0700080690088E88300907818FBF7D0FA002107
:10A08000C943FBF799F92C46403CE0600190384603
:10A09000FBF7C5FA0199FBF70CF9206101900098D4
:10A0A0003018FBF7BCFA0021C943FBF785F90746D6
:10A0B00020603046FBF7B3FA3946FBF7FAF8154E45
:10A0C000666160607D272246FF051432384601999B
:10A0D00000F0DAFFA660224608323846616800F0D8
:10A0E000D3FF0D492046626960308A4202D2A268DD
:10A0F0008A4201D3002100E00121C1730221817352
:10A100000248806A0088A885FEBD0000C0000020CB
:10A110008C000020000080BF000080802021020C05
:10A1200001D010211046020A01D010460839020958
:10A1300001D01046091F820801D01046891E42082E
:10A1400001D0881E7047081A704730B47446641EE8
:10A150002578641CAB4200D21D46635D5B00E318AA
:10A1600030BC18478307FF22DB0E9A408907090E8F
:10A170009940002808DB830809489B001B181868D1
:10A1800090430843186070470007000F08388308A1
:10A1900004489B001B18D86990430843D861704756
:10A1A00000E400E000ED00E002E008C8121F08C172
:10A1B000002AFAD170477047002001E001C1121F48
:10A1C000002AFBD170470000F0B58DB00D46064661
:10A1D000144630216846FBF710F800213046F1386C
:10A1E0000B460A282DD2282C00D92824AA226846FA
:10A1F0000270FF2242708670C47000206A4604E03C
:10A200002E5C1718401C3E7180B2A042F8D300208B
:10A21000251D06E0165C7118C9B25B18401CDBB244
:10A2200080B2A842F6D310190171437106488168C3
:10A230002029FCD10448A41DA2B269468038FEF74B
:10A24000C9FA0DB0F0BD0000B802002070B5134986
:10A250004D7CFBF7E4F9124C002D06D01149124A4F
:10A26000124D884203DA084604E0114905E09042A5
:10A2700000DD1046FBF71DF82946FBF75FF8214685
:10A28000FBF71FF8FF21C905C84201D3002070BDAC
:10A29000A042FCDB0248213870BD000060050020B0
:10A2A0000000B44300C0CC430058664500C04C4594
:10A2B00000F07F45F8B50446FDF7F2F8184D074663
:10A2C0006868E8602046FFF7C1FF2E460446203646
:10A2D0002860307C012804D121461248FAF7E9FFB2
:10A2E00004461048FF21C9052138CC4201D300247F
:10A2F00002E0844200DD044620466C60FBF7AAF9C8
:10A30000002800DA0020A860307A002802D000205F
:10A310006C6230723946204600F02EF8F8BD00001D
:10A32000400500200000B4430C490268CA620A4696
:10A33000037920321374407950740020086108605A
:10A3400048608860C86008628861C8610875012338
:10A3500048621372887548757047000040050020F8
:10A360000CB5044903C9009001916846FFF7DCFF72
:10A370000CBD000094D30008F8B5164C0746A16840
:10A38000FAF797FF144A23461449154D5E68904228
:10A3900007DDFAF78EFF3146FAF73AFF60600020DA
:10A3A00009E0104A904208D9FAF732FF3146FAF72D
:10A3B0002FFF60600120287504E001463046FAF75F
:10A3C00027FF6060A760287D2178884200D0207038
:10A3D000F8BD0000400000200000B4420000B4437B
:10A3E000400500200000B4C210B50B46024603A190
:10A3F000032000F07DFAFBF76FFC10BD57726F6E03
:10A400006720706172616D65746572732076616C2E
:10A4100075653A2066696C65202573206F6E206C27
:10A42000696E652025640D0A0000000010B5124811
:10A430008B210269890011807121426949011180D3
:10A4400082690E491180C2690D49118042680D4927
:10A45000116082680C49116002680C491160026A3F
:10A4600000211180426A1180C2681160806A6421F3
:10A470000180FEF741FB10BDC0000020FF0100007D
:10A48000EB0D000000A0FE4400C0BE446666663FBF
:10A4900010B53B4C3948A060001D6060001D206075
:10A4A000001DE06037482061801C6061801CA06155
:10A4B000801CE061801C2062801C6062801CA062A5
:10A4C000FEF7F0F8002805D02FA1012000F010FAC7
:10A4D000FFF7ACFFA0680068FBF7FAF802460B46EE
:10A4E00032A1012000F004FA60680068FBF7F0F880
:10A4F00002460B4632A1012000F0FAF920680068FC
:10A50000FBF7E6F802460B4633A1012000F0F0F914
:10A51000E0680068FBF7DCF802460B4634A1012036
:10A5200000F0E6F9206937A10288012000F0E0F987
:10A5300060693BA10288012000F0DAF9A0693FA11F
:10A540000288012000F0D4F9E06943A102880120CB
:10A5500000F0CEF9206A47A10288012000F0C8F976
:10A56000606A49A10288012000F0C2F9A06A4BA1EB
:10A570000288012000F0BCF910BD00002005002079
:10A58000C0000020300500204C6F6164696E6720B8
:10A59000636F6E666967206661696C65642C2075FF
:10A5A00073652064656661756C740000636F6E6628
:10A5B00069672E7065616B5F766F323A20256600A1
:10A5C000636F6E6669672E6F66667365745F766F1C
:10A5D000323A202566000000636F6E6669672E6858
:10A5E0006F6D655F6F66667365743A20256600005F
:10A5F000636F6E6669672E686F6D655F7073743A1E
:10A6000020256600636F6E6669672E6465666175F6
:10A610006C745F6D696E5F766F313A20256400005F
:10A62000636F6E6669672E64656661756C745F6DD5
:10A6300061785F766F313A2025640000636F6E6643
:10A6400069672E64656661756C745F6D696E5F76AF
:10A650006F323A2025640000636F6E6669672E646E
:10A66000656661756C745F6D61785F766F323A20F4
:10A6700025640000636F6E6669672E686F6D655FA5
:10A68000766F313A20256400636F6E6669672E68C5
:10A690006F6D655F766F323A20256400636F6E667A
:10A6A00069672E646561645F6C656E6774683A20E3
:10A6B0002564000070B50A4DFF22EE1D1346F936E1
:10A6C00005E0047854402A5D5A40335D401C0C4636
:10A6D000491E89B2002CF4D11002184370BD00004D
:10A6E00094D1000803490A6880180A688242FCD3A2
:10A6F0007047000018000020F8B5FF21C905C842C6
:10A7000005D30C026040FFF7F7FF6040F8BD7F26DD
:10A71000F605B04201DD1448F8BD0A21FAF74CFEF7
:10A720000546FAF797FF0446FAF76EFF2946FAF74F
:10A73000C4FD054601208002844202DB0A48C01E97
:10A74000F8BD0A4FA400E01940682946FAF7B9FDA0
:10A75000009029463046FAF7ACFD3959FAF7B1FDB9
:10A760000099FAF755FDF8BDDB0FC93F18C1000885
:10A77000F8B5FF21C905C84217D216497F26F6054C
:10A78000884201DD3046F8BD1349FAF79AFD0546C7
:10A79000FAF760FF0446FAF737FF2946FAF78DFD0E
:10A7A000054601208002844201DB0020F8BD0B4FEA
:10A7B000A400E01940682946FAF783FD0090294675
:10A7C0003046FAF776FD3959FAF77BFD0099FAF72A
:10A7D0001FFDF8BDDB0FC93F83F9224414B1000807
:10A7E000014800687047000018000020F8B50026F6
:10A7F0000F460446354615282FD00EDC122C23D0E8
:10A8000006DC042C16D0102C18D0112C47D118E0DF
:10A81000132C1CD0142C42D11CE0182C30D004DC9A
:10A82000162C1DD0172C3AD11DE0202C30D0502CE6
:10A8300035D132E01D490120486030E0FFF7B4FB1C
:10A840002DE0FFF7F9FB2AE0FFF7E0F927E0FFF73B
:10A85000C7F924E0FFF79CFB21E0FEF74DF91EE06D
:10A86000FFF7C8F91BE0587819780002084340BA8E
:10A87000FAF7CAFE0E49FAF761FD0E49096805E0CC
:10A8800058781978000208430B4940BA086006E07E
:10A890000A49002008620A49F8E70A4E03253346B0
:10A8A0002A4639462046FFF75DF9F8BD040000202E
:10A8B00000007A44C0000020000000204005002075
:10A8C000440000200C000020064905480860BFF342
:10A8D0004F8F06490448C860BFF34F8F00BFFDE7A4
:10A8E00044332211041F00200400FA0500ED00E0AB
:10A8F0000FB4FEB507465548099D0AAC816820296A
:10A90000FCD16E46042F27D000212820FEF7E2F963
:10A91000002F08D0012F03D0022F11D0032F12D007
:10A920000021492001E000214420FEF7D3F9002155
:10A930002920FEF7CFF900212020FEF7CBF90BE00C
:10A9400000215720F1E700214520EEE725280ED011
:10A950000021FEF7BFF96D1C28780028F6D10121EF
:10A960000A20FEF7B7F9FEBC08BC04B018476878A7
:10A97000642812D0662812D0582841D078283FD0B9
:10A98000732859D000212520FEF7A4F96878002803
:10A99000E5D00021FEF79EF94CE001CC2DE0E41D4E
:10A9A000E408E40003CC01910090FAF76DFE0290F8
:10A9B000FAF73CFE019B009AFAF7B5FD0022244B02
:10A9C000FAF7BAFDFAF760FE070000D54742029891
:10A9D00000280AD10022134601990098FAF78CFE4C
:10A9E00003D200212D20FEF775F9029800F0EAFA53
:10A9F00000212E20FEF76EF9384600F0E3FA19E048
:10AA000001CC002806D000270107090F0A2904DA23
:10AA1000303103E000213020BCE73731F1557F1C95
:10AA20000009F1D104E07F1EF05D0021FEF752F92C
:10AA3000002FF8DCAD1C8FE780CC03E00021FEF78F
:10AA400049F97F1C38780028F8D1F3E7B8020020D4
:10AA500000408F40002488B025460694FCF740FD56
:10AA6000FEF7C6F8FDF766FEFDF750FEE120400256
:10AA7000FDF786FE77A10120FFF73AFF7D487EA112
:10AA800002680120FFF734FF81A10120FFF730FFAA
:10AA9000FDF7F4FEFFF7FCFCFDF7FAFFFFF720F9E6
:10AAA000FFF75EFC7F4F00267F4802687D21C900CA
:10AAB0008A4202D3066000F013FB7C490A687C4896
:10AAC000006882426AD30E607A48006801287DD00F
:10AAD00018216846FAF791FB77487849406DFAF7F4
