:020000040800F2
:1000000098160020D9000008AD1E00085F1D0008EA
:1000100000000000000000000000000000000000E0
:10002000000000000000000000000000B11E0008F9
:100030000000000000000000AF1E0008751F00084F
:10004000EB000008EB000008EB000008EB000008E4
:10005000EB000008EB000008EB000008EB000008D4
:1000600000000000EB00000831020008EB0000086F
:10007000EB000008EB000008EB000008EB000008B4
:10008000EB000008EB000008EB000008EB000008A4
:1000900000000000EB000008EB000008EB00000887
:1000A000EB000008EB000008EB000008EB00000884
:1000B000852E0008EB000008000000000000000092
:1000C0000448854600F0A2F800480047693000085F
:1000D000C046C046981600200448804704480047A0
:1000E000FEE7FEE7FEE7FEE7FEE7FEE7F31F000898
:1000F000C100000830B50B46014600202022012433
:1001000009E00D46D5409D4205D31D469540491B4B
:100110002546954040191546521E002DF1DC30BD94
:10012000F0B51FB40646002082B005464024019178
:1001300000901BE0019922460F46304600F054F82B
:10014000049A059B801A994110D3104619462246FD
:1001500000F016F8361A8F4101972246012000213F
:10016000009F00F00DF838184D4100902046641EA5
:100170000028DFDC019B00982946324607B0F0BD1D
:1001800010B5202A04DB0146203A9140002010BD22
:10019000914020239C1A0346E3401943904010BD30
:1001A00003460B439B0703D009E008C9121F08C090
:1001B000042AFAD203E00B780370401C491C521E3B
:1001C000F9D27047D2B201E00270401C491EFBD246
:1001D00070470022F6E710B513460A460446194652
:1001E000FFF7F0FF204610BD10B5202A04DB0846BB
:1001F000203AD040002110BD0B46D340D0402024EF
:10020000A21A91400843194610BD0000064C012572
:10021000064E05E0E36807CC2B430C3C98471034AE
:10022000B442F7D3FFF750FF84380008A438000821
:1002300010B5024802F064F810BD0000381100202B
:1002400010B50446006C09498008800040186064BD
:10025000207814210838FFF74DFF04498031A1644C
:10026000C106C90E01208840E06410BD00080240AC
:100270000179084B8906890E8A00D2180265054A61
:100280004432491E42658A07920F012191408165DF
:1002900070470000FC080240F0B5846CC56C6560D6
:1002A000046D002C02D0446D856D65600B4C656853
:1002B000066C1C273E400127B7403D43656004683B
:1002C00063608368102B036803D099600068C26084
:1002D000F0BD9A600068C160F0BD000000000240FF
:1002E00072B6FEE710B50446042803D0054906A0FF
:1002F00002F00FFE14484169012212041443214305
:10030000416110BD3B0200002E2E2F4472697665BC
:1003100072732F53544D3332473078785F48414CD5
:100320005F4472697665722F5372632F73746D33F5
:1003300032673078785F68616C5F666C6173685FA4
:1003400065782E63000000000020024010B50C46C6
:10035000042803D00C490DA002F0DBFD1B48008CE3
:100360004006800EA04204D8074908A0491C02F0AC
:10037000D0FD17494869174A1040E2000243164869
:1003800002434A6110BD0000510200002E2E2F448E
:100390007269766572732F53544D333247307878D3
:1003A0005F48414C5F4472697665722F5372632FC8
:1003B00073746D3332673078785F68616C5F666C38
:1003C0006173685F65782E6300000000C075FF1FD1
:1003D0000020024007E0FFFF0200010030B50549A0
:1003E0004C6901252C434C610260BFF36F8F436061
:1003F00030BD00000020024030B50B4C0023626984
:100400000125AD042A436261EFF3108272B620C960
:100410005B1C20C0DBB2402BF9D32069C003FCD4A5
:1004200082F3108830BD000000200240F8B5044679
:1004300000F066FC012706463F04124D06E0601CF2
:1004400004D000F05DFC801BA04213D22869384222
:10045000F5D128690C4908400C4929610CD00C4998
:1004600048600120F8BD601C06D000F049FC801BEC
:10047000A04201D30320F8BD28694003F3D4002033
:10048000F8BD000000200240FAC30000FBC30000DA
:100490006C0C0020F0B5002808D0014620314A79C4
:1004A000022A05D00422C263002008710120F0BD99
:1004B000026813680E24A3431360426C1468FF2380
:1004C00001339C431460026814686408640014607B
:1004D0000C4A5568066C1C24264001242746B74068
:1004E0003D435560826CC56C5560026D002A05D095
:1004F00015689D431560826D406D42604C7100200F
:100500000871F0BD00000240F8B500240246203218
:100510005179022903D00421C16301242DE001682F
:100520000B680E25AB430B6001680B685B085B0032
:100530000B60416C0B68FF250135AB430B60104924
:100540004D68066C1C231E4001231F46B7403D43E7
:100550004D60816CC56C4D60016D002906D00E6840
:100560001D02AE430E60416D856D4D6053710021DB
:100570001171816B002900D088472046F8BD00002A
:1005800000000240F8B504007ED06049206888422F
:1005900013D05E49143188420FD05C49283188421B
:1005A0000BD05A493C31884207D0584950318842D3
:1005B00003D0A12156A002F0ACFC0127A068BF0324
:1005C000002807D0102805D0B84203D0A22150A09F
:1005D00002F09FFCE068402805D0002803D0A3214A
:1005E0004BA002F096FC2069802805D0002803D09B
:1005F000A42147A002F08DFC606900280AD0C11F29
:10060000F93907D0C11FFF39FA3903D0A52140A01D
:1006100002F07FFCA06900280AD0012189028842EB
:1006200006D04900884203D0A62139A002F071FC0F
:10063000E069002805D0202803D0A72134A002F0CB
:1006400068FC206A00280ED00121090388420AD0E4
:100650004900884207D003210903884203D0A8211A
:100660002BA002F056FC6068352803D9AA2128A0E7
:1006700002F04FFC25482568404228181421FFF756
:1006800039FD8000206400E035E002202646203657
:10069000707128682C4908402860E168A068626988
:1006A0000843216911430843A1690843E1690843EC
:1006B000216A084321680A68104308602046FFF752
:1006C000BFFDA0680025B84200D165602079616C4B
:1006D0008006800E0860A06CE16C41606068401E7E
:1006E00003280AD82046FFF7C3FD206D0560606D22
:1006F000A16D416004E00120F8BD25656565A56533
:10070000E5630120707135710020F8BD08000240DA
:100710002E2E2F447269766572732F53544D3332E7
:10072000473078785F48414C5F4472697665722F34
:100730005372632F73746D3332673078785F6861FA
:100740006C5F646D612E63000F80FFFFFFB5044690
:1007500027490025581E81B01E46884204D3FF2138
:10076000B83124A002F0D5FB2046203001790129C0
:100770000CD00127077142790021012A08D080227C
:10078000E26301710125284605B0F0BD0220FBE7B8
:1007900002224271E1632068016849084900016052
:1007A00033462046039A0299FFF776FD206B002816
:1007B0002068016801D00E2205E004229143016007
:1007C000206801680A2211430160606C0168CA0355
:1007D000164902D502680A430260206D002802D043
:1007E00002680A4302602068016839430160CAE771
:1007F000FEFF00002E2E2F447269766572732F5310
:10080000544D3332473078785F48414C5F447269C9
:100810007665722F5372632F73746D33326730783D
:10082000785F68616C5F646D612E63000001000099
:1008300070B5044600F064FA0546601C02D0044816
:100840000078241800F05CFA401BA042FAD370BD77
:100850000C000020F8B5044600680F46022805D0B9
:10086000042803D0A0211FA002F053FB2D4E3078A6
:1008700001280AD001203070002070607D20C00067
:10088000FFF7D4FD002802D029E00220F8BD0421A2
:1008900061602268042A03D0491F3960A56814E00A
:1008A0000846FFF71FFD7D20C000FFF7BFFD16E0E3
:1008B00029466068FFF74AFD7D20C000FFF7B6FDBE
:1008C000002801D03D6005E06D1CE268A168891830
:1008D000A942EDD814494A6902239A434A6100218A
:1008E0003170F8BD2E2E2F447269766572732F53C6
:1008F000544D3332473078785F48414C5F447269D9
:100900007665722F5372632F73746D33326730784C
:10091000785F68616C5F666C6173685F65782E6391
:10092000000000006C0C00200020024010B57D206B
:100930000124C000FFF77AFD054841698204114394
:1009400041614069002800DA0024204610BD000003
:1009500000200240F0B51FB417460C460646012899
:1009600007D001208004864203D0A92127A002F0ED
:10097000D0FA354D287801280AD0012028700020AF
:1009800068607D20C000FFF751FD002803D020E003
:10099000022005B0F0BD0120C0062C49012E1BD05D
:1009A000844206D3088C2A494006C00B4018A04256
:1009B00003D2C12115A002F0ACFA39462046FFF758
:1009C0001BFD7D20C000FFF731FD22494A69B2437B
:1009D0004A6100212970DCE7844207D3088C1C4956
:1009E0004006C00BF8314018A04209D21A487F21B6
:1009F0002018C900884203D9B92104A002F089FA5D
:100A00003A462046039BFFF7E9FCDAE72E2E2F44F7
:100A10007269766572732F53544D3332473078784C
:100A20005F48414C5F4472697665722F5372632F41
:100A300073746D3332673078785F68616C5F666CB1
:100A40006173682E630000006C0C0020C075FF1FEE
:100A500000FFFF0700200240009000E00649002050
:100A60004A69002A07DA054A8A60054A8A604969A4
:100A7000002900DA01207047002002402301674569
:100A8000AB89EFCDF8B504460520002700070D46D9
:100A900084420FD0864884420CD08648844209D0D4
:100AA0008548844206D08548844203D0A92184A089
:100AB00002F02FFA28680104090C01D0000C03D0C1
:100AC000AA217FA002F025FA6868002825D0012815
:100AD000FCD01128FAD00228F8D01228F6D0112123
:100AE00009048842F2D0212109048842EED0312144
:100AF00009048842EAD0092149048842E6D011213C
:100B000049048842E2D0192149048842DED00328F2
:100B1000DCD0AB216AA002F0FCF9C3E00120B840B0
:100B2000009006407ED028798007800F012801D0F0
:100B300002281ED1E868002809D0012807D0022821
:100B400005D0032803D0BA215DA002F0E2F9A06825
:100B50007A00032191408843E96891400143A160F4
:100B60006168009881432879C006C00FB8400843E7
:100B700060602879C043800713D0A868002807D098
:100B8000012805D0022803D0CC214DA002F0C1F9E4
:100B9000E0687A00032191408843A96891400143AD
:100BA000E16028798007800F022827D105200007FF
:100BB00084420FD03E4884420CD03E48844209D043
:100BC0003D48844206D03D48844203D0D9213CA010
:100BD00002F09FF92869072803D9DA2138A002F02A
:100BE00098F9F80880000319186A7907CA0E0F21CE
:100BF00091408843296991400143196220687A0035
:100C000003219140884329798907890F9140014345
:100C1000216068688003800F43D0B9083748890095
:100C20000B1800E03DE0186EB907CA0E0F21914085
:100C30008843052109078C4201D100210FE01C499E
:100C40008C4201D101210AE01A498C4201D10221D2
:100C500005E019498C4201D1032100E005219140B2
:100C60000143264A196610686968B043C90200D575
:100C70003043106050686968B043890200D5304342
:100C800050601E49803148686A68B043920300D5BD
:100C90003043486008686A68B043D20300D53043E7
:100CA00008607F1C2E683046F84000D036E7F8BD5B
:100CB0000004005000080050000C005000140050C8
:100CC0002E2E2F447269766572732F53544D333232
:100CD000473078785F48414C5F4472697665722F7F
:100CE0005372632F73746D3332673078785F686145
:100CF0006C5F6770696F2E6300000000001802408F
:100D000001488068704700000C0000200948026814
:100D100009490978521802600848026852180260AE
:100D2000426852184260826852188260C268511844
:100D3000C1607047140000200C0000201C0000203F
:100D400010B5084800240168821511430160032092
:100D500000F00AF8002801D0012401E000F028F892
:100D6000204610BD0020024070B50F4E002431789F
:100D70000546002915D07D20C000FFF7BBF90146CC
:100D80000A480068FFF7B6F900F042FD002808D1D4
:100D9000042D06D200222946401E00F04FF875604F
:100DA00000E00124204670BD0C0000201800002047
:100DB00008B509480168012211430160006810402C
:100DC000009005484038C26B01040A43C263C06BFF
:100DD0000840009008BD00004010024010B504001B
:100DE00003D5972105A002F094F8002C05DBE1065D
:100DF000C90E012088401049086010BD2E2E2F44D6
:100E00007269766572732F53544D33324730787858
:100E10005F48414C5F4472697665722F5372632F4D
:100E200073746D3332673078785F68616C5F636FBD
:100E3000727465782E63000000E100E070B50C4626
:100E40000546042903D3892103A002F062F8214654
:100E5000284602F01FF870BD2E2E2F447269766569
:100E600072732F53544D3332473078785F48414C7A
:100E70005F4472697665722F5372632F73746D339A
:100E800032673078785F68616C5F636F7274657821
:100E90002E63000070B5012676020446B04206D0EB
:100EA0007000844203D0104910A002F032F81E4DA9
:100EB000286803214902884320432860B4420ED1A8
:100EC0001A480621006848431949FFF713F9401CE6
:100ED00002E0002805D0401E69694905F9D40020C8
:100EE00070BD032070BD0000FE0200002E2E2F44B6
:100EF0007269766572732F53544D33324730787868
:100F00005F48414C5F4472697665722F5372632F5C
:100F100073746D3332673078785F68616C5F7077B7
:100F2000725F65782E63000000700040180000209A
:100F300040420F00F8B50E4605007DD028684107F5
:100F400001D0C00804D0332109017FA001F0E1FFE6
:100F5000002E07D0012E05D0022E03D088497AA09A
:100F600001F0D7FF874F38684007400FB04213D2D7
:100F70003868C008C00030433860FFF7C1FE04463F
:100F800005E0FFF7BDFE011B7F48814271D838683C
:100F90004007400FB042F4D128687C4C810735D51A
:100FA000400704D5A068072109030843A060A8688A
:100FB000002824D00121C902884220D00921090239
:100FC00088421CD005214902884218D00B21090211
:100FD000884214D003218902884210D00D210902D1
:100FE00088420CD007214902884208D00F2109020B
:100FF000884204D0624954A0243101F08AFFA068DD
:101000000F2109028843A9680843A0602878C00717
:1010100048D06868002825D001281AD0042813D0A9
:10102000032822D0022817D0D721890046A001F03A
:1010300070FF6868012800E012E00AD002280BD097
:1010400000280FD0032810D050484030C0698007D6
:1010500004E02068800301E020688001002809DBAB
:101060000120F8BD20684005F8E748484030006A94
:10107000EDE72CE0A0686968C008C0000843A060E4
:10108000FFF73EFE009006E0FFF73AFE0099411A96
:101090003D4881421BD8A068382108406968C900D2
:1010A0008842F1D138684007400FB04217D935481F
:1010B0000168C908C90031430160FFF721FE0746F6
:1010C00007E0FFF71DFEC11B2F48814201D9032015
:1010D000F8BD2C4800684007400FB042F1D1287895
:1010E00040071ED5E868002814D0012189038842F2
:1010F00010D00521090388420CD0032149038842FE
:1011000008D007210903884204D01D490EA07E3172
:1011100001F0FFFEA068072109038843E96808433E
:10112000A06000F04FF8A1683C2289091140184ADC
:10113000515CC906C90EC8401649086016480068C7
:10114000FFF712FEF8BD00002E2E2F44726976655F
:1011500072732F53544D3332473078785F48414C87
:101160005F4472697665722F5372632F73746D33A7
:1011700032673078785F68616C5F7263632E6300FA
:1011800031030000002002408813000000100240DC
:1011900024360008180000201000002006480749E7
:1011A00000688968064A4904490F8900515CC906EC
:1011B000C90EC8407047000018000020001002400F
:1011C0006436000810B5204CA068204A8006400F05
:1011D00016D0A0688006410F501001290FD0A168D9
:1011E0008906490F022912D0A0688006400F042802
:1011F00023D0A0688006400F032821D0002010BD16
:10120000206801218004400F8140104612E0E1680F
:101210008B07E1689B0F4906490F491C032B00D03F
:101220001046FEF767FFE1684904490E4843E1684C
:10123000490F491CFEF75EFF10BD0120C00310BD21
:101240007D20000210BD0000001002400024F400C8
:10125000F8B504007ED0FE4D2068FD4E403D0028CC
:101260000CD0C1070DD1810764D4010773D44007A6
:1012700072D4FF214331F7A001F04BFE2078C00764
:1012800055D0012760683F0400280AD0B84208D032
:1012900005210904884204D0FF214931EDA001F065
:1012A00038FEA86838210840E9688907890F1028A6
:1012B00002D0082809D001E0032906D06168B942AC
:1012C0000AD128683843286015E0286880032ED5A5
:1012D00060680028BED02AE00522012012048004A4
:1012E0009142296802D101432960EAE7B9432960A4
:1012F000296881432960606800280CD0FFF700FD51
:10130000074604E0FFF7FCFCC01B64287ED8286871
:101310008003F7D50BE0FFF7F3FC074604E0FFF787
:10132000EFFCC01B6428F1D828688003F7D420782C
:1013300080076CD5E068002807D0C11FF93904D0B8
:10134000FF217F31C3A001F0E4FD60697F2808D947
:10135000FF2102E0BDE092E0CEE08031BDA001F0CF
:10136000D8FD07272069FF0200281CD00121C902EF
:10137000884218D04900884215D00321C90288420A
:1013800011D00121490388420DD00521C9028842AC
:1013900009D003210903884205D0B84203D049117E
:1013A000ACA001F0B6FDA86838210840E9688907BB
:1013B000890F102802D0002813D001E0022910D094
:1013C000E068002847D028682169B84308432860AE
:1013D0002868FF21013108432860FFF791FC074688
:1013E0002DE02968490502D5E168002971D06968B6
:1013F0007F22120291436269120211436960002840
:1014000011D128682169B843084301E096E033E030
:101410002860286801218004400F81409B48FEF726
:1014200069FE9B4908609B480068FFF79DFC002807
:101430004FD121E0FFF764FCC01B02287ED828684A
:101440004005F7D568687F21090288436169090270
:101450000843686010E02968FF200130814329605B
:10146000FFF74EFC074604E0FFF74AFCC01B0228CA
:10147000E4D828684005F7D42078000739D5A0695A
:10148000002806D0012804D0FF21D53171A001F039
:1014900040FDA8688006400F03280AD0A0690028F4
:1014A000306A17D0012108433062FFF729FC074654
:1014B0000BE0306A80071CD5A069002896D018E0A0
:1014C000FFF71EFCC01B0228B8D8306A8007F7D58A
:1014D0000FE090E1400840003062FFF711FC074642
:1014E00004E0FFF70DFCC01B0228A7D8306A800774
:1014F000F7D42078400778D5A0680027002808D0C6
:10150000012806D0052804D08321890051A001F0CC
:1015100000FDA8688006400F042819D0E86BC000C1
:1015200008D4E96B012000070143E963E96B01403E
:101530000127009158480168C90500E02CE118D442
:101540000168821511430160FFF7DAFB00900CE09F
:10155000F069800749D5A0680028AFD045E0FFF7C3
:10156000CFFB0099401A0228AED84B480068C0054E
:10157000F5D5A168012910D004200529F16911D001
:1015800049084900F161F1698143F161A0680028CF
:1015900016D0FFF7B5FB00900EE0F069012108437B
:1015A000F061F3E70143F161F7E7FFF7A9FB009969
:1015B000411A3A48814287D8F0698007F5D50DE095
:1015C000FFF79EFB009006E0FFF79AFB0099411A97
:1015D0003248814289D8F0698007F5D4002F04D0C1
:1015E000E96B012000078143E963E06900287CD0B2
:1015F000012808D0022806D0294916A001F089FC4C
:10160000E0690028F3D0A8688006400F0228E0694E
:101610006CD001263606022806D02868B043286020
:10162000FFF76EFB0446B9E0206A002808D00228C4
:1016300006D0032804D01A4906A00A3101F069FC3B
:10164000606A00283CD010283AD0202838D029E001
:10165000401002402E2E2F447269766572732F530C
:10166000544D3332473078785F48414C5F4472695B
:101670007665722F5372632F73746D3332673078CF
:10168000785F68616C5F7263632E63000024F4000E
:101690001800002010000020007000408813000097
:1016A0008702000030280BD0402809D0502807D0EE
:1016B000602805D0702803D05149524801F029FC18
:1016C000A06A08384E2804D94D494E48491C01F0FB
:1016D00020FC0121E06A4904401A0F218904884254
:1016E00007D9A5218900474801E086E05EE001F0C6
:1016F00010FC7F21206B490640180321890688428F
:1017000004D93F493F48091D01F003FC0721606BE4
:10171000490740184900884204D95321C900394873
:1017200001F0F7FB2868B0432860FFF7E9FA0746A5
:1017300004E0FFF7E5FAC01B02282DD828688001D5
:10174000F7D4616A206AA26A0843E16A120211436F
:101750000843216B0843616B0843E9682A4A11403A
:101760000843E860286830432860E86801210907D9
:101770000843E860FFF7C4FA044604E0FFF7C0FA44
:10178000001B022808D828688001F7D535E0FFF74C
:10179000B7FA001B022801D90320F8BD2868800190
:1017A000F5D4E86819490840E86026E00128F4D03B
:1017B000E868226A8107890F91421CD17021626A10
:1017C0000140914217D17F21A26A09020140120211
:1017D000914210D11F214904E26A014091420AD18D
:1017E00007214906226B0140914204D1400F616BF1
:1017F0004007884201D00120F8BD0020F8BD00005C
:1018000092020000541600088C80C111FCFFFEEE0D
:10181000094910B5401E884201D9012010BD074C6E
:1018200060610321081F01F035FB0020A061072043
:101830002061002010BD0000FFFFFF0000E000E07D
:10184000704770477047704710B50168CA69D24346
:1018500012070AD408220A6200680449884204D1A7
:1018600001220349034800F02DFA10BD0044004056
:101870002C000020880C0020F8B503680446D969C4
:1018800018689A68B44D0E462E4025468035002EC5
:1018900075D0B24EB24F1640074037436ED0CF07D7
:1018A00006D0C70504D501271F622B693B432B6176
:1018B0008B0708D5D30706D0276802233B622B6924
:1018C00004273B432B614B0708D5D30706D0276875
:1018D00004233B622B6902273B432B610B0709D58D
:1018E00020230340334305D02668082333622E6942
:1018F0001E432E610B0509D5430107D50123266838
:10190000DB0233622B69202633432B612B69002BCA
:1019100042D089060AD520210840C9050A40104353
:1019200004D0616F002901D02046884728692168CA
:101930008968490602D42821084232D0204600F0A6
:1019400039FD21688868400627D5EFF31080012211
:1019500082F310888B68402293438B6080F3108859
:101960002868002819D07F4981632868FEF7CCFDDC
:10197000002811D02868816B0DE000E017E08E068A
:1019800015D5012720263F07064017403E430ED0BD
:10199000616FB5E020468847F8BD2046FFF754FF49
:1019A000F8BD2046FFF750FF00202861F8BDE66E25
:1019B000012E7DD1CE067BD5C60679D510221A62BE
:1019C00023689868264640064036002849DA296888
:1019D000086840680004000CE8D0B78B8742E5D95E
:1019E000F08308680068800634D4EFF3108001218A
:1019F00081F3108819681701B943196080F31088C2
:101A0000EFF31080012181F3108821688B685B0857
:101A10005B008B6080F31088EFF31080012181F36D
:101A2000108821688B684027BB438B6080F3108847
:101A30002020E8600020E066EFF31080012181F3B0
:101A4000108821680B6893430B6080F31088286826
:101A5000FEF720FD02202067B08BF18B401A81B287
:101A600035E0B08BF18B401A81B2F08B00289DD00D
:101A700000299BD0EFF31080012686F310881E68A2
:101A8000FF272137BE431E6080F31088EFF31080DC
:101A9000012383F3108823689E68304FFF433E4044
:101AA0009E6080F310882020E8600020E06600E05F
:101AB00011E06067EFF31080012383F3108823683F
:101AC0001D6895431D6080F3108802202067204622
:101AD000FFF7B6FEF8BDCE0208D5560206D50120A6
:101AE000000518622046FFF7AEFEF8BD0E060BD5C6
:101AF00001278026FF0506403A40164304D0A16F17
:101B0000002900D046E7F8BD4A0614D5420612D592
:101B10002046EFF31081012282F310881A684024D6
:101B2000A2431A6081F310882021A96000218167F7
:101B300000F014F9F8BD0A0205D5420003D520468D
:101B4000FFF780FEF8BDC901FCD50028FADA20466F
:101B5000FFF777FEF8BD00000F080000010000103D
:101B600020010004ED22000870B504000FD0A06928
:101B700025490028254A264B20680AD0884213D0E0
:101B8000904211D098420FD0FF213F3109E001204F
:101B900070BD884208D0904206D0984204D0FF2100
:101BA00044311CA001F0B5F925468035A86800280D
:101BB00003D12871204600F04BF82420A86020684B
:101BC0000168490849000160A06A002802D0204647
:101BD00000F036FA204600F0B7FE0128D8D0206881
:101BE00041680922D20291434160206881682A221B
:101BF0009143816020680168012211430160204601
:101C000000F018FB70BD00000038014000440040A7
:101C1000008000402E2E5C447269766572735C53BE
:101C2000544D3332473078785F48414C5F44726995
:101C30007665725C5372635C73746D3332673078AF
:101C4000785F68616C5F756172742E6300000000DC
:101C500010B586B0044614216846FEF7BAFA174953
:101C60002068884227D11649CA6B012040040243EC
:101C7000CA63CA6B024005924A6B012002434A6361
:101C8000496B0490014005910C21009102210191C2
:101C9000002102910391052069460007FEF7F2FE3C
:101CA000204600F0A7F9002211461C20FFF7C6F8D5
:101CB0001C20FFF793F806B010BD00000044004060
:101CC0000010024070B58C231B58202B01D002203D
:101CD00070BD00290BD0002A09D001248368240399
:101CE000A34206D10369002B03D1CB0701D0012009
:101CF00070BD0023C3660B4B04689C420ED0636822
:101D00001B020BD5EFF31083012585F3108825689E
:101D10000126B6063543256083F3108800F0D4FF12
:101D200070BD00000080004010B50068084988427E
:101D30000DD1084C0848217801F02CFA01F01CF96B
:101D400060600548012221469438FFF7BBFF10BDB3
:101D5000004400402C0000201C0D00207047FEE7CE
:101D600010B506480649008C08224006800EC002C5
:101D700041180448FEF714FA002010BDC075FF1F7B
:101D800000F0FF073400002008B50848816B0122ED
:101D900011438163806B02211040009000220A20D1
:101DA000FFF74CF80A20FFF719F808BD00100240B1
:101DB00010B51249104A0A60486000208860C86067
:101DC0000C2208614A6101228861D203CA611211A2
:101DD00048620A6288620846FFF7C6FE002801D002
:101DE000FEF77EFA012206490448FFF76BFF002840
:101DF00001D0FEF775FA10BD00440040880C0020A9
:101E00002C00002070B5054604468035A8682028BF
:101E100001D0022070BD002918D0002A16D0214B15
:101E20002068984208D100201F4B02E00E5C1E542F
:101E3000401C9042FADB1C490123A0681B03984216
:101E400006D12069002803D1C80701D0012070BD48
:101E50002046403021658282C282002028612120F4
:101E6000A860E06F00280CD026681346324628325E
:101E7000FEF76CFC002804D0102028612020A86008
:101E8000E4E7216840200862EFF31080012181F32C
:101E9000108821688A6880231A438A6080F310883A
:101EA000002070BD0044004094110020FEE7704700
:101EB00070470000F0B591B000202B490F9003C986
:101EC0000D910C90FEF7CAFD002814D10220089055
:101ED0000420264C0990208C0FA94006800E801EFD
:101EE0000A9001200B9008A8FEF7B4FC050004D06E
:101EF000FEF71CFD284611B0F0BD208C1C494006A1
:101F0000800EC00240180E90012000270790002488
:101F1000F8002546264606908019082807D20CA905
:101F2000085C0021F200FEF72BF904430D43761CF8
:101F3000082E01DA0698EFE722462B4601200E997B
:101F4000FEF708FD040003D0FEF7F0FC2046D2E7C0
:101F50000E987F1C08300E9007988742D7D3FEF763
:101F6000E5FC0020C7E7000034000020C075FF1F1B
:101F700000F0FF0710B5FEF7C9FE10BD10B500F068
:101F800001F810BD30B593B038216846FEF721F94D
:101F9000002501200E950F95109540021195FEF732
:101FA00079FF0224E00103900094402005900495FD
:101FB0003020099020200A9000030B900794000223
:101FC0000C90089400010D906846FFF741F9002835
:101FD00001D0FEF785F907200EA931C102210EA814
:101FE0001195FEF7A7FF002801D0FEF779F913B08D
:101FF00030BD704770B5054600680E49884218D15B
:102000000E4C0D482060352060601020A06000203C
:10201000E06060618021A0612161E061880120624F
:102020002046FEF7AFFA002801D0FEF759F9EC6719
:10203000A56270BD0044004030000240381100200D
:1020400070B50446806AFF2803D9694969A000F089
:1020500060FF208D000711D50125A06BED0300283E
:1020600006D0A84204D0624962A0491D00F051FF89
:1020700020684168A26BA94311434160208DC007CD
:1020800011D00125E06A6D04002806D0A84204D0D2
:10209000574958A00C3100F03CFF20684168E26AC3
:1020A000A94311434160208D800711D50125206B84
:1020B0002D04002806D0A84204D04D494DA013316C
:1020C00000F027FF20684168226BA943114341605B
:1020D000208D400711D50125606BAD04002806D086
:1020E000A84204D0424943A01A3100F012FF2168EF
:1020F0004868626BA84310434860208DC00611D524
:102100000125E06B2D03002806D0A84204D03849F1
:1021100038A0213100F0FDFE20688168E26BA94300
:1021200011438160208D800611D50125206C6D033F
:10213000002806D0A84204D02D492EA0283100F056
:10214000E8FE21688868226CA84310438860208DCF
:10215000400636D536492068884204D0244925A057
:102160002F3100F0D6FE0125606C2D05002806D029
:10217000A84204D01E491FA0303100F0CAFE2168D9
:102180004868626CA84310434860606CA84218D14C
:102190000325A06C6D0500280DD00121490588425A
:1021A00009D04900884206D0A84204D0104911A0A5
:1021B000353100F0AEFE21684868A26CA843104398
:1021C0004860208D000611D50125E06CED04002843
:1021D00006D0A84204D0064906A03D3100F099FE81
:1021E00020684168E26CA9431143416070BD000062
:1021F000F20C00002E2E5C447269766572735C539B
:10220000544D3332473078785F48414C5F447269AF
:102210007665725C5372635C73746D3332673078C9
:10222000785F68616C5F756172742E6300000000F6
:1022300000380140FEB505460026803504462E6173
:10224000FEF75EFD01902068006820270007002847
:1022500017DA25480090002239042046019B00F03F
:10226000C9FD00280DD0EFF31080012181F3108803
:1022700021680A6880239A430A6080F31088AF605F
:1022800028E020680068400727D517480090012102
:10229000002289052046019B00F0ACFD00281CD0DF
:1022A000EFF31080012181F3108821680A68FF2371
:1022B00021339A430A6080F31088EFF310800121E4
:1022C00081F3108821688A68520852008A6080F37E
:1022D0001088EF602E710320FEBDAF60EF60E666F0
:1022E00026672E710020FEBDFFFFFF0110B5806A3A
:1022F000002201464031CA83CA82FFF7A5FA10BD09
:10230000F0B52B490D6801680C68066C1C2216405C
:1023100004221746B740836A2F4210D067070ED5B4
:102320000B689B0602D40B6893430B6020494B68F3
:10233000006C1C242040824013434B60F0BD0227F8
:10234000B74002462F402032002F14D0A70712D5E5
:102350000C68A40605D40C680A25AC430C60012166
:10236000517113494C68056C1C2005400220A8409F
:1023700004434C6015E00827B7402F42DED0240705
:10238000DCD50C680E25AC430C60094C6568066C06
:102390001C210E4001210F46B7403D436560C163DB
:1023A000517100201071202080339860F0BD000032
:1023B0000000024010B5EFF31081012282F3108873
:1023C00002681368FF242134A343136081F310884B
:1023D000EFF31081012282F31088026893680D4C9C
:1023E0002340936081F31088C16E01290BD1EFF374
:1023F0001081012282F31088026813681024A3431D
:10240000136081F3108820228C210A500021C166BC
:10241000416710BDFEFFFFEF70B501464031034636
:1024200080330C8CDD680268222D04D0906908216D
:102430000843906170BD526A856D22402A80826D8A
:10244000921C8265CA8B521ECA83CA8B002AF1D1A4
:10245000EFF31082012484F3108804682568FF26B6
:102460002136B543256082F31088EFF310820124F2
:1024700084F310880468A5686D086D00A56082F378
:1024800010882022DA60002343670367174A046834
:1024900094420ED0626812020BD5EFF31082012530
:1024A00085F3108825680126B606B543256082F3BA
:1024B0001088C26E012A02D0FFF736FC70BDC366D9
:1024C000EFF31082012383F310880468256810233A
:1024D0009D43256082F310880268D469E443E406D2
:1024E00000D41362898BFFF7ABF970BD0080004008
:1024F000F0B50546044640358BB0288C0290206824
:10250000C669016806918168049121468031009175
:10251000C968222905D081690822114381610BB065
:10252000F0BD2F8D7CE02068406A029AA16D1040BA
:102530000880A06D801CA065E88B401EE8832068A1
:10254000C669710731D0F10709D00699C90506D5CA
:102550000121016200980069084300990861B007F1
:102560000BD50498C00708D02168022008620098A3
:102570000069042108430099086170070BD504988D
:10258000C00708D021680420086200980069022171
:1025900008430099086100980069002805D020468A
:1025A000FFF752F9009900200861E88B002837D125
:1025B000EFF31080012181F3108821680A68FF235E
:1025C00001339A430A6080F31088EFF310800121F1
:1025D00081F3108821688A68324B1A408A6080F340
:1025E000108800982021C1600020606720672E4875
:1025F000216881420ED0486800020BD5EFF31080AD
:10260000012282F310880A6801239B069A430A601C
:1026100080F31088E06E01282AD02046FFF784FB63
:10262000002F02D0B00600D57DE7E88B002800D14E
:1026300075E7298D8142FBD9EFF31080012181F3E9
:10264000108821688A6801231B079A438A6080F3F7
:1026500010881648EFF310816067012080F310881E
:102660002268106820231843106081F3108856E711
:102670000020E066EFF31080012181F310882268CA
:10268000136810218B43136080F310882068C2699F
:10269000D243D20600D40162A98B2046FFF7D0F8BE
:1026A000BEE70000FEFFFFEF008000401924000895
:1026B00070B501464031034680330C8CDD680268FA
:1026C000222D04D0906908210843906170BD526AA0
:1026D0002240846D2270826D521C8265CA8B521E0C
:1026E000CA83CA8B002AF1D1EFF31082012484F34C
:1026F000108804682568FF262136B543256082F3DB
:102700001088EFF31082012484F310880468A56810
:102710006D086D00A56082F310882022DA60002326
:1027200043670367174A046894420ED06268120236
:102730000BD5EFF31082012585F31088256801265B
:10274000B606B543256082F31088C26E012A02D016
:10275000FFF7EAFA70BDC366EFF31082012383F33B
:1027600010880468256810239D43256082F3108833
:102770000268D469E443E40600D41362898BFFF74E
:102780005FF870BD00800040F0B505460446403556
:102790008BB0288C02902068C66901680691816818
:1027A0000491214680310091C968222905D08169B0
:1027B0000822114381610BB0F0BD2F8D7CE02068B1
:1027C000406A02990840A16D0870A06D401CA06588
:1027D000E88B401EE8832068C669710731D0F10795
:1027E00009D00699C90506D5012101620098006942
:1027F000084300990861B0070BD50498C00708D0BA
:1028000021680220086200980069042108430099A9
:10281000086170070BD50498C00708D02168042010
:102820000862009800690221084300990861009835
:102830000069002805D02046FFF706F8009900201F
:102840000861E88B002837D1EFF31080012181F374
:10285000108821680A68FF2301339A430A6080F3D5
:102860001088EFF31080012181F3108822689168AD
:10287000324B1940916080F3108800982021C1608C
:102880000020606720672E49206888420ED041688A
:1028900009020BD5EFF31081012282F31088026840
:1028A00001239B069A43026081F31088E06E0128A1
:1028B0002AD02046FFF738FA002F02D0B00600D504
:1028C0007DE7E88B002800D175E7298D8142FBD98F
:1028D000EFF31080012181F3108821688B680122B9
:1028E000120793438B6080F3108816486067EFF3FC
:1028F0001080012181F3108823681A6820210A437F
:102900001A6080F3108856E70020E066EFF310802D
:10291000012181F310882268136810218B43136012
:1029200080F310882068C269D243D20600D40162C5
:10293000A98B2046FEF784FFBEE70000FEFFFFEFF5
:1029400000800040B1260008F8B504464068C3493D
:102950000025884203D3C249C2A000F0DAFA01215F
:102960000907A0680F14884208D0002806D0B84292
:1029700004D0BB49BBA0491C00F0CBFAC8480326D1
:102980002268411436038242E06806D100281DD037
:1029900088421BD0B249091D15E0B8420AD0002870
:1029A00008D0B04206D0884204D0AD49ADA008316D
:1029B00000F0AFFA206A002808D00121C90288423D
:1029C00004D0C3210901A7A000F0A3FA20690028C0
:1029D0000CD001218902884208D003214902884293
:1029E00004D09F499FA00C3100F093FA60690C223B
:1029F0000146914301D1002804D1994999A00D3194
:102A000000F087FAA06900280FD0C11FF9390CD057
:102A1000C11FFF39FA3908D003210902884204D0C6
:102A20008F4990A00E3100F074FA0127E069FF038E
:102A3000002806D0B84204D089498AA00F3100F09E
:102A400068FA606A00281AD0012818D0022816D027
:102A5000032814D0042812D0052810D006280ED040
:102A600007280CD008280AD0092808D00A2806D040
:102A70000B2804D07A497BA0103100F04AFA216972
:102A8000A068E269084361691143084321680A6844
:102A9000844B1A4002430A6021684868E268B043E8
:102AA000104348607E4A2168A069914201D0236AA0
:102AB00018438B687C4E334003438B602068C16AA7
:102AC000636A090909011943C16278492368784892
:102AD0008B420AD140698007800F1BD001282AD081
:102AE000022817D0032814D111E072498B421ED05E
:102AF00093420ED1416903208002014017D001208A
:102B00008002091A17D0091A13D0814201D1082076
:102B100000E010206849694E93423FD100280CD054
:102B200002280DD004280DD0082836D10EE0002050
:102B3000F0E70220EEE70420ECE7FEF72FFB03E0CE
:102B40000F4603E0FEF73EFB07007CD0606A4000C2
:102B5000315A38460091FDF7CDFA66687100711858
:102B6000814269D83103814266D300233846194631
:102B7000009AFDF7D5FA020E09020302700811430C
:102B800018180022514132460023FDF7C9FA0321EB
:102B900009024B4A411A914253D94DE0E269BA42C7
:102BA00029D1002806D0022807D0042807D00828F9
:102BB00042D11EE0FEF7F2FA03E0084603E0FEF71A
:102BC00001FB00283FD0616A4900715AFDF792FA73
:102BD000616840004A088018FDF78CFA0146394ABE
:102BE0001039914228D8511C01400007400F08437A
:102BF00027E03846E7E7002806D0022807D0042857
:102C000007D0082818D119E0FEF7C8FA03E00846F3
:102C100003E0FEF7D7FA002815D0616A4900715A1F
:102C2000FDF768FA61684A088018FDF763FA014603
:102C3000244A1039914203D9012504E03846ECE7D3
:102C400080B22168C860204601214030418501855D
:102C500000206067A0672846F8BD000001127A00D6
:102C6000270C00002E2E5C447269766572735C53EB
:102C7000544D3332473078785F48414C5F44726935
:102C80007665725C5372635C73746D33326730784F
:102C9000785F68616C5F756172742E63000000007C
:102CA00000800040F369FFCFFFF4FF1100380140BE
:102CB00040100240004400400024F4000C3600089C
:102CC000FFFC0F00EFFF0000F0B5816501464031C9
:102CD0008A83CA8300254567012483682403FF266D
:102CE000A34204D10369002B13D13D4B0AE07F2797
:102CF000002B09D001263607B3420CD10369002B03
:102D000005D03F230B8407E00369002B01D00F841B
:102D100002E00E8400E00D84034680331D6122250D
:102D2000DD60EFF31083012585F310880568AE6838
:102D300001273E43AE6083F31088436E7D07AB42AC
:102D400029D1098D914226D88168A14202D1016919
:102D500000291DD023494167016900290CD0EFF3F8
:102D60001081012282F3108802681368FF24013465
:102D70002343136081F31088EFF31081012282F363
:102D800010880068826801231B071A43826023E0D1
:102D900015494167F0E78168A14202D10169002924
:102DA0000ED012494167016900290BD0EFF3108161
:102DB000012282F3108800680268FF23213309E0B2
:102DC0000B494167EFF31081012282F310880068FC
:102DD000026820231A43026081F310880020F0BDAE
:102DE000FF01000089270008F1240008B12600082F
:102DF00019240008FFB581B005460E46044680350B
:102E00000A9F32E0781C30D0FDF77AFF0499401A0F
:102E1000B84218D8002F16D020680168490724D579
:102E2000802E22D0402E20D0C169C94309070CD47E
:102E3000082606622046FFF7BDFA2E6100202871A1
:102E4000012005B0F0BD0320FBE7C069C0430005C9
:102E50000BD401202168C00208622046FFF7AAFABD
:102E60002020286100202871EDE72068C1693046E4
:102E7000884305D0002103988142C3D00020E0E7B9
:102E80000121F8E710B50248FEF7F6FC10BD00007E
:102E9000880C00208307FF22DB0E9A408907090E69
:102EA0009940002808DB830809489B001B18186814
:102EB00090430843186070470007000F08388308E4
:102EC00004489B001B18D86990430843D861704799
:102ED00000E400E000ED00E0BFF34F8F0449034839
:102EE000C860BFF34F8F00BFFDE700000400FA0584
:102EF00000ED00E002E008C8121F08C1002AFAD164
:102F000070477047002001E001C1121F002AFBD169
:102F1000704710B5FDF7E4F910BD000030B500248E
:102F2000002A04DC06E0855C0555521C641C8A42BC
:102F3000F9DB00E00C460348844200DD00241C80DD
:102F400030BD00000902000070B50A4DFF22EE1DE1
:102F50001346F93605E0047854402A5D5A40335D43
:102F6000401C0C46491E89B2002CF4D110021843B3
:102F700070BD0000843600080148006870470000FA
:102F80001400002001680722520789180122520309
:102F9000914206D24168034A1160006880F30888B4
:102FA0000847704708000020F7B504460120C0021A
:102FB0008EB01546824205D1294E600502D12948BE
:102FC000844202D2012011B0F0BD00200D90FDF727
:102FD00045FD0028F7D10220089004200990A0198F
:102FE000C00A0A9001200B900DA908A8FDF732FC39
:102FF000060003D0FDF79AFC3046E4E7ED1DE80833
:1030000000270C94069024E00024F800254626466C
:10301000079081190F98F200405C0021FDF7B0F88D
:1030200020432943761C04460D46082E01DA0798F2
:10303000EFE702460B4601200C99FDF78BFC0400DC
:1030400003D0FDF773FC2046BDE70C9808307F1CC9
:103050000C9006988742D7D3FDF768FC0020B2E7B2
:10306000000000F8005000083C4C3D4E20683D4DEB
:103070003D4FB04209D1C017206069682846090E4B
:10308000082901D1FFF77EFF2760FDF759FEFEF703
:1030900075FFFEF779FEE1204002FEF789FEFEF79C
:1030A0005FFE324801683248491C0AD12168B942A2
:1030B00007D0304A0168914203D06968090E082997
:1030C00013D00021C9432C4F2C4D2D4C00260160FC
:1030D0003968FF20F530814219D33E6029480078D5
:1030E000002808D000F068FA11E02748FDF7A0FB9F
:1030F0002660FFF7F1FEFFF73FFF22497D234A6874
:10310000DB00D218904202D301200870EAE71F4882
:1031100001680029DCD006602868002809D0FFF784
:103120002BFF2968401A022803D3154800F052F8F3
:103130002E6020880028CBD0608841000A19012128
:1031400089025118124A098B50430019801D00F062
:103150006DF80B4800F054F8BAE70000001F00209B
:10316000BB6688AA00500008AA9955BB340000200D
:10317000041F0020443322112400002030000020CE
:103180001C0D002000000020DC05000020000020B5
:103190000902000030B50288022A16D28288012472
:1031A00053001B18A4021B191B8B094DAB420CD2F8
:1031B0006A431B18921D9954818849000818011907
:1031C000088B401C0883012030BD002030BD00006A
:1031D000090200000188022910D2818801234A00D7
:1031E00012189B02D218128B002A07D001228A43A0
:1031F00082800188491C01800120704700207047AF
:103200000188002910D042880123520012189B0225
:103210000021D21811834288012191434180018805
:10322000491E01800120704700207047F0B50D460F
:10323000C44C0146C24862888BB080182A46FCF70D
:10324000AFFF6088281886B2002060800546BE481F
:10325000BE4C04906FE1711B022924DBB848425D2B
:10326000A52A40D14219079252785B2AF9D1072941
:1032700019DB079A937805931379D7781A023A43A2
:1032800052BA0392079A937957791A023A4352BA7B
:103290000A920932059B92B20F2B24D8AC4B9A426A
:1032A000FBD88A4208DDA74B2A469B1C3146A4481E
:1032B000FFF734FE0BB0F0BDA91808181E380991AD
:1032C000417F037F0802184345BA921E91B20798C6
:1032D000FFF73AFE854207D0099D02226D1E039931
:1032E000059800F045F925E1002006900798C01DDB
:1032F00000900598012807D0022848D0032877D0ED
:10330000062876D00320FAE08F48924912380182CD
:1033100091490025C1604580656185600A9906294B
:1033200029D300994A780B78110219434ABA0280CE
:103330000099CB7889781B020B4359BA009B09048A
:103340001B791B021943009B5B791943416014D020
:1033500005235B03994210D8002A0ED00120C10238
:10336000A061FF220498FCF72DFF764F3D70FFF718
:1033700003FE7860D7E005804560A56141680520BF
:103380004003814201D90520B9E00120B7E06D4D2D
:1033900000202870FFF7F0FD6860A06900280ED0BB
:1033A00069486C491238008A88420AD0411C8AB2A6
:1033B00003998A4205D0884265D007209FE0042007
:1033C0009DE00A9D01206169C002471A002F1EDDA1
:1033D0000498AF420EDB08182A460099FCF7E0FE7D
:1033E00060694019606100984019002500900EE066
:1033F0004AE093E008183A460099FCF7D1FE60696C
:10340000C01960610098C0190090E81B85B20127BF
:103410006069FF02B84229D34B4850491238C3684B
:103420008B4201D3052007E03A4618460499FFF77E
:10343000BBFD002805D006200690494800F0DEF8C4
:103440006FE041481238C1684348814202D1444884
:1034500000F0D4F83C4839461238C2685218C260AD
:1034600000206061FF220498FCF7ACFE002DA9D17A
:10347000354812384188491C418082680A995118A0
:103480008160039901824EE0A069002897D0002056
:10349000A0616069002812DD2B4D0127123DFF025B
:1034A0003A46E8680499FFF77FFDE868FF22C019F3
:1034B000E8600020606139460498FCF783FE2248EA
:1034C0001238826841688A4201D0082004E04188AD
:1034D0000088814205D009200690214800F08EF82E
:1034E00021E01D484068000E082801D00B20F3E7BA
:1034F0000020C04300F082F8002802D00A20069085
:1035000011E000220399059800F032F81548FDF704
:103510008FF9164914480860FFF7DEFCA0690028FF
:10352000B4D00020A061069A0399059800F020F815
:10353000099D6D1E6D1CB54200DA8CE6BAE60000EE
:103540003C0000200000002062040020500C0020FD
:1035500009020000FFFF00000050000800F0000812
:1035600099999999DC050000BB6688AA001F002084
:103570003EB5A5246B461C705B245C709870080AED
:10358000D87019710020587101209871DA710821E2
:103590006846FFF7D9FC010A6B4619725872054854
:1035A00081682029FCD103480A2219468038FEF799
:1035B00029FC3EBD080D00200EB5002000900190B2
:1035C0000290A520694608705B204870052088702D
:1035D00007216846FFF7B8FC020A6946CA710872FB
:1035E000054881682029FCD10348092269468038B2
:1035F000FEF708FC0EBD0000080D002010B50249C2
:103600000860FEF757FC10BD3400002001000200E6
:103610000400060008000A000C0010002000400012
:103620008000000100000000000000000000000019
:10363000000000000000000000000000000000008A
:103640000000000001000000020000000300000074
:103650000400000006000000070000000800000051
:103660000900000000000000000000000000000051
:103670000000000001000000020000000300000044
:103680000400000000C1814001C0804101C08041B0
:1036900000C1814001C0804100C1814000C1814022
:1036A00001C0804101C0804100C1814000C1814012
:1036B00001C0804100C1814001C0804101C0804102
:1036C00000C1814001C0804100C1814000C18140F2
:1036D00001C0804100C1814001C0804101C08041E2
:1036E00000C1814000C1814001C0804101C08041D2
:1036F00000C1814001C0804100C1814000C18140C2
:1037000001C0804101C0804100C1814000C18140B1
:1037100001C0804100C1814001C0804101C08041A1
:1037200000C1814000C1814001C0804101C0804191
:1037300000C1814001C0804100C1814000C1814081
:1037400001C0804100C1814001C0804101C0804171
:1037500000C1814001C0804100C1814000C1814061
:1037600001C0804101C0804100C1814000C1814051
:1037700001C0804100C1814001C0804101C0804141
:1037800000C1814000C0C101C30302C2C60607C711
:1037900005C5C404CC0C0DCD0FCFCE0E0ACACB0B81
:1037A000C90908C8D81819D91BDBDA1A1EDEDF1FB1
:1037B000DD1D1CDC14D4D515D71716D6D21213D3A1
:1037C00011D1D010F03031F133F3F23236F6F73751
:1037D000F53534F43CFCFD3DFF3F3EFEFA3A3BFB41
:1037E00039F9F83828E8E929EB2B2AEAEE2E2FEFF1
:1037F0002DEDEC2CE42425E527E7E62622E2E32361
:10380000E12120E0A06061A163A3A26266A6A76790
:10381000A56564A46CACAD6DAF6F6EAEAA6A6BAB00
:1038200069A9A86878B8B979BB7B7ABABE7E7FBF30
:103830007DBDBC7CB47475B577B7B67672B2B37320
:10384000B17170B0509091519353529296565797D0
:10385000559594549C5C5D9D5F9F9E5E5A9A9B5BC0
:1038600099595898884849894B8B8A4A4E8E8F4F70
:103870008D4D4C8C448485458747468682424383E0
:1038800041818040A4380008000000203C00000076
:10389000F42E0008E03800083C0000205C16000010
:1038A000042F0008010000000000000000000000DC
:1038B0000100000004000000000000000024F400EB
:1038C00000000000000000000000000000000000F8
:1038D00000000000000000000000000000000000E8
:04000005080000C12E
:00000001FF
