:020000040800F2
:1000000040270020C9010008334F00088349000839
:10001000314F0008311A0008C97D000800000000B7
:10002000000000000000000000000000A5540008CF
:10003000071B000800000000DB520008A75400085E
:10004000E3010008E3010008E3010008E301000800
:10005000E3010008E3010008E3010008E3010008F0
:10006000E3010008E3010008E3010008E3010008E0
:10007000E3010008E3010008E3010008C51A0008D5
:10008000D11A0008E3010008E3010008D57C00084C
:10009000E17C0008E3010008E3010008E301000837
:1000A000E3010008E3010008E3010008E3010008A0
:1000B000E3010008E301000800000000E30100087C
:1000C000E30100080000000000000000E301000858
:1000D00000000000616600086D6600080000000076
:1000E000E3010008E3010008E301000800F002F862
:1000F00000F05AF80AA090E8000C82448344AAF168
:100100000107DA4501D100F04FF8AFF2090EBAE865
:100110000F0013F0010F18BFFB1A43F0010318473B
:100120008C7D0000AC7D00000A444FF0000C10F8FC
:10013000013B13F0070408BF10F8014B1D1108BF65
:1001400010F8015B641E05D010F8016B641E01F805
:10015000016BF9D113F0080F1EBF10F8014BAD1C55
:100160000C1B09D16D1E58BF01F801CBFAD505E073
:1001700014F8016B01F8016B6D1EF9D59142D6D3CD
:10018000704700000023002400250026103A28BFF5
:1001900078C1FBD8520728BF30C148BF0B607047F9
:1001A0001FB51FBD10B510BD00F042F91146FFF795
:1001B000F7FF07F01AFE00F060F903B4FFF7F2FF53
:1001C00003BC00F067F90000094880470948004770
:1001D000FEE7FEE7FEE7FEE7FEE7FEE7FEE7FEE7F7
:1001E000FEE7FEE704480549034A054B7047000057
:1001F00027550008ED000008401F00204027002080
:10020000401F002040EA010310B59B070FD1042ACC
:100210000DD310C808C9121F9C42F8D020BA19BAD1
:10022000884201D9012010BD4FF0FF3010BD1AB136
:10023000D30703D0521C07E0002010BD10F8013B8B
:1002400011F8014B1B1B07D110F8013B11F8014BB2
:100250001B1B01D1921EF1D1184610BD10B5431CD5
:1002600002E010F8011B71B18107FAD14FF00132A1
:1002700002C88C1A8C4314EAC211F9D0C01A0A06BB
:1002800003D0C01E10BDC01A10BD0A0401D0801ECC
:1002900010BD0902FCD0401E10BD032A40F2308080
:1002A00010F0030C00F0158011F8013BBCF1020FB7
:1002B000624498BF11F801CB00F8013B38BF11F838
:1002C000013BA2F1040298BF00F801CB38BF00F84F
:1002D000013B11F0030300F07980083AC0F0088078
:1002E00051F8043B083A51F804CBA0E80810F5E7B0
:1002F000121D5CBF51F8043B40F8043BAFF3008093
:10030000D20724BF11F8013B11F801CB48BF11F807
:10031000012B24BF00F8013B00F801CB48BF00F8D7
:10032000012B704702F0FF0343EA032242EA024234
:1003300000F002B84FF000020429C0F0128010F063
:10034000030C00F01B80CCF1040CBCF1020F18BFB1
:1003500000F8012BA8BF20F8022BA1EB0C0100F044
:100360000DB85FEAC17C24BF00F8012B00F8012B17
:1003700048BF00F8012B70474FF0000200B513464C
:1003800094469646203922BFA0E80C50A0E80C50B5
:10039000B1F12001BFF4F7AF090728BFA0E80C5066
:1003A00048BF0CC05DF804EB890028BF40F8042B5F
:1003B00008BF704748BF20F8022B11F0804F18BFCC
:1003C00000F8012B704770477047704710B5203A0E
:1003D000C0F00B80B1E81850203AA0E81850B1E8FE
:1003E0001850A0E81850BFF4F5AF5FEA027C24BFB4
:1003F000B1E81850A0E8185044BF18C918C0BDE8AB
:1004000010405FEA827C24BF51F8043B40F8043B73
:1004100008BF7047D20728BF31F8023B48BF11F828
:10042000012B28BF20F8023B48BF00F8012B704782
:10043000754600F02BF8AE4605006946534620F09D
:100440000700854618B020B5FFF7CCFEBDE8204078
:100450004FF000064FF000074FF000084FF0000B80
:1004600021F00701AC46ACE8C009ACE8C009ACE833
:10047000C009ACE8C0098D46704710B50446AFF31B
:1004800000802046BDE81040FFF797BE0048704747
:10049000DC1E002001491820ABBEFEE7260002004A
:1004A0007047000001490020087070477C0100205F
:1004B00002480078002800D0012070477C0100200D
:1004C0002DE9FC41484C2078002828D0002601283E
:1004D00027D00125454F04283BD0022852D00328BD
:1004E0001DD1A088010A8DF800108DF80100E08868
:1004F000010A8DF802108DF803002089010A8DF899
:1005000004108DF805006089010A8DF806108DF839
:10051000070008226946102000F0DEFE2670BDE8C4
:10052000FC81607808B1012100E0002164220020F4
:1005300005F08EFC0128F2D020B105208DF80000D6
:100540000122E7E702F0FAFC00F5FA70E06004200F
:1005500043E002F0F3FCE1688842E0D31021234835
:10056000FFF7E8FE22493D70C888020A7A70B87029
:10057000FD7002223A710889010A7971B871FD7122
:100580002270CCE737F8010F41BAB888BB78BA7946
:1005900040BA3BB1A388994200D9A180E38899422F
:1005A00000D2E1803AB12189884200D92081618955
:1005B000884200D26081E078401CC0B2E07004281C
:1005C00007D3E670607850B100206070A078401CBE
:1005D000A070A078062804D3032020709FE7012094
:1005E000F3E725709BE700007C0100208C0E0020C3
:1005F000840700200948017809B1012070470121D2
:100600000170002141708170C17081804FF6FF72CE
:10061000C280018142810846704700007C010020B1
:100620002DE9F04F8B46824600214FF6FF794F1C93
:10063000002607F0FF0C4C46354633460AEB031004
:1006400000EB810898F8030050B1B8F8010040BAF7
:10065000A04200D20446B04200D906466D1CEDB25D
:100660005B1CDBB2032BE9D3022D02D3A6EB040003
:1006700000E0484680B203D3584501D8012300E08A
:10068000002302F821C002EB8101040A4C7088703B
:10069000CB70F9B20429CAD3BDE8F08F014900201C
:1006A000087070478C01002070B51E4C207800281F
:1006B00030D002F043FC616803261B4D884201D90B
:1006C000267004E02078022825D0032822D116497C
:1006D00010222039A1F14000FFF7DFFD124910225E
:1006E0001039A1F14000FFF7D8FD0F48102229462C
:1006F0004038FFF7D2FD0C4A6178303A02F1100021
:10070000FFF78EFF084940226039202000F0E4FD09
:100710000020207070BD284605F044FB0128CFD191
:1007200070BD00008C010020FC0E00202DE9FE436E
:100730002C4E317811B10120BDE8FE832A4F2B4D9C
:1007400070700024A7F1040857F8241004226846AA
:1007500001F030F818F8040005F82400BDF8021084
:1007600005EB84000A0A427081709DF8081001B1FF
:100770000121641CE4B2C170042CE5D31B48102194
:100780001030FFF7D7FD1A486C46C188ADF800104D
:100790000189ADF80210008BADF8040000200123A0
:1007A00005EB8001421C0A7434F81000070A4F74EC
:1007B0008874D0B2CB740328F2D3042028770B4876
:1007C000102120300446FFF7B5FD204605F0EAFA77
:1007D0000220307002F0B2FB41F2883108447060B0
:1007E0000020A9E78C010020587E0008DC0E0020C4
:1007F0008407002070B5044600688168C943C907B2
:1008000017D1816821F00101816002F097FB054654
:100810000AE000BF02F092FB401B022804D92068C6
:100820008068C043C00706D020688068C043C00706
:10083000F0D0002070BDA06A40F01000A062E06A15
:1008400040F00100E062012070BD0000F8B5002614
:100850000446009600688168C943C9072DD08168A5
:1008600041F001018160164816490068B0FBF1F0C3
:1008700000E0401E00900028FBD102F05FFB05461F
:1008800016E000BF02F05AFB401B022810D9206876
:100890008068C043C0070BD0A06A40F01000A0627F
:1008A000E06A40F00100E06284F824600120F8BDB5
:1008B00020688068C043C007E4D10020F8BD000074
:1008C0004002002040420F002DE9F74F8AB0012678
:1008D0000A980025E44C0F464FF00C094FF0FF0832
:1008E0004FF6F87A112871D00CDCA0F104000D2825
:1008F00024D2DFE800F0262323232DE6E6E6EDA64A
:100900002323FD004FF0020BB0F5897F7ED00ADC77
:100910004FF00B0120283CD02B2878D0A0F5807018
:1009200011380BD124E1D0490422A0F58070097858
:1009300013386DD001286CD002286BD08DF8008060
:1009400040E0CAA0032200680090694604207CE1D0
:1009500002A901A805F050FA01280AD070B18DF85B
:1009600000508DF801508DF802800322694608205E
:100970006BE1082020820DB0BDE8F08F8DF800609B
:100980009DF804008DF801009DF808008DF8020024
:10099000EBE7022A01D3387850B132B13E78012E0C
:1009A00015D0072E37D0042E39D08DF8001009E06D
:1009B00004F060FE00286FD07878FFF7B7FED0E033
:1009C0008DF80060012269460A983EE1C4E0A84E15
:1009D0000024A6F1140702AD56F82410042206A83C
:1009E00000F0E8FE385D05F82400BDF81A1005EBAC
:1009F00084000A0A427081709DF8201001B1012123
:100A0000641CE4B2C170042CE6D312E0B7E03CE011
:100A1000F7E003E111E102A805F0C4F902E002A841
:100A200004F0D2FF012808D018B10295039504956F
:100A30000595102202A9202007E120202082A6721D
:100A40003BE003AA01A902A804F0E6FD01280DD0AD
:100A500070B18DF800908DF8015040468DF80280FD
:100A60008DF80300042269460D20EEE00D2023E0FE
:100A70008DF800509DF808008DF801009DF80400E5
:100A80008DF802009DF80C00EAE7022A05D28DF8E5
:100A90000410012201A90CE067E0388840BA05F093
:100AA000C9F8012807D000B104208DF80000012208
:100AB00069462B20C9E02B20208202F03FFA6061BA
:100AC00059E70A980DB03946BDE8F04F01F090BAE9
:100AD0000120029500958DF80C8003AB6A4602A9AF
:100AE00001F01CF9029808B1504509D9002000E036
:100AF0002CE003AB6A4602A901F010F9029808B194
:100B0000504509D906208DF804008DF807508DF85E
:100B100006508DF8055015E09DF80C00A52803D06F
:100B200007208DF8040001E08DF804509DF80000C6
:100B30008DF805009DF801008DF806009DF8020073
:100B40008DF80700042201A90C207EE004F092FD3C
:100B500058B1FFF74FFD04E004F08CFD28B101F01F
:100B6000B7F800287FF42CAF05E78DF8009029E74F
:100B70008DF800500122694640F2111065E020789E
:100B8000012802D08DF8006018E0374901AB04AAB3
:100B90003031002001F0C2F8334E02AB303603AAE8
:100BA000311D012001F0BAF8306828B1504503D852
:100BB00072680AB1524506D906200DE00122694645
:100BC0004FF4897041E09DF80410A52903D19DF8E8
:100BD0000810A52903D007208DF80000EEE7B0F536
:100BE000A04F02D98DF800B0E8E7002005F066F8C4
:100BF000A5716571032020700221042000F0CCFB58
:100C0000B9E6012906D08DF800600122694640F25C
:100C100013101AE0E571257266721CE0012906D0F6
:100C20008DF80060012269464FF48A700DE01120B2
:100C3000E071257284F809B00DE0012908D08DF823
:100C400000600122694640F2151000F045FB92E673
:100C5000E5712572657222700DB00221BDE8F04F7A
:100C6000052000F099BB00004401002001000000B5
:100C7000447E0008044908B14A88028000200870B8
:100C80004880024870470000940100200C0F0020AB
:100C9000F0B51C49002601254A881B4B541CA4B200
:100CA000082A26D2DFE802F004090F0F0F0F1215F1
:100CB000A52801D118704D80F0BD5B2811D1587066
:100CC00002204880F0BD98544C80F0BD98710720F8
:100CD000F7E7D8719A7940EA02208880B0F5807FE2
:100CE00001D94E80F0BD08224A800028FAD14A80FE
:100CF000F0BD8E880836B242E5D998544C800D700C
:100D0000F0BD0000940100200C0F002002480021DB
:100D10004180017070470000940100200148007874
:100D2000704700009401002010B5154C0020411EB2
:100D300020706171E171E08120712082FFF7E6FF90
:100D400001F05CFAFFF7AAFCFFF7ACFB00F0DCFE59
:100D500004F0C4FA0021072000F01EFB09A000F0F7
:100D600043F812A000F040F816A000F03DF8012072
:100D700020700146BDE81040032000F00DBB0000CC
:100D8000440100200D0A3D3D3D3D3D3D3D3D3D3D85
:100D90003D3D3D3D3D3D3D3D3D3D3D3D3D3D3D3D83
:100DA0003D3D3D3D3D3D3D0D0A00000020205531BB
:100DB000204A69672053797374656D2052656164B8
:100DC000790D0A003D3D3D3D3D3D3D3D3D3D3D3DB7
:100DD0003D3D3D3D3D3D3D3D3D3D3D3D3D3D3D3D43
:100DE0003D3D3D3D3D0D0A0070B50646FFF736FA24
:100DF00085B202F0A3F8044605E000BF02F09EF8B9
:100E0000001B322805D82946304600F03BFE012859
:100E1000F4D070BD1CB5002205218DF805206B466D
:100E20005FF00A02B0FBF2F402FB1404B0FBF2F034
:100E3000491E49B230345C540028F3D15818FFF7EA
:100E4000D3FF1CBD2DE9F0475D4C0025012694F928
:100E500005300A216F1EF006C2B04FF004094FF4AE
:100E6000897A04F130024FF480780B2B18D2DFE836
:100E700003F0061A212A79171717171735000120D2
:100E800004F008FE03F07EFD38B1002004F002FEFD
:100E90008DF80090012269464FE004F027FA667150
:100EA00042B0BDE8F08703F0D9FD0028EDD1022063
:100EB000E56153E04FF48033E561636212682262BA
:100EC000A062A57108E04FF40030606250682062B3
:100ED0003C48E561A062A6716171E1E7D4E90701D0
:100EE000884238D2091AFF2901D9454600E08DB25F
:100EF00005F107084FF6F87108EA0108616A2A4609
:100F000001446846083101F0F1F9A84506D9A8EB7B
:100F100005010DEB0500FF22FFF704FAE169A06A65
:100F200042460844694603F053FE80B1002004F0B5
:100F3000B1FD8DF80091012240A9504600F0CCF996
:100F4000267067710021012000F026FAA8E7E06909
:100F50004044E061A4E7A07910B1042060719FE7EC
:100F60000320FBE703F040FD00224146164801F054
:100F7000DFFFDFF858904FF4004800224146484612
:100F800001F0D6FF0A2001F0E1FE01224146484669
:100F900001F0CEFF012004F091FE002004F07AFD64
:100FA0008DF8005001226946504600F095F92670F0
:100FB000677142B00021BDE8F047022000F0ECB9B3
:100FC000440100200050000800080140000C0140CE
:100FD00010B501F0B3FF1C4B9978A9B1012902D0DB
:100FE000022911D102E04FF4FA7100E07D219A69E3
:100FF000821A8A4207D3D97819B10021D970986131
:1010000004E00121FAE709B90120D8700020DC785A
:101010000146024694B15B78082B0FD2DFE803F05B
:101020000E04060D080A0C12012007E0012105E05C
:101030000120FBE7012100E001200122BDE8104072
:1010400000F03CBC0120F5E7440100202DE9F0410F
:1010500086B0FFF763FE0127864C00283FD002A828
:10106000FFF708FE05AA8449CDE9001203AB04AAE4
:10107000BDF8081000F00DFF70B3BDF80C00F0B122
:101080002179C1B1E189A1F57F42FF3A22D0491C03
:101090008DB2A8420FD079A0FFF7A6FE2846FFF731
:1010A000B9FE7EA0FFF7A0FEBDF80C00FFF7B2FE70
:1010B0007CA0FFF799FEBDF80C00E0812771BDF818
:1010C0000C00A081BDF814206B49BDF81000FFF79B
:1010D000FBFB04E00121DBE773A0FFF785FEFFF7D0
:1010E00077FFFFF7E5F940F6B8360025C8B900F0FC
:1010F00011FDB0B901F022FFE16A401AB04201D9F6
:10110000E07A18B1E07A012806D00AE004F0CCFEBB
:1011100001F014FFE062E77204F0C6FE012800D07F
:10112000E57204F0F5FE04F009FBFFF7BDFAFFF7E6
:10113000C7F900F0F7FC208A4FF0FF08082807D015
:101140000C270D2820D02B284BD0202863D07DE001
:1011500002A901A804F050FE012877D048B18DF80B
:1011600000508DF801508DF8028003226946082056
:101170004DE08DF800709DF804008DF801009DF899
:1011800008008DF80200F0E703AA02A901A804F004
:1011900043FA01280ED0B8B18DF800708DF80150D7
:1011A00040468DF8028000BF8DF803000422694696
:1011B0000D202CE001F0C2FE6169401AB04245D911
:1011C00044A000680090F1E78DF800509DF80400FD
:1011D0008DF801009DF808008DF802009DF80C00C4
:1011E000E2E7002004F026FD012807D000B104202A
:1011F0008DF80000012269462B2008E001F09EFED8
:101200006169401AB04221D98DF80070F2E700F010
:1012100063F825821AE0A07A0728684605D004F012
:10122000D3FB012804D048B90CE004F0BBFDF8E77B
:1012300001F084FE6169401AB04207D9009501951A
:1012400002950395102269462020E0E700F0E4FFB4
:101250002078032806D0042809D106B0BDE8F04163
:1012600000F0A2B806B0BDE8F041FFF7EBBD06B054
:10127000BDE8F08144010020D50A00205B574152AF
:101280004E5D20534551206D69736D617463683AFA
:10129000206578706563743D000000002C20676F46
:1012A000743D00000D0A00005B5741524E5D204620
:1012B00072616D65204352432F6C656E67746820C0
:1012C0006572726F722C2064726F707065640D0AA3
:1012D000000000000C00FFFF38B50B460B490092E0
:1012E0008A8901460A4800F054FD054601F026FEB1
:1012F000044604E001F022FE001B322805D82946EE
:10130000034800F0BFFB0128F4D038BD44010020A1
:10131000D50B0020F0B5174E87B000246D46A6F11E
:10132000080700BF56F82410042204A800F042FA6F
:101330009DF81800002801D0BDF8120002D04FF02F
:10134000010201E04FF00002395D05F8241005EBC1
:1013500084014FEA10234B7004F101048870E4B259
:10136000CA70042CDED310226946142000F004F861
:1013700007B0F0BD347E000808B50B460092014668
:101380000022044800F005FD0146BDE80840014880
:1013900000F078BBD50B0020024A507091700120FC
:1013A000D0707047440100207CB5654C172601259C
:1013B00094F9070018287AD2DFE800F00C0E181A0A
:1013C000212326282B2D303235373A3C3F4E525DB3
:1013D0005F7A7C8F5BA067E004F0C6FC0AE062A045
:1013E00045E064A060E0E079401CA6E064A05BE01A
:1013F00004F046FC01286FD00028F2D0EFE769A086
:1014000052E004F0EBF8F5E76FA04DE004F0AAF825
:10141000F0E776A048E004F001FBEBE77DA043E0B5
:1014200004F01AFBE6E785A03EE004F0B9F8E1E736
:101430008BA039E004F078F8DCE7607A08B1012885
:1014400006D18FA0FFF7D0FCFFF764FF607A08B1E8
:10145000172072E0112070E000F064FA94A023E0FD
:1014600004F022FD012837D00028BAD095A0FFF75C
:10147000BBFC2572B7E799A016E001A9684604F005
:10148000BBFC012828D00028A9D19AA0FFF7ACFC0A
:101490009DF80000FFF7BEFC97A0FFF7A5FC9DF8A4
:1014A0000400FFF7B7FC6DA0FFF79EFC9BE712E07E
:1014B00092A0F9E7684604F04DFE01280CD09DF893
:1014C0000010084304D028A0FFF78EFC257202E02C
:1014D00028A0FFF789FCE6717CBD00F01BFA607A5A
:1014E000012813D0022814D040F21516207A98B1A2
:1014F00088A0FFF779FC05208DF8000001226946DD
:101500003046FFF7E9FE0021012012E040F21316F9
:10151000ECE74FF48A76E9E785A0FFF765FC002049
:101520008DF80000012269463046FFF7D5FE002104
:101530000220FFF731FF2570FF20E0717CBD000025
:10154000440100205B544553545D205534205A65B6
:10155000726F2053656E736F722830783130292E88
:101560002E2E0D0A0000000020204641494C0D0A95
:10157000000000002020504153530D0A00000000DD
:101580005B544553545D205534205374617274206C
:1015900043616C69622830783131292E2E2E0D0A74
:1015A000000000005B544553545D205534204669CB
:1015B0006E6973682043616C696228307831322922
:1015C0002E2E2E0D0A0000005B544553545D20550D
:1015D000342043616E63656C2043616C696228301E
:1015E000783133292E2E2E0D0A0000005B5445530E
:1015F000545D205534205265616420466C617368E7
:1016000020506172616D2830783134292E2E2E0DD4
:101610000A0000005B544553545D2055342053614B
:10162000766520466C61736820506172616D283068
:10163000783135292E2E2E0D0A0000005B544553BB
:10164000545D20553420466163746F727920526571
:101650007365742830783136292E2E2E0D0A00003D
:101660005B544553545D20553420414D53205A65F9
:10167000726F2830783230292E2E2E0D0A0000008D
:101680005B544553545D20414443204368616E6E72
:10169000656C732028564F312F564F322F414D53D2
:1016A000353630302F564444292E2E2E0D0A000098
:1016B0005B544553545D2055372050696E672E2E7C
:1016C0002E0D0A0020204641494C3A205537206F04
:1016D00066666C696E650D0A000000005B54455338
:1016E000545D2055372056657273696F6E2E2E2E0D
:1016F0000D0A0000202076002E0000005B544553A8
:10170000545D2055372053656C66546573742E2ED6
:101710002E0D0A003D3D3D20544553542052455363
:10172000554C543A204641494C203D3D3D0D0A0060
:101730003D3D3D205445535420524553554C543A59
:101740002050415353203D3D3D0D0A0070B50D46DC
:101750000646002403E0305DFFF79AFA641CAC42B1
:10176000F9D370BD0F4808B5016841F4000101606C
:10177000012001F0EBFA0C4800F098FE69461120B8
:1017800000F054F89DF8001000290AD0002808D075
:10179000064940F6E44209885143B1FBF0F00449A0
:1017A000086008BD08240140EC0C0020BAF7FF1FB8
:1017B0002C0100202DE9F84F002481462546501EBB
:1017C00016468A4664F30705202804D3C9F800406A
:1017D000C9F8044023E04FF0000847460AE0694694
:1017E000504600F023F89DF800100029EED07F1C31
:1017F0008044FFB2B742F2D308EB5600B0FBF6F0DC
:10180000094980B260F31F440968484340F6FF71FC
:10181000B0FBF1F0C9E90040012161F30705C9F807
:101820000850BDE8F88F00002C010020FEB50C0028
:101830004FF0000100910191029100D0217001252B
:10184000CDE900050720029069460E4800F09AFE97
:1018500008B10020FEBD0B4801F07EF80A210948BE
:1018600000F0DCFF0028074802D001F0D5F8F0E7CF
:1018700000F006FF86B2034801F0CEF804B12570EF
:101880003046FEBDEC0C002010B500F043F800F02F
:1018900039F800221146104600F010F8064C0022DC
:1018A0001021204601F044FB20460022BDE81040F4
:1018B000202101F03DBB0000000C014070B5154631
:1018C0000E4608B1012200E000220D4C4FF4805179
:1018D000204601F02DFB0EB1012200E000224FF462
:1018E0000051204601F024FB0DB1012200E000224E
:1018F0002046BDE870404FF4804101F019BB000064
:10190000000C014000224FF40051014801F010BBCF
:101910000010014000220821014801F009BB00002D
:10192000000C014001220821014801F001BB000028
:10193000000C014070B5D0F8841000293ED0C96B6E
:1019400000293BD009684968B0F890308AB29342C8
:1019500001D3991A03E0B0F88C10891A19440029B0
:101960002CDDB0F88C408C4200D22146E31AB0F84E
:101970008E4089B26343DC1703EB146424F0FF0448
:101980001B1B9BB215E000BFB0F88040B0F882503E
:10199000641C04F07F04A54207D0D0F88850B0F84A
:1019A0008060ED5C8555A0F8804090F88E4023441F
:1019B000DBB2491E89B2E7D2A0F8902070BD0000CA
:1019C00010B5164804F018FC1448943004F014FCC8
:1019D000124C13491348B4F88C2002F071FFD8B1AF
:1019E00000200E494FF48072091F08700E490F48FD
:1019F00002F066FF0B48C06B18B100684068A4F89D
:101A000090000A48C06B002805D000684068034970
:101A10009431A1F8900010BD0120E2E704000020FD
:101A200058030020BC0D002058040020740D002035
:101A3000FEE70020704700207047000010B500222C
:101A40000449054804F00AFF0449034804F000FF74
:101A5000002010BDE417002020110020E415002014
:101A600070B50D4604460146054804F0F1FE0448F1
:101A700004F0D2FE20462968FFF768FE002070BD02
:101A800020110020094A10B5D2F8B822D2F8142249
:101A90000AB1012010BD0A460146044804F0DEFEEA
:101AA000BDE81040014804F037BF000020110020BD
:101AB0004FF44861484343F68C41B0FBF1F080B2EB
:101AC00070470000014801F031B80000040E00200A
:101AD000014801F02BB80000480E002030B590F806
:101AE00040500124AC40C56B6C600468636043687F
:101AF000102B036803D099600068C26030BD9A6003
:101B00000068C16030BD704701490020087070470F
:101B1000B801002002480078002800D0012070475A
:101B2000B80100202DE9F04F654D87B028780028D6
:101B300060D006274FF0020A01281FD0022823D0C8
:101B4000DFF880814FF00009032845D005F1160425
:101B5000A11FAE1C042851D0052875D0062849D1F4
:101B60000127B2463D460020A6468B464FEA0D06A9
:101B70001AF800C0BCF1000F72D072E004F0F4F863
:101B8000012837D0C8BB65E04F4C697834F81100A4
:101B900099B1FFF78DFF0646687804EB400030F8F6
:101BA000020CFFF785FF301A82B20021084604F0CC
:101BB0004FF901281ED000BB07E04FF448614843AD
:101BC00043F68C41B0FBF1F0EEE701F0B7F900F518
:101BD000FA70A86003200CE001F0B0F9A96888420F
:101BE00008D388F8009001F0A9F900F57A70E86050
:101BF0000420287007B0BDE8F08F2FE098F800208F
:101C0000052762B188F8009030486A78008824F887
:101C1000120031F8121088420CD9401A0BE001F082
:101C20008DF9E9688842E5D9697824F8119006F8B9
:101C3000019013E0081A80B2322802D8012001E096
:101C400002E00020B05409E06878401CC0B268701F
:101C5000032803D285F800A0CCE701E02F70C9E784
:101C600000273BF810203EF81010914201D98B1A42
:101C700000E0531A401C705574194FEA122884F87A
:101C80000180A2700A0AE2702171190A6171083597
:101C9000A371C0B284F807C0EDB20328FFF468AFA7
:101CA0000FB1012000E000208DF80000192231461C
:101CB0001120FFF711FB024981F800909AE700001C
:101CC000B801002034010020687E0008840700204D
:101CD00070B50F48017809B1012070BD0121017074
:101CE0000B4B0021103341700A4A08469D1DA3F199
:101CF0000E0400BF32F8106023F8106025F81010B1
:101D00002154401CC0B20328F4D3002070BD000051
:101D1000B8010020687E000872B6FEE77CB51D465B
:101D200014460E4608B34FF400310822684600F00E
:101D3000DDFA56B19DF80210BDF8000061F31F40B6
:101D40009DF8031040EA0160306044B19DF8040042
:101D500020709DF8050060709DF80600A070002DB1
:101D600002D09DF8070028707CBD4FF48031DCE77D
:101D700013B548B14FF40031012201A8C91D00F08C
:101D80004FFB20B100201CBD4FF48031F4E703204D
:101D90001CBD70B50446A520049D20705B206070BA
:101DA000080AA070E170100A20716271280AA071FF
:101DB000E5712DB12A46194604F10800FEF76DFAC7
:101DC0000835ADB22946204600F049F8010A6155B0
:101DD0006119AD1C4870A8B270BD70B50446A5204D
:101DE000049D20705B206070A170100AE070227169
:101DF000280A6071A57125B12A461946E01DFEF733
:101E00004CFAED1DADB22946204600F028F8010A33
:101E100061556119AD1C4870A8B270BD70B504461B
:101E2000A520049D20705B206070A170100AE070F6
:101E30002271280A6071A57125B12A461946E01D54
:101E4000FEF72BFAED1DADB22946204600F007F84B
:101E50006055000A6119AD1C4870A8B270BD70B51C
:101E600005464FF6FF7000224AF201040EE0AB5C1B
:101E700058400023C60702D084EA500000E0400822
:101E80005B1CDBB2082BF5D3521C92B28A42EED314
:101E900070BD2DE9F0471E46DDE908981746044657
:101EA0000A2916D32078A52813D160785B2810D191
:101EB000E08845BA05F10A0081420AD1801E81B24C
:101EC0002046FFF7CCFF01466019008940BA8142E5
:101ED00002D00020BDE8F08717B1608840BA388092
:101EE00016B1A08840BA3080B9F1000004D02A466B
:101EF00004F10801FEF7D1F9B8F1000F01D0A8F8FC
:101F000000500120E6E72DE9F0471E46DDE908987C
:101F100017460446092918D32078A52815D16078DA
:101F20005B2812D1B4F8050045BA05F109008142D9
:101F30000BD1E81D81B22046FFF791FF01466019E1
:101F4000B0F8070040BA814202D00020BDE8F08717
:101F50000FB1A07838701EB1B4F8030040BA3080D9
:101F6000B9F1000003D02A46E11DFEF796F9B8F159
:101F7000000F01D0A8F800500120E7E72DE9F04755
:101F80001E46DDE9089817460446092916D320782D
:101F9000A52813D160785B2810D1B4F8050045BAA4
:101FA00005F10900814209D1E81D81B22046FFF701
:101FB00056FF6119B1F80710884202D00020BDE831
:101FC000F0870FB1A07838701EB1B4F8030040BAA2
:101FD0003080B9F1000003D02A46E11DFEF75DF91B
:101FE000B8F1000F01D0A8F800500120E7E7000089
:101FF0002DE9F04FDFF8F8817E4C92460E46012520
:1020000098F800200021277887B003464FF0030995
:10201000092809D020460A2B40787DD00B2B7CD094
:10202000002007B0BDE8F08F012A02D08DF80050E3
:1020300077E04FF00208BAF1090F3BD330883379CB
:1020400042BA708840BA000440EA0325707905431B
:1020500030D04FF6F87085422CD85AB36FB34FF496
:10206000003700BF07F10800C4E903056161DFF82C
:1020700084A16280A1800AF1080AB2798AF800205E
:10208000F2798AF80120327A8AF80220E1808B46C0
:10209000617000F053FFA0614FF480715648FEF765
:1020A00049F900F04FF941F207003C0B284404EBDA
:1020B00010360AE08DF8008033E04FF48037D1E726
:1020C000200300F0EBF848B3641CA642F8D88DF862
:1020D0000C50280A8DF80D00280C8DF80E00280EE3
:1020E0008DF80F009AF800108DF810109AF8011072
:1020F0008DF811109AF802008DF812000722394667
:1021000003A800F08DF948B13949032081F8008017
:102110000221FFF741F902E00AE02BE005E08DF82B
:1021200000B001226946092020E08DF80090F8E710
:10213000022A02D08DF8005002E028B18DF800008C
:10214000012269460A2011E000F0F8FEA061A08893
:102150005146401CA080304605F0FEFD20B1607065
:1021600000210120FFF718F96078E7E7FFF7B4F8DE
:10217000012056E7022A04D08DF80050012269465A
:1021800030E08DF8041010B18DF8040006E0E2880C
:102190005AB11948E16800F043F918B19DF80400FC
:1021A00018B110E08DF804900DE0D4E904018142EB
:1021B00003D00A208DF8040005E03846A521FFF77A
:1021C000D7FD0028EED1207870B10020207088F86B
:1021D00000509DF8040048B101200121FFF7DCF810
:1021E000012201A90B20C1E70120EFE70320F4E75A
:1021F000440100209C0100201E1000200548002101
:102200000170416101614180818041708161C180C3
:10221000704700009C01002038B5154C207802283A
:1022200025D100F08BFE13498A69801A42F21072A0
:1022300090421CD94878002802D100BF4FF00C0012
:102240008DF800004FF00100207002D14FF00C001B
:1022500048704FF000014FF00100FFF79DF8012298
:1022600069460A20FFF738F803A0FEF7BDFD38BD28
:10227000440100209C0100205B4552524F525D20DA
:1022800055706C6F61642074696D656F75742C2076
:1022900061626F727465640D0A00000070B50446D7
:1022A00000F0AAF800F07CF800281CD00E4D0022A7
:1022B0001021284600F03CFE202003F069F8C4F30A
:1022C000074003F065F8C4F3072003F061F8E0B2BB
:1022D00003F05EF801221021284600F029FEBDE837
:1022E000704000F05DB870BD000801402DE9F0417C
:1022F000134F15460C46064600221021384600F0C2
:1023000017FE032003F044F8C4F3074003F040F83D
:10231000C4F3072003F03CF8E0B203F039F80024DE
:1023200005E0FF2003F034F83055641CA4B2AC4241
:10233000F7D33846BDE8F0410122102100F0F8BD86
:102340000008014010B500F057F8144C002210218D
:10235000204600F0EDFD012003F01AF8002003F004
:1023600017F801221021204600F0E2FD00F018F8D5
:1023700000F042F800221021204600F0D9FD312063
:1023800003F006F8002003F003F801221021204694
:1023900000F0CEFDBDE8104000F002B8000801409A
:1023A0002DE9F04100F0CAFD124E04460022102132
:1023B000304600F0BDFD052002F0EAFF4FF4FA7749
:1023C000FF2002F0E5FF054600F0B8FD001BB84213
:1023D00007D901221021304600F0AAFD0020BDE8F7
:1023E000F081E807ECD101221021304600F0A0FD79
:1023F0000120F4E70008014010B5084C002210212C
:10240000204600F095FD062002F0C2FF2046012282
:10241000BDE81040102100F08BBD00000008014015
:102420002DE9F04717460D468046DFF87C9036E0F0
:10243000E8B2C0F58074A74200D83C46FFF7DCFF45
:10244000FFF7AEFF00282DD000221021484600F0F3
:102450006FFD022002F09CFFC5F3074002F098FFD9
:10246000C5F3072002F094FFE8B202F091FF0026C6
:1024700006E000BF18F8060002F08AFF761CB6B22C
:10248000A642F7D301221021484600F051FDFFF784
:1024900087FF002806D0381B2544A04487B2002FB0
:1024A000C6D10120BDE8F08700080140F8B500253D
:1024B0000446009590F8240001280BD0012084F8F0
:1024C00024002046FEF796F92046FEF7BFF90600E5
:1024D00002D050E00220F8BDA06A20F4885040F0FD
:1024E0000200A062022001F081FA25490968B1FBCF
:1024F000F0F0400000E0401E00900028FBD1206872
:10250000816841F00801816000F018FD074608E08D
:1025100000F014FDC01B0A2803D92068806800075A
:1025200015D4206880680007F2D42068816841F0E3
:102530000401816000F002FD074612E000F0FEFC9D
:10254000C01B0A280DD920688068400709D5A06AF9
:1025500020F0020040F01000A06284F82450012016
:10256000F8BD206880684007E8D4A06A20F0020027
:1025700040F00100A06284F824503046F8BD00000D
:1025800040020020F8B50024009490F8242025464D
:10259000012A12D0012280F824204A681F23072A2A
:1025A0000DD20668776B521E02EB820293409F4366
:1025B0000B6893401F43776319E00220F8BD06685B
:1025C0000D2A0AD2376BD21F02EB820293409F433F
:1025D0000B6893401F43376309E0F76A0D3A02EB3B
:1025E000820293409F430B6893401F43F7620A683F
:1025F000072306680A2A0AD3F7680A3A02EB42025E
:1026000093409F438B6893401F43F76008E037690E
:1026100002EB420293409F438B6893401F43376114
:102620000A68102A01D0112A20D1124B02689A425E
:1026300017D193681B0219D4936843F40003936085
:102640000968102912D10C490C4A0968B1FBF2F152
:1026500001EB8101490000E0491E00910029FBD1F6
:1026600004E0816A41F020018162012480F8245055
:102670002046F8BD002401404002002040420F00E7
:102680000068C06C704700002DE9F0414FF0000772
:1026900004003D467ED0A06A002628B9E66284F890
:1026A0002460204600F07EF82046FEF7A3F8A16AD9
:1026B000C90600D420B1A06A40F01000A06269E011
:1026C000A16A21F4885141F00201A1626268E169C6
:1026D000237B0A4347EA43010A43A1684FF480770A
:1026E000B94209D0012907D05FF0000194F814C065
:1026F000BCF1010F02D00AE03946F7E7F3B1A36A53
:1027000043F02003A362E36A43F00103E36223681A
:10271000D3F804C02CF4694C4CEA010CC3F804C093
:1027200021688B68DFF870C003EA0C0313438B60E9
:10273000A168B9420BD0012909D00CE0DFF85CC0D8
:10274000A3690CEB43330B4343F40061DFE7218AB9
:102750000D05A5F580152168CB6A23F470032B4382
:10276000CB62216889680E4B1940914208D1E6621C
:10277000A16A21F0020141F00101A162BDE8F081EE
:10278000A06A20F0020040F01000A062E06A40F071
:102790000100E0620120F1E7FDF7E1FF00E0FFFF4B
:1027A000FE0E1FFF10B586B000210091019102912D
:1027B000039100681549884225D11548816941F483
:1027C00000718161816901F400710491816941F0B6
:1027D00004018161816901F004010491816941F082
:1027E000080181618069032400F0080004900094CE
:1027F00069460194074800F0BBFA00946946064810
:10280000019400F0B5FA06B010BD000000240140AC
:102810000010024000080140000C01402DE9F8437F
:1028200000270D460446009700F088FB804620688C
:102830008168C90508D5A06A40F02000A06284F82C
:1028400024700120BDE8F8834168C90503D4C06A3B
:1028500010F4700F2AD0022001F0C8F83B49096833
:10286000B1FBF0F62068036939490B424FEA610178
:102870004FEAA1121FD1C3684FEA611C13EA0C0F83
:1028800019D103690B4225D1C068104222D114200E
:1028900023E0681C0AD02DB100F050FBA0EB08002B
:1028A000A84203D920680068800725D52068006801
:1028B0008007EED52DE003690B4202D1C1681142B9
:1028C00006D0026923490A4206D1C068084203D1F2
:1028D000542002E0292000E0FC204643009816E046
:1028E000681C11D02DB100F029FBA0EB0800A84214
:1028F0000AD90098B04207D2A06A40F00400A06252
:1029000084F8247003209DE70098401C0090B0429A
:10291000E6D321686FF012000860A06A40F40070EE
:10292000A06220688068C0F3424007280CD1207B59
:1029300050B9A06A20F48070A062A06AC00403D4D9
:10294000A06A40F00100A06200207BE74002002066
:10295000244992244992240070B5044690F824003A
:1029600001280DD0012084F824002046FDF76EFFD9
:1029700002004FF0000005D084F82400104670BD1E
:10298000022070BDA16A40F20123994341F4807195
:10299000A1621F4D23681F49AB4218D10E6816F47F
:1029A000702F14D0A66A46F48016A6620E687605CB
:1029B00005D5A66A26F4005646F48056A662A66A95
:1029C000F6040AD5E66A26F00606E66206E0A66A7E
:1029D00026F48016A6625E68E9E7E06284F82400C7
:1029E0006FF00200186020688368C3F34243072B2E
:1029F00005D1A84208D1096811F4702F04D081686C
:102A000041F480118160B9E7816841F4A001F9E7E0
:102A1000002801400424014010B5044690F8240029
:102A2000012807D0012084F824002046FDF7E2FEAB
:102A300010B107E0022010BDA16A21F4885141F0D5
:102A40000101A162002184F8241010BD10B590F896
:102A500021100022022905D00421816380F8202062
:102A6000012010BD01680B6823F00E030B600168A4
:102A70000B6823F001030B6090F84030C46B012118
:102A800001FA03F3636080F8211080F820201046DB
:102A900010BD000010B590F821100024022903D0C9
:102AA0000421816301243DE001680A6822F00E02DE
:102AB0000A6001680A6822F001020A601A4A016885
:102AC000914201D1012121E0174A1432914201D1F2
:102AD00010211BE0144A2832914201D1891515E0DA
:102AE000114A3C32914201D189140FE00E4A503212
:102AF000914202D14FF4803108E00B4A6432914296
:102B000002D14FF4801101E04FF08071064A083A7B
:102B10005160012180F82110002180F82010416BC4
:102B200001B18847204610BD080002402DE9F05F42
:102B3000C16B0C6801680B68D0F840C0042202FA2F
:102B40000CF2494DDFF824A1494E4A4FDFF828B175
:102B5000DFF828E122422CD05A072AD50A689206CB
:102B600003D40A6822F004020A600168A94201D174
:102B7000042219E0514501D1402215E0B14202D1B1
:102B80004FF4806210E0B94202D14FF480420BE072
:102B9000594502D14FF4802206E0714502D14FF42D
:102BA000800201E04FF080622F4908394A60C16A13
:102BB0003BE04FF0020808FA0CF818EA040F4FF057
:102BC00000094FF0010235D05FEA837832D50B68F7
:102BD0009B0605D40B6823F00A030B6080F82120C4
:102BE0000168A94201D1022219E0514501D12022F8
:102BF00015E0B14202D14FF4007210E0B94202D1A7
:102C00004FF400520BE0594502D14FF4003206E078
:102C1000714502D14FF4001201E04FF000721249E9
:102C200008394A6080F82090816A00291AD0BDE8EE
:102C3000F05F0847082505FA0CF5254212D01B075E
:102C400010D50B6823F00E030B6090F84010C36B97
:102C500002FA01F15960826380F8212080F8209007
:102C6000016BE2E7BDE8F09F080002401C00024053
:102C70003000024044000240580002406C00024014
:102C800030B528B308C8134914221944B1FBF2F136
:102C90008900C16310498163022141771A6843F6B4
:102CA000F0718A43D0E900142143D0E902452C4356
:102CB0002143046921434469214384692143114329
:102CC000196000214163012242770177084630BD37
:102CD000012030BDF8FFFDBF0000024070B5044682
:102CE00090F82000002501280CD0012084F8200055
:102CF00094F821600020012E06D084F820000225DF
:102D0000284670BD022070BD022684F82160A063B1
:102D10002068066826F0010606602046FEF7DEFE03
:102D2000E06A00282068016802D041F00E0106E048
:102D300021F0040101602068016841F00A0101608E
:102D40002068016841F001010160D9E770B50446CF
:102D500000F0F4F80546601C02D0044800780444F2
:102D600000F0ECF8401BA042FAD370BD3402002002
:102D70002DE9F84FDFF89C910024A9F1040B2346BC
:102D80000F2709F1040AABF1040EBBE00125A540B1
:102D90002A40AA4276D1DFF880C14E68A6EB0C0823
:102DA00066452BD00DDC032E34D005DC36B3012E66
:102DB00019D0022E2FD11BE0112E16D0122E2AD19F
:102DC00019E0B8F5881F19D006DCB8F5803F15D09A
:102DD000B8F5801F1FD111E0B8F5001F0ED0B8F56F
:102DE000041F18D10AE0CB6815E0CB681B1D12E068
:102DF000CB6808330FE0CB680C330CE08B682BB149
:102E0000012B4FF0080303D0456104E0042302E0E6
:102E1000056100E00023FF2A01D8064601E000F129
:102E200004064FEA840501D9A5F12005D6F80080F3
:102E300007FA05FC28EA0C0803FA05F548EA050834
:102E4000C6F800804D68ED005BD5344DAE6946F0A4
:102E50000106AE61AD6924F0030605F00105009599
:102E60002F4D06EB050CDCF80850A607360F07FAC5
:102E700006F825EA0805DFF8AC80404503D14FF09D
:102E8000000810E03DE0DFF8A080404502D14FF09F
:102E9000010808E0DFF89480404502D14FF00208B5
:102EA00001E04FF0030808FA06F848EA0508CCF8F4
:102EB00008804D68D9F80060ED024D4601D51643F3
:102EC00000E096432E604D68DAF80060AD0255468A
:102ED00001D5164300E096432E604D68DBF8006094
:102EE000AD035D4601D5164300E096432E604D6864
:102EF000DEF80060ED03754601D5164300E0964309
:102F00002E60641C0A6832FA04F57FF43FAFBDE816
:102F1000F88F00000804014000001110001002406A
:102F20000000014000080140000C01400010014079
:102F30000AB1016170470904FBE70000014880689D
:102F40007047000034020020024881680278114472
:102F50008160704734020020074810B5016841F0D5
:102F600010010160032000F075F80F2000F006F852
:102F700000F024F8002010BD0020024070B50D4D77
:102F800004464FF47A712878B1FBF0F00A490968D9
:102F9000B1FBF0F001F0E8F948B9102C07D200229B
:102FA0002146501E00F036F800206C6070BD0120F4
:102FB00070BD000034020020400200200C4808B51B
:102FC000816941F001018161816901F00101009194
:102FD000C16941F08051C161C06900F0805000902A
:102FE0000448416821F0E06141F00071416008BD92
:102FF0000010024000000140002809DB00F01F0221
:10300000012191404009800000F1E020C0F800114A
:1030100070470000F0B40E4B1B680C46C3F302234C
:10302000C3F10705042D00D90425191D072901D274
:10303000002300E0DB1E012606FA05F1491E2140AF
:1030400099409E40761E16403143F0BC04F0BDBE50
:103050000CED00E0064900F0070208684FF6FF0398
:10306000184040EA0220034A1043086070470000FD
:103070000CED00E00000FA0510B50C0607D501F0D4
:10308000070101EB810100EBC100103005E001EB0D
:10309000810100EBC10000F5A87099B232B10122A4
:1030A00002730181190C4181002010BD00220273BE
:1030B000C180F9E7704701EB810200EBC202D0F852
:1030C000D402526A03F0D7BD01EB810200EBC202C9
:1030D000D0F8D402D2F8642103F030BE70B50446B3
:1030E0000B0601F0070000EB800104EBC1014FF07B
:1030F00001024FF0000502D54A74103103E081F857
:10310000515101F5A871087094F89002012808D077
:1031100084F89022206804F071FA84F8905200201C
:1031200070BD022070BD70B5044601F00F00227919
:10313000904201D9012070BD0B0601F0070000EBA1
:10314000800104EBC1014FF001024FF0000502D5F0
:103150004A74103103E081F8515101F5A8718D7066
:10316000087094F89002012808D084F89022206812
:1031700004F0E1FA84F89052002070BD022070BD86
:103180002DE9F05F04685FEA424C0B788D69B4F872
:1031900050C04FF000064BF68F7948F2800A48F68F
:1031A0008F7B48F2C00E4FF480672AD54FF002089B
:1031B00008EBC308C44407EB4C07E45BC4F3090401
:1031C000A54203D32D1B8D6101D00BE08E610668F3
:1031D00036F8235005EA090585F4005545EA0A0545
:1031E00026F82350520609D50D78036833F82520B8
:1031F00002EA0B0242EA0E0223F8252084B30A8970
:1032000029E04FF0060808EBC308C44407EB4C075D
:10321000E45BC4F30904A54203D32D1B8D6101D0E7
:103220000BE08E61066836F8235005EA090585F43F
:10323000005545EA0A0526F82350520609D40B78B2
:10324000056835F8232002EA0B0242EA0E0225F84F
:1032500023202CB14A8949690068234604F04AFDBD
:103260002046BDE8F09F2DE9F05F054600680C465A
:103270005FEA426C16468B692278B0F850C048F677
:103280008F774CF280094FF4004B4FF6FF7E4FF4DE
:10329000806A4FF0000172D54FF0020808EBC208B7
:1032A000E0440AEB480C30F80C00C0F309008342FC
:1032B00011D91B1AA3610FD0730407D52E6836F8F5
:1032C00022303B4043EA090326F8223094F82420B8
:1032D000012A47D052E1A161607810B1012813D0D2
:1032E0001AE02868B0F85030184400EB0210B0F82B
:1032F0000424C2F30902A0F80424B0F8042442F420
:103300000042A0F8042407E02868B0F850301844C0
:1033100000EB0210A0F804146278286812B1012AA8
:1033200011D018E0B0F850100844217800EB0110DB
:10333000B0F80C14C1F30901A0F80C14B0F80C1487
:1033400041F4004105E0B0F850201044227800EB31
:103350000210A0F80C1421782846FFF7ACFE700488
:1033600072D40BE1626902446261E2690244E26183
:103370002369226A9A4203D31846111A04E03EE0F8
:1033800084F824100AB110462162617811B1012934
:1033900029D031E02968B1F850201144227801EB9E
:1033A0000211B1F80424C2F30902A1F8042401F2C5
:1033B00004413E2807D94209C30600D1521E0B889A
:1033C0004BEA822207E048B14208C30700D0521CF2
:1033D0000B880EEA822213430B800DE00A8842F428
:1033E00000420A8008E02968B1F850201144227890
:1033F00001EB0211A1F8040483B22289BAE04FF074
:10340000060808EBC208E0440AEB480C30F80C0050
:10341000C0F30900834211D31B1AA3610FD07304B8
:1034200007D42E6836F822303B4043EA090326F8D9
:10343000223094F82420012A51D09FE0A1616078C5
:1034400018B1012814D01BE03FE02868B0F85030D4
:10345000184400EB0210B0F80424C2F30902A0F8EB
:103460000424B0F8042442F40042A0F8042407E045
:103470002868B0F85030184400EB0210A0F804148B
:103480006278286812B1012A11D018E0B0F8501003
:103490000844217800EB0110B0F80C14C1F30901C5
:1034A000A0F80C14B0F80C1441F4004105E0B0F899
:1034B00050201044227800EB0210A0F80C14217860
:1034C0002846FFF7F8FD700458D42278296831F8AF
:1034D0002200384040EA090021F822004EE06269EB
:1034E00002446261E2690244E2612369226A9A420B
:1034F00003D31846111A216204E00AB11046216272
:1035000084F824106278296812B1012A28D02FE0AB
:10351000B1F850201144227801EB0211B1F80C24CB
:10352000C2F30902A1F80C2401F20C413E2807D98C
:103530004209C30600D1521E0B884BEA822207E0E3
:1035400048B14208C30700D0521C0B880EEA822201
:1035500013430B800CE00A8842F400420A8007E023
:10356000B1F850201144227801EB0211A1F80C04AB
:10357000628983B26169286804F0DAFB22782968DD
:1035800031F8220048F6BF73184080F0300048F24E
:103590008003184321F822000020BDE8F09F01F0CD
:1035A000070101EB810100EBC100D0F86C0170470D
:1035B0002DE9F04104460F0601F0070000EB800101
:1035C00004EBC1014FF001064FF0000502D54E7427
:1035D000103103E081F8515101F5A871022B0870F8
:1035E0000A61CB7000D10D7194F89002012809D0C6
:1035F00084F89062206803F0B1FE284684F8905267
:10360000BDE8F0810220FBE710B501F0070404EBF0
:10361000840100EBC101C1E959230022C1F86C21EA
:1036200081F8512181F85041006801F5A87104F03A
:10363000D7F8002010BD70B504460D4601F0070014
:103640002179884201D9012070BD29064FF000067A
:103650004FF0010206D500EB800104EBC1014A7472
:10366000103107E005EB850104EBC10181F85161E0
:1036700001F5A8718A70087094F89002012807D0AB
:1036800084F89022206804F092F8680702D006E0DF
:10369000022070BD04F52671206804F04AF884F811
:1036A0009062002070BD10B501F0070404EB8401A6
:1036B00000EBC101C1E90923012281F834200B6329
:1036C0000023CB624A7401F8104F006804F088F8B8
:1036D000002010BD1FB50446006804F007FB01047C
:1036E00003D5204601F026FC1FBD41050DD52068FD
:1036F00030F8441F21F480610180204600F016F963
:103700000021204600F02DF91FBD410405D5206899
:1037100030F8441F21F4804174E0810405D520680D
:1037200030F8441F21F400516CE0C10414D5206826
:1037300030F8401F21F004010180206830F8401F5C
:1037400021F008010180204600F003F9206830F8DC
:10375000441F21F4805155E0010540D5D4F80020E4
:103760000020694632F8203021F81030401CC0B2E9
:103770000828F7D332F8400F40F00100108020688D
:1037800030F8402F22F0010202802068B0F8442077
:103790005205FBD530F8442F22F4806202800020CD
:1037A000236831F8102023F82020401CC0B20828DC
:1037B000F6D3206830F8401F41F0080101802068EE
:1037C00030F8441F21F400610180206830F8401F68
:1037D00041F004010180204600F0F6F81FBD81058C
:1037E00009D5206830F8441F21F40071018020467B
:1037F00000F0B3F81FBDC005FCD5206830F8441FA9
:1038000021F4807101801FBD2DE9F041040004D036
:1038100094F89102002518B107E00120BDE8F0817D
:1038200084F89052204600F04DF8032084F891026D
:103830006571206803F076FF94E80F0003F0DCFE6A
:10384000022698BB0021206804F06AFA70BB0020B1
:1038500001270BE000EB800104EBC1014F740874F9
:10386000CD740D624D62401CC0B28D6221798142DF
:10387000F0D8002012E000BF00EB800104EBC10192
:1038800081F8515181F8500181F85351C1F86051CC
:10389000C1F86451401CC0B2C1F86851217981421D
:1038A000EAD894E80F0003F034FF10B184F8916275
:1038B000B3E7657384F89172206803F028FF002055
:1038C000ACE7000000B50068154985B0884225D1F5
:1038D000002002904FF4C05000900220019003207D
:1038E000039069460F48FFF743FA0F48C16941F456
:1038F0000001C161C069002200F40000049011467B
:103900001320FFF787FB1320FFF776FB00221146F9
:103910001420FFF77FFB1420FFF76EFB05B000BDFE
:10392000005C0040000801400010024070B50446F1
:1039300080790125022801D0FEF7EEF92946D4F856
:10394000D40203F0E3FAD4F8D402BDE8704003F0E7
:103950009FBAD0F8D40203F0C3BAD0F8D40203F06F
:10396000C9BA10B5044690F8900201280AD0012087
:1039700084F890026173206804F0D4F9002084F880
:10398000900210BD022010BDD0F8D42200F526719F
:10399000104603F0C7BA10B5044690F8900201280B
:1039A00010D0012084F89002206804F08AF90121E7
:1039B0002046FFF77FFB206803F0A7FE002084F875
:1039C000900210BD022010BD10B50446D0F8D402FC
:1039D00003F0E7FAA07A002804D00348016841F018
:1039E0000601016010BD000010ED00E010B50146B9
:1039F0000020234C012922D0022939D010291DD1C1
:103A000061682268D20119D51E48C1F38342C903F7
:103A1000805C0AD561681B4AC1F34041921E515C2B
:103A2000194AB2FBF1F1484301E018494843616883
:103A3000490203D440000321B0FBF1F010BD226A1B
:103A4000C2F30121012903D1920701D5C80310BD9A
:103A5000022905D1626A920702D549F6404010BD9D
:103A60000329FCD121688903F9D54FF2244010BD08
:103A700000F02AF96168C1F38131491C4900DBE794
:103A800000100240827E000800127A0000093D000A
:103A90002DE9F84305460078354CC00754D0E0695D
:103AA0000026C00008D4E06940F08050E061E06981
:103AB000012600F0805000902E480168C90512D4FC
:103AC0000168804641F480710160FFF737FA0746CC
:103AD00005E000BFFFF732FAC01B642823D8D8F8EE
:103AE0000000C005F6D5206A10F4407021D0A988E6
:103AF00001F4407181421CD0206A1F49012220F448
:103B000040700A6000220A602062C00711D0FFF7EF
:103B100015FA074641F2883808E000BFFFF70EFAB1
:103B2000C11B414502D90320BDE8F883206A800704
:103B3000F4D5206A696820F44070084320621EB101
:103B4000E06920F08050E0612878800705D5606842
:103B5000A96820F44040084360602878C00605D575
:103B60006068E96820F48000084360600020DBE7BB
:103B70000010024000700040400442422DE9F0472E
:103B80000F46050061D0434E306800F00700B84290
:103B900009D2306820F0070038433060306800F008
:103BA0000700B84251D128683B4C810712D5400725
:103BB00003D5606840F4E06060602878000703D5B2
:103BC000606840F4605060606068A96820F0F000B0
:103BD000084360602878C00728D06868012810D0A2
:103BE0002168022810D0890700292EDA616821F0A7
:103BF000030101436160FFF7A1F9804641F2883972
:103C00000DE021688903EFE78901EDE7FFF796F9F9
:103C1000A0EB0801494502D90320BDE8F0876068A0
:103C2000696800F00C00B0EB810FEFD1306800F054
:103C30000700B8420BD9306820F0070038433060E5
:103C4000306800F00700B84201D00120E5E728788D
:103C5000400705D56068E96820F4E06008436060CB
:103C60002878000706D56068296920F4605040EA8A
:103C7000C100606000F038F86168084AC1F30311C0
:103C8000515CC8400649086006480068FFF776F9AD
:103C90000020C2E70020024000100240927E00088F
:103CA00040020020380200200448054900684968A5
:103CB000044AC1F30221515CC84070474002002011
:103CC00000100240A27E00080448054900684968C7
:103CD000044AC1F3C221515CC84070474002002031
:103CE00000100240A27E00080E4A51680E4801F002
:103CF0000C03042B11D0082B0FD10C48C1F38343C4
:103D0000C903C05C0AD55168084AC1F34041921EFC
:103D1000515C054A5043B0FBF1F0704704494843F9
:103D2000704700000010024000127A00707E000808
:103D300000093D002DE9F84F040070D02078C04DF7
:103D4000C00749D06868C0F38100012807D06868BF
:103D5000C0F38100022809D16868C00306D528682D
:103D6000800339D560680028E7D035E06068B0F599
:103D7000803F0BD010B1B0F5A02F11D0286820F4EF
:103D800080302860286820F4802002E0286840F411
:103D900080302860606890B1FFF7D0F806460AE0EE
:103DA000286840F480202860F0E700BFFFF7C6F8DD
:103DB000801B642873D828688003F7D50CE0FFF7D0
:103DC000BDF8064605E000BFFFF7B8F8801B642881
:103DD000F0D828688003F7D420789A4E80074FF0F7
:103DE00001094FF0000839D5686810F00C0F07D0B2
:103DF0006868C0F38100022809D16868C00306D44E
:103E00002868800714D52069012808D110E02069AE
:103E1000B0B1C6F80090FFF791F8074605E00AE157
:103E2000FFF78CF8C01B0228C4D828688007F7D594
:103E30002868616920F0F80040EAC10028600DE0C0
:103E4000C6F80080FFF77AF8074604E0FFF776F837
:103E5000C01B022823D828688007F7D420780007E1
:103E60002CD57948A169D9B1C0F80090FFF766F860
:103E7000074604E0FFF762F8C01B02280FD8686A03
:103E80008007F7D571484FF4FA510068B0FBF1F0A4
:103E9000009000BF0098411E0091FAD20EE080E031
:103EA000C0F80080FFF74AF8074604E0FFF746F83D
:103EB000C01B022875D8686A8007F7D420784007AD
:103EC00060D5E8690027C00008D4E86940F0805058
:103ED000E861E869012700F0805000905C480168C3
:103EE000C90513D40168834641F480710160FFF76E
:103EF00025F8824606E000BFFFF720F8A0EB0A0095
:103F000064284ED8DBF80000C005F5D5E06801282C
:103F10000AD008B1052813D0286A20F001002862D1
:103F2000286A20F0040002E0286A40F001002862BC
:103F3000E06841F2883B98B1FFF700F882460BE059
:103F4000286A40F004002862EEE700BFFEF7F6FFA3
:103F5000A0EB0A0159455AD8286A8007F6D50CE02B
:103F6000FEF7ECFF824605E0FEF7E8FFA0EB0A0152
:103F700059454CD8286A8007F6D41FB1E86920F06B
:103F80008050E861E06988B36968C1F38101022962
:103F900044D00228C6F8608004D0FEF7CFFF044664
:103FA00038E034E0FEF7CAFF074604E0FEF7C6FF3C
:103FB000C01B02282BD828688001F7D4206AB0F5EE
:103FC000803F05D16868A16820F40030084368602C
:103FD000D4E908010843696821F474110843686052
:103FE000C6F86090FEF7AAFF044606E025E000BF91
:103FF000FEF7A4FF001B022809D828688001F7D526
:104000001BE000BFFEF79AFF001B022802D9032025
:10401000BDE8F88F28688001F4D40EE00128F7D0BD
:104020006868226A00F48031914204D1616A00F428
:104030007010884201D00120EAE70020E8E7000084
:104040000010024000004242800442424002002030
:104050000070004070B5040009D0606A002540B1CE
:1040600025616561A56294F8510040B10CE0012022
:1040700070BD6068B0F5827FF4D0E561F2E784F846
:104080005050204600F040F8022084F8510020688B
:10409000016821F040010160A088218900F482704C
:1040A00001F404410843A18901F400610843217C23
:1040B00001F002010843217D01F001010843218B39
:1040C00001F400710843217F01F03801084394F89E
:1040D000201001F080010843218D01F400510843B4
:1040E00021680860A069042101EA10402168486045
:1040F0002068C16921F40061C1616565012084F80F
:104100005100002070BD000030B585B0002400943F
:1041100001940294039400681449884223D11448FE
:10412000816941F480518161816901F48051049178
:10413000816941F00401816180690E4D00F0040045
:104140000490A02000900220019003200390694673
:104150002846FEF70DFE4020CDE9000469462846BA
:104160000294FEF705FE05B030BD000000300140AE
:1041700000100240000801402DE9FF4F81B01D46AC
:10418000934604464FF001090E9EFEF7D7FE074600
:1041900094F851006168012806D0B1F5827F3CD1C6
:1041A000A168C9BB042838D10298002871D0BBF19E
:1041B000000FFBD0002DF9D094F8500001282CD02E
:1041C0004FF0010A84F850A094F85100042802D05E
:1041D000052084F851004FF00008C4F85480C4F85A
:1041E00038B0E587A58702992163E586A586C4F8DE
:1041F0004080C4F8448020680168490603D40168FF
:1042000041F040010160E068B0F5006F606808D0DF
:10421000F0B3012D49D081E0FFE7022005B0BDE8F1
:10422000F08F08B1012D39D1206B21680088C8605A
:10423000206B801C2063E08E401EE0862EE020680C
:10424000816889070FD5E18E69B1B9F1010F0AD1F3
:10425000216B0988C160206B801C2063E08E401EAA
:10426000E0864FF0000920688168C9070CD0E18F13
:1042700051B1C068A16B0880A06B801CA063E08F67
:10428000401EE0874FF00109FEF758FEC01B01E019
:104290000BE067E0B04201D3701C50D1E08E0028E3
:1042A000CDD1E08F0028CAD13EE0206B2168007894
:1042B0000873206B401C2063E08E401EE0862DE0DA
:1042C0002068816889070FD5E18E69B1B9F1010FC6
:1042D0000AD1216B09780173206B401C2063E08EAA
:1042E000401EE0864FF0000920688168C9070CD0A5
:1042F000E18F51B1C068A16B0870A06B401CA06336
:10430000E08F401EE0874FF00109FEF717FEC01B4B
:10431000B04202D3701C01D011E086B1E08E0028BB
:10432000CED1E08F0028CBD13A463146204601F06D
:1043300043F850B12020606584F8508012E084F882
:1043400051A084F85080032068E7A06818B920685D
:10435000C1688068009084F851A084F85080606D36
:104360000028F1D0012059E710B5401EB0F1807F40
:1043700001D3012010BD4FF0E02460610F216017D0
:1043800003F023FD0020A06107202061002010BD64
:10439000704710B504460068406994F84110C0F3B6
:1043A000C010212911D180B12068143050E8001FBD
:1043B00021F0800140E80012002AF5D1A06B08B17D
:1043C000FEF744FB204601F0D2FF2068406994F8D4
:1043D0004210C0F38010222911D180B1206814301E
:1043E00050E8001F21F0400140E80012002AF5D1FA
:1043F000E06B08B1FEF72AFB204601F091FF002098
:1044000010BD7047F8B5016804460868CA684B6972
:1044100010F00F0F4FF0000559D003F0010602F421
:104420009077374365D0C10705D0D10503D5616CBE
:1044300041F001016164410705D5D90703D0616CE2
:1044400041F002016164810705D5D90703D0616C91
:1044500041F004016164010707D502F020013143F6
:1044600003D0616C41F008016164616C00293AD0AD
:10447000800604D5900602D5204601F0A6FF2068EC
:104480004069616CC0F38010090700D460B3204616
:1044900001F046FF20684069400621D520681430AD
:1044A00050E8001F21F0400140E80012002AF5D139
:1044B000E06BA8B16D494163E06BFEF7EBFA0028B1
:1044C00011D0E06B416B01B0BDE8F04008478306B6
:1044D0000FD593060DD52046BDE8F84001F075BF15
:1044E0002046FFF78EFFF8BD2046FFF78AFF656480
:1044F000F8BD266B2023012E7CD1C6067AD5D606C0
:1045000078D508684868009048694FF00206400670
:1045100040D5E16B086840680004000CE8D0A28D2B
:104520008242E5D9E085886920282DD020680C30AA
:1045300050E8001F21F4807140E80012002AF5D1F4
:104540002068143050E8001F21F0010140E80012FB
:10455000002AF5D12068143050E8001F21F04001F6
:1045600040E80012002AF5D184F842302563206823
:104570000C3050E8001F21F0100140E80012002A22
:10458000F5D1E06BFEF762FA6663A08DE18D401A0B
:1045900081B22AE0A08DE18D401A81B2E08D002821
:1045A000A6D00029A4D022680C3252E8000F20F4D3
:1045B000907042E80007002FF5D12068143050E8D1
:1045C000002F22F0010240E80027002FF5D184F8E7
:1045D0004230256320680C3050E8002F22F0100292
:1045E00040E80023002BF5D166632046FFF7D0FE9C
:1045F000F8BDFFE705062BD5150629D594F841002F
:104600002128F5D1A068B0F5805F01D12069B0B153
:10461000206A411C2162216800784860E08C401EBD
:104620000004000CE084E3D12068C16821F080011F
:10463000C1602068C16841F04001C160D8E7206ACC
:104640000088C0F308004860206A801C2062E5E70B
:104650004006CDD55006CBD5CA68204622F0400290
:10466000CA6084F8413000F08BF9C1E7236200088A
:1046700070B5040004D094F84100002510B106E0A4
:10468000012070BD84F84050204600F023F824201B
:1046900084F841002068C16821F40051C1602046BF
:1046A00001F000FF2068016921F490410161206858
:1046B000416921F02A0141612068C16841F400513B
:1046C000C1606564202084F8410084F8420065637D
:1046D000002070BD2DE9F04186B0002400940194C3
:1046E000029403940646DFF810C103684348022190
:1046F0000322434D80274FF02008634538D183695A
:1047000043F480438361836903F4804304938369A2
:1047100043F0040383618069039200F00400049075
:104720000802CDE9000169462846FEF721FB28155D
:10473000CDE90004694628460294FEF719FB324D84
:104740003048C5E90004C5E902472C61C5E90548C0
:104750002846EC61FEF794FA08B1FDF7DDFAF5633F
:104760000022114625206E62FEF754FC25203DE014
:10477000DFF898C063453BD1C36943F40033C3619C
:10478000C36903F400330493836943F00403836132
:104790008069039200F0040004900420CDE9000138
:1047A00069462846FEF7E4FA0820CDE90004694688
:1047B00028460294FEF7DCFA134D124844351430B3
:1047C000C5E90004C5E902472C61C5E9054828464A
:1047D000EC61FEF755FA08B1FDF79EFAF563002289
:1047E000114626206E62FEF715FC2620FEF704FC1B
:1047F00006B0BDE8F0810000003801400010024022
:104800000008014058000240040E0020004400400F
:104810002DE9F84F044690F842009A4616460D4698
:10482000202802D00220BDE8F88FB5B1AEB100203B
:104830006064222184F842102063FEF77FFBA68586
:104840008146E685A0684FF480582027404501D175
:10485000206920B12E46002529E00120E3E700264B
:1048600025E04B46002220212046CDF800A001F093
:10487000BDFE18B184F842700320D4E726B1A068C9
:1048800040451AD038B108E020684068C0F30800FD
:1048900025F8020B08E0206978B12068406800F034
:1048A0007F0000BF06F8010BE08D401EE085E08D23
:1048B0000028D6D184F84270B5E720684068F1E757
:1048C00090F84230202B01D00220704721B11AB15C
:1048D0000023036301F042BE012070477047704718
:1048E0002DE9F843044690F84100984616460D46D7
:1048F000202802D00220BDE8F88385B17EB10020D7
:104900006064212084F84100FEF718FBA6848146EC
:10491000E684A0682027B0F5805F02D003E0012084
:10492000E9E7206910B12E4600250EE000260CE0D4
:104930008021204601F05AFEA8B9C6B116F8010B35
:1049400021684860E08C401EE084E08C4B464FF0CC
:104950000002CDF800800028EAD14FF04001204647
:1049600001F044FE40B184F841700320C3E735F8FC
:10497000020BC0F30800E3E784F841700020BAE7B7
:104980007047FEE770B51548FFF703FD13486FF059
:104990000E0102681160006840680122110210488F
:1049A000FEF7C6FA0F4D4FF4004400222146284678
:1049B000FEF7BEFA0A20FEF7C9F901222146284671
:1049C000FEF7B6FA3220FEF7C1F97F21034801F065
:1049D00061FDBDE87040642000F0DAB8BC0D002035
:1049E00000080140000C01407CB50446212000F085
:1049F000B9F8642000F0CCF808B101207CBD200E8D
:104A00008DF80000220C8DF80120210A8DF802108B
:104A10005040614048408DF804008DF80340052265
:104A200069460B4801F032FD642000F0B1F8094CF2
:104A300005460949B4F88C200548FFF741FF0448B2
:104A4000C16B19B108684068A4F8900028467CBD85
:104A5000BC0D0020040000205803002008B54420AD
:104A600000F080F84FF4FA7000F092F868B908A0EE
:104A70000322006800906946064801F007FD42F2F3
:104A8000107000F085F8002800D0042008BD000058
:104A9000FFFF0000BC0D00202DE9FC4114008846FA
:104AA000054659D0B4F5807F56D8112000F05AF849
:104AB000642000F06DF898BB280E8DF800002A0CD9
:104AC0008DF80120290A8DF80210504069404840B5
:104AD0008DF804008DF80350204801F08DFB05226D
:104AE00069461F4801F0D2FC642000F051F8B8B9C3
:104AF0001A4801F081FB651EE9B2194801F0CAFCB1
:104B0000E843C1B2164801F0C5FC642000F040F84B
:104B100030B9FEF713FA064600254FF4FA770EE097
:104B20001AE000BF08EB0501322301220C48FFF711
:104B30006FFE70B1FEF702FA801BB8420CD8A54296
:104B4000F0D3142000F024F8022805D00020BDE89E
:104B5000FC816D1CADB2F2E70720F8E704000020ED
:104B6000BC0D002008B56FF00E018DF80000C043A9
:104B70008DF8010005480268116000684068022253
:104B80006946024801F082FC08BD0000BC0D00200F
:104B900038B50546FEF7D2F904460CE0322301226F
:104BA00069460A48FFF734FE28B99DF800007928C5
:104BB00008D01F2808D0FEF7C1F9001BA842EDD38A
:104BC000032038BD002038BD022038BDBC0D0020B8
:104BD0002DE9FC4115000E4604464AD0B5F5807F0C
:104BE00047D8680745D1600743D13120FFF7BAFFA6
:104BF0006420FFF7CDFFE0BB200E8DF80000220CF3
:104C00008DF80120210A8DF8021050406140484083
:104C10008DF804008DF80340174801F0EDFA0522E5
:104C20006946164801F032FC6420FFF7B1FF00BB73
:104C3000681EC7B23C46002003E0315C4C40401C7B
:104C400080B2A842F9D30C4801F0D6FA39460B4895
:104C500001F020FC2A463146084801F017FC2146A5
:104C6000064801F017FC4FF4FA70FFF791FF002897
:104C700000D00520BDE8FC8104000020BC0D002010
:104C8000F0B500230A24302537261F4611E000BF67
:104C9000B4EB107F02D905EB107C01E006EB107C31
:104CA00001F813C001EB430C00015B1C8CF8017090
:104CB000DBB29342ECD3F0BD3EB500241148009422
:104CC000019402940E498460016004730475012507
:104CD00005614FF460214460C161FDF7D5FC08B166
:104CE000FDF71AF81120CDE9000569460294054840
:104CF000FDF748FC002801D0FDF70EF83EBD00008E
:104D000000240140EC0C00200D4808B5416941F039
:104D1000010141614069002200F00100009011464C
:104D20000F20FEF777F90F20FEF766F900221146F3
:104D30001020FEF76FF9BDE808401020FEF75CB9BF
:104D4000001002402DE9F04786B00024314800945D
:104D5000019402940394816941F010018161816999
:104D600001F010010491816941F0200181618169A4
:104D700001F020010491816941F0040181618169A0
:104D800001F004010491816941F0080181618069A9
:104D9000DFF8848000F008004FF4005504900022F2
:104DA00029464046FEF7C4F8DFF870904FF4887744
:104DB000002239464846FEF7BBF8DFF864A001221E
:104DC00048F608415046FEF7B3F8002247F230019A
:104DD0005046FEF7ADF80095022601250396CDE971
:104DE000015469464046FDF7C3FF00970396CDE99D
:104DF000015469464846FDF7BBFF4FF63840CDE900
:104E00000005CDE9024669465046FDF7B1FF06B000
:104E1000BDE8F0870010024000100140000801408A
:104E2000000C0140104810B50E4901604FF482712A
:104E3000416000218160C1604FF400720161C0E9EE
:104E400005121022C0E90721416281620A21C16274
:104E5000FFF700F9002803D0BDE81040FCF75CBF65
:104E600010BD0000003001401C0D00200C4810B5A2
:104E70000A4901604FF4E1314160002181600C2258
:104E8000C160C0E904128161C161FFF7F1FB002834
:104E900003D0BDE81040FCF73FBF10BD0038014013
:104EA000740D00200C4810B50A4901604FF4E1313F
:104EB0004160002181600C22C160C0E9041281615F
:104EC000C161FFF7D5FB002803D0BDE81040FCF717
:104ED00023BF10BD00440040BC0D002010B50022CF
:104EE0000F49104801F0A0FE08B1FCF715FF0E496C
:104EF0000C4802F07CF808B1FCF70EFF0B4909489A
:104F000001F09EFC08B1FCF707FF064802F0C4F868
:104F1000002803D0BDE81040FCF7FEBE10BD000025
:104F2000D4010020201100202003002024020020B2
:104F3000FEE7FEE72DE9F84F044640F68F7B48F682
:104F40000F794FF480684FF0000ABDE1B0F84410CB
:104F500011F00F0539D030F8256031047ED530F8D6
:104F6000251001EA0B0141F0800120F8251005EB26
:104F7000850004EBC00797F85C0107F5A8770028C7
:104F80006DD0F87802286BD03978226832F8210089
:104F900048F68F73184048F2C003184322F82100E6
:104FA0003978206830F82120B0F8503052047DD58F
:104FB000022202EBC1015A1808EB4201415A89054D
:104FC000890D009173D03A89DDE0C9062BD40188A0
:104FD00001EA090141F400410180206804F1100553
:104FE000B0F85030217C022202EBC1015A1808EBC4
:104FF0004201405AC0F30900E062616A08446062FD
:1050000000212046FEF757F8607B00289DD0A86954
:1050100000289AD1607B216840F08000A1F84C0004
:1050200084F80DA050E1018804F5A8750A0521D582
:10503000B0F850202B78062101EBC3010A4408EB9D
:105040004201405A04F52671C0F30903EB61EA8876
:10505000206802F04FFE2068018802E0AEE06EE0BA
:105060007EE001EA0B0141F0800101802046FEF75D
:105070008BFC29E10904D5D5018801EA0B0141F037
:10508000800101802068B0F850202B78062101EBC8
:10509000C3010A4408EB4201405A83059B0DEB61B2
:1050A00010D0696971B1EA88206801E05FE05DE0D5
:1050B00002F020FEE9696869084468610021204621
:1050C000FEF702F8216808880205ABD4C0F301306E
:1050D0000328A7D0B1F850000844B0F80C14C1F36D
:1050E0000901A0F80C142A6900F20C403E2A09D9E3
:1050F0005109D20600D1491E02884FF4004343EA09
:10510000812109E0B2B15108D20700D0491C0288C0
:105110004FF6FF7303EA81210A4302802168088861
:105120004BF68F72104080F4405048F280021043DA
:105130000880C9E0018841F400410180EEE7206861
:10514000B0F850203B78062101EBC3010A4408EB7C
:105150004201415A8905890D009118D0FA8812E060
:10516000324639462046FEF70BF800900FE0062243
:1051700002EBC1015A1808EB4201415A8905890D19
:10518000009104D07A897969009B02F0B3FDF86937
:1051900000990844F8617969009808447861B86911
:1051A00018B139690098814204D939782046FDF751
:1051B0008BFF03E03946206802F012FB30062ED543
:1051C00005EB850004EBC001206830F8252002EAD9
:1051D000090242F4004220F82520C87C1031012841
:1051E0001ED0F0056CD42068B0F850300D78022243
:1051F00002EBC5021A4408EB4202805A8A69C0F3E6
:105200000900824255D9121A8A6154D04A6902446F
:105210004A61CA691044C861206802F0E1FA53E0AB
:10522000C1F818A0087B524608B3700620D548780C
:1052300010B1012812D03AE02068B0F85020104494
:105240000A7800EB0210B0F80424C2F30902A0F8B7
:105250000424B0F8042442F4004206E02068B0F8C8
:10526000503018440B7800EB0310A0F804241EE023
:105270004B78206813B1012B11D018E0B0F8502002
:1052800010440A7800EB0210B0F80C24C2F30902B3
:10529000A0F80C24B0F80C2442F4004205E0B0F869
:1052A000503018440B7800EB0310A0F80C24097858
:1052B00002E0C1F818A0E9B22046FDF7FCFE03E0C9
:1052C00032462046FDF7CFFF2068B0F844100904AD
:1052D0003FF53CAE0020BDE8F88F7047FF220C215F
:1052E0000148FBF71FB80000DF0C002030B5CBB041
:1052F0000C2248A92448FFF7CFFB002841D10C22FB
:10530000224948A8FAF77EFF00283AD01F4948985A
:105310000860499A4A604A9A8A60002101238DF800
:105320001031CDF811014998CDF815014A98CDF802
:10533000190148AA0846135C401C5940C0B20C2809
:10534000F9D38DF81D1100208DF81E018DF81F0175
:105350001020009044AB0022242101A8FCF719FD85
:105360000546FDF7EBFD044605E000BFFDF7E6FD51
:10537000001B322805D8294601A8FCF783FB012829
:10538000F4D04BB030BD00009075FF1FDF0C002043
:1053900001B582B000208DF804004FF47A700090BF
:1053A000012301AA02A90348FEF7E6FE9DF80400C6
:1053B0000EBD00001C0D0020F8B515460E460B462C
:1053C000009204460122022100F010F840B9334651
:1053D000002280212046009500F008F8002804D023
:1053E000606D40F0200060650320F8BD2DE9F843B2
:1053F0001E46914688460446089DFDF79FFD401BCA
:10540000351AFDF79BFD074625480068C0F3CB30F1
:10541000684338E0701C37D0FDF790FDC01BA842F0
:1054200003D215B1009860B32CE02068416821F0E8
:10543000E00141606068B0F5827F0BD1A068B0F5F3
:10544000004F02D0B0F5806F04D12068016821F0D0
:1054500040010160A06AB0F5005F09D120680168D1
:1054600021F4005101602068016841F4005101609D
:10547000012084F85100002084F850000320BDE88A
:10548000F8830025401E00902068816838EA0100FA
:1054900004D000214945BDD10020F0E70121F9E702
:1054A000400200207047FDF74FBD30B593B0282172
:1054B0006846FAF761FF14210AA8FAF75DFF002495
:1054C00001200F9410941194010412948DE813009C
:1054D00004904FF4E010CDE90810022507956846C6
:1054E000FEF728FC08B172B6FEE70F20CDE90A05E9
:1054F0004FF48060CDE90C4002210AA80E94FEF71B
:105500003DFB08B172B6FEE712200F904FF4004049
:10551000CDE911040FA8FEF7BBFA002801D072B63E
:10552000FEE713B030BD70470D4908B5087828B1C3
:1055300004280CD005280ED0012008BDC820002268
:10554000009001231146202000F05AFB08BDBDE861
:10555000084000F045BB0022D1F80C010A7008BDDC
:10556000A00700200D4908B5087828B104280CD000
:1055700005280ED0012008BDC8200022009001237C
:105580001146132000F03CFB08BDBDE8084000F0C8
:1055900027BB0022D1F80C010A7008BDA00700202B
:1055A0000D4908B5087828B104280CD005280ED07C
:1055B000012008BDC82000220090012311461620BA
:1055C00000F01EFB08BDBDE8084000F009BB00224A
:1055D000D1F80C010A7008BDA00700200D4908B5DC
:1055E000087828B104280CD005280ED0012008BD69
:1055F000C8200022009001231146122000F000FB79
:1056000008BDBDE8084000F0EBBA0022D1F80C015B
:105610000A7008BDA007002038B5154B1D7835B1BC
:105620000024042D0CD0052D1DD0012038BD3220C2
:105630000022009003231146502000F0E1FA38BD0B
:105640001C70B3F80841032C0AD308B19C7804708D
:1056500009B1D87808700AB118791070002038BDE7
:105660006FF0010038BDD3F80C011C7038BD00008C
:10567000A007002010B5FDF761FC0549C968401A74
:10568000B0F5FA7F01D2012010BD002010BD00004E
:105690003401002010B518292DD30188174C4ABABF
:1056A00015490A80428852BA4A80828852BA8A8052
:1056B000C28852BACA80028952BA0A81428952BA51
:1056C0004A81828952BA8A81C28952BACA81028ABF
:1056D00052BA0A82428A037D52BA120442EA032273
:1056E000437D1A434A61C08A40BA08830120207072
:1056F000FDF724FCE06010BD840700203401002089
:1057000070B50B4800F078FD0A4C01204FF40B7186
:10571000A0800948FAF730FE074800251C210570D3
:105720001C38FAF729FE2570A570E58070BD0000D1
:105730000400002034010020A00700202DE9F04FD4
:105740009A4F85B07878B8B9994CE06BA0B10068F1
:105750000068C00710D121686FF00E000860954DF9
:1057600095492046B5F88C20FFF7AAF8E06B18B1F0
:1057700000684068A5F89000904C207860B3042839
:1057800027D0052825D000264FF0010A4FF0030B43
:10579000022826D001282CD003281AD1FDF7CEFBF1
:1057A000D4F810114FF6FF794FF00508884265D9FB
:1057B00094F81401401CC0B284F8140194F8151137
:1057C00088423BD2FDF7BAFB401DC4F8100102200D
:1057D000207005B0BDE8F08F05B0BDE8F04F00F0D7
:1057E0005FB9FDF7ABFBD4F810118842F1D384F810
:1057F00000A0B4F8040118B100906178A31C02E085
:10580000009661780023BA886D48FCF707FB0546CF
:10581000684800F0F1FC2A466949654800F036FE08
:10582000FDF78CFBD4F818110844C4F8100184F873
:105830001C61A4F8266284F800B0CAE74FF0FF307C
:105840009DE0012000E0401CB880C2E75D4894F86C
:105850001C1100F209150A2910D2DFE801F0051029
:105860002029313A4256646C9DF80820A52A05D1BA
:1058700029884B1C2B80425484F81CA18EE09DF893
:1058800008205B2A07D129884B1C2B804254022018
:1058900084F81C0182E02E8084F81C617EE0298857
:1058A0009DF808304A1C2A80435484F81CB175E0E6
:1058B00029889DF808304A1C2A8043540420E7E7D1
:1058C0002A889DF80830511C2980835484F81C8153
:1058D00064E029889DF808304A1C2A804354062039
:1058E000D6E729889DF808304A1C2A80435440791D
:1058F0009DF8081041EA0020A4F82802B4F8061127
:105900008842C8D868B10720C2E729889DF80830C6
:105910004A1C2A804354B4F828022988C01D8142B9
:105920003CD30820B4E729889DF808304A1C2A8017
:1059300043540920ACE729889DF808304A1C2A8086
:1059400043541E4903AA891CCDE90012298800236B
:1059500004AAFCF713FB00289DD061789DF8100085
:10596000814208D1BDF80C00A4F808010420C4F855
:105970000C61207007E030280AD06FF00100C4F8F5
:105980000C0184F80080B8884845FFF45CAF58E704
:10599000BDF80C10A01CFFF77DFE7CE702A90548AE
:1059A00000F0F3FC00287FF451AF12E7340100202F
:1059B000BC0D00200400002058030020A007002098
:1059C000CC090020BD080020134908B50B7833B17D
:1059D0000022042B0CD0052B19D0012008BDC820B3
:1059E0000022009010231146342000F009F908BD70
:1059F0000A70B1F80821102A06D318B11022891CA8
:105A0000FAF74BFC002008BD6FF0010008BDD1F88B
:105A10000C010A7008BD0000A00700200D4908B560
:105A2000087828B104280CD005280ED0012008BD24
:105A3000C8200022009001231146142000F0E0F855
:105A400008BDBDE8084000F0CBB80022D1F80C0139
:105A50000A7008BDA00700200D4908B5087828B1D4
:105A600004280CD005280ED0012008BDC820002233
:105A7000009001231146152000F0C2F808BDBDE8D2
:105A8000084000F0ADB80022D1F80C010A7008BD42
:105A9000A007002001494870704700003401002031
:105AA00070B54B4D86B06878002872D1002602A9E7
:105AB000484800F06AFC00286BD0454CA97846485D
:105AC000A41D0A29F3D2DFE801F0050F1D252D35AD
:105AD0003D4F5C659DF80820A52AE8D121884B1C24
